:020000021000EC
:10F000000000012033F10100D9F0010019FC0100DA
:10F01000DDF00100DFF00100E1F001000000000080
:10F02000000000000000000000000000E3F001000C
:10F03000E5F0010000000000E7F00100E9F0010048
:10F04000EBF00100EDF00100EFF00100F1F0010044
:10F05000F3F00100F5F0010075FA0100F9F001008C
:10F06000FBF00100FDF00100FFF0010001F10100E3
:10F0700003F1010005F1010007F1010009F10100B0
:10F080000BF101000DF10100490D020011F1010029
:10F0900013F1010015F1010065FC010019F10100F7
:10F0A0001BF101001DF101001FF1010021F1010020
:10F0B00023F1010025F10100000000000000000024
:10F0C00027F1010029F101002BF101002DF10100D0
:08F0D0002FF1010031F10100F4
:10F0D800FEE7FEE7FEE7FEE7FEE7FEE7FEE7FEE700
:10F0E800FEE7FEE7FEE7FEE7FEE7FEE7FEE7FEE7F0
:10F0F800FEE7FEE7FEE7FEE7FEE7FEE7FEE7FEE7E0
:10F10800FEE7FEE7FEE7FEE7FEE7FEE7FEE7FEE7CF
:10F11800FEE7FEE7FEE7FEE7FEE7FEE7FEE7FEE7BF
:10F12800FEE7FEE7FEE7FEE7FEE70348854609F04F
:10F13800F7FD00F003B87047000001203549364854
:10F148000A1A02D0072291438D46344934480A1AD4
:10F1580006D00722914381F30988022282F314889A
:10F1680030483149314A00F043F831483149324A90
:10F1780000F03EF831483249324A00F039F8324856
:10F188003249334A00F034F832483349334A00F000
:10F198002FF833483349344A00F02AF833483449C1
:10F1A800344A00F025F834483449002200F02BF89E
:10F1B80033483449002200F026F833483349091A05
:10F1C800082903DB00220260043001601F4820493F
:10F1D800884205D00268043003B4904703BCF7E7BF
:10F1E80000208646EC4600200021294A9047FEE789
:10F1F800884207D0521A05D0037801300B700131CC
:10F20800013AF9D17047884202D002700130FAE71A
:10F21800704700000000012000FC002000000120D1
:10F228000000012058C30200D822002040230020FB
:10F238009CF201009CF2010070B1020058C3020068
:10F24800D8220020D822002070B1020070B102003C
:10F2580070B1020070B1020070B1020070B102001A
:10F2680070B1020070B1020058C30200C0C30200AE
:10F27800402300204023002040230020CC4B0020C6
:10F28800CC4B0020CC4B0020CC4B0020CC4F002096
:04F2980081F30100FD
:10F29C00F0B5A7B04FF0A0444FF40036C4F80865A1
:10F2AC000025C4F80C55027A43788178C77890F819
:10F2BC0004E090F805C080790490CDF80CC0CDF82E
:10F2CC0008E001970091054906A80BF059FCC4F819
:10F2DC000C65C4F8085527B0F0BD00BF2CB2020075
:10F2EC0008B50748072343724FF47A73036040F262
:10F2FC004C4343600223037201F04EF808BD00BF7B
:10F30C004023002070B582B0272101A804F0EAFF49
:10F31C0000BB019BE3B124225A70019E124C0FCC0E
:10F32C00C6F80900C6F80D10C6F81120C6F815303D
:10F33C0007CCC6F81900C6F81D10C6F82120238882
:10F34C00A6F82530FF223146084801F0E1F830B923
:10F35C0002B070BD064A6A2100F00AFCD9E7019898
:10F36C0005F064F8F4E700BF74B1020040230020FC
:10F37C0058B2020000B587B0112307E003F5E07125
:10F38C0003204FF0A04242F821000133142BF5D991
:10F39C00112306E001229A404FF0A041C1F8082544
:10F3AC000133142BF6D9464A052144F2011003F01F
:10F3BC009BFB444B1B6813F4804F0DD0424B1B68D6
:10F3CC00032B09D9414BD3F80435414A00928722CB
:10F3DC004049042003F0A4FB3A4B1B6813F4804F04
:10F3EC000DD0394B1B68032B09D9384BD3F8043596
:10F3FC00394A009289223749042003F091FB374B9C
:10F40C001868059000F0ACFC2E4B1B6813F4804F71
:10F41C000DD02D4B1B68032B09D92C4BD3F804357D
:10F42C002F4A009292222B49042003F079FB0023EF
:10F43C000493059B02932B4B039302A804F036FA1A
:10F44C00002832D1284804F0AFFBFFF749FFFFF743
:10F45C0059FF1C4B1B6813F4804F0DD01A4B1B68C3
:10F46C00032B09D9194BD3F80435204A00929F225B
:10F47C001849042003F054FB04F072FAD0B9114B74
:10F48C001B6813F4804F0DD00F4B1B68032B09D94D
:10F49C000E4BD3F80435164A0092A2220D490420D3
:10F4AC0003F03EFB04F082FAFCE7124A972100F0CD
:10F4BC005FFBC7E70F4AA02100F05AFBDFE700BF54
:10F4CC00C92A0200DC220020D822002000B0004013
:10F4DC0094B1020097B20200C0B1020070B10200F8
:10F4EC00DCB10200CDFB01009DF20100F8B102007D
:10F4FC0010B2020058B2020002460E4B1B6813F009
:10F50C00010F0AD00C4B1B8898420FD30A48408835
:10F51C0003449A420CDB002300E00023184623B17D
:10F52C004A8001230B7000234B6070470023F5E7E2
:10F53C000123F3E724240020382500204FF6FF7325
:10F54C000B8000230F2B22D810B407E0114A32F89D
:10F55C00232082420ED001330F2B14D85A090E4CA3
:10F56C0054F8222003F01F04E24012F0010FEDD1F9
:10F57C000B80F0E7074A02EB8302D278002AEAD02C
:10F58C000B80012000E000205DF8044B7047002048
:10F59C00704700BF2C2400202024002030B583B0FD
:10F5AC0005460C460DF10601FFF7C8FF034620B1D6
:10F5BC0065800322227000226260184603B030BDC1
:10F5CC000B88072B01D8013300E000234FF6FF72A4
:10F5DC000A80072B1ED810B409E003EB8304A200A9
:10F5EC000D4CA25A82420ED00133072B0ED85A0969
:10F5FC000A4C54F8222003F01F04E24012F0010FD1
:10F60C00EBD10B80F0E70B80012000E000205DF8CF
:10F61C00044B704700207047B0260020282400209F
:10F62C0010B5044628B10F4B9C420AD24FF6FF701E
:10F63C0010BD78460C4B1B680BB19847F3E700DE06
:10F64C00F1E703F58A739C4202D94FF6FF7010BDA7
:10F65C00A3F58A70201A054CA4FB0030C0F38F1060
:10F66C0010BD00BF52250020A82E0020C94216B2A2
:10F67C0010B5044628B10F4B9C420AD24FF6FF70CE
:10F68C0010BD78460C4B1B680BB19847F3E700DEB6
:10F69C00F1E703F58A739C4202D94FF6FF7010BD57
:10F6AC00A3F58A70201A054CA4FB0030C0F38F1010
:10F6BC0010BD00BF7C250020A82E0020C94216B228
:10F6CC0010B5044658B1144B9C4202D39A339C4259
:10F6DC000DD9124B9C4213D24FF6FF7010BD7846D9
:10F6EC000F4B1B680BB19847EDE700DEEBE7A3F17E
:10F6FC009A00201A0B4CA4FB0030C0F30F1010BD65
:10F70C0002D94FF6FF7010BDE01A064CA4FB003076
:10F71C000009083080B210BD74240020242500207C
:10F72C00A82E0020A38B2EBAA8B110B40446002337
:10F73C006BB9162202FB03F208498A5A944201D093
:10F74C000133F5E7162202FB0313181D00E000201D
:10F75C005DF8044B70470020704700BF2025002047
:10F76C0070B505460E461446106818B1FFF7A8FF91
:10F77C00013002E0002000E0013007281FD84309C7
:10F78C00104A52F8233000F01F02D34013F0010F3F
:10F79C00F2D016230C4A03FB00235B88AB42EBD15F
:10F7AC00162303FB00235B79734013F03F0FE3D167
:10F7BC001622054B02FB00330433236070BD00237B
:10F7CC00236070BD6C2400207024002070B50646A8
:10F7DC000D464FF6FF730B8000240BE004EB840204
:10F7EC009300104818441022314604300BF0A8F94D
:10F7FC0098B10134072C13D863090B4A52F8233003
:10F80C0004F01F02D34013F0010FE7D12A884FF602
:10F81C00FF739A42EDD12C80EBE72C80012070BD58
:10F82C00002070BDB02600202824002030B583B005
:10F83C0005460C46486820B10DF10601FFF7C6FFDE
:10F84C0018B94FF6FF73ADF806300DF106012846D6
:10F85C00FFF7B6FE0246A8B1BDF8063003EB8303F2
:10F86C0099000B4B0B44DB787BB165800223237032
:10F87C00BDF8061001EB810101FA03F0044B0344BF
:10F88C0004336360104603B030BD0022FAE700BFBA
:10F89C00B026002038B504460D4629B1286858B169
:10F8AC00FFF7BEFE01300AE07846154B1B680BB122
:10F8BC009847F3E700DEF1E7002000E00130032871
:10F8CC001BD843090F4A52F8233000F01F02D340D3
:10F8DC0013F0010FF2D05C230B4A03FB00239B7C3B
:10F8EC00634013F07F0FE9D15C2303FB00F0103071
:10F8FC001346034402332B6038BD00232B6038BD04
:10F90C00A82E00203C2500204025002070B5044680
:10F91C000E46154662B19CB12046FFF781FE4FF6AC
:10F92C00FF73984214D02A463146FFF719FF70BD79
:10F93C007846094B1B680BB19847ECE700DEEAE709
:10F94C007846054B1B680BB19847E5E700DEE3E70B
:10F95C0000232B6070BD00BFA82E002038B50546D3
:10F96C000C4621B12846FFF7DFFE206038BD7846F3
:10F97C00034B1B680BB19847F4E700DEF2E700BFBE
:10F98C00A82E002070B505460E4629B1306858B136
:10F99C00FFF76EFE441C19E07846214B1B680BB137
:10F9AC009847F3E700DEF1E700240FE0012100E0C7
:10F9BC0001211C4B5C2202FB04F41A1982F83C1046
:10F9CC00383423440433336070BD0134032C24D801
:10F9DC006309154A52F8233004F01F02D34013F088
:10F9EC00010FF2D065B15C2101FB04F150310D4BDC
:10F9FC0019440822043128460BF0A2F80028E4D15F
:10FA0C000A4B1B78002BD3D05C2303FB04F3054A71
:10FA1C00D35A002BCAD00021CBE70023336070BD32
:10FA2C00A82E0020402500203C2500203625002053
:10FA3C0038B504460D4604F0D3F802280FD003283D
:10FA4C0008D0012801D0002038BD29462046FFF7F8
:10FA5C0053FD38BD29462046FFF7A0FD38BD294689
:10FA6C002046FFF7E3FE38BD10B500241D4BC3F84C
:10FA7C007C410CE01C4AD2F80425D21A41F69A13A8
:10FA8C009A4294BF002301231FE00134E4B2032CFB
:10FA9C0027D84FF0A043D3F8102504F10D01012312
:10FAAC008B409343F1D0114B1B680F4AD2F80425BD
:10FABC009A1A002ADEDB0C4AD2F804259B1A41F66E
:10FACC009A12934294BF00230123002BDDD0064BE6
:10FADC00D3F80425054B1A60054B1B682046984744
:10FAEC00D3E710BD0060004000B000405427002058
:10FAFC005027002048DF704710DF704760DF7047E9
:10FB0C0061DF70474FF0A0434FF4F012C3F80825A3
:10FB1C00C3F80C25EFF3108372B60028FDD17047A3
:10FB2C0010B584B00C460D4B1B6813F4804F02D0FB
:10FB3C000B4B1B6823B92046FFF7E4FF04B010BD44
:10FB4C00084BD3F80435039202910190064A0092B7
:10FB5C0067220649012002F0E3FFECE7DC220020DB
:10FB6C00D822002000B0004094B3020085B30200FC
:10FB7C0000B585B00D4B1B6813F4804F02D00C4BB5
:10FB8C001B682BB90120FFF7BDFF05B05DF804FB26
:10FB9C00084BD3F80435039002910192064A009267
:10FBAC0040220649012002F0BBFFEBE7DC220020DB
:10FBBC00D822002000B00040B0B2020085B3020091
:10FBCC0010B582B004460C4B1B6813F4804F02D066
:10FBDC000A4B1B6823B92046FFF794FF02B010BDF7
:10FBEC00074BD3F804350190064A00924622064989
:10FBFC00012002F095FFEEE7DC220020D822002045
:10FC0C0000B00040D0B2020085B3020000B583B052
:10FC1C000C4B1B6813F4804F03D00B4B1B68032B4E
:10FC2C0005D80120FFF76EFF03B05DF804FB074B0E
:10FC3C00D3F80435064A00924C220649042002F0FF
:10FC4C006FFFEEE7DC220020D822002000B000403D
:10FC5C00A0B2020085B3020000B583B002E00198A7
:10FC6C0003F09CFF01A8FFF745FF0028F7D04F23B6
:10FC7C00ADF8023005E0084803F08EFF4F23ADF8D5
:10FC8C0002300DF102010448FFF73AFF0028F2D0D0
:10FC9C0003B05DF804FB00BF5827002010B584B0FA
:10FCAC000446274B1B6813F4804F03D0254B1B686D
:10FCBC00032B2CD8244B0393039B0293204B1B68E0
:10FCCC0013F4804F03D01F4B1B68032B2AD802A9B7
:10FCDC002046FFF713FF0446029A039B9A4213D067
:10FCEC00174B1B6813F4804F0ED0164B1B68012B5F
:10FCFC000AD9164BD3F804350192154A00927B228F
:10FD0C001449022002F00CFF204604B010BD0F4B2A
:10FD1C00D3F80435104A00926D220E49042002F0EB
:10FD2C00FFFEC7E7094BD3F80435039A01920B4A3F
:10FD3C00009276220749042002F0F2FEC7E700BFCA
:10FD4C00DC220020D8220020D822002000B0004065
:10FD5C0018B3020085B30200ECB2020008B3020033
:10FD6C0000B58BB00AAB43F8240D24491846FFF7B5
:10FD7C00C3FEF0B9224B93F816335B09012B1FD944
:10FD8C00042B1FD0052B19D00123EBB942F2020032
:10FD9C0050BB002303930493059306930793089396
:10FDAC00099303A8FFF77AFF18BB00200BB05DF88E
:10FDBC0004FB144A8221FFF7DBFEDBE70023E4E7B8
:10FDCC000023E2E70023E0E70F4B9B682BB94FF4CD
:10FDDC0080020B4B1A600020DAE70B4A136843F4DD
:10FDEC00800313600020D3E7064A8321FFF7C0FE8F
:10FDFC00CFE7044A8621FFF7BBFED6E72DFB0100B7
:10FE0C0000E100E054B30200A82700200BE02422FC
:10FE1C00094B1A70094B1B78074A1278253A134183
:10FE2C0013F0010F07D1044B1B78272BEFD00133B4
:10FE3C00014A1370EEE77047BC270020C027002052
:10FE4C00024603785B08032B2AD8DFE803F0020292
:10FE5C001C22837903F0C003C02B23D0002093799C
:10FE6C0003F03F0351790B4411790B44D1780B44C7
:10FE7C0091780B445278134420B1DBB140F23A52E2
:10FE8C00934215D07047837913F0C00F0CD000202B
:10FE9C00E5E7837903F0C003802B07D00020DEE771
:10FEAC000020DCE70120DAE70120D8E70120D6E7C3
:10FEBC00002070470020E5E700B587B002238DF8DD
:10FECC000C30282104A804F00DFAA8B1144B1B68BF
:10FEDC0013F0010F0DD0134B1B68012B09D9124BDA
:10FEEC00D3F80435114A009280221149022002F005
:10FEFC0017FE07B05DF804FB0E4B1B788DF8143021
:10FF0C0006A9012341F8103D03A804F025FB10B904
:10FF1C0004F098FBEDE7049804F088FAE9E700BFD9
:10FF2C00DC220020D822002000B00040D4B4020013
:10FF3C00C6B40200BC27002008B5034B1B7803B9DC
:10FF4C0008BDFFF7B9FFFBE7BB27002008B501226E
:10FF5C00034B1A70FFF75AFFFFF7AEFF08BD00BF47
:10FF6C00BB27002001B9704710B5044604F05EFAB7
:10FF7C002146064800F0FEFE30B17846044B1B6863
:10FF8C000BB1984710BD00DE10BD00BFA1FF0100F2
:10FF9C00A82E002010B58CB00446302200216846F3
:10FFAC000AF02EFE01238DF800300194684600F013
:10FFBC00A7FF0CB010BD000030B585B00446B1B140
:10FFCC001D4604F0F7FD01908DF80850234613F8F8
:10FFDC00032BC2F380128DF80920CDF80A30054BA3
:10FFEC009B6801AA01212046984705B030BD04F05A
:04FFFC001DFAFAE709
:020000022000DC
:10000000C0270020037803F0CF036FF3C7130370FA
:10001000002383700A7A037862F30303037091F874
:10002000D430C3F34003027863F38612034603F827
:10003000032B51F8D52FC0F803208A889A80704787
:100040002DE9F0478EB004AF05460C4616463E4BF0
:100050001B6813F0010F03D03C4B1B68032B02D825
:1000600000233B6033E0E84690B00DF11009CC4628
:10007000002315E0EA18527A59004FEA121ADFF805
:10008000E0E0DEF8000010F80A000CF8130001317F
:1000900002F00F02DEF80000825C0CF80120013350
:1000A0001E2BE7D9002389F83E30294BD3F80435BD
:1000B000CDF80890274A0192274A009240F2251273
:1000C0002649042002F032FDC546C9E70133022B60
:1000D00019D822781A4112F0010FF7D03968480078
:1000E0000844820007F128000244002002F8240C92
:1000F00042F8205C02F81B6C03F1250002F81C0C8E
:1001000001313960E2E73946381D04F02BFA04F07A
:100110009FFA002302E0013939600133022B0ED827
:10012000227842FA03F111F0010FF6D03968002964
:10013000F1D10121994022EA01022270EDE728372E
:10014000BD46BDE8F08700BFDC220020D822002099
:1001500000B000407CB4020088B40200C6B40200C3
:10016000E022002070B584B00C46614B1B6813F090
:10017000010F03D05F4B1B68042B1ED8002384F8AB
:10018000DC3094F8A830FF2B23D0002394F8A8206B
:1001900002B163B3D4F8A40020B104F04DF90023F8
:1001A000C4F8A43004F1A40104F1100000F021FF10
:1001B000C0B10023C4F8C83058E04F4BD3F8043521
:1001C0004E4A00924FF4A6724D49052002F0AEFC53
:1001D000D4E704F1100000F06EFF08B90123D5E761
:1001E0000023D3E72146D4F8A400FFF70BFF637A7E
:1001F0002BB97846434B1B68002B39D09847637A5C
:100200008DF80F3094F8A850012D14BF0026012658
:10021000374B1B6813F0010F03D0364B1B68042BC0
:1002200028D832460DF10F01D4F8A400FFF708FFDB
:100230009DF80F3043B194F8A830FF2B04D0013B58
:1002400084F8A830012D29D094F8A83053B30123A5
:1002500084F8DC30626823689A4238D8002023682A
:100260004FF47A7202FB0303C4F8C83004B070BDC7
:1002700000DEC4E7204BD3F80435D4F8A41091F87D
:100280002520501C81F8250001921F4A009240F25F
:1002900073121B49052002F049FCC2E70023C4F891
:1002A000A430D1E704F11005284600F004FF00282F
:1002B000CDD0284600F0FFFE0028D7D00023C4F898
:1002C000C830E368002BD1D020469847CEE704F130
:1002D000AC0004F067FB62682368D31A4FF47A72AB
:1002E00002FB03F2B0FBF2F302FB1300B7E700BF1F
:1002F000DC220020D822002000B00040C8B3020059
:10030000C6B40200A82E0020E0B3020038B50446AF
:1003100004F056FC0546D4F8C020131A002B16DB57
:1003200004F1AC0004F03EFB54F8BC3B4FF47A718E
:1003300001FB03F1A1F57A71B0FBF1F301FB1301AD
:10034000294401F57A71204604F038FF38BD23684E
:100350004FF47A7101FB0323C31A002BE0DA04F196
:10036000AC0004F01FFB61682368C91A4FF47A756A
:1003700005FB01F1B0FBF1F201FB1201D4F8C02042
:1003800005FB0323194404F1BC0004F017FF38BD3A
:1003900008B50022024B1A7004F0BAF908BD00BF7C
:1003A000BB27002070B588B0044600284AD094F8D6
:1003B000DC302BB17846384B1B68002B4AD098476D
:1003C00004F11005284600F03EFE28B17846324B75
:1003D0001B68002B40D098470823636104F1240375
:1003E00023611023A361284600F0ACFD04F1AC00AA
:1003F00004F018FB0023C4F8A43084F8A83084F873
:10040000DC30264BC4F8C430C4F8CC40244A134630
:1004100053F8011FC4F8D5109B88A4F8D93013787D
:100420005B0894F8D42063F3470284F8D4201D4B72
:100430001B6813F0010F03D01B4B1B68032B0DD857
:1004400008B070BD7846144B1B680BB19847AEE7F7
:1004500000DEACE700DEB3E700DEBDE7134BD3F808
:10046000043594F8DA2094F8D91094F8D80094F868
:10047000D75094F8D66094F8D54006940596049524
:100480000390029101920A4A00924FF4F0720949D6
:10049000042002F04BFBD3E7A82E002065010200E8
:1004A000B4270020DC220020D822002000B0004029
:1004B00004B40200C6B4020058B30346027832F016
:1004C000070101D0072070470AB90720704742880A
:1004D000022A01D807207047B2F5205F01D9072012
:1004E00070478188022901D807207047B1F5205F45
:1004F00001D9072070478A4201D20720704710B403
:10050000054C006859689A6807C400205DF8044BE0
:1005100070470E20704700BFC027002030B583B061
:10052000054600918DF804204B78252B04D9784698
:100530000E4B1B687BB19847694605F1100000F02F
:100540002BFD044610B995F8DC3033B1042C0BD0E8
:10055000204603B030BD00DEEEE7012385F8DC3035
:100560002846FFF7D3FEF1E71124F1E7A82E00207B
:1005700030B583B005460C46164B1B6813F0010FCF
:1005800003D0154B1B68042B08D8E5B1ECB12378D8
:1005900013F0070F0ED1072003B030BD0F4BD3F877
:1005A00004350F4A00924FF41E720E49052002F0E6
:1005B000BDFAEAE7012221462846FFF741FD2378EC
:1005C0002BB90420E8E70E20E6E70E20E4E7002040
:1005D000E2E700BFDC220020D822002000B000406B
:1005E00060B40200C6B4020008B590F8DC300BB964
:1005F000082008BDBC3004F0ABFD002008BD30B5BC
:1006000083B00446FFF7F0FF00F0EEFB002384F810
:10061000DC30D4F8A40068B194F8A83053B10025B8
:10062000C4F8A45003F008FF84F8A85002E0009832
:1006300003F002FF694604F1100000F0DAFC002824
:10064000F5D000F0F1FB03B030BD98B110B5044611
:1006500090F8DC200AB9082010BD04F0B1FA54F873
:10066000BC2B4FF47A7101FB0201204604F0A6FD79
:10067000002010BD0E20704738B50022114B1A70B3
:1006800004F09EFA00F57A750F4C62884FF47A7385
:1006900003FB02F30D48C3600D4B8360294604F051
:1006A0008DFD6388A28893420BD04FF47A7101FBD1
:1006B00003F30848C360084B836001FB025104F058
:1006C0007DFD38BDBB270020C0270020CC2700209F
:1006D00059FF0100E42700209103020010B50446F1
:1006E00038B123785B08032B1CD8DFE803F00A0A33
:1006F0000F1478460F4B1B680BB19847F1E700DEEB
:10070000EFE7A37963F03F03A37110BDA37903F072
:100710003F03A37110BDA37903F0BF0343F040036F
:10072000A37110BD7846034B1B680BB1984710BDF1
:1007300000DE10BDA82E002008B503464FF0805201
:10074000D2F8A020003218BF0122017862F34701DD
:10075000024602F8011B05490868C3F801008988B0
:1007600091801846FFF7BAFF08BD00BFA400001033
:10077000B8B110B50446FFF769FB08B9102010BDE9
:10078000094B224652F8011FC3F801109288A3F8C2
:10079000052022785208197862F347011970002069
:1007A00010BD0E20704700BFB427002070B58AB07E
:1007B000FFF782FE064610B130460AB070BD242213
:1007C000204B1A700023204A1370204A1360536094
:1007D0009360D360136153611D4A1360536093604B
:1007E000D3601361536105AC1A4D0FCD0FC42B6854
:1007F0002360194B1B6813F0010F03D0174B1B68C4
:10080000042B11D805A803F07DFE1548FFF71EFB49
:100810000028D1D103A8FFF78FFF03A8FFF75EFFE1
:1008200003A8FFF7A5FFC7E70E4BD3F804350E4A20
:1008300001920E4A009240F2B7120D49052002F0D3
:1008400075F9DFE7BC270020BB270020E427002044
:10085000CC270020B4B30200DC220020D8220020E4
:10086000B427002000B00040D6BE898E40B40200FC
:10087000C6B402002DE9F0478AB004468A46154600
:10088000974B9B79002B00F08380954B1B6843B3FB
:10089000934B93F80690B9F1000F66D0B9F1020FAF
:1008A00045D9B9F1030F60D12378C3F380138C4A83
:1008B00016683278B3EB520F3ED04FF0000EB9F10C
:1008C000020F5ED0B9F1030F64D0B9F1010F61D00E
:1008D0007846844B1B68002B56D098474FF0010E8A
:1008E00058E078467F4B1B680BB19847D0E700DE95
:1008F000CEE701367A4B9B889E421AD2784BD3F8CA
:100900000080C6EBC60708EB07000622E11C013099
:100910000AF01CF90028ECD12378C3F3801318F8EF
:100920000720B3EB520FE4D14FF0010EC7E70026CA
:10093000E0E74FF0000EC2E7E71C06223946701CC4
:100940000AF004F9002802DD4FF0000EB7E7062296
:10095000394606F108000AF0F9F8002802DD4FF0E8
:10096000010EACE74FF0000EA9E778465D4B1B681F
:100970001BB198474FF0010E0CE000DE4FF0010E66
:1009800008E08EF0010E05E000DE4FF0010E01E000
:100990004FF0010EBEF1000F08D00594CDF824A051
:1009A0006778252F0CD80023194636E04E4A136885
:1009B00001331360204603F03FFD0AB0BDE8F08725
:1009C00003238DF80C3009228DF80D208DF80E30A0
:1009D000049403A802F062F898B1444B1B6813F02A
:1009E000200F0ED0424B1B68012B0AD9414BD3F884
:1009F00004350190404A0092F8224049022002F05A
:100A000095F83F4A136801331360204603F014FD44
:100A1000D3E77146F9B901300344BA1FD2B2934209
:100A20001CDAE118487A591C21444E7A3549097874
:100A30000029EED04FEA561806F01F064FF0010CC1
:100A40000CFA06F6DFF8D0C05CF828C016EA0C0FE6
:100A5000E0D10021DEE7D31A984212DAC9B12DB1F4
:100A600006AB2868696803C32A891A8005A9264845
:100A700000F092FA002851D1244A13680133136020
:100A80009BE71F4A136801331360204603F0D4FC30
:100A900093E71F4A03AB92E8030083E8030018467C
:100AA00001F0FCFFA0B1114B1B6813F0200F0FD019
:100AB0000F4B1B68012B0BD90E4BD3F8043501905B
:100AC0000D4A00924FF48C720C49022002F02EF86D
:100AD000104A136801331360204603F0ADFC6CE745
:100AE000FC270020A82E0020C0290020DC220020A6
:100AF000D822002000B000406CB5020062B50200B0
:100B0000C82900202428002008290020BC29002012
:100B100010B50200C42900200428002003AB114AAC
:100B200092E8030083E80300184601F0B7FFA0B184
:100B30000D4B1B6813F0200F0FD00C4B1B68012BC3
:100B40000BD90B4BD3F8043501900A4A009240F2BE
:100B500025120949022001F0E9FF204603F06CFC50
:100B60002BE700BF18B50200DC220020D8220020AD
:100B700000B000406CB5020062B5020010B584B050
:100B8000144CA022002120460AF040F812480460CC
:100B9000142343600823836000F0D4F901AB0F4AAB
:100BA00007CA83E807001846FFF700FE044610B1A5
:100BB000204604B010BD0A48072343721E23436039
:100BC00014230360022303720023C360FFF7EAFBD0
:100BD000EEE700BF1C2900200829002020B50200F4
:100BE0002828002008B5FFF747FD002008BD0000B9
:100BF00070B505460C4616464378252B04D9784631
:100C00000C4B1B6833B1984734F0010304D0072420
:100C1000204670BD00DEF7E70CB90724F8E700F0C6
:100C2000E3F8324629460448FFF778FC044600F012
:100C3000FBF8EDE7A82E00202828002070B586B02C
:100C400006460D46144601A9094800F0D2F90246AD
:100C500058B90DB1059B2B60019B33602CB102ABE1
:100C600003CB206061601B882381104606B070BDF5
:100C70000829002008B50378012B0ED013B1022BF0
:100C800005D008BD436863B18068984708BD4368D4
:100C90003BB1C1688068984708BD43680BB1806864
:100CA000984708BD4FF48022014BC3F800217047DC
:100CB00000E100E030B585B0002404E0164B53F8A5
:100CC000243098470134154B1B689C421CD26109A3
:100CD000134A52F8213004F01F00C34013F0010FF3
:100CE000F0D0EFF3108372B6012505FA00F052F848
:100CF000215025EA000542F82150002BDED162B6D2
:100D0000DCE76846FFF7B6FF6946064800F071F970
:100D10000028F6D005B030BDE82A0020E42A0020E3
:100D2000F82A0020CC29002010B50146054800F023
:100D300033F910B10424204610BD0446FFF7B2FF7A
:100D4000F9E700BFCC29002008B5FFF7B3FF08BDC5
:100D500008B50848084B036010234360836000F027
:100D6000F1F8064BC02283F812234FF480221A6058
:100D700008BD00BFCC290020E029002000E100E0F0
:100D800030B585B00C46054648B101238DF80030DA
:100D9000019502946846FFF7C7FF05B030BD78465D
:100DA000034B1B680BB19847EFE700DEEDE700BF90
:100DB000A82E002030B585B00C46054648B100236A
:100DC0008DF80030019502946846FFF7ADFF05B03D
:100DD00030BD7846034B1B680BB19847EFE700DE48
:100DE000EDE700BFA82E002010B5EFF3108472B617
:100DF0000A490A68531C0B6022B94FF48021084A43
:100E0000C2F8801023B97846064B1B681BB198477F
:100E100004B962B610BD00DEFAE700BFE02A002088
:100E200000E100E0A82E002010B5EFF3108472B6A8
:100E30000A4B1B6823B97846094B1B6863B1984776
:100E4000064A1368013B13601BB94FF48022054B1F
:100E50001A6004B962B610BD00DEF1E7E02A002096
:100E6000A82E002000E100E010B50446A8B1104B08
:100E70001B68032B04D978460E4B1B68ABB198470F
:100E8000EFF3108372B60A4A1068411C11600A4AD7
:100E900042F8204003B962B610BD7846054B1B6886
:100EA0000BB19847E3E700DEE1E700DEE8E700BFCB
:100EB000E42A0020A82E0020E82A002038B50446A5
:100EC0000F4B1B68834204D878460E4B1B68A3B1B6
:100ED0009847EFF3108572B661090B4A04F01F04BE
:100EE000012303FA04F452F82130234342F821305D
:100EF000FFF7D8FE05B962B638BD00DEE9E700BFEE
:100F0000E42A0020A82E0020F82A002038B5054643
:100F100018B10A4B1C686CB938BD7846084B1B6881
:100F20000BB19847F5E700DEF3E754F8043C284698
:100F300098472468002CF8D138BD00BFFC2A002057
:100F4000A82E002010B50446B8B163681BB1236811
:100F50000BB1A36823B978460E4B1B68ABB1984719
:100F6000A3685A1E134204D078460A4B1B6873B11B
:100F700098470023E360236110BD7846054B1B684A
:100F80000BB19847E1E700DEDFE700DEE8E700DECF
:100F9000EFE700BFA82E0020F8B510B3044611B348
:100FA000826812B909252846F8BDEFF3108572B69C
:100FB000026980680244E668B2420ED0276863681E
:100FC000013830401A4600FB037009F0F5FDE36874
:100FD0000133E3605DB962B6E5E735B962B6042571
:100FE000E1E70E25DFE70E25DDE70425DBE7002539
:100FF000D9E770B508B30446826812B909252846B6
:1010000070BDEFF3108572B60669C268964210D0C3
:10101000084621686268A368013B1E4006FB021176
:1010200008B109F0C9FD2369013323614DB962B6E6
:10103000E5E725B962B60525E1E70E25DFE70525D9
:10104000DDE70025DBE7C2680069101A7047F8B5D4
:1010500020B3064621B3806810B909242046F8BDA4
:1010600015460F46EFF3108472B63046FFF7EBFFDC
:10107000A84203D8B4B962B60524EFE730687168B6
:1010800032691544B368013B1D400A4605FB010166
:10109000384609F091FD3CB962B6DFE70E24DDE782
:1010A0000E24DBE70524D9E70024D7E708B50022A2
:1010B000FFF7CDFF08BD0269C068824214BF00205F
:1010C00001207047C268137951795B1A03F57F23B9
:1010D00003F6FF731B0303F58053134442699B1A05
:1010E0008068181A7047000038B505460C4610F0A5
:1010F000030F04D078460F4B1B689BB1984714F040
:10110000030F04D078460B4B1B686BB19847002344
:10111000B3EB940F0AD255F82320B2F1FF3F07D169
:101120000133F5E700DEEAE700DEF0E7012038BD35
:10113000002038BDA82E002070B50546002419E017
:10114000002300E000231846002B2DD053799C4249
:1011500004D07846154B1B680BB39847EB681E44C8
:1011600032792B699A4204D07846104B1B68C3B180
:10117000984701342B699C4215D2EB6826039A19D3
:101180009B5D083BDBB2F62BDCD85379FF2B04D0F8
:101190001379FF2BD4D00123D5E70023D3E700DE5A
:1011A000DCE700DEE5E7012070BD00BFA82E0020CF
:1011B00070B50579012D01D9002070BD044606687F
:1011C0003046FFF77FFF3DB9A3899B00834207DBD1
:1011D00073681BB9002070BD0023F7E7012070BDC4
:1011E000002070BDF0B585B004460368DB68187850
:1011F00019795A79891A01F57F2101F6FF710903DE
:1012000001F58051E2891944184401F0F7FB0746C3
:1012100023689E6826F47F6525F00F0505F5805547
:10122000A81BA2899200904246D9B51804F10C027D
:10123000A3899B0001208DF8000001960392029380
:101240000022694601F0C4FD28B17846364B1B6880
:10125000002B60D0984701208DF800000195334B9A
:10126000039304230293324A694601F0B1FD28B189
:1012700078462D4B1B68002B4FD09847C7B122688A
:101280003988536803EB8103536001208DF8000017
:101290000197284B039304230293254A694601F0E2
:1012A00097FD28B17846204B1B68002B37D0984714
:1012B000A660002005B0F0BDD9680B7991F805E073
:1012C000A3EB0E0303F57F2303F6FF731B0303F564
:1012D00080530B449D4224D0904217D001208DF8BA
:1012E00000000196144B03930423029300226946E5
:1012F00001F06EFD20B178460B4B1B684BB198474F
:101300002E782E44A58906EB85058FE72A781544AB
:101310008CE700DEF4E700DE9DE700DEAEE700DEEE
:10132000C6E70120C6E700BFA82E0020A4B5020032
:10133000222C00209CB50200A0B5020010B584B09C
:1013400004460368DB68187819795A79891A01F517
:101350007F2101F6FF71090301F58051E2891944EB
:10136000184401F04BFBF0B10346A06021680088EF
:101370004A6802EB80024A6001208DF80000019368
:101380000B4B0393042302930A4A694601F020FDA4
:1013900060B17846084B1B6813B19847002003E002
:1013A00000DE002000E0022004B010BD0020FBE7BA
:1013B0009CB50200222C0020A82E002070B584B01D
:1013C00005460368DE68437B06EB0336082130469A
:1013D000FFF78AFEA0B9002401E000DE0134072CEB
:1013E0000ED8335D05F10802125D9342F6D0FF2B53
:1013F000F4D078460E4B1B68002BEED09847EDE7F3
:10140000083501208DF8000001960395082302930A
:10141000084A694601F0DCFC20B17846044B1B68A1
:101420001BB19847002004B070BD00DEFAE700BF92
:10143000A82E0020222C002000B585B00368DA68B1
:101440001B691B0302218DF8001001920293084AC8
:101450006946012001F0BCFC20B17846054B1B68B1
:1014600023B19847002005B05DF804FB00DEF9E7E2
:10147000222C0020A82E002082890379012B0FD076
:1014800010B592001BB1022B10D0012010BD00F14D
:101490000C01806809F05AFBB0FA80F0400910BDD9
:1014A00083685888B0FA80F0400970470368DB68A9
:1014B000447B0822811803EB043009F047FBB0FAA3
:1014C00080F0400910BD000038B501460E4802F01A
:1014D0004BFE0E4B5D6807E025B178460C4B1B6850
:1014E00073B19847A5420DD0084805F0C9FE0446DF
:1014F0000028F1D0002303608368C0689847F1E7B3
:1015000000DEEFE738BD00BF002B0020142C0020C8
:10151000A82E00202DE9F041044617460D4619B9C2
:10152000FFF7AAFF00B903250DB104F10C072668E7
:101530002379042B54D8DFE803F0033F46536900B6
:101540003DB1B369002B4BD02A4639463046984707
:1015500046E0D4F80880B8F8003023B97846344B18
:101560001B68DBB19847B8F8003008EB830323F41D
:101570007F6222F00F02934212D0B8F80220B2F537
:10158000FE4F0DD0B3605A8847F6FF739A42D8D009
:101590007846274B1B686BB19847D2E700DEE2E73D
:1015A00028F47F6828F00F0808F5805898F8003074
:1015B0004344E7E700DEC4E7F3698BB12A46E189DB
:1015C000304698470CE03378012B04D07846184B0E
:1015D0001B68B3B19847627B237B013B9A4212D0D0
:1015E000144B9C4203D303F582739C4204D9784682
:1015F0000F4B1B68D3B19847201FFFF765FFBDE86D
:10160000F08100DEE7E702233370E9E725B1784691
:10161000074B1B6843B1984700233370336A002B94
:10162000DED030469847DBE700DEF5E700DEE3E793
:10163000A82E00200C2B002000B583B002A90023A7
:1016400041F8043D82B2054802F084FC20B90198BB
:10165000043003B05DF804FB0020FAE7002B002003
:1016600070B5044600254BE01020FFF7E5FF064665
:1016700000286FD0022303710823037204234372EE
:101680001023C37283724573236903734FF6FF738C
:10169000C3810460304B984203D303F582739842B0
:1016A00004D978462D4B1B683BB1984736F8042C7B
:1016B000311F2B4802F090FC21E000DEF6E700230A
:1016C00000E000232BB97846244B1B68002B35D053
:1016D0009847E36833445B799D4205D078461F4BB9
:1016E0001B68002B2CD09847E3681E44327923698D
:1016F0009A4204D07846194B1B681BB398470135B2
:1017000023699D4220D2E0682E03304440F6FC71EC
:101710000430FFF7E9FC0028A6D1E3689A199B5D25
:10172000083BDBB2F62BCCD85379FF2B04D01379CE
:10173000FF2BC4D00123C5E70023C3E700DEC8E7C1
:1017400000DED1E700DEDAE7064B1868FFF7B6FBEC
:10175000002070BD042070BD0C2B0020A82E00209E
:10176000002B00201C2C002038B50546C3681C78CF
:101770001C4400200FE000DE238804EB830323F4E5
:101780007F6222F00F02934222D06288B2F5FE4FB0
:101790001ED020461C46EA68137951795B1A03F57E
:1017A0007F2303F6FF731B0303F5805313449C420E
:1017B00017D262884FF6FF739A4212D02388002B0B
:1017C000DAD17846074B1B68002BD4D09847D3E773
:1017D00024F47F6323F00F0303F580531A78134436
:1017E000D7E738BDA82E002038B50446FFF7BCFF68
:1017F000A06020B3428847F6FF739A4226D00820A3
:10180000FFF71AFF054618B3032303710460114B59
:10181000984203D303F58273984204D978460E4B5D
:101820001B688BB1984735F8042C291F0B4802F030
:10183000D3FB0B4B1868FFF741FB002038BDE26873
:1018400013781344A36038BD00DEECE7002038BDF8
:10185000042038BD0C2B0020A82E0020002B0020D7
:101860001C2C0020F8B506794379F61A06F57F2678
:1018700006F6FF76360306F58056064404782518EA
:1018800000270CE000DE1FE025F47F6424F00F0445
:1018900004F5805423781C4423E000DE25466B8841
:1018A0004FF6FF72934225D047F6FF72934221D044
:1018B00013B92B8807EB83072B882BB978460E4B7F
:1018C0001B68002BDED098472C8805EB840424F499
:1018D0007F6323F00F039C42D6D06B88B3F5FE4F95
:1018E000D2D0A642DAD87846034B1B68002BD4D05E
:1018F0009847D3E73846F8BDA82E002070B584B0CD
:1019000005460068FFF730FF044600282CD06388A6
:10191000002B31D12E6823882BB97846414B1B68A8
:10192000002B3FD09847238804EB830323F47F6286
:1019300022F00F02934237D06288B2F5FE4F33D0C7
:10194000B3602B689968DA68137950791B1A03F52C
:101950007F2303F6FF731B0303F58053134499425F
:101960002BD3002004B070BD78462E4B1B680BB102
:101970009847CCE700DECAE701208DF8000001940B
:10198000294B039304230293284A694601F020FA65
:101990000028BFD07846234B1B680BB19847B9E7A6
:1019A00000DEB7E700DEBEE724F47F6323F00F0319
:1019B00003F580531A781344C2E7238823B9784685
:1019C000184B1B680BB39847238804EB830323F45D
:1019D0007F6222F00F02934219D06288B2F5FE4F67
:1019E00015D001208DF800000193114B03930423BF
:1019F00002930E4A694601F0EBF90028B1D078460F
:101A0000084B1B6863B19847ABE700DEDCE724F4C2
:101A10007F6424F00F0404F5805423782344E0E726
:101A200000DE9EE7A82E00209CB50200222C00209C
:101A3000A4B5020010B584B0044609238DF808301F
:101A400003798DF8093000238DF80A30039302A83A
:101A500001F024F8A0B11E4B1B6813F0200F0FD02B
:101A60001C4B1B68012B0BD91B4BD3F80435019081
:101A70001A4A009240F28E221949022001F056F8CB
:101A80002379042B19D8DFE803F003080C101400A5
:101A90002046FFF7A7FB04B010BD2046FFF74EFC21
:101AA000F9E72046FFF78AFCF5E72046FFF726FF17
:101AB000F1E72046FFF7C0FCEDE77846094B1B68CD
:101AC00013B198470020E6E700DE0020E3E700BFFF
:101AD000DC220020D822002000B000406CB50200BB
:101AE000DEB50200A82E00202E4B1B78022B57D10A
:101AF00010B582B03BE002A9002341F8043D2A481A
:101B000002F0D8FA002849D1019C201D274B18600B
:101B10000122274B1A70FFF74BFB20B30323214A06
:101B2000137062681370606800F006FF1BE01F4BC3
:101B30001868FFF77FFF1F4B187018B902221C4B63
:101B40001A7010E003221A4B1A700CE0174B1B6836
:101B5000E3B1164B18688268164B1978FFF7DAFC68
:101B60000022134B1A700F4B1B78022B16D1104B0F
:101B70001B78032BF7D801A252F823F0F71A0200C2
:101B80002F1B02009D1B02004D1B020078460A4BD2
:101B90001B680BB19847DCE700DEDAE702B010BD46
:101BA000704700BF202C0020002B0020242C002098
:101BB000102C0020282C0020A82E002008B5074B50
:101BC0001B88934200D008BD054B1B78022BFAD12D
:101BD0000322034B1A70FFF787FFF4E7222C002043
:101BE000102C002008B54FF482721049104802F002
:101BF00043F91049012001F0D5F80F48FFF734F9F7
:101C00000E4B186000230E4A13700E4A13800E48C4
:101C100005F0FEFA00F06AFE18B902220B4B1A70AA
:101C200008BD0322094B1A7008BD00BF0C2B002011
:101C3000002B0020BD1B0200E91A02001C2C002012
:101C4000102C0020222C0020142C0020202C0020FE
:101C5000F8B50D461646074600283AD03B78022BC9
:101C600040F09F80002E3CD0FA68137813449E42C7
:101C7000C0F09980137951795B1A03F57F2303F63D
:101C8000FF731B0303F5805313449E4200F28D80C3
:101C9000338823B97846484B1B6833B39847338859
:101CA00006EB830424F47F6323F00F039C421ED0D1
:101CB0007388B3F5FE4F1AD0FE68337972799B1A98
:101CC00003F57F2303F6FF731B0303F580531E44C4
:101CD00039E07846384B1B680BB19847BEE700DE09
:101CE000BCE7FB681C781C44E6E700DED7E726F477
:101CF0007F6626F00F0606F580563378F418DBE78A
:101D000000DE12E024F47F6323F00F0303F5805319
:101D10001A78134416E0002353BB23882BB9784666
:101D2000254B1B68002BEBD09847238804EB8303DB
:101D300023F47F6222F00F029342E3D06288B2F56F
:101D4000FE4FDFD01C46B44212D26288531E9BB2B3
:101D500047F6FE618B42DED835B169882B884A4050
:101D6000134203D00023D7E70123D5E70123D3E7AC
:101D7000B4421CD26288531E9BB247F6FE618B426E
:101D800007D855B169882B884A40134207D00023F1
:101D900000E000236BB12046F8BD0123FAE70123E0
:101DA000F8E70024F7E70024F5E70024F3E7002430
:101DB000F1E70024EFE700BFA82E002070B50E4623
:101DC0001446054658B1731E9BB247F6FE62934215
:101DD0000FD947F6FF739E4209D000230AE07846E8
:101DE000174B1B680BB19847EDE700DEEBE70123CB
:101DF00000E0012323B97846114B1B68C3B1984713
:101E0000802C04D978460E4B1B689BB198472B78E1
:101E100093B104F11000FFF70FFC78B100220271BA
:101E2000C6810334A4080134848140F80C5B70BD82
:101E300000DEE5E700DEEAE7002070BD002070BDAF
:101E4000A82E002010B50446134B984203D303F587
:101E50008273984204D97846104B1B68C3B19847E7
:101E60000C3C0D4B9C4203D303F582739C4204D976
:101E700078460A4B1B686BB1984734F8042C211F35
:101E8000074802F0A9F8074B1868FFF717F810BDCC
:101E900000DEE5E700DEF0E70C2B0020A82E002096
:101EA000002B00201C2C002070B50D46064658B1B2
:101EB0006B1E9BB247F6FE6293420FD947F6FF7343
:101EC0009D4209D000230AE078461D4B1B680BB1E8
:101ED0009847EDE700DEEBE7012300E0012323B99B
:101EE0007846174B1B6823B398471020FFF7A4FBD5
:101EF000044610B301230371C5814FF6FF7383813C
:101F00000660104B984203D303F58273984204D9BC
:101F100078460B4B1B6873B1984734F8042C211F8B
:101F2000094802F059F8094B1868FEF7C7FF00206E
:101F300070BD00DED9E700DEEFE7042070BD00BF12
:101F4000A82E00200C2B0020002B00201C2C002091
:101F50002DE9F041C46894F8008004EB0807836819
:101F6000BB4202D80020BDE8F0813E46054634F869
:101F7000083023B97846314B1B68BBB1984734F819
:101F8000084007EB840424F47F6323F00F039C4292
:101F900003D07B88B3F5FE4F1AD127F47F6727F073
:101FA0000F0707F580573C783C4411E000DEE6E778
:101FB00000DE238804EB830323F47F6222F00F0208
:101FC000934212D06288B2F5FE4F0ED026461C46D0
:101FD000AB689C4212D02388002BEAD17846174B7D
:101FE0001B68002BE4D09847E3E724F47F6323F0D9
:101FF0000F0303F580531A781344E7E77288531EE2
:102000009BB247F6FE618B4202D90020BDE8F08109
:10201000EB6818783146184400F0F0FC38B186427D
:1020200008D041882846FFF73FFFBDE8F081002037
:10203000BDE8F0810020BDE8F08100BFA82E00209F
:1020400070B504460D46002303700B68C3F30B0301
:1020500023B17846204B1B683BB398476B68FE2B37
:1020600004D978461C4B1B680BB3984729686A68EB
:10207000AE68E868E16022616661A06129696A6909
:10208000E16122620023A36063602046FFF754F8F9
:10209000B0B12169E068FFF7E5FB60602046FFF71B
:1020A000A3FB034628B1184670BD00DED6E700DE6C
:1020B000DCE7022323702046FFF74AFF0346F2E7DE
:1020C000012323702046FFF7CBFA03460028EAD10C
:1020D000E2680832A260E6E7A82E002010B50446A8
:1020E00020B1A36853B1236883B110BD78460A4B71
:1020F0001B680BB19847F4E700DEF2E77846064B21
:102100001B680BB19847EEE700DEECE72460214640
:10211000024805F08FF8E8E7A82E0020142C0020D4
:1021200008B5064802F000F808B1002008BD00F02C
:10213000FBFB08B1002008BD012008BD002B0020DA
:1021400010B5C0B10446C368187819795A79891A4C
:1021500001F57F2101F6FF71090301F5805147F672
:10216000FF721944184400F049FCA06078B10223C2
:102170002370002363600222094B1A700949012071
:1021800000F010FE084B1868FEF798FE10BD784668
:10219000064B1B680BB19847E9E700DEE7E700BF95
:1021A000202C0020BD1B02001C2C0020A82E00208B
:1021B00008B500F01DFC08BD08B50023092B09D89F
:1021C000084A52F82320824201D00133F6E7064A3A
:1021D000536008BD7846054B1B680BB1984708BD96
:1021E00000DE08BD40B602002C2C0020A82E0020E6
:1021F00008B5064B986800221A605A609A60DA6047
:102200001A615A619A61FFF79BFF08BD2C2C0020D0
:1022100010B5294BDB688BB1274B1B7E23B1784669
:10222000264B1B6893B19847234B5B68092B1DD93C
:102230007846224B1B685BB1984717E078461F4BE6
:102240001B680BB19847E7E700DEE5E700DEEBE748
:1022500000DE0BE000DE02E00022174B5A60012C8A
:1022600001D0032C26D1144B1B7E1BBB124B5A688A
:10227000134B53F8223098470446022810D0032805
:10228000EAD00128EBD10C4A536801335360092B83
:10229000E5D97846094B1B68002BDBD09847DEE771
:1022A000054B1B7E1BB10222034B1A70D7E7FFF7C9
:1022B0009FFFD4E710BD00BF2C2C0020A82E0020CB
:1022C00040B60200104B1B681B685A1E12F1030F28
:1022D00018D8C3F30B020AB10020704710B50B4A9F
:1022E000D36000231376537601241470936008485A
:1022F000FFF762FF0749204600F054FDFFF788FF13
:10230000204610BD002070474C2C00202C2C0020B3
:10231000552302001923020008B50B78032B06D0C1
:102320000B4B1B78012B06D0022B0BD008BD0022D3
:10233000074B1A76F4E7064B1B7E002BF6D1FFF70E
:1023400067FF08BD0B78032BF0D1FFF751FFEDE7D6
:102350002C2C002000B585B00A4BDB6802228DF8DA
:10236000002001934FF480530293074A69460120ED
:1023700000F02EFD18B1002005B05DF804FB01202F
:10238000FAE700BF2C2C0020482C002000B585B0B7
:102390000A4B1B6802228DF8002001934FF48053F2
:1023A0000293074A6946012000F012FD18B100208F
:1023B00005B05DF804FB0120FAE700BF4C2C0020BB
:1023C000482C0020154BDA68137951795B1A03F514
:1023D0007F2303F6FF731B0305D002F580520F4BDA
:1023E000DA600320704700B585B00D4B1B680120F3
:1023F0008DF8000001930B4B0393042302930A4AC8
:10240000694600F0E5FC30B90122044B1A7602203F
:1024100005B05DF804FB0020FAE700BF2C2C00207B
:102420004C2C0020502C0020482C002000B585B0FA
:102430000C4BDA680C4B1B68043301208DF800004C
:102440000192039340F6FC730293084A694600F038
:10245000BFFC28B90120034B187605B05DF804FBDA
:102460000020FAE72C2C00204C2C0020482C0020C7
:1024700000B585B00A4B1B6801208DF80000019360
:10248000084B039304230293074A694600F0A0FC1B
:1024900018B1002005B05DF804FB0120FAE700BF89
:1024A0004C2C0020382C0020482C002010B584B083
:1024B000114BDA681478114B1B68043301208DF836
:1024C00000000193039202940D4A694600F080FCDB
:1024D00080B90A4B1B6804F0FC041C440434064B0E
:1024E0005C61D9680A780A441A6100225A76012090
:1024F00004B010BD0020FBE72C2C00204C2C002049
:10250000482C002000B585B0174BDB6818784FF6D3
:10251000FF7203F58051184400F070FAF0B10246E2
:10252000114BD9680B780B44984219D00E4B5B7E47
:1025300093B10E4B01208DF8000001920393042308
:1025400002930B4A694600F043FC58B90120064B40
:10255000187605B05DF804FB064BEBE70120F8E7C1
:102560000120F6E70020F4E72C2C0020A4B502009F
:10257000482C0020A0B5020008B50F4BDB68187886
:10258000002203F58051184400F038FA08B1012008
:1025900008BD094BDA68137951795B1A03F57F237B
:1025A00003F6FF731B0305D002F58052024BDA607D
:1025B000032008BD022008BD2C2C002070B584B07B
:1025C0004F4BDD686B792A79511E8B4200F0938066
:1025D00005F580510C780C444A490968081D0E79AC
:1025E0000644D31A03F57F2303F6FF731B0303F599
:1025F00080531D446388013B9BB247F6FE629342C1
:102600001AD858E0002456E000DE238804EB830348
:1026100023F47F6222F00F02934217D06288B2F552
:10262000FE4F13D09D42EDD95A88013A92B21C4612
:1026300047F6FE618A423ED92388002BE5D17846D1
:10264000314B1B68002BDFD09847DEE724F47F6313
:1026500023F00F0303F580531A781344E2E700DEFA
:10266000238804EB830323F47F6222F00F0293425A
:1026700017D06288B2F5FE4F13D09D421AD95A88FE
:10268000013A92B21C4647F6FE618A4213D923886A
:10269000002BE5D178461C4B1B68002BDFD09847F8
:1026A000DEE724F47F6323F00F0303F580531A78E9
:1026B0001344E2E70024DCB1124B1968628801F58B
:1026C0008051304600F09AF90646B0B101200C4B1B
:1026D00018768DF8000001940C4B039304230293A9
:1026E0000B4A694600F074FB0028D0D0002000E0BF
:1026F000012004B070BD0120FBE70120F9E700BF15
:102700002C2C00204C2C0020A82E00209CB5020070
:10271000482C0020F0B587B0714B1B6923B1704B7A
:102720005B694BB100274CE078466E4B1B680BB1E0
:102730009847F4E700DEF2E778466A4B1B680BB176
:102740009847EFE700DEEDE700DE238804EB830324
:1027500023F47F6222F00F02934217D06288B2F511
:10276000FE4F13D09D421AD95A88013A92B21C46A4
:1027700047F6FE618A4213D92388002BE5D17846BB
:10278000584B1B68002BDFD09847DEE724F47F64AA
:1027900024F00F0404F5805423782344E2E7002456
:1027A000002C35D100230093019B002B6CD1012715
:1027B000002C00F08C80628847F6FF739A4200F08C
:1027C0008680474B5B7E002B40F08780002F40F0D7
:1027D0008280434B5A6922F47F6626F00F06B61AB0
:1027E00006F580561C69DD682B796A799B1A03F51A
:1027F0007F2303F6FF731B0303F580531D4400235F
:1028000001936388013B9BB247F6FE629342B3D8C3
:1028100000940EE000DE238804EB830323F47F6240
:1028200022F00F02934226D06288B2F5FE4F22D0EA
:102830001C46A542B8D92388019A02EB830296422E
:10284000B2D9009B634023F47F6323F00F03002B76
:10285000AAD16388013B9BB247F6FE618B42A3D8A5
:1028600001922388002BD6D178461E4B1B68002B83
:10287000D0D09847CFE724F47F6424F00F0404F508
:10288000805423782344D3E7154A526901208DF8F8
:1028900008000392009A05920493134A02A900F0DB
:1028A00097FA90B90E49019B23F003024B69134438
:1028B0004B6114B10A4B1C617AE77846094B1B68DF
:1028C0000BB19847F6E700DEF4E7002006E00122AE
:1028D000034B5A7675E7012000E0012007B0F0BDF8
:1028E0002C2C0020A82E0020482C002008B54FF0EA
:1028F00010235B69B3F1FF3F03D04FF010235B69F6
:1029000063B94FF080525169136903FB01F3A3F5DA
:102910008053044A1360FFF7D5FC08BD4FF0102325
:102920005B69F4E74C2C0020024B1878003018BF8C
:10293000012070472C2C002010B584B00446244B95
:102940001B782BB17846234B1B68002B3BD0984754
:102950002378032B05D078461E4B1B68002B34D000
:1029600098471B4B9C60E268DA6000245C601C7630
:10297000012018705C76184900F014FAFFF748FC43
:102980000A238DF808308DF809408DF80A40039429
:1029900002A800F083F8A0B1104B1B6813F0200FC1
:1029A0000FD00F4B1B68012B0BD90E4BD3F80435FE
:1029B00001900D4A009240F27B220C49022000F067
:1029C000B5F804B010BD00DEC2E700DEC9E700BF05
:1029D0002C2C0020A82E002019230200DC2200202D
:1029E000D822002000B000406CB5020026B60200DC
:1029F000014B1868704700BF4C2C002070B504468E
:102A00000D461646884218D97846234B1B680BB1F1
:102A1000984712E000DE10E000DE238804EB830319
:102A200023F47F6222F00F02934223D06288B2F532
:102A3000FE4F1FD01C469D422BD96288B24222D045
:102A400024F47F6323F00F0303F580539D4207D8DE
:102A5000B2F5FE4F19D0238804EB83039D4216D9AB
:102A60002388002BD9D178460B4B1B68002BD3D081
:102A70009847D2E724F47F6323F00F0303F58053D4
:102A80001A781344D6E7204670BD002070BD0020A0
:102A900070BD002070BD00BFA82E002008B5074BF8
:102AA0001B780BB9062008BD054B1B680BB1984776
:102AB00008BD01460348FEF76FFA08BD682C0020E8
:102AC0006C2C0020542C002030B583B0184606AC86
:102AD00054F8045B00920B4602460549002006F0BC
:102AE000E3FC22462946002006F0F4FB03B030BD8B
:102AF00068B60200034B1860034B1960034B1A6061
:102B0000704700BFDC220020D8220020E4220020F1
:102B100030B583B0044C246824B1079D0195069D0F
:102B20000095A04703B030BDE422002030B585B049
:102B300008AC54F8045B039401940095FFF7E8FF98
:102B400005B030BD2DE9F041002722E023499C2348
:102B500003FB04F3CA5A0132CA520221404600F074
:102B6000A7FA01360221404600F068FA70B19C23B2
:102B70001A4A03FB04239D68002DE7D09C2303FB26
:102B800004F3D25A01463846A847DFE796B9013721
:102B9000FFB2022F20D83C469C2303FB07F30833E7
:102BA0000E4D1D4405F104080221404600F046FA8E
:102BB0000026DBE70021404600F006FB0828E6D1AE
:102BC0009C22064B02FB0434A368002BDFD00022BA
:102BD000034938469847DAE7BDE8F081782C0020B1
:102BE00094B6020008B5082383731023437300F1E1
:102BF0001C0343610323037300F1180303610C30CA
:102C000000F0A0FA08BD0000F8B505460C461746CE
:102C100016680378012B04D07846164B1B688BB1DD
:102C2000984715498C4228BF0C461449A1FB043132
:102C3000C9098900AC68A41BA14200D80C461CB984
:102C40000020F8BD00DEECE7686826F00306E968BE
:102C500022463144304400F0EFFD20B17846054B68
:102C60001B682BB198473B681C443C600120F8BDB1
:102C700000DEF8E7A82E0020A0860100EB5DF260E0
:102C8000F8B505460C46174616680378022B04D0A3
:102C90007846154B1B688BB1984714498C4228BF66
:102CA0000C461349A1FB0431090C0903AC68A41BB1
:102CB000A14200D80C461CB90020F8BD00DEECE7AC
:102CC000686826F003062146304400F085FD20B1F7
:102CD0007846054B1B682BB198473B681C443C6009
:102CE0000120F8BD00DEF8E7A82E0020A086010034
:102CF000B77609BBF8B504460F4600F10C06012172
:102D0000304600F09BF970B305460378012B09D0DB
:102D1000022B12D07846154B1B68ABB198470023A5
:102D20001F4605E0221D3946FFF76EFF0746AB68D8
:102D3000626893420CD03846F8BD221D3946FFF731
:102D40009FFF0746AB68F3E700DE00231F46EFE76F
:102D50000121304600F0ACF900236360044B186891
:102D6000FEF7ACF8E7E70027E5E700BFA82E002054
:102D7000702C002010B50848FEF776F8074B186055
:102D8000002406E09C20064B00FB0430FFF72AFFDE
:102D90000134022CF6D910BD452B0200702C002006
:102DA000782C002038B504460D46022804D9784610
:102DB000054B1B6833B198479C22044B02FB04343B
:102DC000A56038BD00DEF7E7A82E0020782C002093
:102DD0002DE9F84306460C469046022805D9784668
:102DE000534B1B68002B46D09847002C45D02378C6
:102DF000012B4AD0022B74D078464D4B1B68002B18
:102E000000F091809847EFF3108772B69C2505FB80
:102E100006F505F10803474D1D44043500212846F9
:102E200000F00CF9814600287FD00021284600F0F0
:102E30003FF920686168A268E368C9F80000C9F832
:102E40000410C9F80820C9F80C30B8F1000F06D0FA
:102E50009C23384A03FB06235B88A8F800309C2299
:102E6000344B02FB0636738801337380002007B9A8
:102E700062B6BDE8F88300DEB7E778462C4B1B68E6
:102E80000BB19847B3E700DEB1E7636813F0030FB7
:102E900004D07846264B1B68DBB19847E36813F0F3
:102EA000030F04D07846224B1B68A3B19847A36850
:102EB00013F0030F04D078461D4B1B686BB1984785
:102EC000A368002B9FD17846194B1B683BB19847EC
:102ED00099E700DEE2E700DEE9E700DEF0E700DE8A
:102EE00091E76368C3F30B0323B17846104B1B686B
:102EF0009BB19847A368C3F30B0323B178460C4BEF
:102F00001B6863B19847A368002B7FF47CAF7846B9
:102F1000074B1B682BB1984775E700DEEAE700DE38
:102F2000F1E700DE6FE700DE6DE704209FE700BFFA
:102F3000A82E0020782C002038B5002402E00828B4
:102F400015D10134022C10D8EFF3108572B69C20F5
:102F500000FB04F00830074B18440021043000F057
:102F600033F9002DEBD162B6E9E7002038BD01202E
:102F700038BD00BF782C00202DE9F047184B1D7894
:102F80001DB940F24533984201D8BDE8F087A0F55D
:102F9000FA7401F015FE814600271DE0A9EB000739
:102FA000D0460136022E14D807F5A9739C4210D3DF
:102FB000E11B9C200B4B00FB0630FFF79BFE82467B
:102FC0000028EED001F0FCFDB0EB0907E6D4D046B6
:102FD000E7E7B8F1000FD8D0A8460026E2E700BF27
:102FE000742C0020782C002038B50446EFF31085AF
:102FF00072B638B90E4B1B6823B978460D4B1B6867
:103000007BB198477CB10A4A136801331360084BBF
:103010001B68003318BF0123074A137005B962B655
:1030200038BD00DEEEE7024A1368013B1360EEE7AD
:103030004C2E0020A82E0020742C002038B50D4600
:103040000446F0B12378AB4204D87846174B1B688E
:10305000FBB19847FDB962682378134413F8013C2B
:10306000A1780B44DBB212789B1ADBB2DBB1636848
:10307000585DA378013B1840A368627802FB0030DA
:1030800038BD7846094B1B680BB19847DAE700DE7C
:10309000D8E700DEDEE76268531913F8013C525DA1
:1030A0009B1ADBB2E2E7002038BD00BFA82E00204B
:1030B00038B50C460546C8B12B78A34204D87846EB
:1030C000134B1B68D3B19847D4B96A682B78134463
:1030D00013F8013CA9780B44DBB212789B1ADBB2DF
:1030E0001BB16A68135D0133135538BD7846084B30
:1030F0001B680BB19847DFE700DEDDE700DEE3E7A2
:103100006A68131913F8013C125D9B1ADBB2E7E7FA
:10311000A82E002010B5044608B100230BE0784625
:10312000074B1B680BB19847F7E700DEF5E76268CD
:103130000021D154013322789342F8D310BD00BF4F
:10314000A82E002010B50446437823B978461D4BBD
:103150001B6873B198472378012B0CD9A36893B1EE
:103160006368C3B1A378F3B15A1E134226D000237B
:103170001AE000DEEFE77846124B1B680BB1984768
:10318000ECE700DEEAE778460E4B1B680BB1984788
:10319000E6E700DEE4E778460A4B1B680BB1984788
:1031A000E0E700DEDEE7002323B97846054B1B6825
:1031B00033B198472046FFF7ADFF10BD0123F3E779
:1031C00000DEF7E7A82E002038B50C46054680B192
:1031D0002B78A34204D87846114B1B688BB19847D3
:1031E0008CB16B681A1912F8010C1B5DC01AC0B2C1
:1031F00038BD78460A4B1B680BB19847E8E700DEFC
:10320000E6E700DEECE76A682B78134413F8010C5C
:10321000AB781844C0B21378C01AC0B238BD00BF32
:10322000A82E002010B5044608B1A04710BD78466E
:10323000034B1B680BB19847F7E700DEF5E700BFCB
:10324000A82E002008B5082202210848FEF7B6FD86
:1032500038B1074A91684160127B0272FEF7F2FDB5
:1032600008BD0448FEF73AFF08BD00BF542E0020F9
:10327000902E0020F82200200E4B1B78CBB910B501
:103280000D4B5C6804F50054B4F1807F00D910BD8B
:10329000042201210948FEF791FD30B14460FEF798
:1032A000D1FD0122034B1A70F1E70548FEF716FF26
:1032B00010BD7047A42E0020902E0020542E002018
:1032C000E822002010B58CB00C469AB94B88012B2F
:1032D00028D1164B1B7823B97846154B1B683BB198
:1032E00098476268134B5A600022104B1A7019E01D
:1032F00000DEF6E7032A04D078460D4B1B689BB12D
:10330000984730220021684607F080FC19238DF889
:1033100000300294084BDA6804921B6905936846F2
:10332000FDF7F4FD0CB010BD00DEEAE7A42E00208E
:10333000A82E0020902E0020542E002000B58DB025
:1033400002908DF804100CA8022300F8303DFDF720
:10335000DDFD0DB05DF804FB38B500E020BFFEF7E1
:10336000DFFE0028FAD0FDF73FFD002211461B4882
:10337000FEF76EFC00252C4605E0051D02460021E7
:103380001648FEF765FC30B14388012BF5D0022BBF
:10339000F4D1041DF2E7A4B19DB12268104B9A60EC
:1033A00022791A73AC4201D9237993B12A680C4B64
:1033B0001A600B4B1A685A60FFF75EFFFDF734FD89
:1033C00038BD074B00221A609A601A73FFF73AFF64
:1033D000EFE70022024B1A60EBE700BF542E0020FB
:1033E000902E002008B5FEF7E3FEA0F5805008BD42
:1033F00000B587B0002300930193029303930493D5
:103400000593FFF7EFFF009001230193064B039311
:1034100069460648FEF714FE10B907B05DF804FBD4
:103420000348FEF75BFEF8E7C5320200542E002089
:103430000823002010B50C4B00241C605C609C60CD
:10344000DC601C6101F0BCFB084B5860084A9A60C4
:10345000084ADA601C615C61074A1470184601F082
:1034600031FEFFF7C5FF10BD902E0020782E002002
:103470008535020000879303A52E002038B5FDF79F
:10348000B3FC164B1B7B23B10824FDF7CDFC204673
:1034900038BD124B9B7B0BB10824F6E70F4B1A8A01
:1034A00041F282639A4204D80D4B1B782BB1012361
:1034B00000E001231BB90824E7E70023FAE7074DE2
:1034C00001232B7300242C82AB680133AB60FFF720
:1034D000B9FE297BA868FFF731FFD6E7902E0020C0
:1034E000A52E002010B5FDF77FFC234B5B7B9BB125
:1034F000214B9B7B03BB204B1A8A41F282639A4289
:1035000004D81E4B1B782BB1012300E00123ABB183
:10351000012302E00023FAE700231C462BB3164BDD
:1035200000225A731B7B5BB1012B14D07846144BDD
:103530001B68F3B1984718E00023EEE70023ECE79F
:10354000FFF79CFF88B178460D4B1B680BB198477D
:103550000BE000DE09E0084B00221A605A601A7383
:103560001A82FFF76FFEFFF787FEFDF75DFC20462E
:1035700010BD00DEF9E700BF902E0020A52E002030
:10358000A82E002010B5264B1B7B4BB1012B27D05A
:103590007846244B1B68002B3DD0984701240DE052
:1035A0001F4B1A8A41F282639A4204D81E4B1B7841
:1035B00083B1012300E0012373B901241CB1184A2F
:1035C000138A01331382164B5B8A13B1013B144AF1
:1035D000538210BD0023EFE7FFF784FF0024EDE7DF
:1035E0000F4B1A8A41F282639A4204D80E4B1B7821
:1035F0007BB1012300E001231C467BB142F2B013F2
:103600009A4203D90122064B5A730024FFF76AFF3E
:10361000D4E70023F0E700DE0124CFE70124CDE763
:10362000902E0020A82E0020A52E002010B5184BAB
:103630001A685B689A4225D20446154B1B7B012B06
:1036400015D0144B934214D9002028B9104B1A6896
:103650005B68403B9A4212D2EFF3108072B60C4A7C
:103660001368591C1160236080B962B610BD0A4B03
:10367000E8E70122064B5A73FFF734FFE5E7FFF74F
:10368000FBFDE9E7FFF7F8FD0F2010BD002010BD9E
:10369000902E0020FFFF7F0017FCFF0008B568B9DF
:1036A0000E4B1B6823B978460D4B1B6873B19847C6
:1036B0000A4A1368013B136053B108BD0122094B4C
:1036C0009A73064A13680133136008BD00DEEFE702
:1036D0000022044B9A73FFF705FFEEE7502E0020FF
:1036E000A82E0020902E002038B505460C46FDF788
:1036F0007BFB254B1B7B002B34D1234B5B8A2BBBE5
:103700001CB9214B9B68AB4205D3FCB11E4B9B6897
:1037100001339D421AD91C4B9B682A339D4223D802
:10372000194B9B7B03BB184CA5602360636023820D
:1037300042F60652628263732373FFF783FDFFF73D
:103740009BFD217BA068FFF7F9FD0DE064B10E4BF6
:103750009B6801339D4207D101220B4B5A73FFF73F
:10376000C1FE01E0012B02D0FDF75EFB38BD002C4D
:10377000FAD1054B9B689D42F6D10122024B5A7348
:10378000FFF7B0FEF0E700BF902E0020014B9868D5
:10379000704700BF902E0020054B1B7B012B02D0F1
:1037A000034B98687047024B98680138704700BF18
:1037B000902E0020044B9B68584010F0010F00D061
:1037C000013B1846704700BF902E0020014B187B2C
:1037D000704700BF902E0020C0F30B030BB11020E8
:1037E000704709B90920704701F6FF71090B0222E1
:1037F000104BC3F804250F4BD3F80034002BFAD03C
:1038000000220AE00B4BC3F808050A4BD3F800343A
:10381000002BFAD000F5805001328A42F2D3002208
:10382000044BC3F80425034BD3F80034002BFAD023
:103830000020704700E0014010F0030F02D0102379
:103840001846704711F0030F01D01023F8E70AB9AA
:103850000923F5E712F0030F01D00923F0E710B4B4
:1038600093080124124AC2F80445114AD2F80024F0
:10387000002AFAD002E00430043113465A1E53B134
:103880000B68B3F1FF3FF6D00360094BD3F8003467
:10389000002BFAD0EFE70021054AC2F80415044ACC
:1038A000D2F80024002AFAD018465DF8044B70477D
:1038B00000E0014012DF704730B583B0284B1B7821
:1038C0001BB10824204603B030BD002845D0054672
:1038D0004268244B1A6000F073F90DF10700FFF7FE
:1038E000E9FF04460028EDD19DF80730012B01D0F7
:1038F0000224E7E7284600F0CDFC05F079FF01F04F
:10390000CDFBFDF725FA2846FDF738F904460028D7
:10391000D8D1284601F06AFD04460028D2D1FFF72D
:1039200029FAFEF75FF9284603F082F9284606F0E7
:10393000F1FA4FF47A7005F0C7FD04F02DFA18B1D2
:10394000062801D00446BDE701F090F80022064B9E
:103950001A600122024B1A70B4E70E24B2E700BFCE
:10396000AD2E0020A82E0020B02E002008B50F4B51
:103970001B7813B90823184608BD0D4B1B780BB1F3
:103980000823F8E701F0BCFE20B17846094B1B681C
:103990004BB19847FDF726F903460028EBD10121EA
:1039A000034A1170E7E700DEF4E700BFAD2E002008
:1039B000AC2E0020A82E002010B58CB0BDE01378EE
:1039C00003F00F03022B3DD0237801331C440B9AE4
:1039D00053780233134401339C4280F0858063782E
:1039E000163B152BF0D801A151F823F0D13A020073
:1039F000C9390200C9390200C9390200C9390200B7
:103A0000C9390200C9390200C9390200C9390200A6
:103A1000C9390200C9390200C9390200C939020096
:103A2000C9390200C9390200C9390200C939020086
:103A3000C9390200C93902007D3A0200BF390200CB
:103A40008F3A020008A9204606F006FB0028BBD0EA
:103A50004C4B1B6813F0400FB6D04B4B1B68012B2F
:103A6000B2D94A4BD3F804350190494A00924FF439
:103A7000927248490220FFF759F8A5E7137803F03E
:103A80000F03022BA0D1204604F0AAFF9CE7137875
:103A900003F00F03022B97D108A9204605F08CFDF7
:103AA000002891D0374B1B6813F0400F8CD0364B59
:103AB0001B68012B88D9354BD3F804350190364A61
:103AC000009240F2371233490220FFF72FF87BE7CC
:103AD00062884FF6E4639A427FF476AF2178033927
:103AE000201D04F0AFFA6FE72C4B196811B39DF855
:103AF00025009DF80C3060F347038DF80C30DDF89D
:103B000026301868CDF80D009B88ADF81130137879
:103B1000C3F303038DF814305378063B8DF815304A
:103B2000093206929DF924308DF81330089B0793D3
:103B300003A888470B9800F07FFC08AA00210BA877
:103B4000FDF77CF810B90B9C093440E703F054FBF7
:103B5000044638B10B4B1B6813F0400F02D00A4BE0
:103B60001B6813B920460CB010BD084BD3F80435C0
:103B700001900B4A009240F25F1206490120FEF7C5
:103B8000D5FFEFE7DC220020D822002000B0004063
:103B900018B70200DAB6020044B70200B02E0020C7
:103BA00070B702000020704708B501F0F7FB002055
:103BB00008BD0000014B1860704700BFB02E002008
:103BC000064B074A92E8030083E8030008334432B7
:103BD00092E8030083E80300704700BFB42E002082
:103BE0006000001000487047B42E002018B1830B0D
:103BF000024AD05C70470020704700BF90B70200B7
:103C0000C1B110B5044648B1637903F0C003802BFD
:103C100012D0C02B0CD04BB1042010BD7846074BFE
:103C20001B680BB19847EFE700DEEDE7022010BDFF
:103C3000012010BD08467047032010BDA82E0020AB
:103C400008B503881A4492B202808A4208D00388D9
:103C5000994209D87846054B1B6823B1984708BD9F
:103C600000230380F3E700DE08BD00BFA82E00207C
:103C700038B504460D468368828813448B4204D0CD
:103C800078460F4B1B68B3B198472A880432204608
:103C900092B230F8041BFFF7D3FF2388A2889B1A47
:103CA0009BB2042B04D87846054B1B682BB1984770
:103CB0000023AB7038BD00DEE7E700DEF8E700BFA9
:103CC000A82E00200B88194404318268038813440D
:103CD000994201D0084670471146FBE738B50446C3
:103CE0000D46FFF7EFFFEFF3108172B6A26863880D
:103CF0001344984204D001B962B60423AB7038BDB6
:103D0000AA1A628001B962B60023AB7038BD83681D
:103D10001944887870470088043880B270470000E2
:103D200010B50B88934210D99B1A9BB244884CB9AA
:103D30000488E31A43800A8042888368134400227F
:103D40009A7010BDE31A4380F5E7934206D0784697
:103D5000034B1B680BB1984710BD00DE10BD00BFC0
:103D6000A82E002038B5044643888268D518D15261
:103D70000123AB700A1D92B230F8021BFFF760FFFF
:103D80006288A3889A4203D0A368134400229A70E1
:103D9000284638BD70B51646091A8DB21488043409
:103DA000A4B2A54204D27846064B1B683BB19847A3
:103DB0002C1BA4B2042C01D8043D358070BD00DE5C
:103DC000F6E700BFA82E002010B504468188FFF753
:103DD0009EFF08B1042010BDA080608010BD10B40B
:103DE000038842889C1A8C4212DA8488A14203D943
:103DF00004205DF8044B704781688C189B1A9BB2B5
:103E0000043B8B520423A370002343801846F0E741
:103E10000020EEE7838842889B1A8B4201DA042057
:103E20007047002070472DE9F04104460F46B0F876
:103E3000008043888588AB420BD0AB420ED80988FE
:103E4000043189B2FFF7E6FF06467EB13046BDE891
:103E5000F081FFF7B9FF06464546F6E709880431C9
:103E600089B2FFF7BCFF06464546EEE73A462946CB
:103E70006088FFF78FFFE9E770B5064615460C46E8
:103E800000294FD0002E55D0B4F1005F08D94FF073
:103E90008053D3F80C3103F50023B4EB832F11D3F7
:103EA000B4F5000F08D94FF08053D3F80C3103F567
:103EB0000053B4EB832F05D37846254B1B68002BAA
:103EC00040D098476B1E2344B3F1005F08D94FF0F0
:103ED0008052D2F80C2102F50022B3EB822F11D3CD
:103EE000B3F5000F08D94FF08052D2F80C2102F53B
:103EF0000052B3EB822F05D37846154B1B68002B7D
:103F000022D09847042D04D87846114B1B68EBB19A
:103F10009847358000237380B380B460043D2580CA
:103F2000A37070BD78460A4B1B680BB19847A9E790
:103F300000DEA7E77846064B1B680BB19847A3E75E
:103F400000DEA1E700DEBDE700DEDBE700DEE0E744
:103F5000A82E0020F0B583B00D46ADF80620064629
:103F600038B175B1BDF806409CB90924204603B0AC
:103F7000F0BD7846174B1B680BB19847F1E700DEA0
:103F8000EFE77846134B1B680BB19847EAE700DE72
:103F9000E8E73046FFF7BFFE844201D90924E5E790
:103FA000E31C9BB223F0030302A921F8023DEFF3C7
:103FB000108772B63046FFF736FF044618B1002F5F
:103FC000D4D162B6D2E7BDF806103046FFF7CAFE7C
:103FD0002860F4E7A82E002070B582B00C46ADF83A
:103FE0000620054600283CD0002C42D0A378012BA7
:103FF00005D078462E4B1B68002B42D0984722886C
:10400000BDF806309A4205D27846294B1B68002B32
:1040100039D09847BDF806302BB97846244B1B6839
:10402000002B32D09847BDF8063003339BB223F003
:1040300003039BB2ADF80630228893420DD021468F
:104040002846FFF73FFEEFF3108672B6AA686B882A
:10405000134498421BD006B962B60223A37002B083
:1040600070BD7846124B1B680BB19847BCE700DE69
:10407000BAE778460E4B1B680BB19847B6E700DEEF
:10408000B4E700DEBBE700DEC4E700DECBE7A01A42
:1040900080B2A988814200D829880DF10602FFF775
:1040A00079FEBDF8062021462846FFF739FED2E703
:1040B000A82E002038B50D46044620B15DB1A38876
:1040C000A168194415E07846164B1B680BB1984758
:1040D000F4E700DEF2E77846124B1B680BB1984715
:1040E000EDE700DEEBE72046FFF7C2FDA388A168FD
:1040F00019448B78042BF6D0022B03D0032B06D067
:10410000052038BD03238B702960002038BD784618
:10411000044B1B6813B19847002038BD00DE002017
:1041200038BD00BFA82E002010B5044618B1A388E2
:10413000A16819440DE078460A4B1B680BB19847FB
:10414000F5E700DEF3E72046FFF792FDA388A168BC
:1041500019448B78042BF6D0022B01D0002010BD1F
:10416000012010BDA82E002038B50C46054650B1E0
:104170008CB1A378012B16D0032B19D121462846E8
:10418000FFF776FD38BD78460D4B1B680BB198479D
:10419000EEE700DEECE77846094B1B680BB1984769
:1041A000E7E700DEE5E721462846FFF797FD38BD43
:1041B0007846034B1B680BB1984738BD00DE38BD0D
:1041C000A82E0020064B1B68834202D1002304E086
:1041D000134613B15A689042FAD11846704700BF8F
:1041E000C43E002038B50C4B1B68834207D0044600
:1041F000FFF7E8FF054630B163686B6038BD5A6869
:10420000054B1A6038BD7846044B1B680BB19847C4
:10421000F2E700DEF0E700BFC43E0020A82E002039
:104220000388033189B221F0030189B28B4224D083
:10423000024601D207207047581A082801D80720E3
:10424000704730B4EFF3108072B6118001F10805A9
:1042500054195B1A9BB2083B535300236380538865
:1042600033B953686360546048B962B630BC704774
:10427000044B1A6862601C60F6E70020704700205B
:10428000F4E700BFC43E0020018000234380426069
:104290007047000038B5134C4FF480552A46002172
:1042A000204606F0B3FC104B1C600AE000222821D7
:1042B0002046FFF7E9FF2388083323446360303D3D
:1042C0001C46502DF2D8083D04D17846074B1B6898
:1042D00033B198470022A9B22046FFF7D5FF38BD79
:1042E00000DEF7E7C42E0020C43E0020A82E0020E8
:1042F0002DE9F843CE1CB6B226F00306B6B2731E03
:104300009BB2B3F5BE7F03D309231846BDE8F883FB
:10431000EFF3108972B6434B1D6815B18046002734
:104320002AE0B9F1000F78D162B60423EDE7204608
:10433000FFF758FF3B4B1B689D4216D0BC4206D08E
:1043400023882A88134408332B80012310E0284651
:10435000FFF738FF07460028F2D17846324B1B683A
:104360000BB19847ECE700DEEAE70027E8E7002317
:104370000BB92F466D686DB12B889E420AD91C4639
:1043800008342C44294B9C42F1D26388002BCED0B8
:104390000023EDE705B32B88254AA2FB0323013E4A
:1043A000244A82FB0612F617C6EB22160136B6EB3C
:1043B000531F17D301236B801FB36B687B60B9F168
:1043C000000F00D162B6174B1B689D421DD0083507
:1043D000C8F80050002398E7B9F1000F1FD162B66A
:1043E000042392E706EB8606F10089B22846FFF720
:1043F00017FF03460028DDD0B9F1000F85D162B662
:1044000083E76A68074B1A60D9E77846064B1B6852
:104410000BB19847DBE700DED9E7042375E70423F7
:1044200073E700BFC43E0020A82E0020C43E002039
:10443000CDCCCCCC6766666670B50446194B984205
:1044400005D203F58053984226D2012300E00123D0
:1044500023B97846144B1B6803B39847A4F10806A8
:10446000EFF3108572B634F8063C012B04D0784681
:104470000D4B1B68A3B19847002124F8061C34F8A3
:10448000082C204606F0C2FB084B1A6844F8042C9E
:104490001E6005B962B670BD0023D9E700DEDDE716
:1044A00000DEE9E7C42E0020A82E0020C43E002034
:1044B00038B50546104C1323C4F800320F4800F0FD
:1044C0000DFA287A00F0EEF96B68C4F80435082379
:1044D000C4F804330023C4F80C312B7833B1012223
:1044E000054B5A600022064B1A7038BD0123236029
:1044F000034A137038BD00BF00100040CC3E0020BE
:104500001823002010B504460F48082383600F4B82
:1045100003600C234360FCF715FD62680C4B1A60C6
:1045200000221A7125225A7122789A71A268094BC9
:104530001A60E268084B1A602269084B1A6004226C
:10454000074B1A7010BD00BFD43E0020E83E00208B
:10455000CC3E0020483F00204C3F0020C83E0020B9
:10456000182300202DE9F843002864D006460029CE
:1045700063D00B681BB907273846BDE8F883304B7A
:104580001B78042B01D10827F6E70D46EFF31084C2
:1045900072B6D1F800902B48FCF755FDC0F1080029
:1045A000294B1B6898420CD90027A0EB0308C14592
:1045B00000D8C8464344244A136004B962B60024B4
:1045C00005E04FF000090427EFE700DE0134A045C5
:1045D0001ED904EB44029300F1180A7A272A24D842
:1045E0004A6822B3F35C022B23D808F1FF339C42C4
:1045F00014BF002301238B721248FCF7CDFC002866
:10460000E4D07846114B1B68002BDED09847DDE7DD
:104610004446EFF3108372B60B490A68A2EB080216
:104620000A6003B962B62C60A6E70727F1E70727FF
:10463000EFE70727EDE70E279EE70E279CE700BF71
:1046400018230020D43E0020503F0020A82E002038
:10465000EFF3108372B6054A1278032A03D00221C1
:10466000034AC2F8001103B962B67047182300204C
:1046700000E100E0064B0022C3F800224FF0FF32B9
:10468000C3F8082301221A610322024B1A707047F3
:10469000001000401823002030B585B001A918484B
:1046A000FCF704FD28B99DF80430022B07D0002345
:1046B00000E000231C4623B9204605B030BD01238D
:1046C000F8E700210E48FCF794FC20B178460D4B2A
:1046D0001B689BB19847FFF7CDFF0B4BD3F85035C4
:1046E000002BFAD10021084BC3F80C11074B1D68B1
:1046F0000B464FF0FF320298A847DDE700DEEAE7FD
:10470000D43E0020A82E002000100040483F00208A
:1047100010B5EFF3108472B6064B1B781BB9FFF788
:10472000BBFF0028FBD10222024B1A7004B962B60B
:1047300010BD00BF18230020F0B585B0324BD3F870
:104740000C31002B49D0304BD3F80044003418BF53
:104750000124D3F80C64D3F81C3103B32A4B002294
:10476000C3F81C21D3F84855EDB20022264BC3F8FC
:104770000C2101A92548FCF73CFC90B99DF80430B8
:10478000013BDBB2012B0FD9214B1B6802989DF82E
:104790000E208AB19DF80D20EAB900210DE06425B4
:1047A000E3E7FFF767FF14E01A4B1F686BB232466E
:1047B00021460298B84701E0002198470222164B93
:1047C0001A70154B1B78022B11D0042B0FD0032B22
:1047D0000DD005B0F0BD0121EFE70C48FCF733FC2C
:1047E0000128EED9FFF758FF0028F6D1E9E701A923
:1047F0000648FCF75BFC18B901A8FFF759FEE8E78B
:10480000064B1B689847E4E700100040D43E0020A8
:104810004C3F0020483F002018230020C83E0020C5
:1048200008B500F025F80B4800F058F802230A4AB2
:1048300013700A4AC2F8803113600948FCF73BFC48
:1048400020B90222054BC3F8002108BD054B1B68A7
:10485000984708BDCC3E00201823002000E100E06E
:10486000D43E0020C83E002008B5FFF703FF08BD76
:104870000A4B0022C3F8FC2F0122C3F8FC2F40F2A0
:104880005B62C3F8382540F20312C3F83425044AAA
:10489000C3F83C259622C3F8442570470010004019
:1048A0005555550010B50446272804D97846084BBD
:1048B0001B6853B19847074B1A5D074BC3F808258F
:1048C00004F07F04C3F8544510BD00DEF3E700BFD9
:1048D000A82E002094B702000010004010B5044636
:1048E000002846D0A379052B05D97846294B1B68AB
:1048F000002B46D0984763792BB97846254B1B6827
:10490000002B40D0984763790233B3F5817F05D9F6
:104910007846204B1B68002B37D0984722791E4BD6
:10492000C3F80C25A279C3F81025E278C3F8242532
:1049300022681202C3F81C250022C3F82C2501228C
:10494000C3F83025627942F0007242F44032C3F875
:1049500018256379252B1AD80623C3F108021204FF
:1049600002F47022134343F480730B4AC2F81435E7
:1049700010BD7846074B1B680BB19847B2E700DEC5
:10498000B0E700DEB7E700DEBDE700DEC6E70823DC
:10499000E3E700BFA82E0020001000402FDF704783
:1049A00030DF704710B4034600685A68A0EB7210FD
:1049B0009C6882EAF4321A60D9680C445C60014455
:1049C00099601044D8605DF8044B704770B582B0B0
:1049D0000D46064608B100240FE07846104B1B68D0
:1049E0000BB19847F7E700DEF5E79DF8071030199F
:1049F000FFF7D6FF9DF807301C44AC420DD20DF1F5
:104A00000700FFF7CBFF9DF80730002BF7D02A1BDC
:104A10009342EAD98DF80720E7E702B070BD00BFE6
:104A2000A82E002030B583B00546002402A840F827
:104A3000044D0421FFF7CAFF074B2B60019B6B60FD
:104A4000AB60EB6003E02846FFF7ACFF0134132CAA
:104A5000F9D903B030BD00BFED5EEAF1024A136838
:104A600001331360704700BF543F002010B500238E
:104A7000084A1360084C094AA260094AE2602361AF
:104A800000F09EF800F5C330A0306060204600F0D2
:104A900019FB10BD543F0020583F00205D4A020022
:104AA000A086010000F1100301229A40054BC3F8D3
:104AB000042300F5A87243F822105030002243F876
:104AC0002020704700800040022801D9072070474D
