:020000021000EC
:10F000000000012033F10100D9F00100694F020036
:10F01000DDF00100DFF00100E1F001000000000080
:10F02000000000000000000000000000E3F001000C
:10F03000E5F0010000000000E7F00100E9F0010048
:10F04000EBF00100EDF0010075120200F1F001009B
:10F05000F3F00100F5F00100C54D0200F9F00100E8
:10F06000FBF00100FDF00100FFF0010001F10100E3
:10F0700003F1010005F1010007F1010009F10100B0
:10F080000BF101000DF101003D62020011F10100E0
:10F0900013F1010015F10100B54F020019F1010053
:10F0A0001BF101001DF101001FF1010021F1010020
:10F0B00023F1010025F10100000000000000000024
:10F0C00027F1010029F101002BF101002DF10100D0
:08F0D0002FF1010031F10100F4
:10F0D800FEE7FEE7FEE7FEE7FEE7FEE7FEE7FEE700
:10F0E800FEE7FEE7FEE7FEE7FEE7FEE7FEE7FEE7F0
:10F0F800FEE7FEE7FEE7FEE7FEE7FEE7FEE7FEE7E0
:10F10800FEE7FEE7FEE7FEE7FEE7FEE7FEE7FEE7CF
:10F11800FEE7FEE7FEE7FEE7FEE7FEE7FEE7FEE7BF
:10F12800FEE7FEE7FEE7FEE7FEE70348854612F046
:10F1380057FC00F003B870470000012035493648F5
:10F148000A1A02D0072291438D46344934480A1AD4
:10F1580006D00722914381F30988022282F314889A
:10F1680030483149314A00F043F831483149324A90
:10F1780000F03EF831483249324A00F039F8324856
:10F188003249334A00F034F832483349334A00F000
:10F198002FF833483349344A00F02AF833483449C1
:10F1A800344A00F025F834483449002200F02BF89E
:10F1B80033483449002200F026F833483349091A05
:10F1C800082903DB00220260043001601F4820493F
:10F1D800884205D00268043003B4904703BCF7E7BF
:10F1E80000208646EC4600200021294A9047FEE789
:10F1F800884207D0521A05D0037801300B700131CC
:10F20800013AF9D17047884202D002700130FAE71A
:10F21800704700000000012000FC002000000120D1
:10F228000000012004550300D8220020A823002054
:10F238009CF201009CF20100C03B0300045503004E
:10F24800D8220020D8220020C03B0300C03B030086
:10F25800C03B0300C03B0300C03B0300C03B0300AE
:10F26800C03B0300C03B030004550300D455030012
:10F27800A8230020A8230020A8230020B45500209C
:10F28800B4550020B4550020B4550020B4590020CE
:04F298009DF20100E2
:10F29C0000B58BB08A4A04214EF2070008F054FFE7
:10F2AC00884B1B6813F4804F0DD0874B1B68032BC6
:10F2BC0009D9864BD3F80435854A009243228549F7
:10F2CC00042008F05DFF4FF0A0434FF0FF32C3F86D
:10F2DC0018254FF4F012C3F80425002348E04FF032
:10F2EC00A041D1F8042582F40032C1F804257A4AF1
:10F2FC0011687A4A7A4800BF00BF00BF00BF00BF48
:10F30C0000BF00BF00BF81422FD000BF00BF00BFB5
:10F31C0000BF00BF00BF00BF00BF00BF00BF00BFE9
:10F32C0000BF00BF00BF00BF00BF00BF00BF00BFD9
:10F33C0000BF00BF00BF00BF00BF00BF00BF00BFC9
:10F34C0000BF00BF00BF00BF00BF00BF00BF00BFB9
:10F35C0000BF00BF00BF00BF00BF00BF00BF00BFA9
:10F36C0000BF00BF00BF00BF00BF013AC3D10133D3
:10F37C00092BB4DD5B4B1868099005F099FE514BD5
:10F38C001B6813F4804F0DD04F4B1B68032B09D90E
:10F39C004E4BD3F80435544A009256224D49042062
:10F3AC0008F0EEFE00230893099B06934F4B07933E
:10F3BC0006A809F0C9FD00286DD1424B1B6813F457
:10F3CC00804F0DD0404B1B68032B09D93F4BD3F812
:10F3DC000435474A00925D223E49042008F0D0FED5
:10F3EC0009F00CFE00285BD103F0B8F904F0B0FC76
:10F3FC00344B1B6813F4804F0DD0334B1B68032B1D
:10F40C0009D9324BD3F804353A4A00926422314977
:10F41C00042008F0B5FE0023059304230393012375
:10F42C00049303A9C82009F0E1FF264B1B6813F4D1
:10F43C00804F0DD0244B1B68032B09D9234BD3F8D9
:10F44C0004352D4A009268222249042008F098FEC7
:10F45C00002000F057F840BB00F072F850BB194B7D
:10F46C001B6813F4804F0DD0174B1B68032B09D965
:10F47C00164BD3F80435214A00926C22154904200E
:10F48C0008F07EFE4FF400324FF0A043C3F80C2579
:10F49C0009F014FEFCE71A4A5B2105F011FD8CE71C
:10F4AC00174A5E2105F00CFD9EE7154A692105F00F
:10F4BC0007FDD1E7124A6A2105F002FDCFE700BF34
:10F4CC0029810200302300202C23002000B00040B2
:10F4DC00083C0300003C03009C230020A086010094
:10F4EC000024F400C03B0300443C03001D4F020009
:10F4FC00603C0300783C0300983C0300B83C0300DC
:10F50C00C43B030038B5054600F05AFB10B1082483
:10F51C00204638BD01F0C8FC04460028F8D100F0A4
:10F52C00DFF904460028F3D100F0AAFE01F0ECF953
:10F53C0002F054F8002DEBD0284601F09FFEE7E7CF
:10F54C0008B500F0FFF908BD08B50C4B1B7803B1EA
:10F55C0008BD0B490B480AF0E9F90028F8D1084B13
:10F56C001B6819790123054A1370074AC2F81C015C
:10F57C009360C2F81C15054A1380E9E72424002087
:10F58C00A02400209024002000200040A82300206C
:10F59C0008B5024B186806F005FF08BDAC23002027
:10F5AC0008B51D4B1B7823B978461C4B1B68B3B1AF
:10F5BC0098471B4B1B68A3B1194B1968194B1B8837
:10F5CC000A790132934215D0934207DA19440A7929
:10F5DC00013314490B80144BC3F81C2508BD00DE05
:10F5EC00E7E70122104BDA6000220B4B1A70FFF791
:10F5FC00CFFF08BD01330B4A13800C480AF0F0F919
:10F60C000023074A13600121074AD160024A137094
:10F61C00FFF7BEFF08BD00BF242400209438002053
:10F62C00A0240020A82300200020004090240020CB
:10F63C0008B56822124913480AF05AF86822124990
:10F64C0012480AF055F81249124801F08BFD20B10E
:10F65C007846114B1B6883B19847012001F008FED6
:10F66C0000230E4A13700E4A13800E4A13800E4864
:10F67C0006F06EFE0D4B186008BD00DEEDE700BF16
:10F68C002824002090240020B023002018240020DF
:10F69C00ADF5010009F80100943800202424002065
:10F6AC0026240020A823002055F50100AC230020BF
:10F6BC0030B583B004460D46421C92B201A90648EF
:10F6CC000AF084F8034618B9019A111D29601471C7
:10F6DC00184603B030BD00BF9024002038B5054655
:10F6EC000C4602E004220B4B1A6021462846FFF719
:10F6FC00DFFF04280CD10422064BC3F8802001F054
:10F70C0083FD054B1B78002BECD1FFF71DFFE9E7C0
:10F71C0038BD00BF00E100E02424002038B50446C9
:10F72C00F8B1251FAB78012B04D07846134B1B681E
:10F73C00FBB19847227834F8043C9A4204D97846B5
:10F74C000E4B1B68BBB1984706F0C2FDFFF720FFBC
:10F75C0034F8042C29460A480AF07AF806F0D8FD49
:10F76C0038BD7846054B1B680BB19847D9E700DECE
:10F77C00D7E700DEDEE700DEE6E700BF94380020C6
:10F78C009024002030B583B004460D4601A9032017
:10F79C00FFF78EFF08B103B030BD8422019B5A7075
:10F7AC00019B9D70019BDC700198FFF7B7FFF2E79E
:10F7BC0038B503889BB104460E4A11680A790132A8
:10F7CC0093420DD049788420FFF7DCFF094D29685E
:10F7DC0009480AF005F900232B600023238038BD6B
:10F7EC000A8805480AF034F80022024B1A6000F02F
:10F7FC0085F9F2E79C2400201824002038B5044633
:10F80C00254B1B8883B125490B68234A1088034478
:10F81C001C71138801339BB213800A681AB11279D8
:10F82C000132934234D038BD421C1D4B1D8805B9A2
:10F83C001546012D04D91B4809F03EFF854218D905
:10F84C0000218420FFF79EFF00237BB1144A12880D
:10F85C0062B10021124A1180104A11680E4A1088B8
:10F86C00013D01440D71118801311180002BCAD169
:10F87C00D9E72A4609490B4809F0A8FF08B9012322
:10F88C00E3E7074B1D80002001F0F2FC0023DCE7CE
:10F89C000148FFF78DFFC6E7A42400209C2400201C
:10F8AC00262400201824002010B582B0044601A99B
:10F8BC000A480AF03BF810B1002002B010BD0199C3
:10F8CC000A880431204614F0E7F8019903480AF03D
:10F8DC0087F8012001F0CCFC0120EEE71824002071
:10F8EC0008B5064B1B780BB1082008BDFFF7A0FE2E
:10F8FC000122024B1A70002008BD00BFA724002073
:10F90C0008B5044B1B78022B01D0082008BDFFF76B
:10F91C00E5FE08BDA724002010B50446074B1B7854
:10F92C00022B04D07846064B1B6823B1984720461F
:10F93C00FFF7F4FE10BD00DEF9E700BFA72400209E
:10F94C009438002010B584B0294B1B78012B18D0AB
:10F95C00284B1B6813F4004F03D10824204604B035
:10F96C0010BD254B1B68012B40D9244BD3F8043513
:10F97C00234A0092A6222349022008F001FC082405
:10F98C00ECE702221A4B1A7003A90420FFF7B8FF08
:10F99C000446B8B1174B1B6813F4004F02D0164B3A
:10F9AC001B681BB90122124B1A70D7E7134BD3F803
:10F9BC0004350190144A0092B0221249012008F03B
:10F9CC00DFFBEFE78122039B5A700222039B9A70A4
:10F9DC004FF08043D3F8003403F00803039AD3703C
:10F9EC00039863230371FFF797FFB7E70824B5E784
:10F9FC00A7240020302300202C23002000B000403E
:10FA0C00783D03006C3D03008C3D030010B59CB0A9
:10FA1C000022324B1A7018E00133082B13D8304AED
:10FA2C0012F833109DF80D209142F5D82C4901EBBA
:10FA3C00C30149788A42EFD8294A02EBC3035B68B9
:10FA4C0003A8984700E000243CB103A8FFF72CFF63
:10FA5C00044600283FD00023DFE7224B1B6813F439
:10FA6C00004F10D0204B1B68012B0CD91F4BD3F827
:10FA7C0004359DF80D2001921D4A009281221D49EA
:10FA8C00022008F07DFB02A90320FFF739FFA0B18B
:10FA9C00144B1B6813F4004FD7D0134B1B68002B6F
:10FAAC00D3D0124BD3F804350190134A009287221D
:10FABC001049012008F064FBC7E78422029B5A70AE
:10FACC009DF80D20029B9A708222029BDA7002989C
:10FADC00FFF722FFB9E71CB010BD00BFA624002021
:10FAEC00D43C0300302300202C23002000B0004025
:10FAFC001C3D03006C3D03008C3D030008B50A4B14
:10FB0C001B781BB9094B1B78022B00D008BD0122B6
:10FB1C00054B1A700021064806F0A6FB0028F5D00C
:10FB2C000022014B1A70F1E7A6240020A724002024
:10FB3C0019FA0100092833D00BD90E2836D01AD85F
:10FB4C000B282FD00FD30C282ED00D2836D1932074
:10FB5C00704704281CD008D906281DD01AD30728B2
:10FB6C001CD008282AD18320704702280ED80028E0
:10FB7C00F9D10020704710281CD019D311281BD0A4
:10FB8C0043F20103984219D18E20704781207047AF
:10FB9C008E2070478E2070478E20704785207047CE
:10FBAC0084207047872070478420704781207047DD
:10FBBC008E207047872070478620704780207047C2
:10FBCC00014B1878704700BFA7240020F0B583B014
:10FBDC0007460E461C46154602B12BB955B1784660
:10FBEC00134B1B684BB19847124B1B78022B06D05A
:10FBFC0003B0F0BD002CF7D0F1E700DEF4E7E01C19
:10FC0C0001A980B2FFF77CFE0028F1D18422019B70
:10FC1C005A70019B9F70019BDE702DB122462946C4
:10FC2C000198043013F038FF0198FFF775FEDFE7F9
:10FC3C0094380020A724002010B5044603F0D6FC0D
:10FC4C0000231A4619466078FFF7C0FF10BD10B5A7
:10FC5C0098B0044618AA5C2322F8603D0DF102010D
:10FC6C00408804F051FC034658B1092809D0647847
:10FC7C00FFF760FF00231A4601462046FFF7A6FF58
:10FC8C0009E064781846FFF755FF5E236A46014683
:10FC9C002046FFF79BFF18B010BD10B582B004468C
:10FCAC0001AA4168408804F0FBFB022301AA01462B
:10FCBC00607800F071F902B010BD10B582B0044646
:10FCCC0001A9408804F0C8FB04230DEB0302014694
:10FCDC00607800F061F902B010BD10B582B0044636
:10FCEC0001A9408804F0A6FB012301AA0146607813
:10FCFC0000F052F902B010BD10B582B0044601A953
:10FD0C00408804F085FB012301AA0146607800F0CD
:10FD1C0043F902B010BD10B582B0044601A9408869
:10FD2C0004F064FB022301AA0146607800F034F968
:10FD3C0002B010BD10B504468188408804F038FB31
:10FD4C006478FFF7F7FE00231A4601462046FFF7BA
:10FD5C003DFF10BD10B582B0044601A9408804F0E7
:10FD6C0007FB012301AA0146607800F015F902B0E7
:10FD7C0010BD10B504460179408804F0C7FA6478C8
:10FD8C00FFF7D8FE00231A4601462046FFF71EFF58
:10FD9C0010BD10B582B0044601A9408804F096FA53
:10FDAC00022301AA0146607800F0F6F802B010BDFB
:10FDBC0010B504468188408804F058FA6478FFF73F
:10FDCC00B9FE00231A4601462046FFF7FFFE10BD80
:10FDDC0010B598B0044618AA2E2322F8603D0DF1F8
:10FDEC000201408804F002FA034658B1092809D0F0
:10FDFC006478FFF79FFE00231A4601462046FFF762
:10FE0C00E5FE09E064781846FFF794FE5E236A4627
:10FE1C0001462046FFF7DAFE18B010BD10B50446B7
:10FE2C008188408804F0A2F96478FFF783FE0023F0
:10FE3C001A4601462046FFF7C9FE10BD10B5044610
:10FE4C008188408804F052F96478FFF773FE002330
:10FE5C001A4601462046FFF7B9FE10BD10B598B002
:10FE6C00044618AA5C2322F8603D0DF1020140887B
:10FE7C0004F0E8F8034658B1092809D06478FFF774
:10FE8C0059FE00231A4601462046FFF79FFE09E063
:10FE9C0064781846FFF74EFE5E236A4601462046FC
:10FEAC00FFF794FE18B010BD10B504468188408849
:10FEBC0004F07CF86478FFF73DFE00231A460146F7
:10FECC002046FFF783FE10BD10B50446818840889C
:10FEDC0004F022F86478FFF72DFE00231A46014641
:10FEEC002046FFF773FE10BD10B582B004460DF12D
:10FEFC00050201A9408803F0DFFF022301AA014695
:10FF0C00607800F049F802B010BD10B50446427993
:10FF1C000179408803F086FF6478FFF70BFE00231D
:10FF2C001A4601462046FFF751FE10BD10B582B0AF
:10FF3C00044601A9408803F055FF022301AA01469B
:10FF4C00607800F029F802B010BD10B50446818825
:10FF5C00408803F017FF6478FFF7ECFD00231A4686
:10FF6C0001462046FFF732FE10BD000010B50446D6
:10FF7C004378F52B04D97846054B1B6833B1984769
:10FF8C0016220449204600F01FF810BD00DEF7E7EA
:10FF9C0094380020C43D030070B50446084641B1B6
:10FFAC00FFF7C8FD00231A4601462046FFF70EFE58
:10FFBC0070BD15461E46FFF7BDFD33462A46014669
:10FFCC002046FFF703FE70BD70B5002393421BD291
:10FFDC00447801EBC30611F83350AC4201D0013325
:10FFEC00F4E70278737801339A4203DBB1780B445F
:04FFFC009A4206DD42
:020000022000DC
:1000000000231A4684212046FFF7E6FD70BD736881
:10001000984770BD00231A4682214078FFF7DCFD27
:1000200070BD08B500231A4682214078FFF7D4FD41
:1000300008BD00B583B002AA042322F8043D0223C0
:1000400000214078FFF7C8FD03B05DF804FB000015
:1000500010B582B004468378BBB98DF80030E42136
:100060000D4A01FB03235A7B8DF802205B68CDF813
:10007000033009F0CDFE8DF8010007236A46002108
:100080006078FFF7A9FD02B010BD00231A46852154
:100090004078FFF7A1FDF6E7A824002010B504463C
:1000A000807850B107206478FFF74AFD00231A4694
:1000B00001462046FFF790FD10BDE422084B02FBED
:1000C0000030D4F805304360D4F805300A3383603B
:1000D00023794373043005F072FC0020E3E700BF8E
:1000E000A824002010B50446807818BBE42303FB45
:1000F00000F3114AD35C012B0BD008236478184617
:10010000FFF71EFD00231A4601462046FFF764FD57
:1001100010BDE422084B02FB0030043005F00CFC5B
:1001200003460028EAD1A178E42202FB01F2024949
:100130008854E3E70723E1E7A824002070B582B0E4
:100140000446837863B1072564782846FFF7F8FCF6
:1001500000231A4601462046FFF73EFD02B070BD5F
:1001600001788E1E073101A809F004FD054600281C
:10017000EAD1019D3246E11C05F1090013F092FC21
:10018000F6B206366E70A078E4220B4B02FB00300C
:10019000FF220199043005F069FB054638B9A278C1
:1001A000E42303FB02F30121034AD154CCE7019875
:1001B00009F084FDC8E700BFA824002010B504465C
:1001C000012007F05BFF00231A468E216078FFF7BD
:1001D00003FD10BD10B50446044807F06BFF002373
:1001E0001A4619466078FFF7F7FC10BDF1010200CE
:1001F00030B583B00446807801A90430FFF786FB50
:1002000020B17846104B1B68DBB198478322019BD5
:100210005A70A3780433019A13702278019B9A7064
:100220006278019BDA70019DA3782B71A2786168D6
:10023000681D13F037FC2846FFF774FB002003B05D
:1002400030BD00DEE2E700BF9438002010B582B078
:10025000044601A90078FFF759FB20B178460A4B04
:100260001B687BB198478222019B5A7001980278E3
:10027000013AA11C023013F015FC0198FFF752FB64
:1002800002B010BD00DEEEE79438002010B5002467
:1002900004B110BDE420094B00FB043002230373BA
:1002A0001E238360142343600723437300230361E9
:1002B000043005F01FFA0134EAE700BFA82400204B
:1002C00010B5044643781F2B04D97846054B1B68AC
:1002D00033B19847092204492046FFF77BFE10BD41
:1002E00000DEF7E794380020743E030070B5044642
:1002F00003780F2B00F29D80DFE803F0089B5E9BE4
:100300009B9B9B9B9B9B9B9B9B9B768A06894E2ED4
:1003100000D94E2606F11400474980B2FFF7F6FADD
:1003200020B17846454B1B68B3B19847424B1D68D6
:100330002389A5F81330237D012B0FD0D1236B70B7
:10034000291D04F1140002F061FC58B178463B4BC2
:100350001B6843B3984705E000DEE7E7D0236B70E6
:10036000E38AAB80E3896B80206A02F08BFCE88033
:10037000E06902F07FFC288194F82430AB7294F895
:100380002530C3F34603EB72234653F8262FEA6069
:100390009B882B8294F92C30AB7436B9264B1868A5
:1003A000FFF7C0FA70BD00DEDCE73246616805F198
:1003B000150013F077FBF1E71F490520FFF7A6FAB8
:1003C00020B178461D4B1B6863B198471A4B1A68D9
:1003D000D32151701A68A168C2F802101868FFF79B
:1003E000A1FA70BD00DEF1E713490120FFF78EFA94
:1003F00020B17846114B1B6843B198470E4B1A68E1
:10040000D52151701868FFF78DFA70BD00DEF5E751
:1004100009490120FFF77AFA20B17846074B1B689B
:1004200043B19847044B1A68D62151701868FFF7FA
:1004300079FA70BD00DEF5E794250020943800209D
:1004400010B5044603F082FC02F0A6F908F06AFA3F
:1004500000231A4619466078FFF7BEFB10BD10B5A1
:1004600088B0044601A9C08802F0D4FA014630B130
:1004700000231A466078FFF795FD08B010BD684666
:1004800002F00CFAA288BDF800309A422ED3BDF8D3
:1004900002100B449A4201DB1021E9E706A96088AB
:1004A00002F010FE01460028E2D1A388ADF80C301E
:1004B000237A8DF80E30637A003318BF01238DF84C
:1004C0000F302378092B0CD904F10A030493237805
:1004D000093BADF81430002101A808F0CFFD01461A
:1004E000C6E700230493ADF81430F4E71021BFE70A
:1004F00000B583B002AA082322F8043D022300219C
:100500004078FFF74FFD03B05DF804FB00B583B002
:1005100002AA102322F8043D022300214078FFF7AD
:1005200041FD03B05DF804FB10B582B0044601A89C
:1005300002F0B4F9BDF80430ADF80030BDF8063073
:10054000ADF8023004236A4600216078FFF72AFDE7
:1005500002B010BD00B583B002AA032322F8043D07
:10056000022300214078FFF71DFD03B05DF804FB76
:1005700000B583B002AA082322F8043D022300211B
:100580004078FFF70FFD03B05DF804FB00B583B0C2
:1005900002AA042322F8043D022300214078FFF739
:1005A00001FD03B05DF804FB10B59AB004461AA92A
:1005B0002F2341F8643D02A802F0E6FA019B5B009C
:1005C0009BB202AA01466078FFF7ECFC1AB010BD9E
:1005D00030B589B0044606A9408802F01BFA002312
:1005E00000930193029303930493ADF814300546EE
:1005F00038B100236A4629466078FFF7D3FC09B07A
:1006000030BD6088ADF800009DF818308DF80230DC
:1006100002F0B4F98DF80300BDF81A30ADF80430DB
:10062000079B6BB1186859689A68DB68CDF80600BB
:10063000CDF80A10CDF80E20CDF812301623D9E7E8
:100640000623D7E710B582B00446408802F044F98B
:10065000638802AA22F8043D022301466078FFF76E
:10066000A1FC02B010BD10B582B004460DF1060128
:10067000023002F02CF902AABDF8063022F8043D3F
:10068000022301466078FFF78DFC02B010BD10B563
:1006900082B004460DF10601408802F013F902AA67
:1006A000BDF8063022F8043D022301466078FFF7CA
:1006B00079FC02B010BD10B582B00446408802F04B
:1006C000F9F9638802AA22F8043D02230146607802
:1006D000FFF768FC02B010BD10B582B004460DF102
:1006E0000601023002F045F902AABDF8063022F8F0
:1006F000043D022301466078FFF754FC02B010BDB0
:1007000010B582B004460DF10601408802F02CF9C4
:1007100002AABDF8063022F8043D022301466078A3
:10072000FFF740FC02B010BD10B582B0044643880C
:10073000ADF804308388ADF8063001A802F06EF8F9
:1007400000231A4601466078FFF72CFC02B010BD6A
:1007500010B582B00446408802F064FB638802AAA8
:1007600022F8043D022301466078FFF71BFC02B02B
:1007700010BD10B582B0044601AB821D818840884F
:1007800002F00AFB022301AA01466078FFF70AFC87
:1007900002B010BD10B59AB004462E2301934088D4
:1007A000ADF8080001AA0DF10A0180B202F068FC60
:1007B0000146019B43B101335B009BB202AA607802
:1007C000FFF7F0FB1AB010BD1A466078FFF7EAFB9E
:1007D000F8E710B582B00446408802F0BBFB63889E
:1007E00002AA22F8043D022301466078FFF7DAFBF3
:1007F00002B010BD10B582B00446011D408802F061
:100800007FFB638802AA22F8043D02230146607838
:10081000FFF7C8FB02B010BD10B582B004460DF161
:100820000203821D8188408802F028FB02AABDF8DD
:10083000023022F8043D022301466078FFF7B2FB44
:1008400002B010BD10B59AB004461AA92F2341F882
:10085000643D02A802F092FA0146019B3BB15B00A5
:100860009BB202AA6078FFF79DFB1AB010BD1A4632
:100870006078FFF797FBF8E710B582B00446408830
:1008800002F08AFB638802AA22F8043D0223014693
:100890006078FFF787FB02B010BD10B582B0044648
:1008A000011D408802F040FA638802AA22F8043D44
:1008B000022301466078FFF775FB02B010BD10B54A
:1008C00082B004460DF10202011D408802F0E2F9F7
:1008D00002AABDF8023022F8043D022301466078E6
:1008E000FFF760FB02B010BD10B5447808F0B2FB12
:1008F00000231A4601462046FFF754FB10BD10B5F1
:10090000447808F081FB00231A4601462046FFF791
:1009100049FB10BD08B50348034B036008F0D1FC48
:1009200008BD00BF8C250020ED02020038B504464A
:1009300043787033DBB21F2B04D978461C4B1B68FD
:100940002BB398476078AC2823D8A0F19005194BB9
:1009500013F83530984204D07846154B1B68F3B134
:1009600098472178134B03EBC5035B780133994219
:1009700006DB104A02EBC50292781344994210DD5F
:1009800000231A4684216078FFF726F938BD00DE7F
:10099000D8E700231A468221FFF71EF938BD00DE92
:1009A000DFE7044B03EBC5056B682046984738BD6D
:1009B00094380020BC3E030038B5054600240CB135
:1009C000002038BD04EB44039A000C4B13445B68D1
:1009D0008BB104EB440293000422084919442846D1
:1009E00013F040F808B10134E9E704EB4404A30034
:1009F0000248184438BD002038BD00BF98250020AB
:100A000030B59BB00446851C19A9408803F02AFD27
:100A1000034670B919A8FFF7CFFF10B31AA9002237
:100A200001F8642D83682846984703469DF8042002
:100A30005AB964781846FFF783F800231A4601462E
:100A40002046FFF7C9F81BB030BD6478FFF778F88F
:100A50001AAA12F8643D013301462046FFF7BCF89C
:100A6000F1E70523E5E730B583B00446851C284649
:100A7000FFF7A2FF0023ADF8043080B143680DF109
:100A80000201284698470146BDF80230ADF804300F
:100A9000022301AA6078FFF785FA03B030BD052173
:100AA000F6E7000030B599B004465E2200216846A2
:100AB00013F022F8002161B1002118AA32F8603D3C
:100AC0009B009BB202339BB26078FFF76BFA19B0C0
:100AD00030BD01EB41039A000C4B13445B68002BC3
:100AE000EBD0BDF80030162B0DD80DEB830201EBD7
:100AF0004105A800054D2858C2F802000133ADF8A1
:100B000000300131D7E70C21D7E700BF982500203E
:100B100010B504464378FF2B05D003220649204632
:100B2000FFF758FA10BD7846044B1B680BB1984785
:100B3000F3E700DEF1E700BFA43F03009438002094
:100B40000023012B0ADC4FF43072054902FB03122B
:100B5000824201D00133F4E7D8B27047FF207047DA
:100B6000CC250020F0B583B004460378033B0A2B64
:100B700057D8DFE813F00B0041005A00450164012B
:100B8000E000560074009C00FE0082019A4B1B7826
:100B9000002B46D001A91A20FEF7B8FE20B17846F6
:100BA000964B1B6833B39847C022019B5A70019B38
:100BB000224652F8046F55689068D268C3F8026004
:100BC000C3F80650C3F80A00C3F80E2094F91C209D
:100BD0009A74E27EDA74227DC2F346021A7554F8E2
:100BE000152FC3F81520A288A3F819200198FEF745
:100BF00099FE16E000DED7E701A90220FEF786FE87
:100C000020B178467D4B1B686BB19847C122019B90
:100C10005A70019D6068FFF793FFA8700198FEF776
:100C200081FE03B0F0BD00DEF0E701A90320FEF76E
:100C30006DFE20B17846714B1B6873B19847C22294
:100C4000019B5A70019D6068FFF77AFFA870237AB4
:100C5000EB700198FEF766FEE3E700DEEFE701A91F
:100C60000B20FEF753FE20B17846644B1B68E3B1BE
:100C70009847C322019B5A70019D6068FFF760FF8F
:100C8000A870237AEB70E37A2B71237B6B71637B03
:100C9000AB71E389A5F80730237C6B72B4F811308F
:100CA0006B810198FEF73EFEBBE700DEE1E701A99C
:100CB0002C20FEF72BFE28B17846504B1B68002BEA
:100CC00037D09847C522019B5A70019D6068FFF795
:100CD00037FFA8702369C5F80330E38AA5F8093007
:100CE000A38AA5F80730237EC3F30003EB72237EAB
:100CF000C3F340032B73E3681E6858689968DB6888
:100D0000C5F80D60C5F81100C5F81510C5F8193003
:100D1000A3681C6858689968DB68C5F81D40C5F869
:100D20002100C5F82510C5F829300198FEF7FAFD15
:100D300077E700DEC6E701A90520FEF7E7FD20B151
:100D400078462E4B1B6893B19847C622019B5A7078
:100D5000019D6068FFF7F4FEA8700123EB7000238B
:100D60002B7110236B710198FEF7DCFD59E700DE53
:100D7000EBE701A96220FEF7C9FD20B178461F4BC1
:100D80001B68BBB39847C722019B5A70019D6068DE
:100D9000FFF7D6FEA870A368EA1C03F14001D3F860
:100DA00000E05F689E68D868C2F800E0576096600F
:100DB000D060103310328B42F1D1E3681E685C685A
:100DC0009868D968C5F84360C5F84740C5F84B0036
:100DD000C5F84F101E695C699869D969C5F85360F8
:100DE000C5F85740C5F85B00C5F85F100198FEF7DD
:100DF00099FD16E700DEC6E7982B00209438002006
:100E000001A91320FEF782FD20B17846284B1B680C
:100E10009BB19847C822019B5A70019D6068FFF7FB
:100E20008FFEA870237AEB70627AE168281D12F0B9
:100E300039FE0198FEF776FDF3E600DEEAE701A948
:100E40000520FEF763FD20B17846194B1B6893B16E
:100E50009847C622019B5A70019D6068FFF770FE9B
:100E6000A8700323EB70237A2B71637A6B7101985E
:100E7000FEF758FDD5E600DEEBE701A90320FEF7FB
:100E800045FD20B178460A4B1B6873B19847C922CB
:100E9000019B5A70019D6068FFF752FEA870237A8B
:100EA000EB700198FEF73EFDBBE600DEEFE700BF0A
:100EB0009438002010B582B0114B1B6813F4004F1A
:100EC00003D0104B1B68032B08D80F490F480DF0B7
:100ED0002DFA044668B1204602B010BD0C4BD3F881
:100EE00004350C4A0092D4220B49042007F04EF935
:100EF000EBE70A480A4B036008F0E3F9EBE700BFB1
:100F0000302300202C230020AC250020582B00206B
:100F100000B000400C400300F43F0300A425002073
:100F2000650B0200F0B589B004464078A0F161037A
:100F3000092B39D8DFE813F00A001C002C007000E0
:100F400038008B00A300BD00D400F700834B1B7852
:100F50002BB100231A468321FEF73EFE24E0012236
:100F60007E4B1A7000231A461946FEF735FE1BE029
:100F70007A4B1B7823B91A468321FEF72DFE13E026
:100F80000021764B19700B460A46FEF725FE0BE052
:100F9000A378012B0AD90B21A37808AA02F81C3DDB
:100FA00001236320FEF7FEFF09B0F0BD01AD23462B
:100FB00053F8130F59689A68DB680FC5B4F82330EB
:100FC000ADF81430D4F82530CDF81630B4F8293007
:100FD000ADF81A3094F82B3094F82C2003F001036C
:100FE00062F341038DF81C30A0785D4B5D4A5E4989
:100FF0004FF430765D4D06FB00500DF07DF9014653
:101000000028C9D1A078002301AAE11C06FB0050EA
:101010000DF0A3F90146BFE7514B524A52495348DC
:101020000DF06AF9034650B164781846FEF788FD62
:1010300000231A4601462046FEF7CEFDB4E7002302
:101040001A46194649480DF075F90346ECE7A378AE
:10105000012B09D90B21A37808AA02F81C3D012312
:101060006620FEF79FFF9FE72279E1784FF4307505
:101070003E4805FB03000DF09EF90146EBE7A3781F
:10108000012B09D90B21A37808AA02F81C3D0123E2
:101090006720FEF787FF87E72278023AD2B2E11C89
:1010A0004FF43075314805FB03000DF08DF9014612
:1010B000E9E7A378012B09D90B21A37808AA02F844
:1010C0001C3D01236820FEF76DFF6DE7E11C4FF426
:1010D0003070264A00FB03200DF080F90146ECE752
:1010E000204D264656F8020F7168B268F3680FC5A6
:1010F00030697169B269F3690FC504F122051A4FAD
:1011000004F1620E3E4628686968AA68EB680FC65B
:10111000103537467545F5D100231A4619466078D3
:10112000FEF75AFD40E7A2780D4B1A70002101220C
:101130005A709970E278DA7022791A71227A1A72EA
:10114000B4F80920A3F8092062795A71E288DA809C
:101150000B460A466078FEF73FFD25E7982B0020F6
:101160004C2B0020AC250020582B0020CC25002043
:10117000002840D0002940D0214A1060214B19603E
:101180004FF0A0434FF48072C3F81C258022C3F8AF
:101190001C250C22C3F82027C3F81C274022C3F8C3
:1011A0000825C3F818252022C3F81825164B062257
:1011B000C3F80C250822C3F814250722C3F810250C
:1011C0000522C3F808250121C3F86C150F4AC3F89E
:1011D00024250422C3F800258420C3F8040300203A
:1011E000C3F80801C3F81C011960094BC02183F83A
:1011F00002131A6070470E2070470E20704700BF20
:101200009C2B0020A02B00200020004000E0D701F4
:1012100000E100E008B5134B1B789BB1124BD3F8EB
:1012200008317BB1104B0022C3F80821D3F80831F4
:101230000E4B1B68002BEED00B4AD2F81805C0B23B
:101240009847E8E7084BD3F81C314BB1064B002216
:10125000C3F81C21D3F81C31054B1B6803B1984718
:1012600008BD00BF992B0020002000409C2B0020CF
:10127000A02B002008B5FFF7CDFF08BD014B18706B
:10128000704700BF992B0020014B1860704700BFCA
:10129000A42B002010B504460A4B1B6853B10178FB
:1012A00001390230984700231A4619466078FEF744
:1012B00093FC10BD00231A468E214078FEF78CFC6B
:1012C00010BD00BFA42B002030B587B00446407885
:1012D000A0F14003142B60D8DFE803F00B120B0BD6
:1012E0000B0B5F5F5F5F5F5F5F5F5F5F5F5F5F33E2
:1012F000460000231A468221FEF76EFC07B030BD7F
:101300002378012B05D000231A468421FEF764FCC4
:10131000F4E7684604F05AFC9DF80030C3F3460336
:101320008DF8083006AB53F8172DCDF809209B88AF
:10133000ADF80D30072302AA00216078FEF74CFCBF
:10134000DCE72378112B05D000231A468421FEF711
:1013500043FCD3E7A01C07F0B9FF00231A46194647
:101360006078FEF739FCC9E72378012B05D000230C
:101370001A468421FEF730FCC0E707F0C7FF03469A
:1013800002AD006859689A68DB680FC5102302AA8D
:1013900000216078FEF720FCB0E74038C0B21F287B
:1013A00004D97846064B1B683BB1984700231A4680
:1013B00082216078FEF710FCA0E700DEF6E700BFB0
:1013C0009438002030B583B004460378103B062BD8
:1013D00031D8DFE813F0600084009A00BA00DD0025
:1013E0000700340001A91620FEF790FA20B17846D4
:1013F0007C4B1B680BB39847A522019B5A7022793E
:10140000019B9A700199234653F8055F5868C1F80B
:101410000350C1F807001B89A1F80B30019854F85C
:101420000F1F6268C0F80D10C0F811202289A0F8C3
:101430001520FEF777FA03B030BD00DEDCE701A926
:101440001620FEF763FA20B17846664B1B6803B39B
:101450009847A622019B5A702279019B9A700199A4
:10146000234653F8055F5868C1F80350C1F80700D8
:101470001B89A1F80B30019854F80F1F6268C0F85F
:101480000D10C0F811202289A0F81520FEF74AFAA5
:10149000D1E700DEDDE701A90D20FEF737FA20B124
:1014A0007846504B1B68C3B19847A022019B5A70E5
:1014B0002279019B9A700199234653F8055F586879
:1014C000C1F80350C1F807001B89A1F80B3001983F
:1014D000E37B4373FEF726FAADE700DEE5E701A9FB
:1014E0000220FEF713FA20B178463E4B1B6853B139
:1014F0009847A122019B5A702279019B9A7001980A
:10150000FEF710FA97E700DEF3E701A90D20FEF7DA
:10151000FDF920B17846334B1B68A3B19847A2224E
:10152000019B5A702279019B9A706279019BDA7053
:10153000019854F8061F62684160826022898281A6
:10154000FEF7F0F977E700DEE9E701A90E20FEF7E4
:10155000DDF920B17846234B1B68BBB19847A32225
:10156000019B5A702279019B9A706279019BDA7013
:101570000198234653F8065F5968456081601B89CE
:101580008381237C8373FEF7CDF954E700DEE6E721
:1015900001A91520FEF7BAF920B17846114B1B6856
:1015A000F3B19847A422019B5A702279019B9A704B
:1015B0000199234653F8055F5868C1F80350C1F8F4
:1015C00007001B89A1F80B3001982369C0F80D3082
:1015D0006369C0F81130237E4375FEF7A3F92AE74B
:1015E00000DEDFE79438002008B50348034B0360B2
:1015F00007F067FE08BD00BFA82B0020C51302003E
:1016000010B58AB004464078A0F1D003062B04D868
:1016100022787149CB5C9A420AD1A0F1D003062B03
:1016200000F2C780DFE803F00B172735416F850014
:1016300000231A468421FEF7CFFA0AB010BD0CF041
:101640009BFB6478FEF77CFA00231A46014620468D
:10165000FEF7C2FAF1E7D4F80D20E11CA0780CF0F7
:1016600081FD6478FEF76CFA00231A460146204695
:10167000FEF7B2FAE1E7E11CA0780CF0C1FD647856
:10168000FEF75EFA00231A4601462046FEF7A4FA4A
:10169000D3E70CF0EDFD6478FEF752FA00231A460A
:1016A00001462046FEF798FAC7E76946A0780CF095
:1016B000F7FDF0B99DF800308DF814300AAB53F8FF
:1016C000271D5A68CDF81510CDF819201B89ADF8E3
:1016D0001D309DF80B308DF81F30039B0893049B41
:1016E000099314230DEB030200216078FEF774FACE
:1016F000A3E76478FEF724FA00231A460146204641
:10170000FEF76AFA99E72378022B05D000231A46E0
:101710008421FEF761FA90E7A0780CF0D9FD647897
:10172000FEF70EFA00231A4601462046FEF754FA49
:1017300083E72378012B05D000231A468421FEF786
:101740004BFA7AE70023CDF80230CDF80630ADF839
:101750000A3068460CF020FB08BB9DF800308DF87D
:1017600014309DF801308DF815300AAB53F8261D62
:101770005A68CDF81610CDF81A201B89ADF81E3026
:101780009DF80C308DF820309DF80D308DF821300B
:101790000E2305AA00216078FEF71EFA4DE7647853
:1017A000FEF7CEF900231A4601462046FEF714FA4A
:1017B00043E73030C0B20F2804D97846074B1B6886
:1017C0003BB1984700231A4682216078FEF704FA5D
:1017D00033E700DEF6E700BF304003009438002016
:1017E00010B504464078782805D000231A46822197
:1017F000FEF7F2F910BD21780139A01C0CF084FC31
:101800006478FEF79DF900231A4601462046FEF74C
:10181000E3F910BD02460E4B1B6813F0010F0AD00E
:101820000C4B1B8898420FD30A48408803449A42C5
:101830000CDB002300E00023184623B14A8001237B
:101840000B7000234B6070470023F5E70123F3E79B
:10185000B82B0020442D00204FF6FF730B8000238F
:101860000F2B22D810B407E0114A32F8232082420D
:101870000ED001330F2B14D85A090E4C54F82220E5
:1018800003F01F04E24012F0010FEDD10B80F0E7EE
:10189000074A02EB8302D278002AEAD00B800120AB
:1018A00000E000205DF8044B70470020704700BF47
:1018B000C82B0020B02B002030B583B005460C4665
:1018C0000DF10601FFF7C8FF034620B16580032232
:1018D000227000226260184603B030BD0B88072BCF
:1018E00001D8013300E000234FF6FF720A80072B76
:1018F0001ED810B409E003EB8304A2000D4CA25AD9
:1019000082420ED00133072B0ED85A090A4C54F8E4
:10191000222003F01F04E24012F0010FEBD10B80F4
:10192000F0E70B80012000E000205DF8044B7047D9
:1019300000207047C02E0020C02B00204FF6FF7300
:101940000B8000230F2B21D810B407E00C884FF632
:10195000FF72944214D001330F2B13D85A090C4C48
:1019600054F8222003F01F04E24012F0010FEDD0E2
:10197000084A32F823208242EDD10B80012002E098
:101980000B80E8E700205DF8044B704700207047AB
:10199000B02B0020C82B00204FF6FF730B800023D4
:1019A000022B26D810B407E00C884FF6FF72944241
:1019B00017D00133022B18D85A090F4C54F82220A3
:1019C00003F01F04E24012F0010FEDD0162202FBDB
:1019D00003F20A4CA25A8242EBD108330B80012059
:1019E00004E003F108020A80E3E700205DF8044BFD
:1019F00070470020704700BFC02C0020C82C00207A
:101A00004FF6FF730B800023072B23D810B407E099
:101A10000C884FF6FF72944216D00133072B15D86D
:101A20005A090D4C54F8222003F01F04E24012F032
:101A3000010FEDD0162202FB03F2084CA25A82429B
:101A4000EBD10B80012002E00B80E6E700205DF87F
:101A5000044B704700207047082C0020102C0020F9
:101A6000F0B416680023136000E00133072B1ED882
:101A70005C09114D55F8244003F01F05EC4014F0AB
:101A8000010FF2D016240D4D04FB035464888442E8
:101A9000EBD11568AE420DD0162404FB03F4074FBA
:101AA0003C5B21F81540146801341460DDE7012027
:101AB000F0BC70470020FBE7082C0020102C002011
:101AC00070B40D6800230B6000E00133032B17D8BE
:101AD0005A090E4C54F8222003F01F04E24012F081
:101AE000010FF2D00C68A5420DD05C2202FB03F27C
:101AF000074EB25A20F814200A6801320A60E4E75F
:101B0000012070BC70470020FBE700BF482D00207B
:101B1000502D002010B5044628B10F4B9C420AD22C
:101B20004FF6FF7010BD78460C4B1B680BB1984701
:101B3000F3E700DEF1E703F58A739C4202D94FF622
:101B4000FF7010BDA3F58A70201A054CA4FB00306D
:101B5000C0F38F1010BD00BF622D0020943800200C
:101B6000C94216B210B5044628B10F4B9C420AD2A6
:101B70004FF6FF7010BD78460C4B1B680BB19847B1
:101B8000F3E700DEF1E703F58A739C4202D94FF6D2
:101B9000FF7010BDA3F58A70201A054CA4FB00301D
:101BA000C0F38F1010BD00BF8C2D00209438002092
:101BB000C94216B210B5044658B1164B9C4202D326
:101BC0009A339C420DD9144B9C4213D24FF6FF70AE
:101BD00010BD7846114B1B680BB19847EDE700DE4E
:101BE000EBE7A3F19A00201A0D4CA4FB0030C0F3E0
:101BF0000F1010BD2C339C4202D94FF6FF7010BD60
:101C0000A3F12C00201A064CA4FB00300009083078
:101C100080B210BD142C0020CC2C00209438002061
:101C2000A38B2EBAB0B110B404460023022B0DD8FA
:101C3000162202FB03F208498A5A944201D001336A
:101C4000F4E7162202FB0313181D00E000205DF8E4
:101C5000044B704700207047C82C002070B5054623
:101C60000E461446106818B1FFF7A4FF013002E0D9
:101C7000002000E0013007281FD84309104A52F81D
:101C8000233000F01F02D34013F0010FF2D01623CF
:101C90000C4A03FB00235B88AB42EBD1162303FB0A
:101CA00000235B79734013F03F0FE3D11622054BFD
:101CB00002FB00330433236070BD0023236070BD3A
:101CC000082C0020102C00200D4B23F8210003EBE2
:101CD00081030022DA709A704B090A4801F01F0153
:101CE000012202FA01F150F823200A4340F8232090
:101CF000054850F82320114340F82310704700BFD7
:101D0000C82B0020B02B0020B42B00200A68014B08
:101D10001A607047442D002008B50B8881B2184620
:101D2000FFF7D2FF08BD0000014B1B680B60704736
:101D3000442D0020024B33F820300B80704700BF49
:101D4000C82B002010B5044608B1A04710BD784646
:101D5000034B1B680BB19847F7E700DEF5E700BFC0
:101D6000943800202DE9F041083B164F162505FB5D
:101D700003F57C19D2F80080D2F804C0D2F808E04C
:101D8000D268C4F80680C4F80AC0C4F80EE0C4F8EB
:101D90001220002262710122227161807853590958
:101DA000094803F01F039A4050F82130134340F8CC
:101DB0002130064850F821301A4340F82120BDE870
:101DC000F08100BFC82C0020C02C0020C42C0020B3
:101DD00010B50C4600F108039BB20A1D4988208803
:101DE000FFF7C0FF10BD0000F0B50A4D162303FB3E
:101DF00000F02C18234653F806EF5F689E68DB68F6
:101E0000C1F804E08F60CE600B612B5A0B806388B1
:101E10004B80F0BDC82C0020F0B50A4D162303FB03
:101E200000F02C18234653F806EF5F689E68DB68C5
:101E3000C1F804E08F60CE600B612B5A0B80638881
:101E40004B80F0BD102C0020F0B40B4C5C2303FB46
:101E500000F0231853F8027F5E689D68DB68C1F8C4
:101E60000270C1F80660C1F80A50C1F80E30235A5A
:101E70000B80F0BC704700BF502D002010B400EB69
:101E800080008200064B134453F8044F58689A6848
:101E9000DB680C6048608A60CB605DF8044B70477B
:101EA000C02E0020F8B506460D461C4616211C4BD8
:101EB00001FB0431D2F800C0D2F804E09768D06882
:101EC000C1F806C0C1F80AE0C1F80E70C1F81200EE
:101ED0000531104607F01EFA20B17846114B1B68F9
:101EE000E3B198470E49162303FB04F3CA180020F8
:101EF0001071CE52558063090B4904F01F04012272
:101F000002FA04F451F82320224341F82320074920
:101F100051F82320144341F82340F8BD00DEE1E7E7
:101F2000102C002094380020082C00200C2C0020BD
:101F300010B50C4683B20A1D49882088FFF7B2FF0E
:101F400010BD0000F8B50D4614462D4A5C2101FB7A
:101F500004F101F13003134404330A4413640646C8
:101F600010B90122274B1A705C2101FB04F11031DA
:101F7000234B19440231284607F0D7F928B1784697
:101F8000214B1B68002B37D098475C2101FB04F1E3
:101F900040311B4B19440431284607F0D9F920B1D0
:101FA0007846194B1B684BB3984715495C2303FBD4
:101FB00004F3C818D5F800C0D5F804E0AF68ED68A0
:101FC000C0F802C0C0F806E0C0F80A70C0F80E50B1
:101FD000CE5263090D4904F01F04012202FA04F4F1
:101FE00051F82320224341F82320094951F82320A6
:101FF000144341F82340F8BD00DEC6E700DED4E715
:10200000502D0020402D002094380020482D002025
:102010004C2D002008B50B4682B202311888FFF71C
:1020200091FF08BDF8B5A1F11004A200224495006B
:1020300013492944076846688568C3684F608E6005
:10204000CD600B6107F0AEF920B178460D4B1B68EF
:102050009BB1984763090C4904F01F04012202FA5E
:1020600004F451F82320224341F82320074951F872
:102070002320144341F82340F8BD00DEEAE700BF07
:10208000C02E002094380020C02B0020C42B00203C
:1020900008B50B4600F1100189B21846FFF7C2FFE0
:1020A00008BD0000F8B506460D4604F017F9052EE8
:1020B00004D978461C4B1B6843B198471B4B1C78CE
:1020C00034B9F4B104F02AF92046F8BD00DEF5E792
:1020D000174B03EB4613598A29445A6989B21548AC
:1020E00005F058F9074650B1114B03EB46139B69B5
:1020F000011D28469847384605F090F9E1E700248D
:10210000DFE70B4B03EB4616B268690905F01F05C4
:10211000012303FA05F552F821302B4342F8213010
:10212000054805F0C7FACDE7943800200A2D0020B5
:10213000384003000C2D0020302D002010B50A225D
:1021400001210A4805F026F9002814BF01240024C3
:102150000AD0102343810823838104228280C38014
:102160000323038105F05AF9204610BD0C2D0020F1
:1021700070B506460D4604F0B1F8052E04D9784630
:10218000164B1B6843B19847154B1C7834B994B172
:1021900004F0C4F8204670BD00DEF5E7114B03EBF8
:1021A0004613598A294489B20F4805F069F9B0FAF3
:1021B00080F46409EBE70B4B03EB4616B268690940
:1021C00005F01F05012303FA05F552F821302B43D2
:1021D00042F82130054805F06DFAD9E7943800201F
:1021E0000A2D0020384003000C2D0020302D002047
:1021F0002DE9F84F00264FF001084BE0A5EB421106
:1022000001238B40013B54F82210194210D10132B6
:1022100005F11F035B099A4205D2013B9A42EDD0BA
:102220004FF0FF33EFE7434693BB4FF0000911E057
:102230000023F9E749463046FFF79AFF38B30123F8
:1022400003FA0BFB54F82A3023EA0B0344F82A3034
:1022500009F10109A9451BD24FEA591A54F82A304D
:1022600009F01F0B23FA0BF313F0010FF0D0114B01
:1022700003EB47135B6853F82A3023FA0BF313F090
:10228000010FD7D049463046FFF70CFFD6E780460E
:102290000136F6B2052E0AD8B8F1000F07D037463E
:1022A000044A7301D1188C68D5580022B0E7BDE804
:1022B000F88F00BF3840030038B50F280BD843090A
:1022C000334A52F8233000F01F02D34013F0010FBD
:1022D00010D0012200E000220AB32E4B03EB800352
:1022E0009B78002B50D12B4B03EB8003DB781BB189
:1022F000002038BD0022EFE74509254900F01F0303
:10230000012404FA03F251F8253023EA020341F8CC
:10231000253001462046FFF72BFF002038BDA0F1F5
:1023200010039BB2072B0BD85C091B4951F82410F2
:1023300003F01F0321FA03F313F0010F00D0012271
:102340000AB9052038BDA0F1100101EB81039A0004
:10235000124B13449B78CBB9104B1344DB780BB171
:10236000002038BD4C090C4801F01F02012303FA7C
:1023700002F250F8243023EA020340F8243002200D
:10238000FFF7F6FE002038BD002038BD002038BD24
:10239000B02B0020C82B0020C02B0020C02E002016
:1023A00030B58DB005460C46012905D0022C0BD066
:1023B000032C11D00DB030BD7846124B1B680BB109
:1023C0009847F3E700DEF1E778460E4B1B680BB148
:1023D0009847EDE700DEEBE730220021684611F078
:1023E0008BFB19238DF8003002238DF80430029501
:1023F000054BDA6804921B690593684604F000F8FF
:10240000D8E700BF943800200C2D002008B51146F5
:102410000020FFF7C5FF08BD08B508461146FFF7C5
:10242000BFFF08BD08B50022054B1A70054804F02F
:10243000CBFE00B908BD044805F03CF9FAE700BF3F
:102440000A2D00200C2D0020D822002070B5054652
:102450000C4616464FF6FF730B8006F0EDFF30700A
:1024600002281ED0032837D0012837D0002070BDA5
:1024700003EB83018A001B498A5A95420ED001332F
:10248000072B10D85A09184951F8222003F01F01D0
:10249000CA4012F0010FEBD12380F0E72380012026
:1024A00070BD0023ECE7002070BD104A32F82320F5
:1024B00095420ED001330F2B12D85A090C4951F80E
:1024C000222003F01F01CA4012F0010FEDD123803A
:1024D000F0E72380012070BD0023ECE70023EAE74A
:1024E000002070BDC02E0020C02B0020C82B002073
:1024F000B02B0020002942D070B582B00E461446A1
:1025000005460DF1070201A9FFF7A0FF8CB99DF860
:102510000730032B0DD0102048B9BDF804203280BD
:1025200034B3184B03EB82039A7801329A7002B0ED
:1025300070BD012C10D0B8B9BDF804104FF6FF7370
:10254000994213D02846FFF7BFFBBDF804100120C5
:10255000FFF7A8FD0020DFE79DF80730032BEAD046
:10256000012BE8D01020D7E70020D5E70420D3E7DF
:10257000044B03EB8203DA780132DA70D7E70E20DE
:10258000704700BFC82B002070B506460D464FF6B9
:10259000FF730B8000240BE004EB840293001048CF
:1025A000184410223146043011F05CFA98B101341D
:1025B000072C13D863090B4A52F8233004F01F028A
:1025C000D34013F0010FE7D12A884FF6FF739A42E8
:1025D000EDD12C80EBE72C80012070BD002070BD78
:1025E000C02E0020C02B0020F0B583B04FF6FF7343
:1025F000ADF8063000283BD0074600293AD01546F2
:102600000C460DF10601FFF7BFFFBDF8063003F1E0
:1026100010018EB270B94FF6FF72934201D10420BF
:1026200029E031463846FFF7FDFCBDF806100220D0
:10263000FFF738FD26806DB1BDF806000F4A830014
:102640001C18A1000C461144897822444B1C93703D
:10265000002010E0BDF80600084A83001C18A10005
:102660000C461144C97822444B1CD370002002E070
:102670000E2000E00E2003B0F0BD00BFC02E0020F1
:1026800030B583B005460C46486820B10DF106010F
:10269000FFF77AFF18B94FF6FF73ADF806300DF16A
:1026A00006012846FFF71AF90246A8B1BDF8063020
:1026B00003EB830399000B4B0B44DB787BB1658004
:1026C00002232370BDF8061001EB810101FA03F02B
:1026D000044B034404336360104603B030BD002252
:1026E000FAE700BFC02E002008B506F0C9F9A0F532
:1026F000805008BD10B586B0154B0393154B04935D
:10270000154B059300230293FFF7EEFF0090012382
:10271000019303F0E3FD6946104804F07DFF48B9DA
:102720000E4B1B78012B01D0012404E0FFF706FDBE
:10273000044600E0002403F0F1FD24B10122084B1F
:102740001A7006B010BD074804F0B4FFF9E700BFE7
:10275000192402000D240200912702000C2D0020F4
:102760000A2D0020E822002008B5054B054A9A6092
:10277000054ADA600022054B1A70FFF7BBFF08BD5F
:10278000302D0020451D0200F12102000A2D0020FD
:1027900008B5FFF7AFFF08BD70B5002511E01A4A74
:1027A0006B01D618D4581F346409A40022460021B6
:1027B000706811F0A1F922460021B06811F09CF96F
:1027C0000135052DEBD9002206E0104B03EB820307
:1027D0000021D970997001320F2AF6D9002308E040
:1027E0009900194488000A4A02440021D17091706E
:1027F0000133072BF4D9074A002313805380064A7C
:102800001370FFF70FFE70BD38400300C82B002087
:10281000C02E0020442D0020402D002010B504467D
:1028200030B11B4B1B6813F0010F09D00F2010BDF6
:102830007846184B1B680BB19847F2E700DEF0E7CB
:10284000208863880344013B984201DD0B2010BDC2
:1028500006F0F2FD012801D00B2010BD208863880E
:10286000184480B2013880B206F0E6FD012801D09C
:102870000B2010BD2268084B1A60054A136843F00C
:102880000103136000210846FFF70CFC002010BD77
:10289000B82B002094380020442D002010B50446A9
:1028A00018B1064B1B68236010BD7846044B1B68AB
:1028B0000BB19847F5E700DEF3E700BF442D002099
:1028C0009438002008B50122FFF714FE08BD08B5B2
:1028D0000122FFF789FE08BD38B50F280BD8430940
:1028E0001D4A52F8233000F01F02D34013F0010FAD
:1028F00017D0012200E00022AAB9A0F110039BB278
:10290000072B0BD85C09154951F8241003F01F035D
:1029100021FA03F313F0010F00D0012262B9052060
:1029200038BD0022E8E70E4B03EB80039A78013AAA
:102930009A70FFF7C1FC38BDA0F11004094AA3004A
:102940001D19A9000D46114489782A444B1E937025
:10295000FFF7B2FC38BD00BFB02B0020C02B002019
:10296000C82B0020C02E002008B50022FFF7C2FDB2
:1029700008BD08B50022FFF737FE08BD10B40346B6
:102980000F280BD842091F4951F8222000F01F01DF
:10299000CA4012F0010F17D0012100E00021B9B99F
:1029A000A3F1100292B2072A0BD85409164850F826
:1029B000240002F01F0220FA02F212F0010F00D0F0
:1029C000012119B1012204E00021E8E7002200E022
:1029D0000122104642B10F2B09D80C4800EB8303AB
:1029E000D878003018BF01205DF8044B7047103BC9
:1029F00003EB83039A00064B1344D878003018BFCA
:102A00000120F1E7B02B0020C02B0020C82B0020B4
:102A1000C02E0020002943D038B50A460F280BD815
:102A20004309204951F8233000F01F01CB4013F037
:102A3000010F17D0012100E00021A9B9A0F1100376
:102A40009BB2072B0BD85D09174C54F8254003F0B7
:102A50001F0324FA03F313F0010F00D0012181B901
:102A6000052038BD0021E8E71446104B33F820203C
:102A7000628033F8200006F0DFFC207000206060E8
:102A800038BD10380A4B81000D18AC0025461C5B80
:102A900054802B440433536002231370002038BD4C
:102AA0000E207047B02B0020C02B0020C82B002028
:102AB000C02E002010B582B00F280BD843092E4A33
:102AC00052F8233000F01F02D34013F0010F17D04B
:102AD000012200E00022BAB9A0F110039BB2072B3B
:102AE0000BD85C09254951F8241003F01F0321FA83
:102AF00003F313F0010F00D001221AB1012304E007
:102B00000022E8E7002300E0012313B9052002B00A
:102B100010BD04466946FFF77DFF50BB9DF80030AD
:102B2000032B03D0022B11D00F20F0E7144B03EB43
:102B30008403DB780BB90520E9E7114A02EB840234
:102B4000013BD3702046FFF7B7FBE0E7A4F1100389
:102B500003EB830291000B4A0A44D2780AB905209C
:102B6000D5E7084B0B44013ADA702046FFF7A4FB87
:102B7000CDE70020CBE700BFB02B0020C02B00200A
:102B8000C82B0020C02E0020B0B330B40546A9B336
:102B90000F23002000E0013B002B10DB5A09194CE9
:102BA00054F8222003F01F04E24012F0010FF2D08B
:102BB0000A68904224D025F810300130EBE7072353
:102BC00005E003F1100225F810200130013B002B35
:102BD0000EDB5A090C4C54F8222003F01F04E2408B
:102BE00012F0010FF2D00A689042EAD1092001E008
:102BF0000860002030BC70470E2070470E20F9E7B7
:102C00000920F7E7B02B0020C02B002058B330B5C7
:102C100083B0054649B30C46408806F00DFC0228F7
:102C20000CD0032803D0012801D010201EE021463B
:102C30006888FEF783FED8B9052017E04FF6FF73CA
:102C4000ADF80630686850B10DF10601FFF79CFC45
:102C500038B1BDF8063010332380002006E00E2086
:102C600004E0052002E00E2070470E2003B030BDC6
:102C70000020FBE718B108B5FEF74CFF08BD4FF682
:102C8000FF70704718B108B5FEF794FF08BD4FF606
:102C9000FF70704700293FD070B50E46002A3DD026
:102CA000B0F5805F01D3072070BD4FF6FF7500239C
:102CB00004E04FF6FF718D4216D00133032B15D877
:102CC0005C09174951F8244003F01F01CC4014F06F
:102CD000010FEED05C2101FB03F1124C615A8842D6
:102CE000EBD19DB2012302E09DB2E6E700230BB1D8
:102CF0000F2070BD4FF6FF739D4201D1042070BDBF
:102D0000314614462A46FFF71DF929460320FFF7EE
:102D1000C9F92580002070BD0E2070470E2070BDBF
:102D2000482D0020502D002009B30B46032801D95F
:102D30000520704742090F4951F8222000F01F0179
:102D4000CA4012F0010F01D10520704710B5194695
:102D500004465C2303FB00F302460748C05AFFF712
:102D6000F1F821460320FFF79DF9002010BD0E2049
:102D7000704700BF482D0020502D002030B108B50D
:102D800031B1FEF79DFE28B9092008BD0E2070471D
:102D90000E2008BD002008BDE2B3F0B583B0144694
:102DA000D3B31F460E46054606F046FB012801D068
:102DB000102032E0032E01D905202EE07309184AB5
:102DC00052F8233006F01F02D34013F0010F01D157
:102DD000052022E00DF106012846FEF7DDFD08B1D1
:102DE0000F201AE0BDF806304FF6FF72934201D172
:102DF000042012E0224631462846FEF7B3FFBDF814
:102E0000061008390520FFF74DF9BDF806303B8064
:102E1000002002E00E2070470E2003B0F0BD00BF7E
:102E2000482D0020A0F1080189B2022901D905200E
:102E3000704770B548090F4A52F8203001F01F055D
:102E4000EB4013F0010F01D1052070BD162303FBE9
:102E500001F30024084EF452012303FA05F552F859
:102E6000203023EA050342F820300520FFF780F9DF
:102E7000204670BDC02C0020C82C0020D2B3F0B575
:102E800083B01446C3B3032902D9052003B0F0BDB3
:102E90004A091A4D55F8222001F01F05EA4012F0A8
:102EA000010F01D10520F1E7B0F5805F01D30720C4
:102EB000ECE71D460F4606460DF10601FEF7A0FDA4
:102EC00008B10F20E2E7BDF806304FF6FF729342DB
:102ED00001D10420DAE7224639463046FEF7E2FF08
:102EE000BDF806100420FFF7DDF8BDF806302B8092
:102EF0000020CBE70E2070470E20C7E7482D0020AA
:102F000011B30A46072801D90520704738B543098F
:102F10000E4951F8233000F01F01CB4013F0010F90
:102F200001D1052038BD0446094D162000FB04F0F0
:102F3000291823464988285AFEF7B4FF2146042061
:102F4000FFF7B0F8002038BD0E207047082C002095
:102F5000102C0020072801D90520704738B54409F6
:102F60000C4A52F8243000F01F0523FA05F111F045
:102F7000010F01D1052038BD0146012000FA05F5F9
:102F800023EA050342F824300420FFF7F1F800207B
:102F900038BD00BF082C0020032801D90520704748
:102FA0002DE9F0414709314E56F8273000F01F084F
:102FB00023FA08F313F0010F02D10520BDE8F081D8
:102FC0000546002401E000DE0134072C1CD863090B
:102FD000274A52F8233004F01F02D34013F0010FA8
:102FE000F2D01623234A03FB04235B889D42EBD1D6
:102FF000A0B2FFF7AFFF0028E6D078461E4B1B6853
:10300000002BE0D09847DFE7002401E000DE013428
:10301000022C1AD8162303FB04F3184AD35A002BA8
:10302000F5D0162303FB04235B889D42EFD104F106
:10303000080080B2FFF7F6FE0028E8D078460E4B75
:103040001B68002BE2D09847E1E7012303FA08F858
:1030500056F8273023EA080346F82730294603208C
:10306000FFF786F80020BDE8F08100BF482D002062
:10307000082C0020102C002094380020C82C0020A0
:10308000C1B10B46C2B1032801D90520704710B564
:1030900041090B4C54F8211000F01F04E14011F0DD
:1030A000010F01D1052010BD1946FEF7D9FC28B942
:1030B000092010BD0E2070470E207047002010BD63
:1030C000482D00200A2801D905207047002900F06A
:1030D0008D8038B50D460446072842D84309444A36
:1030E00052F8233000F01F02D34013F0010F01D13A
:1030F000052038BD16233F4A03FB00235B88032BC2
:1031000004D978463C4B1B683BB398471623394A91
:1031100003FB04235B885909384A52F8212003F045
:103120001F0322FA03F313F0010F04D17846324B48
:103130001B68A3B1984716202E4B00FB0430031DDB
:103140006B6042885C2303FB02F303F110022C4BFB
:10315000134402332B60002038BD00DED6E700DECA
:10316000E9E7A0F108046209264B53F8223004F085
:103170001F02D34013F0010F01D1052038BD1623E3
:10318000214A03FB04235B88032B04D978461A4B9E
:103190001B683BB3984716231B4A03FB04235B8839
:1031A0005909164A52F8212003F01F0322FA03F3AB
:1031B00013F0010F04D178460F4B1B68A3B1984759
:1031C0001622114B02FB043462885C2303FB02F3DA
:1031D00003F110020A4B134402332B6004346C6079
:1031E000002038BD00DED6E700DEE9E70E2070479C
:1031F000082C0020102C002094380020482D00209E
:10320000502D0020C02C0020C82C002038B50446CA
:103210000D4629B1286858B1FEF77CFC01300AE060
:103220007846154B1B680BB19847F3E700DEF1E7D2
:10323000002000E0013003281BD843090F4A52F850
:10324000233000F01F02D34013F0010FF2D05C23B3
:103250000B4A03FB00239B7C634013F07F0FE9D1F3
:103260005C2303FB00F010301346034402332B6051
:1032700038BD00232B6038BD94380020482D002035
:10328000502D002070B504460E46154662B19CB123
:103290002046FEF73FFC4FF6FF73984214D02A46B3
:1032A0003146FEF7DBFC70BD7846094B1B680BB15D
:1032B0009847ECE700DEEAE77846054B1B680BB160
:1032C0009847E5E700DEE3E700232B6070BD00BF11
:1032D0009438002038B505460C4621B12846FEF743
:1032E000A1FC206038BD7846034B1B680BB19847A2
:1032F000F4E700DEF2E700BF9438002070B5054621
:103300000E4629B1306858B1FEF72CFC441C19E078
:103310007846214B1B680BB19847F3E700DEF1E7D5
:1033200000240FE0012100E001211C4B5C2202FB84
:1033300004F41A1982F83C103834234404333360FF
:1033400070BD0134032C24D86309154A52F8233088
:1033500004F01F02D34013F0010FF2D065B15C21DD
:1033600001FB04F150310D4B194408220431284669
:1033700010F078FB0028E4D10A4B1B78002BD3D047
:103380005C2303FB04F3054AD35A002BCAD0002167
:10339000CBE70023336070BD94380020502D00200F
:1033A000482D0020402D002038B504460D4606F07B
:1033B00043F802280FD0032808D0012801D00020AC
:1033C00038BD29462046FEF725FA38BD2946204655
:1033D000FEF772FA38BD29462046FFF751F938BD8D
:1033E00082B000230093027802F0C003402B0ED07D
:1033F0000CD9802B1BD0C02B0FD1ADF80020427808
:10340000837843EA0223ADF8023006E02BB9ADF829
:1034100000204FF6FF73ADF80230009B00209AB2F7
:1034200062F30F001B0C63F31F4002B07047437838
:1034300043EA0222ADF800204FF6FF73ADF80230E8
:10344000EBE782B00190000C4FF6FF73984207D073
:10345000BDF804300B70030A4B70887002B07047DF
:10346000BDF8043013F47F4F03D01A0A0A704B7072
:10347000F4E70B70F2E782B001904FF6FF73B3EB05
:10348000104F0AD0BDF8040020F03F0080B2C028E1
:1034900014BF0020012002B07047BDF8040010F4F2
:1034A0007F4F07D000F44040B0F5004F14BF00201C
:1034B0000120F0E720F07F039BB22BB97F2801D0D9
:1034C0000120E8E70020E6E70020E4E730B482B01E
:1034D0000191002300E00133018D8B4210D2416A3B
:1034E00001EBC30531F83340BDF804108C42F2D132
:1034F0006C88BDF806108C42EDD11360012000E00D
:10350000002002B030BC7047F8B505460E4617469D
:103510001C467BB13389B3F5BE7F13D2CDB93423BA
:10352000214A03FB052393F8303013F0010F20D11B
:1035300000230FE078461D4B1B680BB19847E9E765
:1035400000DEE7E7092323602068B0FA80F0400935
:10355000F8BD00237BB13423134A03FB05239B8969
:103560004BB95FB13068FFF786FFC8B10023236015
:10357000EAE70123EEE705232360E5E734230A4A5F
:1035800003FB05239A884FF6FF739A4208D0342232
:10359000054B02FB0535EA884FF6FF739A42E1D1ED
:1035A00007232360D0E700BF982F00209438002025
:1035B00008B57846034B1B680BB1984708BD00DE81
:1035C00008BD00BF9438002008B5804708BD000042
:1035D00008B50122054B1A70054803F0F5FD00B946
:1035E00008BD044804F066F8FAE700BF942F0020F5
:1035F000702F0020082300202DE9F04102F06EFE1C
:10360000594B1B78B3B9594B1B780BB1002512E00D
:1036100006220121564803F0BDFE48B10124C480B2
:103620000481848003F0FAFE504B1C70002502E0F8
:10363000112500E00825002418E003EB44004D4A62
:1036400002EB80025268D24301EB830042600133F7
:10365000002BF2D0084603F0E1FE464A12F834305F
:1036600023F0020302F834300134A4B2002C3BD121
:10367000ADB9404B13F8343003F00303032BF3D1FF
:10368000042244F440513A4803F084FE014608B154
:103690002B46DDE71125E7E711250134A4B2002C04
:1036A00056D135BB04EB44035A00334B13445B79CA
:1036B00013F0020FF1D0022244F480512C4803F0A1
:1036C00069FE0028E8D02C4E670039194B0006EB44
:1036D0000308F35A838003F0A1FE98F8053023F025
:1036E000020388F80530D8E70024D8E71125013413
:1036F000A4B27CBB75BB3423204A03FB042393F89C
:10370000303003F00303032BF1D1142244F40051B1
:10371000174803F03FFE02460028E7D03426174939
:1037200006FB04163168D6F804E0B768F06851600B
:10373000C2F808E0D760106131695161104603F0AA
:103740006DFE96F8303023F0020386F83030CEE775
:103750000024CEE71DB902F0E1FDBDE8F081084884
:1037600003F0A8FFF7E700BF942F0020952F00205B
:10377000702F0020CC2F0020602F0020982F0020D9
:103780001823002008B5342200210D4810F0B4F9A8
:103790000C4A0023136093800B4A1360536003B1FB
:1037A00008BD3422064902FB03124FF6FF71D18097
:1037B00091800120D081918103449BB2EFE700BF4B
:1037C000982F0020602F0020CC2F00202DE9F04101
:1037D00092B00446002869D02068FFF701FE1190DE
:1037E00085B27F2D5FD0884B1B6813F4005F03D038
:1037F000864B1B68042B61D8E069FFF743FA064645
:103800002822002107A810F077F9119A079223685F
:1038100006924FF6FF71B1EB124F5BD003221344B7
:103820000893A388119A05924FF6FF71B1EB124FDE
:1038300056D003229B1AADF82430237A8DF8283015
:103840006389ADF82A30E3680B93237C8DF8303020
:10385000628AADF8322062690D9294F820208DF8CA
:103860004020ADF84260012B40D012A94FF6FF7303
:1038700021F83C3D04F11000FFF7C8F928B1784663
:10388000634B1B68002B7BD09847BDF80C00FFF7FB
:1038900075F828B978465E4B1B68002B72D09847A4
:1038A0000024002C70DD12B0BDE8F0817846584B42
:1038B0001B680BB198478FE700DE8DE7554BD3F8B7
:1038C00004350195544A0092EF225449052004F032
:1038D0005DFC91E7FF2D01D90222A0E701229EE7BE
:1038E000FF2D01D90222A5E70122A3E703A8FEF7D5
:1038F000D5FF638ABDF80C209342D4D3BDF80E10D7
:1039000011448B42CFDA9B1A9CB20025002DCADCF1
:103910003420434B00FB053090F8303013F0010F9A
:1039200003D03F4A83899C4201D00135EEE734231E
:1039300003FB05F308331344720953F8223006F0F1
:103940001F02D34013F0010FEFD004AA1199FFF723
:10395000BDFD0028E9D01FFA85F83427304B07FB5E
:103960000537FA6A07A9404601F0C2F97B6A049A52
:1039700003EBC2035B68FA6A07A940469847D4E79D
:1039800000DE82E700DE8BE73423254803FB0400DA
:1039900090F8303013F0010F20D0C289F2B93423EF
:1039A00003FB04F308331E490B44710953F821301B
:1039B00006F01F01CB4013F0010F0FD0194B03EBA2
:1039C000C2020432BDF80C30590952F8212003F02C
:1039D0001F0322FA03F313F0010F01D1013460E752
:1039E00004AA1199FFF772FD0028F7D034230C4A7E
:1039F00003FB04235A6A049902EBC1025568DA6A90
:103A000007A9A0B2A847E9E7302300202C23002013
:103A10009438002000B000403C41030030410300D6
:103A2000982F0020CC2F002008B5037803B108BDE3
:103A30000430FFF7CBFEFAE700B587B00F4B0393D6
:103A40000F4B04930F4B059304230293FEF74CFE98
:103A5000A0F580500090012301930B4A1370694632
:103A60000A4803F0D9FD28B90022074B1A7007B0A5
:103A70005DF804FB064803F01DFEF8E7253B020055
:103A8000B1350200953A0200942F0020702F0020DB
:103A9000F822002010B500230BB100230FE01E4ACE
:103AA00012F8332012F0010F04D042F002021A493A
:103AB00001F8332001339BB2EEE701339BB283B9A7
:103AC00003EB43014A0015498A5A002AF5D00846FB
:103AD0005A00D418610001444A7942F002024A7146
:103AE000EBE7002301E001339BB28BB934220C4990
:103AF00002FB031292F8302012F0010FF3D03421B0
:103B0000074801FB030142F0020281F83020EAE796
:103B1000FFF792FF10BD00BFCC2F0020602F0020C8
:103B2000982F002070B58CB005460E461446012A29
:103B300005D0022C0BD0032C11D00CB070BD7846F0
:103B4000114B1B680BB19847F3E700DEF1E77846AD
:103B50000D4B1B680BB19847EDE700DEEBE7302219
:103B6000002168460FF0C8FF19238DF800300223AA
:103B70008DF804300296EB6804932B690593684630
:103B800002F03EFCD9E700BF943800202DE9F04157
:103B90008EB002AF05460C46164607F12C03FFF720
:103BA000B3FC90B3238922687A604FF6FF71B1EBC2
:103BB000124F2CD003221344073323F00703ADEB3D
:103BC000030D0DF1080841462068FFF73AFC236811
:103BD0003B604FF6FF72B2EB134F1FD003202289D8
:103BE000616840440FF05EFF07F10C00FEF756FEDF
:103BF000FA8934234D4903FB05139B899A4214D853
:103C000010203037BD46BDE8F081F86AF9E7BA8880
:103C1000FF2A01D90222CEE70122CCE73B88FF2B05
:103C200001D90220DBE70120D9E7002E40D0337B09
:103C30003B74F3897B8207F12401F08CFFF742FA91
:103C400028B178463A4B1B68002B2FD09847342375
:103C5000364A03FB05231B7CFF2B4DD0BB76BB896B
:103C60003421324A01FB0525AA8913443B83C7F856
:103C70001C8023892268BA604FF6FF71B1EB124FA6
:103C80003ED0032213443B84002107F1100005F0CD
:103C9000F5F9F86240B9274B1B6813F4005F03D0B5
:103CA000254B1B68042B32D8F86AAAE700DECEE762
:103CB00034231E4A03FB052307F11001D888FEF7C1
:103CC000A9FE20B178461A4B1B688BB19847342364
:103CD000164A03FB052307F124019888FFF7F2F940
:103CE0000028B4D07846124B1B681BB19847AEE74A
:103CF00000DEECE700DEAAE7104B1B78BB76AEE7F0
:103D00003A89FF2A01D90222BCE70122BAE70C4B0B
:103D1000D3F80435228801920A4A00924FF4C77200
:103D20000949052004F032FABEE700BF982F0020B1
:103D300094380020302300202C230020282300204A
:103D400000B00040504103003041030008B5FFF7C8
:103D500019FD01F01DF8FFF73BFC08BD08B5FFF7A2
:103D600011FD0548054B036005F0ABFA01F002F8C0
:103D7000FFF762FE08BD00BF682F0020293A02004D
:103D800021B108B50022FFF701FF08BD0E207047E2
:103D9000034650B93422154802FB030292F8302042
:103DA00012F0010F05D1002200E000221AB905200F
:103DB00070470122FAE7172901D9072070473422FA
:103DC0000A4802FB0302D28891420CD03420074AF1
:103DD00000FB0323D98093F8302042F0020283F8DD
:103DE0003020002070470020704700BF982F00202F
:103DF0000A46C9B150B934230C4903FB001393F8A8
:103E0000303013F0010F05D1002300E000231BB96F
:103E1000052070470123FAE73421044B01FB0030F1
:103E2000C3881380002070470E207047982F002011
:103E300008B10520704770B503463420204C00FBC4
:103E4000034090F8300010F0010F01D1052070BD43
:103E5000342000FB0340806980B33F2A01D907204A
:103E600070BD032901D9072070BD342000FB034039
:103E7000407CB2EB900F17D0114C342000FB03F3C1
:103E8000E518687C62F3870061F301006874103301
:103E90002344181D00F060FD95F8303043F0020314
:103EA00085F83030002070BD342000FB0340407C9A
:103EB00000F003008842DFD1002070BD062070BDF5
:103EC000982F002029B30B462AB310B550B93421DE
:103ED000134C01FB004191F8301011F0010F05D196
:103EE000002100E0002119B9052010BD0121FAE7E9
:103EF00034210B4C01FB0041896971B1194634230F
:103F000003FB00F010302044043000F05DFD002081
:103F100010BD0E2070470E207047062010BD00BF58
:103F2000982F0020024650B93423214803FB020396
:103F300093F8303013F0010F05D1002300E0002387
:103F40001BB9052070470123FAE73423184803FB07
:103F50000203DB89012B27D0172901D907207047DD
:103F600030B4144800EBC30304334C0953F8240065
:103F700001F01F0120FA01F515F0010F16D10125FE
:103F800005FA01F1084343F824003421084B01FBF2
:103F90000232D189074A12F8313043F0020302F8A5
:103FA0003130002030BC7047062070470020F9E710
:103FB000982F0020CC2F0020024650B934232248ED
:103FC00003FB020393F8303013F0010F05D10023F7
:103FD00000E000231BB9052070470123FAE73423D2
:103FE000194803FB0203DB89012B28D0172901D9CB
:103FF0000720704730B4154800EBC30304334C0965
:1040000053F8240001F01F0120FA01F515F0010F0B
:1040100017D0012505FA01F120EA010043F8240038
:104020003421094B01FB0232D189084A12F83130A0
:1040300043F0020302F83130002030BC7047062004
:1040400070470020F9E700BF982F0020CC2F0020F8
:10405000002944D070B40C46002A42D050B9342311
:10406000234903FB001393F8303013F0010F06D1FE
:10407000002300E0002323B9052070BC7047012312
:10408000F9E7054634211A4B01FB0030C389012BA7
:1040900029D016880023138000E00133172B1CD889
:1040A0003421134801FB0501C8890028F5D11149C5
:1040B00001EBC0010431580951F8201003F01F0032
:1040C000C14011F0010FE8D011888E420DD924F8BB
:1040D0001130118801311180DFE70020CDE70E207B
:1040E00070470E20C9E70620C7E70920C5E700BFD3
:1040F000982F0020CC2F0020024650B934231D48B1
:1041000003FB020393F8303013F0010F05D10023B5
:1041100000E000231BB9052070470123FAE70A29B4
:1041200001D90720704730B4342303FB02F308336E
:10413000104803444C0953F8240001F01F0120FAF1
:1041400001F515F0010F12D1012505FA01F108431F
:1041500043F824003421074B01FB023292F830303F
:1041600043F0020382F83030002030BC704700205A
:10417000FBE700BF982F0020024650B934231D48AA
:1041800003FB020393F8303013F0010F05D1002335
:1041900000E000231BB9052070470123FAE70A2934
:1041A00001D90720704730B4342303FB02F30833EE
:1041B000104803444C0953F8240001F01F0120FA71
:1041C00001F515F0010F13D0012505FA01F120EAE0
:1041D000010043F824003421064B01FB023292F81F
:1041E000303043F0020382F83030002030BC70479A
:1041F0000020FBE7982F0020B1B370B40D46AAB39E
:1042000050B934231B4903FB001393F8303013F0EB
:10421000010F06D1002300E0002323B9052070BC64
:1042200070470123F9E716880023138000E001336B
:10423000072B17D8342101FB00F108310D4C214424
:104240005C0951F8241003F01F04E14011F0010F44
:10425000EDD011888E420BD925F81130118801312B
:104260001180E4E70020DAE70E2070470E20D6E741
:104270000920D4E7982F0020034650B9342215486E
:1042800002FB030292F8302012F0010F05D1002248
:1042900000E000221AB9052070470122FAE70A2936
:1042A00001D90720704734220A4802FB0302928892
:1042B00091420CD03420074A00FB0323998093F8E5
:1042C000302042F0020283F83020002070470020A6
:1042D000704700BF982F00200A46C9B150B9342357
:1042E0000C4903FB001393F8303013F0010F05D194
:1042F000002300E000231BB9052070470123FAE7E3
:104300003421044B01FB0030838813800020704768
:104310000E207047982F0020034650B934221648CB
:1043200002FB030292F8302012F0010F05D10022A7
:1043300000E000221AB9052070470122FAE781F057
:1043400080027E2A01D80720704734220A4802FBE7
:104350000302127C91420CD03420074A00FB032355
:10436000197493F8302042F0020283F830200020C4
:1043700070470020704700BF982F00200A46C9B13F
:1043800050B934230C4903FB001393F8303013F079
:10439000010F05D1002300E000231BB90520704761
:1043A0000123FAE73421044B01FB0030037C137036
:1043B000002070470E207047982F002008B105207C
:1043C0007047034600EB400042000A48825A8A4286
:1043D0000DD030B402465800C5186C0015191153A1
:1043E0006B7943F002036B71002030BC70470020F2
:1043F000704700BF602F00200B4651B108B1052067
:10440000704700EB4000420003498A5A1A8000209E
:1044100070470E20704700BF602F00200B4659B137
:1044200008B10520704700EB40004100034A0A44F0
:1044300092781A70002070470E207047602F00207D
:104440000B4659B108B10520704700EB4000410010
:10445000034A0A44D2781A70002070470E20704731
:10446000602F00200B46E1B150B934220E4902FB07
:10447000001292F8302012F0010F05D1002200E066
:1044800000221AB9052070470122FAE706493422B2
:1044900002FB00F00A18095A198052885A8000203D
:1044A00070470E20704700BF982F002030B482B0B4
:1044B000019152B3144618B1052002B030BC7047C8
:1044C0004FF6FF73138000230BB10520F5E734226C
:1044D0000F4902FB03129289904202D001339BB232
:1044E000F2E7342202FB03F2895ABDF8042091421C
:1044F000F4D13421064A01FB03256988BDF8062062
:104500009142EBD123800020D7E70E20D5E700BFF2
:10451000982F002031B3F0B40C462AB310B1052017
:10452000F0BC70471688002313800BB10020F7E71A
:104530001588AE421AD934210D4F01FB037191F851
:10454000301011F0010F05D0342101FB037189896E
:10455000884201D00133E8E724F815301188013191
:104560001180F7E70E2070470E20D9E70920D7E722
:10457000982F00200A46C9B150B934230C4903FBD7
:10458000001393F8303013F0010F05D1002300E041
:1045900000231BB9052070470123FAE73421044B9F
:1045A00001FB0030C36A1360002070470E20704783
:1045B000982F002010B50446837803F00303032BE3
:1045C00021D8DFE803F0020C131981788B081D4A0B
:1045D00011681944A1601C4B1B6800201FE0837800
:1045E0009B0803EB830359000B46F0E783789B0895
:1045F000642101FB03F3EAE783789B0841F27071C1
:1046000001FB03F3E3E77846104B1B6813B19847AF
:104610000023DCE700DE0023D9E71846DB681BB186
:104620009A688A1A002AF8DA18B133B1C460E360D4
:1046300010BDE360044B1C6010BDC4600023E36048
:1046400010BD00BFEC2F0020F42F00209438002074
:1046500010B5764B19688B7803F00303744A12780F
:10466000934240F3BA808C68724B1B68E41A724B19
:1046700003FB04F4032A09D8DFE802F0021204065F
:104680006D4B0EE06D4B0CE06D4B0AE078466D4BC8
:104690001B6813B19847002303E000DE002300E00D
:1046A000694BB4FBF3F3614A1268927802F003029B
:1046B000022A19D03AD8012A6AD102F1CC32A2FBDF
:1046C0000312D20802EB820251008B4202D0002278
:1046D00013465FE005F0D0FE00F5742303F5107378
:1046E000012253490A7055E0514A117839B9574AA5
:1046F000A2FB03025209642000FB12326AB10129B5
:1047000002D00022134645E0514AA2FB0312D20810
:1047100002EB820251008B4249D105F0ADFE474BBE
:1047200003440221424A1170012233E0404A1178C9
:1047300041B9484AA2FB0302D20941F2707000FB62
:10474000123282B1012904D0022915D00022134669
:1047500020E0414AA2FB030292094FF4167000FBCD
:104760001232002AF0D105F087FE354B03440321B5
:104770002F4A117001220DE0384AA2FB03125209A0
:10478000C2EB021291008B42EDD00022134601E0F1
:1047900000221346002A47D105F06EFE0446244B42
:1047A0001B78032B0CD8DFE803F00515070900225E
:1047B0001346EFE7204B0EE0204B0CE0204B0AE0C5
:1047C0007846204B1B6813B19847002303E000DEB6
:1047D000002300E01C4B234426E005F04DFE044678
:1047E000124B1B689B7803F00303032B09D8DFE807
:1047F00003F002120406104B0EE0104B0CE0104BBD
:104800000AE078460F4B1B6813B19847002303E07A
:1048100000DE002300E00C4B2344044A1268927827
:10482000C2F3010202490A70184610BDF42F00209D
:10483000F12F0020EC2F0020A08601008096980028
:104840000046C3239438002040420F001F85EB51DF
:10485000CDCCCCCCF1197605B5814E1B89888888E2
:1048600010B52B4B1B7873B92A4B1B68002B47D014
:10487000FFF7EEFE0146264B1B78002B38D026486A
:1048800006F0F8F810BD244B5C6805F0F5FD241A1D
:10489000224B1B78032B09D8DFE803F00212040631
:1048A0001F480EE01F480CE01F480AE078461F4BE7
:1048B0001B6813B19847002003E000DE002000E0F1
:1048C0001B48001B154B1B7843B94CF250339842E0
:1048D00004D9184A136801331360C5E74009164B21
:1048E000A3FB0030134A136803EBD0101060BBE742
:1048F0000122074B1A700848416006F03FF810BDCE
:10490000034B1B7803B910BD034806F07DF8FAE7A6
:10491000F02F0020F42F0020D42F0020F12F0020B2
:10492000A0860100809698000046C323943800209A
:1049300040420F00EC2F0020C55A7C0A10B50446F7
:10494000FFF738FE034B1B689C4200D010BDFFF7F9
:1049500087FFFBE7F42F002070B50E46154604468E
:1049600028B101F0BBFC164B1B68002209E0784619
:10497000144B1B680BB19847F3E700DEF1E71A46CA
:10498000DB680BB1A342FAD1A17866F3010165F3AC
:104990008701A17013B13AB1D968D16045B903B1AB
:1049A00052B101F0BBFC70BDD86805490860F5E75D
:1049B0002046FFF7C3FFF4E7FFF752FFF1E700BF20
:1049C000F42F00209438002070B50E46154604469A
:1049D00040B1A378C3F301033370A378C3F3850315
:1049E0002B7070BD7846034B1B680BB19847F0E7FE
:1049F00000DEEEE79438002010B44FF6FF730B8012
:104A0000002343B108884FF6FF73C01A18BF012076
:104A10005DF8044B704703EB8302D400064A22443E
:104A200092F83C2022B1044A2244128B824201D0E7
:104A30000133E6E70B80E5E7F82F002000EB80006C
:104A4000C200114B13445B6B1049194400234FF60D
:104A5000FF701BB17047184611460EE010B403EB0F
:104A60008302D400084A224492F83C202AB1064A24
:104A70002244526B541A002CEDDB01339BB2002B05
:104A8000EDD05DF8044B7047F82F002000879303AA
:104A900010B5044600EB8003DA00264B134493F86C
:104AA0003C3023B97846244B1B68EBB19847214B27
:104AB000B3F8403023B978461F4B1B68B3B1984711
:104AC0001C4A04EB8401CB001344002183F83C1002
