:020000021000EC
:10B0000000800020FDB00100C1B00100D1BC0100F2
:10B010000000000000000000000000000000000030
:10B02000000000000000000000000000C5B00100AA
:10B030000000000000000000C7B00100C9B001001E
:10B04000CBB00100CDB00100CFB00100D1B0010004
:10B05000D3B001000000000015BB0100D7B0010013
:10B06000D9B00100DBB00100DDB00100DFB00100AC
:10B07000E1B00100E3B00100E5B00100E7B001007C
:10B08000E9B00100EBB001008DCC0100EFB0010090
:10B09000F1B00100F3B001001DBD0100F7B00100E7
:10B0A000F9B00100FBB0010000000000000000004A
:10B0B0000000000000000000000000000000000090
:10B0C000FEE7FEE7FEE7FEE7FEE7FEE7FEE7FEE758
:10B0D000FEE7FEE7FEE7FEE7FEE7FEE7FEE7FEE748
:10B0E000FEE7FEE7FEE7FEE7FEE7FEE7FEE7FEE738
:10B0F000FEE7FEE7FEE7FEE7FEE7FEE7032107487F
:10B1000002680A430260064802680A430260054872
:10B11000854609F047FF07E070470000240500401E
:10B120005405004000800020354936480A1A02D0F4
:10B13000072291438D46344934480A1A06D0072223
:10B14000914381F30988022282F3148830483149FF
:10B15000314A00F043F831483149324A00F03EF8B4
:10B1600031483249324A00F039F832483249334ADC
:10B1700000F034F832483349334A00F02FF83348AE
:10B180003349344A00F02AF833483449344A00F04D
:10B1900025F834483449002200F02BF8334834496C
:10B1A000002200F026F833483349091A082903DB46
:10B1B00000220260043001601F482049884205D007
:10B1C0000268043003B4904703BCF7E700208646CA
:10B1D000EC4600200021294A9047FEE7884207D02C
:10B1E000521A05D0037801300B700131013AF9D1C0
:10B1F0007047884202D002700130FAE770470000C1
:10B2000000800020007C00200080002000800020C2
:10B210006C8A0200D82200203C23002080B201006A
:10B2200080B20100607202006C8A0200D822002005
:10B23000D822002060720200607202006072020078
:10B2400060720200607202006072020060720200AE
:10B25000607202006C8A0200D08A02003C23002047
:10B260003C2300203C230020BC4B0020BC4B002092
:10B27000BC4B0020BC4B0020BC4F00202DB4010073
:10B28000F0B5DE4657464E464546E0B5ABB008AF92
:10B290000400A023DB0580218903A122D20099505C
:10B2A00000213B4A99500723C3569A46017A4078B9
:10B2B000A578E6782279944662799046A2799146FB
:10B2C00022694B46069343460593634604930396CF
:10B2D00002950190009153462E49082038180BF032
:10B2E000F5FD2D4B1B685B0403D52C4B1B68032B12
:10B2F00010D8A023DB0580218903254A995000211D
:10B30000043A9950BD4623B03CBC90469946A246AB
:10B31000AB46F0BDE846637A7B605B009946083334
:10B32000DB08DB006A46D31A9D4608AB9C461E002C
:10B33000002314E0E268D15C5A00080982461848EC
:10B34000834605685046285CB054013292460F226D
:10B350000A40594609688A5C5146725401337A683A
:10B360009342E7D300236246494653540D4B0E4A9D
:10B37000D358624602920822BA1801920B4A0092F0
:10B3800054220B49042003F027FCC546B1E7C04610
:10B390000C05000010730200DC220020D8220020DF
:10B3A000E02200200405000000B00040BC73020051
:10B3B000B473020010B50648072343725D3303607F
:10B3C0000A3343606C3B037200F0C0FF10BDC046FF
:10B3D0003C23002010B582B01B2101A805F066F8BF
:10B3E000002814D1019B002B0FD018225A70019C09
:10B3F00020000930063A0A490BF07CFDFF222100AB
:10B40000084801F05DF8002806D102B010BD064AD8
:10B410007D2100F00BFCE5E7019805F0F1F8F4E779
:10B42000647202003C2300205873020010B586B0FD
:10B43000152308E01A00C132FF3292000320A02138
:10B44000C90550500133182BF4D9152307E0012208
:10B450009A40A121C900A020C00542500133182BF9
:10B46000F5D98024E401454A0421200003F096FB2D
:10B47000434B1B6823420DD0424B1B68032B09D959
:10B48000414B424AD358424A00929A2241490420F1
:10B4900003F0A2FB3A4B1B685B040DD5394B1B68CC
:10B4A000032B09D9384B394AD3583B4A00929C2286
:10B4B0003849042003F090FB384B1868059000F0E1
:10B4C000ADFC2F4B1B685B040DD52E4B1B68032B6B
:10B4D00009D92D4B2D4AD358314A0092A5222D4926
:10B4E000042003F079FB0C22002102A80BF00EFDD2
:10B4F000059B02932B4B039302A804F0A5FA0028A6
:10B5000031D1294804F0F6FBFFF754FFFFF762FF43
:10B510001B4B1B685B040DD51A4B1B68032B09D909
:10B52000194B1A4AD358214A0092B22219490420D1
:10B5300003F052FB04F0E2FA002819D1104B1B680B
:10B540005B040DD50F4B1B68032B09D90E4B0F4A1B
:10B55000D358174A0092B5220E49042003F03CFB51
:10B5600004F0F4FAFCE7134AAA2100F05FFBC8E7F5
:10B57000104AB32100F05AFBE0E7C04671EB01002E
:10B58000DC220020D82200200405000000B000408A
:10B5900078720200B4730200A472020060720200AA
:10B5A000C072020081BC010081B20100DC720200A5
:10B5B000F4720200587302000E4B1B68DB070AD5B9
:10B5C0000D4B1B88984210D30B4A52889B18984207
:10B5D0000DDB002300E00023002B04D04880012273
:10B5E0000A7000224A60180070470023F4E7012324
:10B5F000F2E7C046202400203425002010B50123A6
:10B600005B420B80002305E09A000E4C125B8242E5
:10B610000DD001330F2B13D85A0992000A4C12593E
:10B620001F241C40E240D207EED40B80F1E79C00BF
:10B63000044A1219D278002AEBD00B80012000E0D6
:10B64000002010BD282400201C24002030B583B029
:10B6500005000C006B46991DFFF7D0FF002804D0B1
:10B660006580032323700023636003B030BD0000B6
:10B6700010B50B88072B01D8013300E0002301220D
:10B6800052420A8007E09A00D21894000B4AA25A4C
:10B6900082420DD00133072B0DD85A099200084C75
:10B6A00012591F241C40E240D207ECD40B80F1E772
:10B6B0000B80012000E0002010BDC046AC26002019
:10B6C0002424002010B5041E05D00F4B12339C42D9
:10B6D0000AD20E4810BD78460D4B1B68002B01D0D6
:10B6E0009847F2E700DEF0E7074B2733FF339C4231
:10B6F00001D90648EEE704481230201A5C210BF00D
:10B70000CBFA80B2E6E7C0463C250020FFFF0000F0
:10B71000982E002010B5041E05D00F4B3C339C42E0
:10B720000AD20E4810BD78460D4B1B68002B01D085
:10B730009847F2E700DEF0E7074B5133FF339C42B6
:10B7400001D90648EEE704483C30201A5C210BF092
:10B75000A3FA80B2E6E7C0463C250020FFFF0000C8
:10B76000982E002010B5041E0DD0164B04339C42B9
:10B7700003D3144B9E339C420ED9134B04339C428B
:10B7800012D2124810BD7846114B1B68002B01D015
:10B790009847EAE700DEE8E70A480430201A162155
:10B7A0000BF07AFA80B2EDE7074B04339C4201D9E3
:10B7B0000648E7E7E01A16210BF06EFA083080B26F
:10B7C000E0E7C0466C2400201C250020FFFF00009D
:10B7D000982E0020002811D00023002B0CD1162217
:10B7E0005A430749525A904201D00133F5E71620D7
:10B7F0004343C818043000E0002070470020FCE7F5
:10B800001C25002070B504000D00160010680028EB
:10B8100003D0FFF7A7FF013002E0002000E0013075
:10B8200007281CD843099B000E4A9B581F22024040
:10B83000D340DB07F3D5162242430B4B9B185B88A2
:10B84000A342ECD116224243074B9B185B796B4015
:10B850009B06E4D1044B98180430306001E00023CB
:10B86000336070BD682400206C24002070B5050092
:10B870000E0001235B420B8000240CE0A3001B1987
:10B880009A00104880180430102229000BF0FAFAB0
:10B89000002811D00134072C11D863099B000A4AF3
:10B8A0009B581F222240D340DB07E7D43288074B46
:10B8B0009A42EFD13480EDE73480013000E000207F
:10B8C00070BDC046AC26002024240020FFFF0000ED
:10B8D00030B583B005000C004868002805D06B46E1
:10B8E000991DFFF7C3FF002803D1012252426B4686
:10B8F000DA806B46991D2800FFF7BAFE002816D0A3
:10B900006B46DA8893009B189A000B4B9B18DB78E8
:10B91000002B0ED06580022323706B4606331B88F4
:10B920009A00D2189100044B5B180433636003B093
:10B9300030BD0020FBE7C046AC26002070B50400F7
:10B940000D1E06D0286800280CD0FFF7BBFE013082
:10B950000BE07846134B1B68002B01D09847F1E7AA
:10B9600000DEEFE7002000E00130032817D843098C
:10B970009B000D4A9B581F220240D340DB07F3D5A2
:10B980005C224243094B9B189B7C63405B06EBD1D6
:10B99000130010330548C0180230286001E000236E
:10B9A0002B6070BD982E0020382500203C250020FB
:10B9B00070B504000E00151E0CD0002C13D0200012
:10B9C000FFF780FE0E4B984216D02A003100FFF799
:10B9D00019FF70BD78460B4B1B68002B01D09847B0
:10B9E000EBE700DEE9E77846064B1B68002B01D049
:10B9F0009847E4E700DEE2E700232B60E9E7C04672
:10BA0000FFFF0000982E002070B505000C1E04D02A
:10BA10002800FFF7DFFE206070BD7846034B1B68EF
:10BA2000002B01D09847F3E700DEF1E7982E0020C5
:10BA300070B505000E1E06D0306800280CD0FFF748
:10BA400069FE441C19E07846204B1B68002B01D08E
:10BA50009847F1E700DEEFE700240EE0012100E067
:10BA600001211B4B5C2044431A193C3211703834BD
:10BA70001B190433336028E00134032C23D86309F5
:10BA80009B00144A9B581F222240D340DB07F3D56A
:10BA9000002D0CD05C2161430B0050330C49C918B8
:10BAA0000431082228000BF0EDF90028E4D10A4BFC
:10BAB0001B78002BD4D05C236343054A9B5A002B90
:10BAC000CCD00021CDE70023336070BD982E00203C
:10BAD0003C250020382500203225002070B50400C8
:10BAE0000D0004F021F902280FD0032808D0012806
:10BAF00001D0002003E029002000FFF75DFD70BDAC
:10BB000029002000FFF7A2FDF9E729002000FFF738
:10BB1000DFFEF4E710B50021BE235B001B4AD150C5
:10BB2000002409E01A4A8A58D21A1A4B93429B41C0
:10BB30005B421DE00134E4B2032C25D8A223DB00D4
:10BB4000A022D205D2582100113101238B4093430A
:10BB5000F0D0114B1B680E4A10498A589A1AE1D44A
:10BB60000B4A0E498A589A1A0A4B93429B415B42F0
:10BB7000002BDFD0064B094AD258074B1A60084BFE
:10BB80001B6820009847D5E710BDC0460060004004
:10BB9000040500009A1900005027002000B0004062
:10BBA0004C27002052DF704710DF704760DF70477E
:10BBB00061DF7047A023DB05F0225204A121C900F8
:10BBC0005A5004495A50EFF3108372B60028FDD141
:10BBD0007047C0460C05000010B584B00C000D4B3A
:10BBE0001B685B0403D50C4B1B68002B04D12000A1
:10BBF000FFF7E0FF04B010BD084B0949CB58039292
:10BC000002940190074A009267220749012002F03E
:10BC1000E3FFECE7DC220020D8220020040500002E
:10BC200000B00040D8740200C674020010B584B0A1
:10BC30000D4B1B685B0403D50C4B1B68002B04D118
:10BC40000120FFF7B7FF04B010BD094B094CE358C2
:10BC5000039002910192084A009240220749012074
:10BC600002F0BAFFECE7C046DC220020D822002018
:10BC70000405000000B00040D4730200C674020046
:10BC800010B582B004000C4B1B685B0403D50B4B52
:10BC90001B68002B04D12000FFF78CFF02B010BD01
:10BCA000074B084AD3580190074A00924622074999
:10BCB000012002F091FFEEE7DC220020D8220020D4
:10BCC0000405000000B00040F4730200C6740200D6
:10BCD00000B583B00B4B1B685B0403D50A4B1B6894
:10BCE000032B04D80120FFF765FF03B000BD074B0D
:10BCF000074AD358074A00924C220749042002F011
:10BD00006BFFEFE7DC220020D822002004050000B2
:10BD100000B00040C4730200C674020000B583B0D6
:10BD200002E0019803F0E0FF01A8FFF73BFF0028C5
:10BD3000F7D047226B465A8005E0074803F0D2FF50
:10BD400047226B465A806B46991C0348FFF730FF29
:10BD50000028F2D003B000BD5427002010B584B0F5
:10BD60000400254B1B685B0403D5244B1B68032B85
:10BD70002AD8234B0393039B02931F4B1B685B043E
:10BD800003D51E4B1B68032B29D802A92000FFF7FF
:10BD90000DFF0400029A039B9A4212D0164B1B68B7
:10BDA0005B040ED5154B1B68012B0AD9154B1649A0
:10BDB000CB580192154A00927B221549022002F0CD
:10BDC0000BFF200004B010BD0E4B0F4AD358114A90
:10BDD00000926D220E49042002F0FEFEC9E7094BD5
:10BDE000094AD358039A01920B4A009276220849D5
:10BDF000042002F0F1FEC8E7DC220020D822002057
:10BE0000D82200200405000000B000403C7402006D
:10BE1000C6740200107402002C74020000B589B0D0
:10BE20000190234901A8FFF7BFFE00281CD1C523BC
:10BE30009B00204AD258920D0323134002D0022BBC
:10BE400017D00123002B16D11B48002825D114221E
:10BE5000002103A80BF05AF803A8FFF77FFF002882
:10BE600020D1002009B000BD144A8221FFF7DEFE78
:10BE7000DDE70023E6E7124B5B68002B05D180224B
:10BE8000D2030C4B1A600020DFE70D4A11688023B3
:10BE9000DB030B4313600020D7E7084A8321FFF739
:10BEA000C5FED4E7054A8621FFF7C0FED9E7C046A4
:10BEB000D9BB010000E100E002200000787402001C
:10BEC0009C2700200AE02422094B1A70094B1B789A
:10BED000074A1278253A1341DB0707D4044B1B7835
:10BEE000272BF0D00133024A1370EFE77047C046AA
:10BEF000AC270020B027002002000378022B1FD0BF
:10BF000017D3032B22D0002091793F230B40517986
:10BF10005B1811795B18D1785B1891785B185278AF
:10BF20009B18002804D0002B1FD0114A93421AD02E
:10BF3000704783793F218B43C02B0ED00020E3E76D
:10BF400083793F218B430AD00020DDE783793F21AD
:10BF50008B43802B05D00020D6E70120D4E70120B9
:10BF6000D2E70120D0E70020E2E70020E0E7C0466A
:10BF70003A050000F0B5C64600B58AB00D009046FF
:10BF80000023009300E00133022B14D829781941D3
:10BF9000C907F8D5009901AC4E007718BF00002200
:10BFA0003A55E4196060424662721E0025362672D8
:10BFB00001310091E7E7694601A804F0C3FB04F0F2
:10BFC00045FC002302E0013900910133022B0CD81B
:10BFD0002A7811001941C907F7D500990029F2D133
:10BFE000013199408A432A70EFE70AB004BC9046B9
:10BFF000F0BD000000B587B0022203AB1A70282103
:10C0000004A804F053FA002813D0134B1B68DB0775
:10C010000DD5124B1B68012B09D9114B114AD3586E
:10C02000114A009280221149022002F0D5FD07B08A
:10C0300000BD03A80E4B1B7803720123029302A9D3
:10C0400004F080FB002802D104F000FCEFE7049824
:10C0500004F0D6FAEBE7C046DC220020D82200200C
:10C060000405000000B00040C8750200BB75020066
:10C07000AC27002010B5044B1B78002B00D110BD5D
:10C08000FFF7B8FFFBE7C046AB27002010B5012241
:10C09000034B1A70FFF716FFFFF7ACFF10BDC04649
:10C0A000AB27002010B50400002900D110BD04F01A
:10C0B000A7FA2100064800F00DFE0028F6D07846C9
:10C0C000044B1B68002B01D09847EFE700DEEDE73B
:10C0D000D9C00100982E002010B58CB00400302289
:10C0E000002168460AF012FF01236A46137001948A
:10C0F000684600F0C3FE0CB010BD000030B585B03E
:10C1000004001D00002917D004F09CFE01AA019034
:10C11000157123785B06DB0F5371E31C0A2068441A
:10C120001904090C01801B0C4380054B9B680121FD
:10C130002000984705B030BD04F062FAFAE7C04627
:10C14000B027002010B50378302293431A007F23D4
:10C1500013400370002383700A7A0F331A40037868
:10C160000F24A34313430370D423CA5CD33B1A4068
:10C17000920103783134A343134303700330D53164
:10C1800006220AF0B7FE10BD70B582B00C00002286
:10C19000DC23CA54343BCB5CFF2B1BD00023A822EA
:10C1A000A25C002A01D0002B23D0A423E058002851
:10C1B00004D004F025FA0022A423E250200010301D
:10C1C0002100A43100F0DAFE00280DD00022C8239F
:10C1D000E25045E00800103000F03CFF002801D19B
:10C1E0000123DCE70023DAE7A423E0582100FFF76E
:10C1F000A9FF637A002B05D178462E4B1B68002BD4
:10C2000030D09847637A6A46D51DD371A823E65C7F
:10C21000721E51425141CAB2A423E0582900FFF7CF
:10C22000A9FE2B78002B08D0A823E35CFF2B04D0B9
:10C23000013BA822A354012E16D0A823E35C002BB7
:10C2400016D00122DC23E25463682268934224D88A
:10C250000021FA239B0022685343C918C823E150E8
:10C2600002B070BD00DECDE70022A423E250E4E777
:10C2700025001035280000F0EDFE0028E1D0280050
:10C2800000F0E8FE0028EBD00022C823E250E3686B
:10C29000002BE5D020009847E2E72000AC3004F006
:10C2A000B3FC636822689B1AFA21890059430AF09B
:10C2B00007FDCEE7982E002070B5040004F0C2FD03
:10C2C0000500C023E3581A1A16D42000AC3004F03D
:10C2D0009BFCFA21890023685943164B9C46614414
:10C2E0000AF0EEFC6918FA239B009C46614420008A
:10C2F000BC3005F0BDF870BDFA22920021684A43B7
:10C300009B18C31AE1D52000AC3004F07DFC2668F0
:10C310006368991BFA25AD0069430AF0D1FCC0237C
:10C32000E35875435D1949192000BC3005F0A0F8A9
:10C33000E1E7C04618FCFFFF10B50022024B1A705F
:10C3400004F0ECFA10BDC046AB270020F0B589B070
:10C35000041E44D0DC23E35C002B05D07846354B2B
:10C360001B68002B44D0984725001035280000F0AA
:10C3700035FE002805D078462E4B1B68002B39D09F
:10C380009847082363612300243323611023A361AA
:10C39000280000F091FD2000AC3004F079FC00236F
:10C3A000A422A3500432A3543432A354224AC433E7
:10C3B000E2500833E450214D691C06222000D5309C
:10C3C0000AF098FD2A78D423E2541D4B1B68DB0742
:10C3D00003D51C4B1B68032B0ED809B0F0BD784663
:10C3E000144B1B68002B01D09847B3E700DEB1E780
:10C3F00000DEB9E700DEC4E7134B144AD358DA2253
:10C40000A25CD921615CD820205CD725655DD62649
:10C41000A65DD527E45D06940596049503900291E8
:10C4200001920B4A0092DA22FF320A49042002F0FC
:10C43000D3FBD2E7982E002089C10100A427002059
:10C44000DC220020D82200200405000000B00040BB
:10C450000C750200BB75020010B500282BD00378C4
:10C4600007221900914301D0072010BD002B01D1F4
:10C470000720FAE74388022B01D80720F5E7A0221E
:10C480009201934201D90720EFE78288022A01D85E
:10C490000720EAE7A02189018A4201D90720E4E7C1
:10C4A000934201D20720E0E70C22010003480AF082
:10C4B00021FD0020D9E70E20D7E7C046B027002095
:10C4C00030B583B0050000916B461A714B78252B6F
:10C4D00005D978460F4B1B68002B10D098472800D1
:10C4E0001030694600F018FD041E03D1DC23EB5C1C
:10C4F000002B06D0042C0BD0200003B030BD00DE92
:10C50000EDE70122DC33EA542800FFF7D5FEF1E71E
:10C510000D34F1E7982E002010B50C0000280ED045
:10C5200000290ED00B785B0701D1072010BD012236
:10C53000FFF720FD2378002B05D10420F6E70E201D
:10C54000F4E70E20F2E70020F0E710B5DC23C35C2F
:10C55000002B01D1082010BDBC3004F051FF002099
:10C56000F9E730B583B00400FFF7EFFF00F0EAFB16
:10C570000022DC23E254383BE05800280ED004337C
:10C58000E35C002B0AD00025A423E55004F038F822
:10C59000A823E55402E0009804F032F8200010309F
:10C5A000694600F0EBFC0028F5D000F0EFFB03B08B
:10C5B00030BD10B5041E12D0DC23C35C002B01D1AA
:10C5C000082010BD04F03EFCFA218900236859437D
:10C5D00041182000BC3004F04BFF0020F1E70E2092
:10C5E000EFE7000070B50022104B1A7004F02AFC2F
:10C5F000FA239B00C4180E4D6A8853430D48C3604C
:10C600000D4B8360210004F033FF6B88AA889342AE
:10C610000AD0FA2189004B430848C360084B836065
:10C620005143611804F024FF70BDC046AB270020C1
:10C63000B0270020BC2700208DC00100D427002097
:10C6400039C3010010B5041E0CD02378022B18D07A
:10C6500011D3032B1AD07846104B1B68002B1BD02C
:10C6600098470DE078460D4B1B68002B01D098478A
:10C67000EBE700DEE9E7A27940235B421343A371B5
:10C6800010BDA2793F231340A371F9E7A37940229B
:10C6900093431343A371F3E700DEF1E7982E0020E4
:10C6A00010B50400A02380225205D3585A1E93418E
:10C6B00003700130062203490AF01CFC2000FFF73A
:10C6C000C1FF10BDA400001070B5041E0FD0FFF70D
:10C6D00013FC002801D1102070BD064D681C611CA0
:10C6E00006220AF007FC23782B700020F4E70E20C6
:10C6F000F2E7C046A427002030B58BB0FFF7ACFEB0
:10C70000041E02D020000BB030BD24221F4B1A7033
:10C7100000221F4B1A70183200211E480AF0F6FB47
:10C72000182200211C480AF0F1FB05A91B480B0048
:10C73000020023CA23C303CA03C3194B1B68DB07C8
:10C7400003D5184B1B68042B11D805A803F0CAFFAA
:10C750001548FFF7D1FB0028D4D103A8FFF7A0FFAD
:10C7600003A8FFF76FFF03A8FFF7AEFFCAE70F4B61
:10C770000F4AD3580F4A01920F4A0092D822520012
:10C780000E49052002F028FADFE7C046AC2700205A
:10C79000AB270020D4270020BC270020F87402001B
:10C7A000DC220020D8220020A4270020040500005D
:10C7B00000B00040D6BE898E48750200BB750200ED
:10C7C000F0B5D6464F464646C0B58EB0050004913A
:10C7D0000592A74B9B79002B00D17DE0A44B1B68F1
:10C7E000002B20D0A24B9C79002C5ED0022C3DD98E
:10C7F000032C5AD12B785B06DB0F9D4A17683A78D9
:10C80000934238D000230393022C5BD0032C65D0D5
:10C81000012C63D07846974B1B68002B58D0984763
:10C82000012303935AE07846924B1B68002B01D0FA
:10C830009847D7E700DED5E701368D4B9B889E42AF
:10C8400016D28B4B1F68F3009B1BFF18781CE91C4A
:10C8500006220AF017FB0028EED12B785B06DB0FCF
:10C860003A789342E8D101230393CDE70026E4E729
:10C8700000230393C8E7781CEB1C98460622190096
:10C880000AF000FB002802DD00230393BCE7380018
:10C890000830062241460AF0F5FA002802DD01239D
:10C8A0000393B1E700230393AEE77846714B1B680F
:10C8B000002B03D09847012303930FE000DE0123F0
:10C8C00003930BE0012303985840C3B2039305E0A0
:10C8D00000DE0123039301E001230393039B002B5C
:10C8E00009D00995049B0D936B789A46252B0FD898
:10C8F0000023002137E0604A1368013313602800E9
:10C9000003F07EFE0EB01CBC90469946A246F0BDD8
:10C9100007A803230370092242708370456002F068
:10C920000FF9002812D0554B1B689B060ED5544BAF
:10C930001B68012B0AD9534B534AD3580190534AD1
:10C940000092F8225249022002F046F9514A136837
:10C9500001331360280003F053FED3E70399002945
:10C960001ED101369B195246063AD2B293421ADAC8
:10C97000E9184E7A591C69184C7A474909780029F8
:10C98000ECD060091F273C401E3FA7403C008000C0
:10C9900080464248474638582042E0D10021DEE731
:10C9A000D31A9E4214DA00291AD0059B002B04D01A
:10C9B0000A2219000AA80AF09DFA09A9384800F0CD
:10C9C000ABFA002831D1374A13680133136099E775
:10C9D000304A136801331360280003F011FE91E719
:10C9E00007A8314B020012CB12C202F0A9F80028AE
:10C9F00013D0224B1B689B060FD5214B1B68012BC4
:10CA00000BD9204B204AD3580190204A00928C2207
:10CA100052001F49022002F0DFF8244A1368013354
:10CA20001360280003F0ECFD6CE707A81E4B0833E9
:10CA3000020012CB12C202F083F8002813D00F4B71
:10CA40001B689B060FD50E4B1B68012B0BD90D4B9A
:10CA50000D4AD35801900D4A00922622FF320C490C
:10CA6000022002F0B9F8280003F0CAFD4AE7C046E8
:10CA7000EC270020982E0020B0290020DC22002086
:10CA8000D82200200405000000B000407C7602009F
:10CA900073760200B829002014280020F427002013
:10CAA000F8280020AC29002004760200B4290020D8
:10CAB00030B585B0144CA022002120000AF026FADF
:10CAC00012480460142343600C3B836000F0F4F9C7
:10CAD00001A80F4B1033020032CB32C2FFF70CFE1D
:10CAE000041E02D0200005B030BD0A48072343725F
:10CAF000173343600A3B0360123B03720023C36099
:10CB0000FFF724FCEEE7C0460C290020F82800209F
:10CB1000047602001828002010B5FFF763FD0020FE
:10CB200010BD000070B506000C0015004378252BE1
:10CB300005D978460E4B1B68002B07D09847012378
:10CB400023409C4204D00724200070BD00DEF6E79D
:10CB5000002C01D10724F7E700F0F4F82A00310097
:10CB60000448FFF7ADFC040000F010F9ECE7C04604
:10CB7000982E002018280020F0B587B007000E007E
:10CB8000150001A90A4800F0F9F9041E0CD1002E85
:10CB900001D0059B3360019B3B60002D04D00A222D
:10CBA00002A928000AF0A6F9200007B0F0BDC0468F
:10CBB000F828002010B50378012B11D0002B02D0EB
:10CBC000022B06D010BD4368002BFBD0806898472D
:10CBD000F8E74368002BF5D0C16880689847F1E713
:10CBE0004368002BEED080689847EBE78021C902AC
:10CBF00080235B00014AD1507047C04600E100E04D
:10CC000010B584B0002404E0A300144A9B58984750
:10CC10000134134B1B689C4218D262099200114BDD
:10CC20009B181F2222401968D140C907F0D5EFF3A5
:10CC3000108172B6012090401A6882431A60002960
:10CC4000E2D162B6E0E76846FFF7B4FF69460648FE
:10CC500000F094F90028F6D004B010BDD82A0020C6
:10CC6000D42A0020E82A0020BC29002010B50100A9
:10CC7000054800F051F9041E02D00424200010BD24
:10CC8000FFF7B4FFFAE7C046BC29002010B5FFF754
:10CC9000B7FF10BD10B50B480B4B0360102343606A
:10CCA000836000F009F9094BC42080001A58084934
:10CCB0001140C02212040A431A508022D2021A6084
:10CCC00010BDC046BC290020D029002000E100E0B2
:10CCD000FFFF00FF30B585B004000D00002809D02B
:10CCE00001236A461370019402956846FFF7BEFF60
:10CCF00005B030BD7846044B1B68002B01D0984727
:10CD0000EEE700DEECE7C046982E002030B585B097
:10CD100004000D00002809D000236A461370019416
:10CD200002956846FFF7A2FF05B030BD7846044B78
:10CD30001B68002B01D09847EEE700DEECE7C04609
:10CD4000982E002010B5EFF3108472B60C490A68D3
:10CD5000531C0B60002A04D18020C0028032094994
:10CD60008850002B05D17846074B1B68002B04D058
:10CD70009847002C00D162B610BD00DEF9E7C0462E
:10CD8000D02A002000E100E0982E002010B5EFF33B
:10CD9000108472B60C4B1B68002B05D178460B4BE8
:10CDA0001B68002B0ED09847074A1368013B13609D
:10CDB000002B03D18022D202054B1A60002C00D137
:10CDC00062B610BD00DEEFE7D02A0020982E0020CA
:10CDD00000E100E010B5041E17D0114B1B68032BB7
:10CDE00005D978460F4B1B68002B17D09847EFF3F7
:10CDF000108372B60A4A1068411C116081000A4A09
:10CE00008C50002B00D162B610BD7846054B1B68D4
:10CE1000002B01D09847E0E700DEDEE700DEE6E722
:10CE2000D42A0020982E0020D82A002070B50500B2
:10CE30000F4B1B68834205D878460E4B1B68002BAE
:10CE400014D09847EFF3108472B66A0992000A4B27
:10CE50009B181F2028400122824019680A431A604B
:10CE6000FFF7C4FE002C00D162B670BD00DEE9E71A
:10CE7000D42A0020982E0020E82A002070B5051E34
:10CE800004D00B4B1C68002C0ED10FE07846094BE8
:10CE90001B68002B01D09847F3E700DEF1E7231F62
:10CEA0001B68280098472468002CF8D170BDC04644
:10CEB000EC2A0020982E002010B5041E1CD06368B8
:10CEC000002B05D02368002B02D0A368002B05D1CE
:10CED0007846104B1B68002B17D09847A3685A1E42
:10CEE0001A4205D078460B4B1B68002B0FD0984791
:10CEF0000023E360236110BD7846064B1B68002BBE
:10CF000001D09847DBE700DED9E700DEE6E700DE88
:10CF1000EEE7C046982E002070B5041E26D00029EA
:10CF200026D08368002B02D10925280070BDEFF3BD
:10CF3000108572B6806823691A18E668B24210D06C
:10CF4000013830406368584323689C4660446268F7
:10CF500009F0D0FFE3680133E360002D0CD162B625
:10CF6000E3E7002D06D162B60435DEE70E25DCE7E7
:10CF70000E25DAE70425D8E70025D6E770B50400CA
:10CF80000800002C24D0A368002B02D1092528001A
:10CF900070BDEFF3108572B62369E268934212D038
:10CFA0006268A16801391940514323689C46614475
:10CFB000002801D009F09EFF236901332361002D71
:10CFC0000AD162B6E3E7002D04D162B60535DEE78B
:10CFD0000E25DCE70525DAE70025D8E7C3680069F8
:10CFE000181A7047F8B504000E001700002824D066
:10CFF000002924D08368002B02D109252800F8BD20
:10D00000EFF3108572B6FFF7E9FFB84204D8002DA0
:10D0100017D162B60535F1E72168626823699C463D
:10D020006744A368013B1F405743C919300009F00A
:10D0300061FF002D07D162B6E0E70E25DEE70E2581
:10D04000DCE70525DAE70025D8E710B50022FFF771
:10D05000C9FF10BD0369C068181A43425841C0B2E5
:10D0600070470000C3681A795979521A06498C46EC
:10D07000624492028021C9008C4662449B18426936
:10D080009B1A8068181A7047FFFF3F0070B50500B3
:10D090000C00830705D078460F4B1B68002B12D07D
:10D0A0009847A30705D078460B4B1B68002B0CD084
:10D0B00098470023A208934209D29A00525901329C
:10D0C00007D10133F6E700DEEBE700DEF1E70120F0
:10D0D00070BD0020FCE7C046982E002070B505000A
:10D0E00000241BE0002000E00020002830D053790D
:10D0F0009C4205D07846174B1B68002B23D09847DD
:10D10000EB689C46664433792A69934205D0784699
:10D11000104B1B68002B18D0984701342B699C4298
:10D1200015D2A602EB689A191378083BDBB2F62BEE
:10D13000DAD85379FF2B04D01379FF2BD2D00120FA
:10D14000D3E70020D1E700DEDAE700DEE5E70120E3
:10D1500070BDC046982E002070B504000579012DE1
:10D1600001D9002070BD06683000FFF77BFF002D5D
:10D1700008D1A3899B00834208DB7368002B03D18D
:10D180000020EFE70023F6E70120EBE70020E9E7C6
:10D19000F0B5C64600B586B004000368DA681078BA
:10D1A0008018137951795B1A52498C4663449B026B
:10D1B0008021C90059185118E28901F071FC07005B
:10D1C00022689668B50AAD028023DB009C46654460
:10D1D0000195A81BA3899B00984251D9F5182100FD
:10D1E0000C31A2899200012302A8037003960591D5
:10D1F000049200220100012001F04CFE002806D01C
:10D2000078463D4B1B68002B00D16BE0984701230B
:10D2100002AA13700395394B059304230493384AEB
:10D2200002A9012001F036FE002805D07846324BD5
:10D230001B68002B58D09847002F1BD022683B88D2
:10D240009B0051688C4663445360012302AA13700B
:10D2500003972C4B059304230493294A02A9012028
:10D2600001F018FE002805D07846234B1B68002BE0
:10D270003CD09847A660002006B004BC9046F0BDA4
:10D28000D268944611795279891A1A4A90464144D3
:10D2900089028022D2008A1862440199914227D0E3
:10D2A00098421AD0012302AA13700396164B0593D5
:10D2B00004230493002202A9012001F0EBFD0028C1
:10D2C00005D078460C4B1B68002B09D098472E7868
:10D2D000AE19A589AD00751981E72B78ED187EE7A9
:10D2E00000DEF4E700DE92E700DEA5E700DEC1E73E
:10D2F0000120C1E7FFFF3F00982E0020C876020002
:10D30000122C0020C0760200C476020010B584B052
:10D3100004000368DA6810788018137951795B1A71
:10D3200019498C4663449B028021C9005918511841
:10D33000E28901F0B5FB002821D0A06022680388B3
:10D340009B0051688C466344536001236A46137006
:10D3500001900E4B0393042302930D4A694601206A
:10D3600001F098FD00280DD078460A4B1B68002B71
:10D3700002D09847002003E000DE002000E00220F9
:10D3800004B010BD0020FBE7FFFF3F00C0760200A5
:10D39000122C0020982E002070B584B00500036880
:10D3A000DB68467BB6029E1908213000FFF76EFE4F
:10D3B000002814D1002401E000DE0134072C0ED82F
:10D3C000335D2A000832125D9342F6D0FF2BF4D071
:10D3D0007846104B1B68002BEED09847EDE70835D8
:10D3E00001236A46137001960395073302930A4A94
:10D3F0006946012001F04EFD002805D07846054B16
:10D400001B68002B03D09847002004B070BD00DEDD
:10D41000FAE7C046982E0020122C002000B585B0F7
:10D420000368DA681B699B02022168460170019259
:10D430000293094A6946012001F02CFD002805D01D
:10D440007846064B1B68002B03D09847002005B098
:10D4500000BD00DEFAE7C046122C0020982E002006
:10D4600010B5828992000379012B0FD0002B03D0D5
:10D47000022B11D0012008E0836801000C31180054
:10D4800009F000FD43425841C0B210BD836858887E
:10D4900043425841C0B2F8E70368DB68427B92021E
:10D4A0009B18010008310822180009F0EBFC4342E8
:10D4B0005841C0B2E9E7000070B501000E4802F023
:10D4C00029FF0E4B5D6809E0002D05D078460C4B16
:10D4D0001B68002B0DD09847A5420CD0074806F0DA
:10D4E000B9F8041EF0D000230360C068A368984711
:10D4F000F2E700DEF0E770BDF02A0020042C0020E7
:10D50000982E0020F0B5C64600B504000D001600A8
:10D51000002904D1FFF7A4FF002800D10335002D16
:10D5200001D026000C3627682379012B58D0002B18
:10D5300019D0022B00D15BE0042B00D16CE0414BF1
:10D540009C4203D30533FF339C4206D978463E4BB9
:10D550001B68002B00D172E09847201FFFF7ACFF3B
:10D5600004BC9046F0BD002D07D0BB69002BE6D06F
:10D570002A00310038009847E1E7A36898461B88E5
:10D58000002B05D17846304B1B68002B1AD09847EA
:10D5900043461B889B0043449A0A9202934213D04D
:10D5A00042465188FE22D20191420DD0BB605A887A
:10D5B000264B9A42D9D07846234B1B68002B0DD0BE
:10D5C0009847D2E700DEE3E743469B0A9B028022AE
:10D5D000D200944663441A789B18E7E700DEC4E75C
:10D5E000FB69002BABD0E1892A0038009847A6E7F9
:10D5F0003B78012B05D07846134B1B68002B09D0D4
:10D600009847627B237B013B9A4200D097E7022335
:10D610003B7094E700DEF4E7002D05D078460A4B16
:10D620001B68002B09D0984700233B703B6A002BF6
:10D6300000D184E73800984781E700DEF4E700DE98
:10D640008BE7C046FC2A0020982E0020FF7F0000B8
:10D6500000B583B00023019382B201A9054802F00E
:10D6600039FD002803D1019B181D03B000BD002027
:10D67000FBE7C046F02A002070B5040000254EE00C
:10D680001020FFF7E5FF061E00D172E002230371B0
:10D6900006330372043B43720C33C37283724573C7
:10D6A000237C037301235B42C3810460324B9842A5
:10D6B00003D30533FF33984205D978462F4B1B68B7
:10D6C000002B06D09847311F0A882D4802F04AFDEA
:10D6D00024E000DEF7E7002300E00023002B05D163
:10D6E0007846264B1B68002B37D09847E3689B1978
:10D6F0005B799D4205D07846204B1B68002B2ED0CD
:10D700009847E3689C46664433792269934205D082
:10D7100078461A4B1B68002B23D0984701352369A4
:10D720009D4220D2AE02E36898190430FF2189009F
:10D73000FFF7ACFC0028A3D1E3689A191378083BE3
:10D74000DBB2F62BC9D85379FF2B04D01379FF2B0A
:10D75000C1D00123C2E70023C0E700DEC6E700DE38
:10D76000CFE700DEDAE7074B1868FFF75FFB002022
:10D7700070BD0420FCE7C046FC2A0020982E002043
:10D78000F02A00200C2C002070B50500C3681C781E
:10D79000E41800200EE000DE23889B00E3189A0ABC
:10D7A0009202934223D06188FE22D20191421ED080
:10D7B00020001C00EA68137951795B1A11498C46E4
:10D7C00063449B028021C9008C466344D3189C4269
:10D7D00016D262880C4B9A4212D02388002BDBD1E0
:10D7E00078460A4B1B68002BD5D09847D4E7A30A8C
:10D7F0009B028022D200944663441A789B18D7E794
:10D8000070BDC046FFFF3F00FFFF0000982E0020C4
:10D8100070B50400FFF7B8FFA060002823D042884D
:10D82000164B9A4226D00820FFF712FF051E23D080
:10D83000032303710460124B984203D30533FF3373
:10D84000984205D978460F4B1B68002B10D098479B
:10D85000291F0A880C4802F085FC0C4B1868FFF75A
:10D86000E5FA002007E0E26813789B18A36002E065
:10D8700000DEEDE7002070BD0420FCE7FF7F000024
:10D88000FC2A0020982E0020F02A00200C2C0020DA
:10D89000F8B506794379F61A224B9C466644B602DF
:10D8A0008023DB009C466644861905782D180027E6
:10D8B0000CE000DE1FE0AC0AA4028023DB009C46E3
:10D8C00064442378E41822E000DE25006B88164AC1
:10D8D000934225D0154A934222D0002B02D12B88A7
:10D8E0009B00FF182B88002B05D17846104B1B6836
:10D8F000002BDED098472C88A4002C19A30A9B0289
:10D900009C42D8D06A88FE23DB019A42D3D0A6423B
:10D91000DBD87846064B1B68002BD5D09847D4E758
:10D920003800F8BDFFFF3F00FFFF0000FF7F000051
:10D93000982E002070B584B005000068FFF724FF22
:10D94000041E2CD06388002B32D12E682388002B34
:10D9500005D17846434B1B68002B41D0984723885C
:10D960009B00E3189A0A920293423BD06188FE2200
:10D97000D201914236D0B3602B689868D9680A7991
:10D980004B79D21A384B9C46624492028023DB00CA
:10D99000D318CB1898422ED3002004B070BD78461F
:10D9A000304B1B68002B01D09847CBE700DEC9E75E
:10D9B00001236A46137001942C4B039304230293B2
:10D9C0002B4A6946012001F065FA0028BDD078464F
:10D9D000244B1B68002B01D09847B6E700DEB4E764
:10D9E00000DEBCE7A30A9B028022D2009446634477
:10D9F0001A789B18BFE72388002B05D17846194B6E
:10DA00001B68002B21D0984723889B00E3189A0AB3
:10DA1000920293421BD06188FE22D201914216D01D
:10DA2000012269460A700193124B03930423029367
:10DA30000F4A012001F02EFA0028ADD07846094B9C
:10DA40001B68002B0BD09847A6E700DEDCE7A40A92
:10DA5000A4028023DB00E3181C781B19E0E700DE3A
:10DA60009AE7C046982E0020FFFF3F00C0760200D4
:10DA7000122C0020C876020010B584B0040002A861
:10DA8000092303702379437000238370436001F0FE
:10DA900057F8002812D01D4B1B689B060ED51C4B57
:10DAA0001B68012B0AD91B4B1B4AD35801901B4AF8
:10DAB00000921B4A1B49022001F08EF82379042BA7
:10DAC00018D89B00184AD3589F462000FFF760FBE8
:10DAD00004B010BD2000FFF719FCF9E72000FFF7A4
:10DAE0005BFCF5E72000FFF725FFF1E72000FFF7DB
:10DAF00095FCEDE778460D4B1B68002B02D098474C
:10DB00000020E5E700DE0020E2E7C046DC2200203E
:10DB1000D82200200405000000B000407C760200FE
:10DB20008E0200001F770200AC760200982E0020C3
:10DB300010B582B0294B1B78022B4DD1284B1B7896
:10DB4000012B30D0002B12D0022B45D0032BF1D16A
:10DB5000244B1B68002B36D0224B1868224B1978B7
:10DB60008268FFF7CFFC00221D4B1A70E2E700230A
:10DB7000019301A91D4802F069FB00282CD1019CEA
:10DB8000201D184B18600122154B1A70FFF7E4FA9C
:10DB90000028CFD00323114A1370626813706068A5
:10DBA00000F01AFFC6E70F4B1868FFF765FF0E4B32
:10DBB0001870002803D10222094B1A70BAE7032219
:10DBC000074B1A70B6E77846094B1B68002B01D04B
:10DBD0009847C1E700DEBFE702B010BD102C00205F
:10DBE000002C0020142C0020182C0020F02A0020EB
:10DBF000982E002010B5074B1B88934200D010BD13
:10DC0000054B1B78022BFAD10322034B1A70FFF746
:10DC10008FFFF4E7122C0020002C002010B5822288
:10DC200052001049104802F0D5F91049012001F0C6
:10DC300019F90F48FFF7CEF80E4B186000230E4A73
:10DC400013700E4A13800E4805F0C6FC00F09CFECF
:10DC5000002803D102220B4B1A7010BD0322094B7E
:10DC60001A70FAE7FC2A0020F02A0020F5DB0100F8
:10DC700031DB01000C2C0020002C0020122C002095
:10DC8000042C0020102C0020F8B507000C00150013
:10DC900000283CD03B78022B00D0A3E0002D3FD0E1
:10DCA000F9680B785B189D4200D29DE00A794B79A8
:10DCB000D21A514B9C46624492028023DB00D31857
:10DCC000CB189D4200D991E02B88002B05D17846D6
:10DCD0004A4B1B68002B27D098472B889B00EE18D7
:10DCE000B30A9B029E4221D06A88FE23DB019A423E
:10DCF0001CD0FD682B796A799B1A3F4A944663448D
:10DD00009B028022D20094466344ED183BE07846A3
:10DD10003A4B1B68002B01D09847BBE700DEB9E700
:10DD2000FB681E789E19E4E700DED6E7AD0AAD0277
:10DD30008023DB009C4665442E78AE19D9E700DECF
:10DD400014E0B30A9B028022D200944663441A78FE
:10DD50009B1817E00023002B2AD13388002B05D114
:10DD60007846264B1B68002BE9D0984733889B00E8
:10DD7000F3189A0A92029342E3D07188FE22D201EC
:10DD80009142DED01E00AE4212D27288531E9BB268
:10DD90001B498B42DED8002C06D0618823884A407C
:10DDA0001A4203D00023D6E70123D4E70123D2E7A8
:10DDB000AE421DD27288531E9BB211498B4208D8C5
:10DDC000002C0BD0618823884A401A4208D00023D7
:10DDD00000E00023002B0DD03000F8BD0123F9E74F
:10DDE0000123F7E70026F7E70026F5E70026F3E72B
:10DDF0000026F1E70026EFE7FFFF3F00982E002006
:10DE0000FE7E000070B505000E001400002809D049
:10DE1000731E9BB21F4A93420FD91F4B9E420AD0DA
:10DE200000230BE078461D4B1B68002B01D0984760
:10DE3000EEE700DEECE7012300E00123002B05D133
:10DE40007846164B1B68002B1BD09847802C05D9B1
:10DE50007846124B1B68002B15D098472B78002B67
:10DE600013D020001030FFF7F3FB00280FD0002361
:10DE70000371C6810334A4080134848105600C3029
:10DE800070BD00DEE2E700DEE8E70020F8E70020F2
:10DE9000F6E7C046FE7E0000FF7F0000982E0020BF
:10DEA00010B50400144B984203D30533FF33984256
:10DEB00005D97846114B1B68002B18D098470C3CAD
:10DEC0000D4B9C4203D30533FF339C4205D9784662
:10DED0000A4B1B68002B0CD09847211F0A88084862
:10DEE00002F040F9074B1868FEF7A0FF10BD00DEF6
:10DEF000E5E700DEF1E7C046FC2A0020982E00206E
:10DF0000F02A00200C2C002070B506000D0000281F
:10DF100009D06B1E9BB2224A93420FD9214B9D42DE
:10DF20000AD000230BE078461F4B1B68002B01D062
:10DF30009847EEE700DEECE7012300E00123002B29
:10DF400005D17846184B1B68002B23D0984710202A
:10DF5000FFF77EFB041E21D001230371C581023B24
:10DF600083810660114B984203D30533FF339842F7
:10DF700005D978460C4B1B68002B0DD09847211F04
:10DF80000A880B4802F0EEF80A4B1868FEF74EFFBD
:10DF9000002070BD00DEDAE700DEF0E70420F8E7DD
:10DFA000FE7E0000FF7F0000982E0020FC2A00204B
:10DFB000F02A00200C2C0020F8B50500C7683C783A
:10DFC0003F193E008368BB4201D80020F8BD3B8862
:10DFD000002B05D178462E4B1B68002B15D0984797
:10DFE0003C88A4003C19A30A9B029C4204D07A8876
:10DFF000FE23DB019A4219D1BF0ABF028023DB0056
:10E000009C4667443C783C1910E000DEE8E700DEFF
:10E0100023889B00E3189A0A9202934213D06188E6
:10E02000FE22D20191420ED026001C00AB689C4219
:10E0300012D02388002BEBD17846154B1B68002BA0
:10E04000E5D09847E4E7A30A9B028022D2009446D9
:10E0500063441A789B18E7E77288531E9BB20D49F8
:10E060008B4201D90020B1E7EB681878C018310065
:10E0700000F016FD002806D0864206D04188280010
:10E08000FFF742FFA2E70020A0E700209EE7C0467E
:10E09000982E0020FE7E000070B504000D000023C5
:10E0A00003700B689B0505D078461E4B1B68002B40
:10E0B00022D098476B68FE2B05D97846194B1B6810
:10E0C000002B1BD0984720000C301822290008F0A4
:10E0D00011FF0023A36063602000FEF7FFFF00280C
:10E0E00014D02169E068FFF7D3FB60602000FFF7E0
:10E0F0008FFB002804D070BD00DEDBE700DEE2E726
:10E10000022323702000FFF757FFF4E70123237059
:10E110002000FFF7B1FA0028EDD1E3680833A360CF
:10E12000E9E7C046982E002010B5041E06D0A3686B
:10E13000002B0CD02368002B12D010BD78460B4B5F
:10E140001B68002B01D09847F1E700DEEFE7784627
:10E15000064B1B68002B01D09847EBE700DEE9E790
:10E1600024602100024805F049FAE6E7982E0020D5
:10E17000042C002010B5074802F0A8F8002801D0B0
:10E18000002010BD00F020FC002801D00020F8E79E
:10E190000130F6E7F02A002010B5041E17D0C2683F
:10E1A00010788018137951795B1A13498C466344AF
:10E1B0009B028021C90059185118104A00F070FCC8
:10E1C000A06000280FD00223237000236360022286
:10E1D0000B4B1A700B49012000F044FE0A4B1868E3
:10E1E000FEF724FE10BD7846084B1B68002B01D0BB
:10E1F0009847E8E700DEE6E7FFFF3F00FF7F00000B
:10E20000102C0020F5DB01000C2C0020982E0020A3
:10E2100010B500F03FFC10BD10B50023092B09D844
:10E220009A0009495258824201D00133F6E7074A61
:10E23000536005E07846064B1B68002B01D09847D9
:10E2400010BD00DEFCE7C0469C7702001C2C0020BD
:10E25000982E002010B5054884681C22002108F083
:10E2600055FE2000FFF798FF10BDC0461C2C002073
:10E2700010B52C4BDB68002B14D02A4B1B7E002BD7
:10E2800005D07846284B1B68002B14D09847254BA7
:10E290005B68092B20D97846234B1B68002B0CD0D8
:10E2A000984719E07846204B1B68002B01D098470F
:10E2B000E3E700DEE1E700DEE9E700DE0CE000DE98
:10E2C00002E00022174B5A60012C01D0032C28D108
:10E2D000144B1B7E002B24D1124B5B689B00134A0E
:10E2E0009B5898470400022810D00328E9D0012841
:10E2F000EAD10C4A536801335360092BE4D97846BC
:10E30000094B1B68002BDAD09847DDE7054B1B7ED5
:10E31000002B03D00222034B1A70D5E7FFF79AFFB8
:10E32000D2E710BD1C2C0020982E00209C77020004
:10E3300010B50F4B1B681B685A1E033216D89A057E
:10E3400001D0002013E00B4AD360002313765376EC
:10E350000121117093600848FFF75EFF0749012013
:10E3600000F080FDFFF784FF012000E0002010BDD9
:10E370003C2C00201C2C0020BDE3010081E30100A7
:10E3800010B50B78032B06D00B4B1B78012B06D056
:10E39000022B0BD010BD0022074B1A76F4E7064B78
:10E3A0001B7E002BF6D1FFF763FFF3E70B78032BFF
:10E3B000F0D1FFF74FFFEDE71C2C002000B585B032
:10E3C000094BDB68022269460A7001938023DB0057
:10E3D0000293064A012000F05DFD002802D00020D3
:10E3E00005B000BD0130FBE71C2C0020382C0020BC
:10E3F00000B585B0094B1B68022269460A7001937B
:10E400008023DB000293064A012000F043FD002830
:10E4100002D0002005B000BD0130FBE73C2C0020FD
:10E42000382C002000B585B0144BDA681379517987
:10E430005B1A13498C4663449B0208D08023DB009F
:10E440009C4662440D4BDA60032005B000BD0D4BC5
:10E450001B68012269460A7001930B4B0393042346
:10E4600002930A4A012000F015FD002804D1012280
:10E47000024B1A760230E8E70020E6E71C2C002069
:10E48000FFFF3F003C2C0020402C0020382C0020B7
:10E4900000B585B00D4BDA680D4B1B6804330121C4
:10E4A0006846017001920393FF239B000293094A7F
:10E4B0006946012000F0EEFC002805D10122034B43
:10E4C0001A76013005B000BD0020FBE71C2C0020AF
:10E4D0003C2C0020382C002000B585B00A4B1B686E
:10E4E000012269460A700193084B0C3303930423FD
:10E4F0000293074A012000F0CDFC002802D0002042
:10E5000005B000BD0130FBE73C2C00201C2C002096
:10E51000382C002010B584B0124BDA681478124BF6
:10E520001B68043301216846017001930392029431
:10E530000E4A6946012000F0ADFC002810D10A4BBC
:10E540001B68A408A4001C190434064B5C61D9683C
:10E550000A7852181A6100225A76013004B010BDB0
:10E560000020FBE71C2C00203C2C0020382C002035
:10E5700000B585B0194BD968087840188023DB00B6
:10E580009C466144164A00F08BFA00281FD0134BBA
:10E59000DA6813789B1898421BD0104B5B7E002BD7
:10E5A00013D0104A012369460B7001900392033384
:10E5B00002930D4A012000F06DFC00280BD10122CE
:10E5C000064B1A76013005B000BD084AEAE7012083
:10E5D000F9E70120F7E70020F5E7C0461C2C0020F2
:10E5E000FFFF0000C8760200382C0020C47602002D
:10E5F00010B5114BD968087840188023DB009C4681
:10E600006144002200F04CFA002801D0012010BD26
:10E61000094BDA68137951795B1A08498C466344CF
:10E620009B0207D08023DB009C466244024BDA60E9
:10E630000330ECE70220EAE71C2C0020FFFF3F003C
:10E6400070B584B0504BDD6869792A79531E9942C0
:10E6500000D195E08023DB00EB188020C0002E5C09
:10E66000F6184A4B1B68181D1C792418531A484A7F
:10E67000944663449B028022D20094466344ED1882
:10E680007388013B9BB2434A934218D854E000265A
:10E6900052E000DE33889B00F3189A0A92029342FC
:10E6A00017D07188FE22D201914212D09D42EED93C
:10E6B0005A88013A92B21E0036498A423CD93388C0
:10E6C000002BE7D17846344B1B68002BE1D09847EC
:10E6D000E0E7B30A9B028022D200944663441A7892
:10E6E0009B18E3E700DE33889B00F3189A0A920236
:10E6F000934217D07188FE22D201914212D09D42DE
:10E7000019D95A88013A92B21E0022498A4213D975
:10E710003388002BE7D178461F4B1B68002BE1D0D4
:10E720009847E0E7B30A9B028022D20094466344F4
:10E730001A789B18E3E70026002E1ED0134B1968A9
:10E740008023DB009C4661447288200000F0A8F919
:10E75000041E17D001230C4A13766A4613700196E3
:10E760000E4B0393042302930D4A6946012000F0E7
:10E7700091FB0028CCD0002000E0012004B070BD47
:10E780000120FBE70120F9E71C2C00203C2C002095
:10E79000FFFF3F00FE7E0000982E0020C0760200A2
:10E7A000382C0020F0B587B0714B1B69002B05D0C9
:10E7B0006F4B5B69002B0AD000274BE078466D4B0E
:10E7C0001B68002B01D09847F2E700DEF0E778469F
:10E7D000684B1B68002B01D09847EDE700DEEBE7A4
:10E7E00000DE23889B00E3189A0A9202934217D016
:10E7F0006188FE22D201914212D09D4219D95A88D5
:10E80000013A92B21C005C498A4213D92388002B3A
:10E81000E7D17846574B1B68002BE1D09847E0E7DB
:10E82000A30A9B028022D200944663441C781B19E1
:10E83000E3E70024002C34D100230093019B002B3C
:10E8400066D10127002C00D189E062884B4B9A42A7
:10E8500000D184E0464B5B7E002B00D085E0002F8A
:10E8600000D080E0424B5A69960AB602B61A80225E
:10E87000D200944666441C69DD682B796A799B1A3C
:10E880003F4A944663449B028022D20094466344EC
:10E89000ED18002301936388013B9BB2364A9342F3
:10E8A000B4D800940DE000DE23889B00E3189A0A98
:10E8B0009202934223D06188FE22D20191421ED05F
:10E8C0001C00A542BAD922889200019B9C46624452
:10E8D0009642B3D9009B63409B0AAFD16388013B4A
:10E8E0009BB225498B42A9D801922388002BDBD10A
:10E8F0007846204B1B68002BD5D09847D4E7A30A55
:10E900009B028022D200944663441C781B19D7E7EF
:10E91000174A526902A9012008704A60009ACA6029
:10E920008B60184A00F0B6FA002816D1104A03236B
:10E93000019999430B0051698C4663445361002C43
:10E9400002D00B4B1C617DE778460A4B1B68002BFD
:10E9500001D09847F5E700DEF3E7002006E001224A
:10E96000034B5A7676E7012000E0012007B0F0BDA6
:10E970001C2C0020982E0020FE7E0000FF7F00004F
:10E98000FFFF3F00382C002010B50C4B5B690133B2
:10E9900003D00A4B5B69002B0CD1802252055169D0
:10E9A00013694B43064A94466344064A1360FFF7D3
:10E9B000BFFC10BD014B5B69F4E7C04600100010BE
:10E9C00000FCFFFF3C2C0020024B1878431E9841AE
:10E9D000C0B270471C2C002010B584B00400234B3B
:10E9E0001B78002B05D07846214B1B68002B38D0B4
:10E9F00098472378032B05D078461D4B1B68002BC6
:10EA000031D09847194B9C60E268DA6000245C6062
:10EA10001C7601221A705C761649012000F022FA59
:10EA2000FFF726FC02A80A23037044708470446038
:10EA300000F086F8002812D00F4B1B689B060ED5FD
:10EA40000E4B1B68012B0AD90D4B0E4AD35801906F
:10EA50000D4A00920D4A0E49022000F0BDF804B0A4
:10EA600010BD00DEC5E700DECCE7C0461C2C002050
:10EA7000982E002081E30100DC220020D822002013
:10EA80000405000000B000407C7602007B0200001C
:10EA900083770200014B18687047C0463C2C002069
:10EAA00070B506000C001500884218D97846234B33
:10EAB0001B68002B01D0984711E000DE0FE000DE5C
:10EAC00033889B00F3189A0A9202934225D07188EA
:10EAD000FE22D201914220D01E009C422CD9728885
:10EAE000AA4223D0B30A9B028021C9008C4663440A
:10EAF0009C4208D8FE23DB019A4219D033889B0040
:10EB0000F3189C4216D93388002BD9D178460B4B89
:10EB10001B68002BD3D09847D2E7B30A9B02802210
:10EB2000D200944663441A789B18D5E7300070BD34
:10EB30000020FCE70020FAE70020F8E7982E0020EC
:10EB400010B5084B1B78002B01D1062010BD064BD9
:10EB50001B68002B01D09847F8E701000348FEF737
:10EB6000DBF9F3E7582C00205C2C0020442C00201B
:10EB700030B583B0180006AC20CC00920B00020028
:10EB80000549002006F00BFD22002900002006F0B8
:10EB90002AFC03B030BDC046C4770200034B1860A6
:10EBA000034B1960034B1A607047C046DC220020FB
:10EBB000D8220020E422002030B583B0054C246820
:10EBC000002C04D0079D0195069D0095A04703B039
:10EBD00030BDC046E422002030B585B008AC20CC62
:10EBE000039401940095FFF7E7FF05B030BD0000E6
:10EBF000F0B583B0002523E023499C2373435A5A80
:10EC000001325A520221019C200000F0C7FA01375C
:10EC10000221200000F084FA00280DD09C227243CB
:10EC2000194B9B189C68002CE6D01300164A9A5A80
:10EC300001002800A047DFE7002F11D10135EDB218
:10EC4000022D1FD82E009C246C4308340E4B1C1937
:10EC5000231D01930221180000F062FA0027DBE770
:10EC60000021019800F038FB0828E7D19C2373436A
:10EC7000054EF618B368002BE0D0002203492800A7
:10EC80009847DBE703B0F0BD682C0020F077020066
:10EC900010B5082383730833437303001C334361A7
:10ECA000032303730300183303610C3000F0C8FA28
:10ECB00010BD0000F8B505000C00170016680378B9
:10ECC000012B05D07846194B1B68002B12D09847B2
:10ECD0002000174B9C4200D91800302107F0DCFFC0
:10ECE0008000AB689C1BA04200D80400002C03D11C
:10ECF0000020F8BD00DEEBE7686803239E43E96867
:10ED000089198019220000F05FFE002805D078469E
:10ED1000064B1B68002B06D098473B689C46644412
:10ED20003C600120E5E700DEF7E7C046982E0020B2
:10ED300050C30000F8B505000C00170016680378F2
:10ED4000022B05D07846184B1B68002B12D0984731
:10ED50002000164B9C4200D91800154907F09CFF73
:10ED60008002AB689C1BA04200D80400002C03D199
:10ED70000020F8BD00DEEBE7686803239E4380199E
:10ED8000210000F0E5FD002805D07846064B1B6801
:10ED9000002B06D098473B689C4664443C600120A9
:10EDA000E7E700DEF7E7C046982E002050C30000DA
:10EDB00022560000F8B505000E0007000C370121AF
:10EDC000380000F0ADF9041E2ED00378012B0AD0D4
:10EDD000022B13D07846154B1B68002B15D0984793
:10EDE0000023002605E02A1D3100FFF763FF06001F
:10EDF000A3686A6893420CD03000F8BD2A1D310028
:10EE0000FFF798FF0600A368F3E700DE0023002663
:10EE1000EFE70121380000F0C1F900236B60044BDB
:10EE20001868FEF703F8E7E70026E5E7982E0020CC
:10EE3000602C002010B50848FDF7CCFF074B186088
:10EE4000002406E09C2363430548C018FFF720FF19
:10EE50000134022CF6D910BDF1EB0100602C00202A
:10EE6000682C002070B504000D00022805D97846F2
:10EE7000064B1B68002B06D098479C20444304484F
:10EE80000019856070BD00DEF7E7C046982E0020AF
:10EE9000682C0020F8B5CE46474680B506000D0028
:10EEA0009146022805D97846534B1B68002B42D067
:10EEB0009847002D41D02B78012B47D0022B00D151
:10EEC00072E078464C4B1B68002B00D18FE09847CE
:10EED000EFF3108872B69C2474430834474B1C1916
:10EEE00004340021200000F01BF9071E00D180E04F
:10EEF0000021200000F052F910222900380007F00C
:10EF0000F9FF4B46002B06D09C2272433B4B9B18CB
:10EF10005B884A4613809C237343384EF6187388E7
:10EF20000133738000204346002B00D162B60CBC35
:10EF300090469946F8BD00DEBBE778462E4B1B682D
:10EF4000002B01D09847B6E700DEB4E76B689B075B
:10EF500005D07846284B1B68002B1DD09847EB68DE
:10EF60009B0705D07846244B1B68002B16D098478A
:10EF7000AB689B0705D078461F4B1B68002B0FD052
:10EF80009847AB68002B00D0A2E778461A4B1B6865
:10EF9000002B07D098479BE700DEE0E700DEE7E7BD
:10EFA00000DEEEE700DE93E76B689B0505D0784650
:10EFB000114B1B68002B14D09847AB689B0505D0FC
:10EFC00078460D4B1B68002B0DD09847AB68002B83
:10EFD00000D07DE77846084B1B68002B05D098478A
:10EFE00076E700DEE9E700DEF0E700DE70E700DE4E
:10EFF0006EE7042097E7C046982E0020682C00207A
:10F0000070B5002502E0082815D10135022D10D871
:10F01000EFF3108472B69C2068430300083307485E
:10F02000C0180430002100F057F9002CEBD162B673
:10F03000E9E7002070BD0120FCE7C046682C0020F5
:10F04000F0B5D6464F4680B583B01B4B1D78002DDA
:10F0500002D11A4B984204D803B00CBC91469A4690
:10F06000F0BDF538FF38040001F0ECFE81460027C2
:10F070001EE01F1A534601930136022E15D83B009D
:10F0800030339C4211D3E11B9C2373430C48C018BE
:10F09000FFF790FE82460028EED001F0D3FE4B46EB
:10F0A000C71AE6D453460193E6E7019B002BD3D061
:10F0B00001950026E1E7C046642C002023020000F1
:10F0C000682C002070B50400EFF3108572B600289C
:10F0D00009D1104B1B68002B05D178460E4B1B68DD
:10F0E000002B10D09847002C0FD00A4A1368013328
:10F0F0001360084B1B685A1E9341084A1370002D79
:10F1000000D162B670BD00DEEDE7024A1368013B34
:10F110001360EEE73C2E0020982E0020642C002087
:10F1200070B504000D00002821D02378AB4205D82B
:10F130007846194B1B68002B22D09847002D21D10F
:10F1400062682378D318013B1B78A1785B18DBB287
:10F1500012789B1ADBB2002B1CD06368585DA37831
:10F16000013B0340A06862785343C01870BD7846E5
:10F17000094B1B68002B01D09847D6E700DED4E787
:10F1800000DEDBE762685319013B1B78525D9B1A76
:10F19000DBB2E0E70020E9E7982E002070B504001C
:10F1A0000D0000281DD02378AB4205D87846164BB9
:10F1B0001B68002B1ED09847002D1DD16268237854
:10F1C000D318013B1B78A1785B18DBB212789B1A2D
:10F1D000DBB2002B04D063685D192B7801332B70F0
:10F1E00070BD7846084B1B68002B01D09847DAE7C2
:10F1F00000DED8E700DEDFE762685319013B1B78C9
:10F20000525D9B1ADBB2E4E7982E002010B5041E75
:10F2100001D000230DE07846084B1B68002B01D07D
:10F220009847F6E700DEF4E76268D2180021117013
:10F23000013322789342F7D310BDC046982E0020A8
:10F2400010B504004378002B05D17846214B1B688C
:10F25000002B11D098472378012B0FD9A368002BDE
:10F2600015D06368002B1BD0A378002B21D05A1E29
:10F270001A422BD000231DE000DEECE77846154B48
:10F280001B68002B01D09847E8E700DEE6E77846E8
:10F29000104B1B68002B01D09847E2E700DEE0E747
:10F2A00078460C4B1B68002B01D09847DCE700DE4A
:10F2B000DAE70023002B05D17846064B1B68002BAC
:10F2C00006D098472000FFF7A1FF10BD0123F1E70A
:10F2D00000DEF7E7982E002070B504000D0000282E
:10F2E00012D02378AB4205D87846134B1B68002B0D
:10F2F00013D09847002D12D062685319013B18783B
:10F30000535DC01AC0B270BD78460B4B1B68002B12
:10F3100001D09847E5E700DEE3E700DEEAE7626850
:10F320002378D318013B1878A378C018C0B213789B
:10F33000C01AC0B2E7E7C046982E002010B5041EE0
:10F3400001D0A04710BD7846034B1B68002B01D0AD
:10F350009847F6E700DEF4E7982E002010B5082263
:10F3600002210848FEF74EFD002807D0064B9A6898
:10F3700042601B7B0372FEF793FD10BD0348FEF74E
:10F38000D3FEFAE7442E0020802E0020F822002031
:10F3900010B5104B1B78002B09D10F4B5C688023F4
:10F3A0009B019C46644480235B049C4200D910BDB1
:10F3B000042201210948FEF725FD002806D04460FB
:10F3C000FEF76EFD0122034B1A70F0E70448FEF7CA
:10F3D000ABFEECE7942E0020802E0020442E00206F
:10F3E000E822002010B58EB00C00002A15D14B8801
:10F3F000012B2CD1184B1B78002B05D17846174BCD
:10F400001B68002B07D098476268154B5A60002292
:10F41000114B1A701BE000DEF6E7032A05D0784690
:10F420000E4B1B68002B14D098473022002102A8F5
:10F4300007F06CFD192302AA13700494094BDA68D3
:10F4400006921B690193079302A8FDF717FD0EB002
:10F4500010BD00DEE9E7C046942E0020982E002063
:10F46000802E0020442E002000B58DB002906B4607
:10F47000197102236A4613706846FDF7FFFC0DB050
:10F4800000BD000070B500E020BFFEF773FE00284D
:10F49000FAD0FDF757FC002200211D48FEF7F4FBCF
:10F4A0000025002405E0051D020000211848FEF794
:10F4B000EBFB002806D04388012BF4D0022BF3D1BC
:10F4C000041DF1E7002C16D0002D14D0114B22683A
:10F4D0009A6022791A73AC4202D92379002B12D098
:10F4E0002A680C4B1A600B4B1A685A60FFF750FFE2
:10F4F000FDF74CFC70BD074B00221A609A601A732E
:10F50000FFF72CFFEFE70022024B1A60EBE7C04643
:10F51000442E0020802E002010B5FEF779FE024B0D
:10F520009C46604410BDC04600FCFFFF00B587B09C
:10F5300018220021684607F0E9FCFFF7EDFF009074
:10F5400001230193064B039369460648FEF7A4FD89
:10F55000002801D107B000BD0348FEF7E5FDF9E73B
:10F56000E5F30100442E00200823002010B51422EA
:10F5700000210B4807F0CAFC01F064FC094B5860FD
:10F58000094A9A60094ADA6000221A615A610849F8
:10F590000A70180001F0EAFEFFF7C8FF10BDC04670
:10F5A000802E0020682E0020D9F6010000879303EA
:10F5B000952E002010B5FDF7C5FB184B1B7B002BCB
:10F5C00004D00824FDF7E2FB200010BD134B9B7B09
:10F5D000002B01D00824F5E7104B1A8A104B9A42F1
:10F5E00005D8104B1B78002B06D0012300E0012327
:10F5F000002B03D10824E5E70023F9E7074C01239A
:10F60000237300232382A3680133A360FFF7A6FEC0
:10F61000217BA068FFF728FF0024D3E7802E00207D
:10F6200082160000952E002010B5FDF78BFB264BAF
:10F630005B7B002B15D0244B9B7B002B23D1224BD3
:10F640001A8A224B9A4205D8214B1B78002B06D0F0
:10F65000012300E00123002B17D0012402E0002346
:10F66000F9E70024002C29D0174B00225A731B7B8A
:10F67000002B0CD0012B17D07846164B1B68002BA3
:10F6800020D098471AE00024ECE70024EAE7FFF7CF
:10F6900091FF002812D078460E4B1B68002B01D03A
:10F6A00098470BE000DE09E0074B00221A605A6021
:10F6B0001A731A82FFF752FEFFF76AFEFDF766FB28
:10F6C000200010BD00DEF9E7802E00208216000029
:10F6D000952E0020982E002010B5284B1B7B002B68
:10F6E00009D0012B2AD07846254B1B68002B3FD030
:10F6F000984701240EE0214B1A8A224B9A4205D8E2
:10F70000214B1B78002B13D0012300E00123002B99
:10F7100010D10124002C03D0184A138A013313821C
:10F72000164B5B8A002B02D0013B144A538210BD5A
:10F730000023ECE7FFF778FF0024EBE70F4B1B8A71
:10F74000104A934205D8104A1278002A0ED001249C
:10F7500000E00124002C0ED00C4A934203D9012270
:10F76000064B5A730024FFF75FFFD3E70024F1E74D
:10F7700000DE0124CEE70124CCE7C046802E002025
:10F78000982E002082160000952E0020B021000047
:10F7900010B50400184B1A685B689A4226D2164BC3
:10F7A0001B7B012B17D0154B934216D90020002844
:10F7B00005D1114B1A685B68403B9A4213D2EFF3B4
:10F7C000108072B60C4A1368591C1160236000281F
:10F7D00010D162B60DE00A4BE6E70122064B5A73E0
:10F7E000FFF722FFE3E7FFF7D3FDE8E7FFF7D0FDE0
:10F7F0000F2010BD0020FCE7802E0020FFFF7F00BF
:10F8000017FCFF0010B5002815D1104B1B68002B0A
:10F8100005D178460E4B1B68002B14D098470B4A35
:10F820001368013B1360002B0CD10022094B9A7323
:10F83000FFF7FAFE06E00122064B9A73034A1368AB
:10F840000133136010BD00DEE9E7C046402E002002
:10F85000982E0020802E002070B505000C00FDF7CA
:10F8600071FA274B1B7B002B39D1254B5B8A002B70
:10F8700028D1002C03D1224B9B68AB4206D3002C2D
:10F8800020D01F4B9B6801339D421BD91C4B9B68AA
:10F890002A339D4225D81A4B9B7B002B21D1184C33
:10F8A000A560236063602382164B63820023637329
:10F8B0002373FFF753FDFFF76BFD217BA068FFF774
:10F8C000D3FD0EE0002C0CD00D4B9B6801339D4204
:10F8D00007D101220A4B5A73FFF7A6FE01E0012B64
:10F8E00002D0FDF753FA70BD002CFAD1044B9B688F
:10F8F0009D42F6D10122024B5A73FFF795FEF0E7C5
:10F90000802E0020062D0000014B98687047C046ED
:10F91000802E0020054B1B7B012B02D0034B9868E7
:10F920007047024B98680138FAE7C046802E0020E5
:10F93000034B9B685840C20700D5013B1800704735
:10F94000802E0020014B187B7047C046802E00207F
:10F9500010B5830501D0102010BD002901D1092068
:10F96000FAE7164BCC18A40A0221154B154AD150C0
:10F970008023DB00134AD358002BF9D000210EE07E
:10F98000A123DB000F4AD0508023DB000D4AD3585F
:10F99000002BF9D08023DB009C4660440131A1425A
:10F9A000EED30021064B074AD1508023DB00054AE5
:10F9B000D358002BF9D00020CEE7C046FF0300004B
:10F9C0000405000000E0014030B5830702D010229A
:10F9D000100030BD8B0701D01022F9E7002A01D1B9
:10F9E0000922F5E7930701D00922F1E792080125E2
:10F9F000124B134CE5508023DB00114CE358002BD5
:10FA0000F9D002E0043004312200541E002A0AD04A
:10FA10000B685A1CF6D003608023DB00084AD358D9
:10FA2000002BF9D0EEE70020044B0549C850802395
:10FA3000DB000349CB58002BF9D0C9E704050000CF
:10FA400000E0014012DF704730B583B00500284B5D
:10FA50001B78002B03D00824200003B030BD002801
:10FA600043D0244B42681A6000F04AF96B46D81D17
:10FA7000FFF7E8FF041EEFD16B4607331B78012B1D
:10FA800001D00224E8E7280000F0E0FC05F05EFF6A
:10FA900001F05AFCFDF7FEF82800FDF709F8041EF6
:10FAA000DAD1280001F0FCFD041ED5D1FFF7C2F920
:10FAB000FEF7B4F8280003F08FFA280006F008FBE0
:10FAC000FA20800005F078FD04F0FEFA002803D04B
:10FAD000062801D00400BFE701F0FEF80022064B23
:10FAE0001A600132024B1A70B6E70E24B4E7C04622
:10FAF0009D2E0020982E0020A02E002010B5104B27
:10FB00001B78002B01D1082010BD0E4B1B78002B59
:10FB100001D00820F8E701F05BFF002805D0784607
:10FB2000094B1B68002B08D09847FCF7F5FF00280D
:10FB3000EAD10122034B1A70E6E700DEF5E7C04682
:10FB40009D2E00209C2E0020982E0020F0B58DB018
:10FB50008DE0162B11D1A278E3781B021343574A8C
:10FB600093420AD1201D2178033904F0FFFB04E001
:10FB70002A780F231340022B31D023780133E41865
:10FB80000B9D6B780233EB1801339C424BD26378A8
:10FB9000292B3FD0DDD92A2BEAD02B2BEDD12A7887
:10FBA0000F231340022BE8D108A9200005F082FDA5
:10FBB0000028E2D0424B1B685B06DED5414B1B6838
:10FBC000012BDAD9404B414AD3580190404A009268
:10FBD0003822FF323F490220FEF7FEFFCDE708A999
:10FBE000200006F01DFB0028C7D0354B1B685B06C4
:10FBF000C3D5344B1B68012BBFD9334B334AD35881
:10FC00000190354A00929222520032490220FEF7BA
:10FC1000E3FFB2E72A780F231340022BADD1200077
:10FC200005F0B4F8A9E72D4B1F68002F1CD008AED3
:10FC3000737903AC2370F3883189090419430622D0
:10FC40000D20684407F056F92B781B071B0F237211
:10FC50006B78063B63720935E5600423F356E37164
:10FC6000089B23612000B8470B9800F0C9FC08AA44
:10FC700000210BA8FCF780FF002802D10B9C09345F
:10FC80007EE703F09FFC041E07D00D4B1B685B064C
:10FC900003D50C4B1B68002B02D120000DB0F0BD2A
:10FCA000094B0A4AD35801900D4A00926022FF3254
:10FCB00008490120FEF790FFEFE7C046E4FE000090
:10FCC000DC220020D82200200405000000B0004003
:10FCD000BC7802005378020090780200A02E002029
:10FCE000E87802000020704710B501F0ADFC00205C
:10FCF00010BD0000014B18607047C046A02E0020C8
:10FD0000044A0549130005C905C3044A03CA03C3CD
:10FD10007047C046A42E002060000010A400001010
:10FD200000487047A42E0020002803D0800B024B0F
:10FD3000185C70470020FCE70879020010B5040049
:10FD400000291AD000280BD063793F229343DAB2FE
:10FD5000802A14D0C02A0ED0002B0AD004200DE037
:10FD60007846084B1B68002B01D09847ECE700DE73
:10FD7000EAE7022002E0012000E0080010BD0320B5
:10FD8000FCE7C046982E002010B50388D21892B226
:10FD900002808A4209D00388994205D87846054BEB
:10FDA0001B68002B04D0984710BD00230380F2E7A6
:10FDB00000DEF9E7982E002070B504000D0083885E
:10FDC0008268944663448B4205D078460F4B1B688B
:10FDD000002B16D098472A88043292B22188201D21
:10FDE000FFF7D2FF2388A2889B1A9BB2042B05D869
:10FDF0007846064B1B68002B05D098470023AB7054
:10FE000070BD00DEE7E700DEF8E7C046982E002070
:10FE10000B88C918043182680388D318994201D02D
:10FE2000080070471100FBE770B504000D00FFF7F4
:10FE3000EFFFEFF3108172B6A2686388D31898427F
:10FE400005D0002900D162B60423AB7070BDAA1A98
:10FE50006280002900D162B60023AB70F6E78368A8
:10FE60005918887870470088043880B270470000BD
:10FE700010B50B88934211D99B1A9BB24488002C71
:10FE800009D10488E31A43800A80428883689B185A
:10FE900000229A7010BDE31A4380F5E79342F9D02F
:10FEA0007846044B1B68002B01D09847F2E700DE30
:10FEB000F0E7C046982E002070B50400458883689E
:10FEC0009C46654429800123AB7004318AB20188C5
:10FED0000230FFF759FF6288A3889A4203D0A368D3
:10FEE0009B1800229A70280070BD000070B51600A3
:10FEF000091A8DB214880434A4B2A54205D27846FA
:10FF0000064B1B68002B07D098472C1BA4B2042C6F
:10FF100001D8043D358070BD00DEF6E7982E002044
:10FF200010B504008188FFF79AFF002801D0042053
:10FF300010BD0023A3806380FAE710B503884288D0
:10FF40009C1A8C4210DA8488A14201D9042010BD89
:10FF5000816889189B1A9BB2043B0B8004238B7029
:10FF6000002343800020F2E70020F0E783884288E6
:10FF70009B1A8B4201DA042070470020FCE7F0B5A1
:10FF8000C64600B504000D0003889846438886885D
:10FF9000B3420CD010D80988043189B2FFF7E6FFCC
:10FFA0000700002F10D0380004BC9046F0BDFFF7CA
:10FFB000B7FF07004646F4E70988043189B2FFF726
:10FFC000BCFF07004646ECE760882A003100FFF7D7
:10FFD0008DFFE8E770B506000C00150000295ED023
:10FFE000002E00D164E0220080239B059C420AD9A8
:10FFF00080214905886B4B6B4343802189058C46E2
:020000022000DC
:1000000063449C4214D380239B059A420AD98021E1
:100010004905886B4B6B4343802189058C466344BB
:100020009A4205D378462A4B1B68002B49D0984743
:100030006B1EE3188022920593420AD9802149055C
:10004000886B4A6B4243802189058C466244934207
:1000500014D38022920593420AD980214905886BE6
:100060004A6B4243802189058C466244934205D302
:100070007846174B1B68002B25D09847042D05D8D0
:100080007846134B1B68002B1FD098473580002300
:100090007380B380B460043D2580A37070BD784642
:1000A0000B4B1B68002B01D0984799E700DE97E7C0
:1000B0007846074B1B68002B01D0984793E700DE7A
:1000C00091E700DEB4E700DED8E700DEDEE7C046F9
:1000D000982E0020F0B583B005000E006B46DA8044
:1000E000002809D0002E10D06B46DC88002C15D1DA
:1000F0000924200003B0F0BD7846194B1B68002B83
:1001000001D09847EEE700DEECE77846144B1B6819
:10011000002B01D09847E7E700DEE5E72800FFF76E
:10012000A2FE844201D90924E3E70334A4B20323E5
:100130009C436B46991D0C80EFF3108772B6280024
:10014000FFF71DFF041E03D0002FD2D162B6D0E707
:100150006B46D9882800FFF7AFFE3060F4E7C04651
:10016000982E0020F0B583B005000C006B46DA80B5
:1001700000283FD0002C46D0A378012B05D078462C
:10018000314B1B68002B47D0984722886B460633BB
:100190001B889A4205D278462B4B1B68002B3DD01A
:1001A00098476B4606331B88002B05D17846264BB3
:1001B0001B68002B34D098476B469A1DDB880333AD
:1001C0009BB203218B431380228893420ED02100DF
:1001D0002800FFF71DFEEFF3108672B6AA686B8841
:1001E000D31898421ED0002E00D162B60223A3700D
:1001F00003B0F0BD7846144B1B68002B01D0984724
:10020000B8E700DEB6E778460F4B1B68002B01D03D
:100210009847B1E700DEAFE700DEB6E700DEC0E7F3
:1002200000DEC9E7A01A80B2A988814200D82988D7
:100230006B469F1D3A00FFF759FE3A8821002800BF
:10024000FFF716FECFE7C046982E002070B50400D9
:100250000D00002806D0002D0DD0A188A3689C4673
:10026000614418E07846184B1B68002B01D0984772
:10027000F1E700DEEFE77846134B1B68002B01D057
:100280009847EAE700DEE8E72000FFF795FDA18840
:10029000A3689C4661448B78042BF5D0022B03D0D5
:1002A000032B06D0052003E003238B702960002078
:1002B00070BD7846044B1B68002B02D09847002085
:1002C000F6E700DE0020F3E7982E002010B5041EAC
:1002D00004D0A188A3689C4661440FE078460C4B8B
:1002E0001B68002B01D09847F3E700DEF1E7200000
:1002F000FFF762FDA188A3689C4661448B78042BBC
:10030000F5D0022B01D0002010BD0120FCE7C04633
:10031000982E002070B505000C0000280BD0002C92
:1003200012D0A378012B18D0032B1BD12100280059
:10033000FFF742FD70BD78460F4B1B68002B01D0C4
:100340009847ECE700DEEAE778460B4B1B68002B8A
:1003500001D09847E5E700DEE3E721002800FFF73A
:1003600063FDE7E77846044B1B68002B01D09847F4
:10037000E0E700DEDEE7C046982E0020064B1B6853
:10038000834202D1002305E01300002B02D05A68FB
:100390009042F9D118007047B43E002070B50400B7
:1003A0000B4B1B68834206D0FFF7E8FF051E06D003
:1003B00063686B6070BD5A68054B1A60FAE778464F
:1003C000044B1B68002B01D09847F1E700DEEFE7F4
:1003D000B43E0020982E002010B50388033189B266
:1003E000032291438B4224D002D20722100010BD79
:1003F0005A1A082A01D80722F8E7EFF3108272B6DA
:1004000001800C00083404195B1A9BB2083B23805E
:10041000002363804388002B06D1436863604460F7
:10042000002A08D162B6E1E7044B196861601C60DC
:10043000F6E70022DAE70022D8E7C046B43E002003
:1004400001800023438042607047000070B5144C67
:1004500080256D012A000021200006F057FD114B78
:100460001C600AE0002228212000FFF7E9FF238812
:100470000833E3186360303D1C00502DF2D8083D6E
:10048000002D05D17846084B1B68002B06D09847F5
:10049000A9B200222000FFF7D3FF70BD00DEF7E70E
:1004A000B42E0020B43E0020982E0020F0B5CE4699
:1004B00000B582B0019003318FB203239F437B1EAE
:1004C0009BB27C22FF32934204D9092002B004BCC3
:1004D0009146F0BDEFF3108972B6464B1D68002DB2
:1004E00001D000262DE04B46002B00D07DE062B607
:1004F0000420EBE72000FFF751FF3E4B1B689D42B5
:1005000016D0B44206D023882A889B1808332B8043
:10051000012310E02800FFF731FF061EF3D17846D3
:10052000354B1B68002B01D09847ECE700DEEAE76B
:100530000026E8E70023002B01D12E006D68002D76
:1005400011D02B889F420ED91C0008342C192B4B3C
:1005500080225201944663449C42EBD26388002B74
:10056000C8D00023E7E7002D1ED02888282106F0F8
:1005700093FB84B2781E282106F070FB0130844280
:1005800018D801236B80002E22D06B6873604B4615
:10059000002B00D162B6174B1B689D421CD008355A
:1005A000019B1D60002091E74B46002B1FD162B6D6
:1005B00004208BE72821414389B22800FFF70CFF74
:1005C0000028DED04B46002B00D07FE762B67DE7E7
:1005D000084B6A681A60DAE77846074B1B68002BFD
:1005E00001D09847DBE700DED9E704206EE704205E
:1005F0006CE7C046B43E0020982E0020B42E0020A8
:10060000F8B504001C4B984207D280225201944650
:100610006344984229D2012300E00123002B05D135
:100620007846164B1B68002B21D098472600083EC1
:10063000EFF3108772B67388012B05D078460F4B05
:100640001B68002B15D098472500083D00236B80C0
:100650002A880021200006F059FC094B1A686A60BC
:100660001E60002F00D162B6F8BD0023D6E700DE81
:10067000DCE700DEE8E7C046B42E0020982E00201C
:10068000B43E002070B50500124C132280239B005D
:10069000E250114800F048FA287A00F025FA0F4B92
:1006A0006A68E2500822C1239B00E2500022F93B15
:1006B000FF3BE2502B78002B06D00122054B5A60FD
:1006C0000022074B1A7070BD01332360044A137077
:1006D000F9E7C04600100040BC3E002004050000C1
:1006E0001823002010B504000F48082383600F4B27
:1006F00003600C234360FCF7DFFB0D4B62681A605C
:1007000000221A7125325A7122789A71094BA26817
:100710001A60094BE2681A602269084B1A600422C9
:10072000074B1A7010BDC046C43E0020D83E0020C2
:10073000BC3E0020383F00203C3F0020B83E002057
:1007400018230020F0B5CE4600B582B006000F0099
:10075000002800D16CE0002900D16CE00B68002B70
:1007600006D107230193019802B004BC9146F0BD65
:10077000324B1B78042B02D108230193F3E7EFF3EC
:10078000108472B60B6899462D48FCF727FC0823A5
:10079000181A2C4B1B6898420DD900220192C51AD9
:1007A000A94500D84D46EB18264A1360002C00D10D
:1007B00062B6002406E00022914604320192EEE780
:1007C00000DE0134A5421DD963001B199900711880
:1007D0000B7A272B23D84B68002B23D00B78022BC6
:1007E00023D86B1EE31A5842584188721448FCF70C
:1007F00093FB0028E5D07846134B1B68002BDFD015
:100800009847DEE72C00EFF3108372B60D4A1168AB
:10081000481B1060002B00D162B63C60A3E70723A1
:100820000193F0E707230193EDE707230193EAE73C
:100830000E23019397E70E23019394E718230020DA
:10084000C43E0020403F0020982E0020EFF310838C
:1008500072B6064A1278032A04D00220802252007F
:1008600003498850002B00D162B67047182300203E
:1008700000E100E0074B00218022920099500139ED
:100880000932FF32995001221A610232024B1A706A
:100890007047C046001000401823002030B585B0D6
:1008A00001A91A48FCF7D1FB002805D101AB1B7840
:1008B000022B07D0002400E00024002C04D12000EB
:1008C00005B030BD0124F8E700211048FCF756FBC5
:1008D000002805D078460E4B1B68002B14D0984793
:1008E000FFF7C8FFAA23DB000A4AD358002BF9D12F
:1008F00000210D33FF33D150074B1D680023012227
:1009000052420298A847DAE700DEE9E7C43E002039
:10091000982E002000100040383F002010B5EFF363
:10092000108472B6074B1B78002B03D1FFF7B6FF7C
:100930000028FBD10222034B1A70002C00D162B6B2
:1009400010BDC0461823002070B584B086235B001C
:10095000364AD358002B50D013008022D200995829
:100960004A1E9141CCB2324A9E588E2252009B5868
:10097000002B24D02D4B00219950A922D2009D5844
:10098000EDB2002186235B00284AD15001A92948F5
:10099000FCF7F4FA002814D101AB1A78013AD2B26C
:1009A000012A11D9244B1A6801AB02989B7A002BBB
:1009B00012D001AB5B7A002B1DD100210DE0642524
:1009C000DFE7FFF757FF14E06BB21C4A15683200EF
:1009D00021000298A84701E0002190470222184B0D
:1009E0001A70174B1B78022B11D0042B0FD0032B3E
:1009F0000DD004B070BD0121EFE70E48FCF7EEFA10
:100A00000128EED9FFF74AFF0028F6D1E9E701A94E
:100A10000848FCF71AFB002803D101A8FFF732FEB3
:100A2000E7E7084B1B689847E3E7C0460010004023
:100A30000C040000C43E00203C3F0020383F002052
:100A400018230020B83E002010B500F029F80D480A
:100A500000F06AF802230C4A13700C4AC0214900C6
:100A6000535013600A48FCF7F5FA002805D102211B
:100A700080235B00054AD15010BD064B1B68984788
:100A8000FAE7C046BC3E00201823002000E100E049
:100A9000C43E0020B83E002010B5FFF7EBFE10BDAD
:100AA0000A4B0B4A00219950013199500949A7225C
:100AB000D20099500421FF31074A99500749084A4A
:100AC00099509621074A99507047C046001000403F
