:020000021000EC
:10B0000000800020FDB00100C1B00100EDF10100A1
:10B010000000000000000000000000000000000030
:10B02000000000000000000000000000C5B00100AA
:10B030000000000000000000C7B00100C9B001001E
:10B04000CBB00100CDB00100CFB00100D1B0010004
:10B05000D3B00100000000000DF50100D7B00100E1
:10B06000D9B00100DBB00100DDB00100DFB00100AC
:10B07000E1B00100E3B00100E5B00100E7B001007C
:10B08000E9B00100EBB00100C9FF0100EFB0010021
:10B09000F1B00100F3B0010039F20100F7B0010096
:10B0A000F9B00100FBB0010000000000000000004A
:10B0B0000000000000000000000000000000000090
:10B0C000FEE7FEE7FEE7FEE7FEE7FEE7FEE7FEE758
:10B0D000FEE7FEE7FEE7FEE7FEE7FEE7FEE7FEE748
:10B0E000FEE7FEE7FEE7FEE7FEE7FEE7FEE7FEE738
:10B0F000FEE7FEE7FEE7FEE7FEE7FEE7032107487F
:10B1000002680A430260064802680A430260054872
:10B1100085460FF069FC07E07047000024050040F9
:10B120005405004000800020354936480A1A02D0F4
:10B13000072291438D46344934480A1A06D0072223
:10B14000914381F30988022282F3148830483149FF
:10B15000314A00F043F831483149324A00F03EF8B4
:10B1600031483249324A00F039F832483249334ADC
:10B1700000F034F832483349334A00F02FF83348AE
:10B180003349344A00F02AF833483449344A00F04D
:10B1900025F834483449002200F02BF8334834496C
:10B1A000002200F026F833483349091A082903DB46
:10B1B00000220260043001601F482049884205D007
:10B1C0000268043003B4904703BCF7E700208646CA
:10B1D000EC4600200021294A9047FEE7884207D02C
:10B1E000521A05D0037801300B700131013AF9D1C0
:10B1F0007047884202D002700130FAE770470000C1
:10B2000000800020007C00200080002000800020C2
:10B2100008FC0200D82200209423002080B2010004
:10B2200080B2010050DF020008FC0200D82200209A
:10B23000D822002050DF020050DF020050DF020061
:10B2400050DF020050DF020050DF020050DF02003A
:10B2500050DF020008FC0200C4FC0200942300201E
:10B2600094230020942300204C4F00204C4F0020BA
:10B270004C4F00204C4F00204C53002079B9010066
:10B2800010B5094BC01A0C2112F028FD0400022849
:10B2900005D97846054B1B68002B02D09847200043
:10B2A00010BD00DEFBE7C046982300200C300020D4
:10B2B00000B587B02D4B1B685B0403D52C4B1B6876
:10B2C000032B28D82B4B1868059004F035F8274B32
:10B2D0001B685B0403D5264B1B68032B26D80C2266
:10B2E000002102A812F022FE059B0293224B039339
:10B2F00002A807F0F3FD002823D11C4B1B685B0458
:10B3000003D51B4B1B68032B20D807F041FE0028F8
:10B3100027D107B000BD194B194AD358194A0092DA
:10B320006C221949042006F0A1FECBE7134B144A06
:10B33000D358164A009274221349042006F096FE50
:10B34000CDE7134A792103F0FFFED6E70B4B0C4AF9
:10B35000D358104A00927B220B49042006F086FE47
:10B36000D3E70B4A7C2103F0EFFED2E73023002025
:10B370002C23002050DF02009DF101000405000095
:10B3800000B0004088E002007FE00200A4E002007C
:10B3900018E00200C0E0020010B50C00FFF770FFDB
:10B3A000012C1DD0002C08D0022C1ED07846184B42
:10B3B0001B68002B20D0984703E01530012104F0D2
:10B3C0001DF8152004F00CF8002804D0162004F015
:10B3D00007F8002812D10021182004F00FF810BD42
:10B3E0001530002104F00AF8EBE706226421F02072
:10B3F000400404F017F8E4E700DEE2E7172003F06A
:10B40000EFFF0028E7D00121182003F0F7FFE6E75F
:10B410000C30002030B583B004003B4B1B685B044C
:10B4200003D53A4B1B68032B17D8394B1B78012BDC
:10B430001FD0354B1B685B040DD5344B1B68012BAB
:10B4400009D9344B344AD358344A0092E022344963
:10B45000022006F00BFE03B030BD2E4B2E4AD3580F
:10B460000190304A0092DD222D49042006F0FEFDB5
:10B47000DBE7022C03D9032C1BD000200EE0630075
:10B480001B199A00284DAD182000153003F0A8FFB5
:10B4900001214140C9B2280004F02AF9082819D036
:10B4A000112817D00028D6D0204AFF2103F04CFEE7
:10B4B000D1E763001B199A001B4DAD182000153011
:10B4C00003F08EFF01214140C9B20322280004F09D
:10B4D00031F9E3E70C4B1B685B0403D50B4B1B688E
:10B4E000032B06D804223221F020400403F09AFFF7
:10B4F000B1E7084B084AD3580D4A0092FA2208498E
:10B50000042006F0B3FDEDE7302300202C230020BB
:10B51000C82300200405000000B0004090DF0200B6
:10B520007FE002007CDF02009823002018E0020088
:10B53000A8DF020010B582B01A4B1B685B0403D56C
:10B54000194B1B68032B13D8184C20881530002189
:10B5500003F054FF2388012B19D904226421F02021
:10B56000400403F05FFF0122114B1A7002B010BDBE
:10B57000104B114AD3580D4A128801920F4A00927B
:10B580000A22FF320E49042006F070FDDCE7074C6A
:10B590000133238000F09CFC20881530012103F04A
:10B5A0002DFFE3E7302300202C230020DE230020A2
:10B5B000C82300200405000000B00040FCE00200A9
:10B5C0007FE0020010B584B003F0C6F801F08CFCF7
:10B5D000624804F01BFB002801D1002405E0604A0A
:10B5E000852103F0B1FDF8E70134032C10D8630086
:10B5F0001B199A005B4880185B4B4360A1B204F0B2
:10B6000057F80028F0D0564A8A2103F09DFDEBE759
:10B61000564B1B685B0403D5554B1B68032B1FD887
:10B62000544B5B68039302F0C7FF002803D001F07E
:10B6300075FB002812D103A803F0A6F84E494F4825
:10B6400003F0FAF84E4C22004E49002003F0AEFA07
:10B6500021884D4B4D4A002003F060FB002421E07F
:10B660004B4B4C4AD3584C4A00928D224B490420F4
:10B6700006F0FCFCD4E763001B199A00394BD05A42
:10B68000414B198801F042FD002822D163001B19AB
:10B690009A00344BD05A3C4B198801F073FD0028B6
:10B6A0001CD10134022C1ED802A901235B420B805D
:10B6B00063001B199A002B4BD05A01F005FD00289E
:10B6C000D9D102AB1A88364B9A42D4D0FFF732FF59
:10B6D000E7E7234AA12103F037FDD7E7204AA2215B
:10B6E00003F032FDDDE70A21694401235B420B8050
:10B6F0001C4B988C01F0E8FC002807D10A236B440E
:10B700001A88274B9A4201D004B010BD154B988C73
:10B710001D4B198801F0FAFC002814D1114B988CAC
:10B72000194B198801F02EFD002811D10D4B988C72
:10B73000114B198801F09CFC0028E5D0084AAD2186
:10B7400003F002FDE0E7064AAB2103F0FDFCE5E76C
:10B75000034AAC2103F0F8FCE8E7C046DDBE010077
:10B7600018E002009823002099B301003023002044
:10B770002C23002050DF0200D2230020FECA00004C
:10B78000D4230020D8DF020094230020C8DF020069
:10B790000405000000B0004058DF02007FE0020016
:10B7A000FFFF000000B583B01C4B1B685B0403D592
:10B7B0001B4B1B68032B15D81A4B1B885B001A4ABE
:10B7C000985A03F08BF800281BD1164B1B885B009E
:10B7D000164A985A03F07CFA002818D100F078FB3A
:10B7E00003B000BD124B134AD3580E4A128801927F
:10B7F000114A00928E2252001049042006F036FCB5
:10B80000DAE70F4A2021FF3103F09EFCDDE70C4A06
:10B810009021490003F098FCE0E7C0463023002067
:10B820002C230020DE230020D8230020CC2300205E
:10B830000405000000B00040D8E002007FE00200F4
:10B8400018E0020010B582B004003E4B1B88022BAA
:10B8500005D978463C4B1B68002B44D098473B4B9E
:10B860001B685B0403D53A4B1B68032B3DD8608AE9
:10B87000344B1B885B003749C91802F0DDFF0028F4
:10B8800041D1608A344B1988A2682E4B1C88640011
:10B89000324B1B1903F0D2F900283AD1294B1B88EF
:10B8A0005A00D31899002E4BC85A2A4BD15A01F08E
:10B8B000DFFB002833D1234B1B885B00274A985AB3
:10B8C00004F02CFA002830D11E4B1B885B00234A61
:10B8D000985A204A995A04F0CBF900282BD100F04D
:10B8E000F1FA02B010BD00DEB9E71E4B1E4AD35874
:10B8F000628A01921D4A00922A22FF321C490420CA
:10B9000006F0B4FBB3E71B4A9621490003F01CFC88
:10B91000B7E7184A2E21FF3103F016FCBEE7154A9F
:10B920009821490003F010FCC5E7124A3421FF3189
:10B9300003F00AFCC8E70F4A9A21490003F004FC0F
:10B94000CDE7C046DE2300200C300020302300204D
:10B950002C230020D8230020D4230020CC23002037
:10B96000982300200405000000B0004024E10200FC
:10B970007FE0020018E0020000B583B01C4A0521F8
:10B98000C020C00106F054FB1A4B1B685B040ED5A7
:10B99000194B1B68032B0AD9184B194AD358194A5B
:10B9A00000929F2252001849042006F05FFB0022FB
:10B9B000164B1A7003F062FD154803F073FD012168
:10B9C000152003F01BFDFFF773FCFFF7FBFD00F0F4
:10B9D00089FB00F07DFA01E007F02CFB0FF074F911
:10B9E0000300303B032BF7D81800FFF713FDF3E7F4
:10B9F00005200200302300202C2300200405000035
:10BA000000B00040E8DF02007FE00200C823002011
:10BA100015B4010030B58BB0704B1B78033BDAB224
:10BA2000052A00D9D0E093006D4AD3589F460422DE
:10BA30006A4B1A706B4B1B685B0403D56A4B1B681F
:10BA4000032B05D804F084F900280CD10BB030BDCD
:10BA5000664B674AD358674A00926C2266490420B5
:10BA600006F004FBEEE7654A6D2103F06DFBEDE7A0
:10BA70005C4B1B685B0403D55B4B1B68032B11D825
:10BA800004AA5F4B110031CB31C11B680B60002150
:10BA9000002004F08DF90028D8D0584A742103F012
:10BAA00053FBD3E7514B524AD358564A0092722265
:10BAB0005149042006F0DAFAE2E74A4B1B685B04BE
:10BAC00003D5494B1B68032B11D804AB59225A806C
:10BAD00000221A804C4B1888049A002104F0FEF9C9
:10BAE0000028B3D0454A7E2103F02EFBAEE73F4B42
:10BAF0003F4AD358454A009279223F49042006F034
:10BB0000B5FAE2E704AC18220021200012F00EFA88
:10BB10003D4B1B882380012121710F3B9AB2E280AB
:10BB20000323E373617422336B445831197000218D
:10BB300059702C4B1B685B0403D52B4B1B68032BE4
:10BB40000AD804A804F084F9002800D17EE72B4A23
:10BB5000912103F0F9FA79E7244B2549CB5801925A
:10BB60002B4A00928F222449042006F07FFAE8E74E
:10BB70001C4B1B685B0403D51B4B1B68032B18D89D
:10BB8000214B188804AB002205920321197021492A
:10BB9000598003AB592159801A80039B049904F002
:10BBA00073F9002800D151E7144A9F2103F0CCFA21
:10BBB0004CE70E4B0E4AD358174A009297220E4973
:10BBC000042006F053FADBE77846144B1B68002B81
:10BBD00001D098473AE700DE38E7C046CC2600207F
:10BBE00054E10200302300202C2300200405000033
:10BBF00000B0004040E202002FE20200C8E1020073
:10BC00009CE102005CE20200E82300206CE20200FA
:10BC10007CE20200FECAFFFFA0E202000C3000201E
:10BC200030B58BB0040003AB5F221A705A706E21DE
:10BC300099700131D970033119710E39597105317B
:10BC400099716320D8711A725A72103098720E3836
:10BC5000D8720830187359739A73DA7300221A82F3
:10BC60001E326A44002111805180194A1288DA82FA
:10BC70001A7E0125AA4302318A431A760B2200213B
:10BC8000684612F053F96B4601225A7000229A70EE
:10BC90006B461D710F4A104910480BF011FF002828
:10BCA0000CD1002303AA21000C480BF027FF002829
:10BCB00009D102220A4B1A700BB030BD094A5F212C
:10BCC00003F042FAEDE7074A602103F03DFAF0E79E
:10BCD000E8230020EC230020D02600200C240020A4
:10BCE000CC260020C8E1020010B586B0040002781E
:10BCF0000B2A00D9B2E093006349CB589F46634BAF
:10BD00001B78012B3FD10430FFF78AFF02225F4BE3
:10BD10001A7038E05E4B1B685B0403D55D4B1B68F3
:10BD2000032B08D8594B1B78022B0FD0032B2AD199
:10BD3000FFF770FE27E0584B584AD358584A0092F4
:10BD4000B6225849042006F091F9EBE7504B1B68E6
:10BD50005B0403D54F4B1B68032B03D801224B4BCD
:10BD60001A7010E04C4B4D4AD3584F4A0092B922FA
:10BD70004C49042006F07AF9F0E70022434B1A7090
:10BD80000430FFF75FFD06B010BD406810220121AE
:10BD90000BF0F0FE002817D03D4B1B685B0403D569
:10BDA0003C4B1B68002B03D10122384B1A70EAE789
:10BDB000394B3A4AD35801903C4A0092CF22394934
:10BDC000012006F053F9EFE7314B1B685B04DAD52D
:10BDD000304B1B68032BD6D92F4B304AD358344AEB
:10BDE0000092D4222F49042006F040F9CBE710221C
:10BDF000002102A812F09AF86068102202A90BF044
:10BE0000C5FE002812D1224B1B685B04BBD5214B19
:10BE10001B68032BB7D9204B204AD358254A0092E0
:10BE2000DD222049042006F021F9ACE7224ADC217A
:10BE300003F08AF9E7E7164B1B685B04A3D5154BA3
:10BE40001B68032B9FD9144B144AD3581B4A0092EA
:10BE5000E3221449042006F009F994E70C4B1B680F
:10BE60005B0400D48FE70B4B1B68032B00D88AE7D9
:10BE7000094B0A49CB580192114A0092EB22094919
:10BE8000042006F0F3F87EE76CE10200CC260020E7
:10BE9000302300202C2300200405000000B00040C7
:10BEA000B8E202002FE20200D8E20200FCE2020047
:10BEB00040E3020060E30200C8E1020088E3020000
:10BEC000B0E302000322014B1A707047CC26002019
:10BED0000122014B1A707047CC260020F0B5DE46D7
:10BEE00057464E464546E0B587B004AF0C001500F6
:10BEF00000281CD000291DD02388022B23D06A4A99
:10BF0000934200D16EE0694A934200D183E0684ACF
:10BF1000934200D196E0674A934200D1A9E0BD4622
:10BF200003B03CBC90469946A246AB46F0BDFFF735
:10BF300039FCF4E77846604B1B68002B01D098472A
:10BF4000DAE700DED8E75D4A1278042AD7D15C4BE5
:10BF50001B685B0403D55B4B1B68032B05D80522CC
:10BF6000564B1A70FFF756FDD9E76B467B60AB4620
:10BF70006B0099460833DB08DB006A46D31A9D46FE
:10BF800004AB9C461D00002314E06268D15C5A009B
:10BF9000080982464C48804606685046305CA854E2
:10BFA000013292460F220A40414609688A5C514696
:10BFB0006A5401335B45E8D3002362464946535433
:10BFC000424B434AD35862460292424A0192424A45
:10BFD00000920822FF324149042006F047F87B68AE
:10BFE0009D46BCE7354A1278052A00D08BE7636886
:10BFF0001B78002B07D0062B05D078462E4B1B68EC
:10C00000002B06D0984706222C4B1A70FFF702FD32
:10C0100085E700DEF7E7294A1278062A00D076E79E
:10C0200063681B78002B05D07846234B1B68002BD8
:10C0300006D098470722214B1A70FFF7EBFC6EE7FA
:10C0400000DEF7E71D4A1278072A00D063E763682D
:10C050001B78002B05D07846174B1B68002B06D0A9
:10C0600098470822154B1A70FFF7D4FC57E700DEFB
:10C07000F7E7124B1B78082B00D050E763681B785A
:10C08000002B05D078460C4B1B68002B0AD0984734
:10C0900000220A4B1A70FFF74DFA114A1388013338
:10C0A00013803CE700DEF3E7038000003E800000E1
:10C0B000198000001F8000000C300020CC260020DA
:10C0C000302300202C23002034230020040500000E
:10C0D00000B00040ACE10200C0E102002FE202002B
:10C0E000E823002010B500220C4B1A7010320C4BC4
:10C0F0001A800C490C480BF0FDFC002807D10B48B6
:10C100000B4B03600023436007F067F810BD094A3A
:10C110003421FF3103F018F8F1E7C046CC260020A7
:10C12000E8230020EC230020D0260020E02300207C
:10C13000E9BC0100C8E1020010B50C4B99420AD0DD
:10C140000B4A43001C1861005118C9786300D218CB
:10C150000131D17010BD064A43001C18610051180E
:10C1600089786300D21801319170F3E7FFFF000076
:10C170001027002030B583B00191184943001D18E5
:10C180006C000C19A4786D004919CB78E318002BCA
:10C1900001DD002303E000201EE001339BB2042BED
:10C1A00019D834245C430E49091989898842F4D18D
:10C1B00021000B4C0C5B01A909888C42EDD1342184
:10C1C0005943074D6D186C8801A949888C42E4D108
:10C1D0001380012000E0002003B030BD10270020B4
:10C1E0005827002082B00023009302783F331100CB
:10C1F00099430B00402912D0C9B240290DD9D9B2B8
:10C2000080291AD0C02910D16B461A8042781202B8
:10C21000837813436A46538007E0002B05D16B46B1
:10C220001A8001235B426A465380009B1A0C120459
:10C230001804000C104302B07047120243781A43EE
:10C240006B461A8001235B426A465380EDE700008B
:10C2500082B00190000C0C4B984207D001AB1B88B8
:10C260000B70030A4B70887002B0704701AB1B88DB
:10C27000FF2218009043002803DD1A0A0A704B7051
:10C28000F2E70B70F0E7C046FFFF000082B00190BC
:10C29000030C144A934209D001AB18883F239843FA
:10C2A000C03843425841C0B202B0704701AB188851
:10C2B000FF2302009A43002A08DD800B80030A4B0B
:10C2C0009C46604443425841C0B2EDE77F230200E0
:10C2D0009A4305D17F2801D00120E5E70020E3E75C
:10C2E0000020E1E7FFFF00000080FFFF70B50600BF
:10C2F0000D000024AC4207D2E300F058FFF7C6FF60
:10C30000002802D00134F5E7012070BD30B583B0BC
:10C310000191002100E00131038D994210D2CB0040
:10C32000446AA44663441D8801AC2488A542F2D126
:10C330005C8801AB5B889C42EDD11160012000E07C
:10C34000002003B030BD0000F8B505000E00170056
:10C350001C1E10D032897C23FF339A4214D8042D3E
:10C360001AD834226A43224B9B1830331B78DB07E0
:10C3700026D4002311E078461E4B1B68002B01D009
:10C380009847E7E700DEE5E7733BFF3B2360206863
:10C3900043425841C0B2F8BD0023002B12D03422D2
:10C3A0006A43134B9B189B89032B0BD8002F0CD08F
:10C3B0003068FFF76BFF002817D000232360E6E703
:10C3C0000123EAE705232360E1E734226A43084BAF
:10C3D0009B189A88084B9A4207D034236B43044D2C
:10C3E000ED18EA88044B9A42E2D107232360CEE796
:10C3F000582700200C300020FFFF000010B57846C1
:10C40000034B1B68002B01D0984710BD00DEFCE7F2
:10C410000C30002010B5804710BD000030B54388B7
:10C420001B051B0D042B17D81D000C49DB005A5CA3
:10C43000012422435A540023002B01D0012030BD97
:10C440009A0082185468E4436A00D21892000349A3
:10C450008A1854600133EFE70020F0E75C280020E1
:10C4600043881B051B0D032B07D881885A00D3185E
:10C470005A00034BD152012070470020FCE7C04610
:10C4800010270020F0B583B00E00170001AB124A50
:10C490001A8058800025002401E0002C0BD02200D7
:10C4A00001A90E4804F03AFE041EF6D0B847002851
:10C4B0000CD00135F1E7B5420ADD7846084B1B6820
:10C4C000002B01D0984703E000DE01E001256D421A
:10C4D000280003B0F0BDC04600F0FFFF3027002069
:10C4E0000C30002070B50400011D40880005000DCF
:10C4F000042829D8238A032B28D834224243154BF9
:10C500009B18DB89042B09D8628A934201D0002052
:10C510001BE0D200104BD35CDB0719D5638A042BD8
:10C5200005D80D4DDB005A5D042632435A5534239D
:10C5300043430848C018142211F0ECFCE188208A1B
:10C54000FFF7FAFD012000E0002070BD0020FCE7AD
:10C550000020FAE7582700205C28002010B50122AF
:10C56000054B1A70054804F077FD002800D110BD76
:10C57000034805F023F8FAE754270020302700206D
:10C58000E8220020F8B503F07BFD5B4B1B78002B05
:10C590001AD15A4B1B78002B01D0002515E006223A
:10C5A0000121574804F078FE00280BD00423C380F3
:10C5B00001330381838004F0BDFE01224F4B1A70CA
:10C5C000002502E0112500E0082500240EE06200AD
:10C5D000D21892004B498A185168C9439A008218B0
:10C5E0005160013317E011250134A4B2042C47D85F
:10C5F000002D1BD1E300434A9A5C03231340032B15
:10C60000F2D1C0218901214304223D4804F044FEB7
:10C610000028E8D02B00002BD9D004F08BFE394A3B
:10C62000E1008B5C022083438B54DDE7002402E0B1
:10C6300011250134A4B2032C52D8002D22D163005D
:10C640001B195A00304B9B185B799B07F1D5802151
:10C650004901214302222A4804F01EFE0028E7D0A7
:10C66000294F660032195300DB5B838004F062FEC1
:10C6700032195300FB185A7902218A435A71D8E7BC
:10C680000024D8E7002402E011250134A4B2042CD0
:10C6900028D8002D26D1342262431C4B9B183033FE
:10C6A0001A7803231340032BEFD180218901214302
:10C6B0001422134804F0F0FD071EE5D004303423A3
:10C6C0006343124EF6181422310011F023FC380097
:10C6D00004F030FE30363378022293433370D4E7CF
:10C6E0000024D4E7002D02D103F0EEFCF8BD084889
:10C6F00004F064FFF8E7C0465427002055270020C7
:10C70000302700205C280020102700205827002018
:10C71000F822002010B58222520000210F4811F0AB
:10C7200005FC182200210E4811F000FC28220021EF
:10C730000C4811F0FBFB00220CE034215143074B65
:10C740005B1801214942D98099800520D8819981BF
:10C75000013292B2042AF0D910BDC04658270020F9
:10C76000102700205C280020F0B595B0041E61D091
:10C770002068FFF737FD139087B27F2F00D109E1C2
:10C78000854B1B689B0403D5844B1B68042B5AD82C
:10C79000E06902F001FA060005002822002109A83C
:10C7A00011F0C4FB139B0993226808931B0C7C496E
:10C7B0008B4254D00323D3180A93A288139B079368
:10C7C0001B0C77498B4250D00323D21A09AB1A8134
:10C7D000227A1A736289DA81E2680D92227C1A75D4
:10C7E000618AD98261690F912021605C04315854BB
:10C7F000DE84012A3FD005A901235B420B80200083
:10C80000103002F08FF9002806D07846654B1B687F
:10C81000002B00D17BE0984705AB188802F0EEF8BA
:10C82000002805D178465F4B1B68002B71D09847D4
:10C83000002471E078465B4B1B68002B01D09847C1
:10C8400096E700DE94E7584B584AD3580197584A68
:10C850000092EF225749052005F008FC98E7FF2FCA
:10C8600001D90223A7E70123A5E7FF2F01D902235E
:10C87000ABE70123A9E705AE300001F0C7FF638AEB
:10C880003688B34200D285E005AA5288B218934296
:10C8900000DB7FE09E1BB6B2002400E00134042CD4
:10C8A00000DD77E034206043434B18180300303339
:10C8B0001B78DB07F2D53422624383899E42EDD197
:10C8C000130008333C4AD3186A099200D3581F2238
:10C8D0002A40D340DB07E1D506AA1399FFF716FDDE
:10C8E0000028DBD0A0B234236343334FFF18FA6A29
:10C8F00009A9039000F032FF069BDB007A6A944698
:10C9000063445B68FA6A09A903989847C6E700DEA2
:10C9100082E700DE8CE70134042C3BDC34206043EA
:10C92000254B1818030030331B78DB07F3D5C28979
:10C93000042AF0D83423634308331F49CB1869090C
:10C940008900CB581F212940CB40DB07E3D5D2001B
:10C950001A4B9A18043205AB19884B099B009B5857
:10C960001F220A40D340DB07D5D506AA1399FFF74B
:10C97000CDFC0028CFD0342262430F4B9B18069A7F
:10C98000D200596A8C4662445668DA6AA0B209A994
:10C99000B047C0E715B0F0BD302300202C230020A5
:10C9A000FFFF00000C3000200405000000B0004034
:10C9B00028E402001DE40200582700205C28002023
:10C9C00010B50378002B00D010BD0430FFF7CCFE6B
:10C9D000FAE7000000B587B0104B0393104B0493A7
:10C9E000104B05930423029301F070FE0E4B9C46FE
:10C9F00060440090012301930C4A137069460C486F
:10CA000004F094FD002804D10022084B1A7007B0EE
:10CA100000BD084804F0D2FDF9E7C046C5CA0100D0
:10CA2000FDC3010039CA010000FCFFFF54270020AC
:10CA300030270020D822002010B5002301E0013368
:10CA40009BB2042B0AD8DA001B49525CD107F6D5F9
:10CA5000D9000220024318480A54F0E7002301E0FD
:10CA600001339BB2032B0DD85A00D2185100134A40
:10CA70008A5A002AF4D0114841184A790220024308
:10CA80004A71EDE7002301E001339BB2042B10D87B
:10CA9000342159430A4A521830321278D107F3D55B
:10CAA00034205843064909183031022002430A70E5
:10CAB000EAE7FFF78FFF10BD5C2800201027002059
:10CAC0005827002070B58EB005000E001400012A12
:10CAD00005D0022C0CD0032C13D00EB070BD7846BC
:10CAE000124B1B68002B01D09847F2E700DEF0E7FD
:10CAF00078460E4B1B68002B01D09847EBE700DE11
:10CB0000E9E73022002102A811F010FA192302AA45
:10CB10001370173B13710496EB6806932B6901930E
:10CB20000793100003F048FBD7E7C0460C30002005
:10CB3000F0B591B002AF04000E007A602C230821FA
:10CB40008C46BC4463443100FFF7FEFB002831D023
:10CB500033893268FA60120C66498A422CD003226B
:10CB60009B180733DB08DB006A46D31A9D4602ADEB
:10CB700029003068FFF76CFB3368BB601B0C5D4A13
:10CB8000934220D0032028183289716811F0C2F92D
:10CB90000C230822BA18D01801F038FEF98A342282
:10CBA0006243554B9B189B89994213D81020BD4670
:10CBB0000FB0F0BD786BFAE7BA89FF2A01D90222DB
:10CBC000CEE70122CCE73B89FF2B01D90220DAE72F
:10CBD0000120D8E77A68002A45D0137B3B76D389B9
:10CBE0007B83D08C24230822BA18D11802F0DEF8F7
:10CBF000002805D07846414B1B68002B31D0984760
:10CC0000342262433C4B9B181B7CFF2B56D02222C4
:10CC1000BA181370BB8A34226243374CA418A28915
:10CC20009B183B847D62328933683B611B0C314920
:10CC30008B4249D00323D3183B85002110230822BF
:10CC4000BA18D01806F0CCF97863002807D12C4B1D
:10CC50001B689B0403D52B4B1B68042B3BD8786BBC
:10CC6000A5E700DECCE734226243234B9B18D8882B
:10CC700010230822BA18D11801F008FF002805D0A7
:10CC800078461E4B1B68002B14D098473422624311
:10CC9000194B9B18988824230822BA18D11802F03F
:10CCA00085F80028ACD07846144B1B68002B03D0C5
:10CCB0009847A5E700DEE9E700DEA1E7124B1B7805
:10CCC0002222BA181370A5E73B8AFF2B01D9022351
:10CCD000B1E70123AFE70D4B0D4AD35832880192DB
:10CCE0000C4A0092C72252000B49053005F0BEF9EC
:10CCF000B5E7C046FFFF0000582700200C30002099
:10CD0000302300202C2300200823002004050000ED
:10CD100000B000405CE402001DE40200F8B500E051
:10CD200020BF04F071FC0028FAD00022624B1A7078
:10CD30000121624804F0C0F9002800D1B9E0C3889D
:10CD4000042B05D00024002C00D1ACE02000F8BD5D
:10CD50000389052B01D00024F5E78388052B01D03A
:10CD60000024F0E70122544B1A70554A0521C020D7
:10CD70008001FFF787FB002801DB002311E000247E
:10CD8000E1E7504C5900C8184200A21800209070EA
:10CD9000D070C9184D002853517902308143517128
:10CDA0000133032BEDDD484A042180204001FFF7C9
:10CDB00069FBC543ED0F01D10024C4E7434A0521B7
:10CDC00080208001FFF75EFB002865DD002635E04E
:10CDD00000DE4FE005270CE000DE17E05B0151426A
:10CDE00011403B4A4A43D20E3A498F5CDF1900E0BA
:10CDF0000527052F20D0B8B201F0B4FD002805D0DA
:10CE00007846354B1B68002BE6D098470137042F36
:10CE1000EED87B099A0010591F210F400122BA4019
:10CE200052420240002AD9D10133002B02D19A008C
:10CE3000A258F7E70527DCE70136B6B2042E2CD856
:10CE400034227243254B9B189A89254B9A42F3D082
:10CE500034237343214CE418E088214B984209D0D5
:10CE600001F0F0FC002805D078461B4B1B68002B16
:10CE7000AED09847E289052ADED0D200194B9B1824
:10CE80001C1D5A68002AA5D053421A40104B534328
:10CE9000DB0E104AD75CACE70025002D01D0012441
:10CEA00051E700244FE70022034B1A70FFF756FBAF
:10CEB0004CE700244AE7C0465527002030270020D1
:10CEC0001DC401001027002061C40100E5C4010059
:10CED00031B57C073CE402000C30002058270020CC
:10CEE000FFFF00005C28002010B5FFF713FC054889
:10CEF000054B036006F071F900F074FCFFF76AFD62
:10CF000010BDC04628270020C1C90100F8B50400A3
:10CF10000D00002800D195E08368002B00D193E03C
:10CF2000002900D192E001235B420B80C368002BF3
:10CF300001D10920F8BD8088032801D90520F9E72F
:10CF40000A002168FFF716F900280AD02A8834233E
:10CF50005A433F4B9B1830331B78DB0701D50F201A
:10CF6000E8E7E168A068FFF7C1F9002801D10720D0
:10CF7000E0E72888374B98422BD02988344B34225D
:10CF8000514359182069C862298851435918A0682B
:10CF90004862298851435918A08908852988606901
:10CFA00051435918886128881100414359188882D3
:10CFB00029884A439B1830331A7801210A431A7092
:10CFC0000020B7E790B22880224B98420ED104206F
:10CFD000B0E70022042AF6D8342151431C4B5B18D9
:10CFE00030331B78DB07EDD50132F3E7184E3427D9
:10CFF0007843301801225242C2802B887B43F318B9
:10D000009A802B88A2887B43F3189A812B882288E8
:10D010007B439A532B8862887B43F3185A802B8872
:10D020007B43F3180C4A12781A746188A088FFF7C2
:10D0300083F82B885F43F619303632780223134386
:10D0400033709AE70E2075E70E2073E70E2071E724
:10D0500058270020FFFF00000823002010B50029FA
:10D0600003D00022FFF764FD10BD0E20FCE7000096
:10D07000042809D834224243124B9B1830331B78C2
:10D08000DB0706D4002300E00023002B03D105209A
:10D0900070470123F9E7042901D90720F8E7342272
:10D0A0004243084B9B18DB88994209D005488018F9
:10D0B000C180303003780222134303700020E7E779
:10D0C0000020E5E75827002000291AD0042809D8B5
:10D0D000342242430C4B9B1830331B78DB0706D4B9
:10D0E000002300E00023002B03D10520704701231B
:10D0F000F9E7342343430448C018C3880B80002059
:10D10000F4E70E20F2E7C0465827002010B50428A7
:10D1100009D8342242431A4B9B1830331B78DB0763
:10D1200006D4002300E00023002B03D1052010BD0E
:10D130000123F9E7042901D90720F8E73423434301
:10D1400008331A000E4B9B184A0992009B181C6862
:10D150001F2211402200CA40D2070ED401228A4069
:10D1600014431C60342343430548C018303003780F
:10D170000222134303700020D9E70020D7E7C046FE
:10D1800058270020042809D834224243124B9B1808
:10D1900030331B78DB0706D4002300E00023002B8C
:10D1A00003D1052070470123F9E7042901D907209D
:10D1B000F8E734224243084B9B189B88994209D0D8
:10D1C00005488018818030300378022213430370B1
:10D1D0000020E7E70020E5E75827002000291AD0C3
:10D1E000042809D8342242430C4B9B1830331B7857
:10D1F000DB0706D4002300E00023002B03D1052029
:10D2000070470123F9E7342343430448C018037CE3
:10D210000B700020F4E70E20F2E7C04658270020EC
:10D2200000291AD0042809D8342242430C4B9B18F9
:10D2300030331B78DB0706D4002300E00023002BEB
:10D2400003D1052070470123F9E734234343044801
:10D25000C018C36A0B600020F4E70E20F2E7C04656
:10D260005827002030B501235B420B80002300E0EB
:10D270000133042B0ED89C00E418E500094A52192A
:10D280003C321278002AF3D0064A5219128B82429D
:10D29000EED10B800888044B9C466044431E9841A5
:10D2A000C0B230BD842800200100FFFFE0230C4AFB
:10D2B000D35A002B10D01300E2229A5A91008918F9
:10D2C000CA009A18516B82001018C2009B185B6B41
:10D2D000CB1A03D4012000E0012070470020FCE7B6
:10D2E0008428002030B583001818C2000F4B9B180B
:10D2F0005D6B0F4B9C46654400230E4801E00133F3
:10D300009BB2042B10D89900C918CC00074A1219F7
:10D310003C321278002AF2D0044A1219526B511B87
:10D32000EDD518001500EAE730BDC046842800207E
:10D3300000879303FFFF000070B506000C00150086
:10D3400001235B420B800533136002F099FEE0235A
:10D35000154AD35A052B20D8002309E09A00D21889
:10D36000D100114A5218118B3288914213D00133E7
:10D37000042B12D89900C918C8000B4A12183C3265
:10D380001278002AEAD12188084A9142EFD100227E
:10D390002A602380EBE708232B6002F095FE2868C3
:10D3A00043425841C0B270BD84280020FFFF0000F6
:10D3B00010B5040082001218D100284B5B183C33D2
:10D3C0001B78002B05D17846254B1B68002B1FD0FE
:10D3D0009847E023214AD35A002B05D17846204BA9
:10D3E0001B68002B16D098471C49A2001219D300C5
:10D3F000CB183C3300221A70E0328B5A013B9BB2AF
:10D400008B52002B25D0E223CB5A9C4204D010BD76
:10D4100000DEDEE700DEE7E72000FFF763FFE22340
:10D420000E4AD0520F4B98420AD00C48E223C35AFE
:10D430009A00D218D300C318596B07F047F8E6E7F3
:10D440007846074B1B68002B01D09847EDE700DEBC
:10D45000EBE7024807F002F8D9E7C046842800202D
:10D460000C300020FFFF0000F0B583B00600E02381
:10D47000694AD35A002B05D17846684B1B68002BAC
:10D480000AD09847FA239B00F51801214942E2236C
:10D49000614AD15200248AE000DEF3E75E49A2002F
:10D4A0001219D300CB181A003C3200201070E03063
:10D4B0000A5A013A0A52188B01A9FFF7B1FE002857
:10D4C00005D07846554B1B68002B0BD09847A2001F
:10D4D0001219D100504B5B181F6B188B0122019958
:10D4E000B84763E000DEF2E74B4FA2001119CB0012
:10D4F0001900FB18188B183179180431FFF7AEFDAD
:10D50000E223FC5200281CD1A2001219D100424B88
:10D510005B189A6B596B8918596352009A633E4B9A
:10D52000621C91008918CA009A185068A20012194A
:10D53000D1005B185B6BC31A38D5374B5B18586347
:10D5400034E0042806D07846344B1B68002B28D0E2
:10D550009847E4E73049A3001819C2008A18536BB2
:10D560002F498C4663445363E0232B4AD35A002B44
:10D570004ED0E223D35A042B05D97846274B1B689B
:10D58000002B41D09847244BE222995A8A00521826
:10D59000D1005B185A6B931B38D41F4AD36003B079
:10D5A000F0BD00DEBBE7E2231B4AD4520134042C59
:10D5B000DAD8A2001219D100174B5B183C331B7844
:10D5C000002BF3D0621C93009B18DA00124B9B18BF
:10D5D0005B685B1B00D561E7A3001B19DA000E4BEB
:10D5E0009B185B6B5A1B00D57EE7E2220A49895AD9
:10D5F0000C4A9142D7D08A005218D100064A5218DC
:10D60000526B9B1AD2D5CEE700DEBCE7B31AC4E753
:10D610000022014BDA60C2E7842800200C30002091
:10D62000409C0000FFFF000010B582B0040000889D
:10D630006B46D91DFFF7D2FD002805D07846164B62
:10D640001B68002B1ED09847636800931B0C134A7D
:10D65000934219D00323A089C01880B26B460733C8
:10D660001B780F4C5C430F4B9C4664440B2806D937
:10D670000B300C2110F014FB094B584324182000E8
:10D6800002B010BD00DEDFE76B461B88FF2B01D91F
:10D690000223E0E70123DEE70C300020FFFF00005B
:10D6A000204E0000400D0300F0B583B0040001914E
:10D6B00082001218D100274B5B183C331B78002BDB
:10D6C00005D07846244B1B68002B35D0984706F0D0
:10D6D000E7FB07001F4DA6003319D80018302818A3
:10D6E0001C22019910F016FC0198FFF79DFF3219DA
:10D6F000D300EB189863661CB2009119C900691831
:10D700004A68D2194A603F185F6302F0B9FC2000F2
:10D71000FFF7CCFD002811D10E4AA3001C19E3002D
:10D72000D3183C3301211970DF31535A013353525E
:10D7300002F0CAFC03B0F0BD00DEC8E7054DA20050
:10D740001219D300EB18596B280006F0BFFEE22334
:10D75000EC52E1E7842800200C30002070B582B044
:10D7600004000E001500042805D978461B4B1B68E1
:10D77000002B18D0984702F083FC6B46991D2000BF
:10D78000FFF770FD00280AD06B46D888421C930032
:10D790009B18DA00124BD25A33889A4205D002F015
:10D7A00093FC02B070BD00DEE5E7421C93009B18BD
:10D7B000DA000B4B9B185A8873889A42EFD1FFF717
:10D7C000F7FD6B46DA8893009B18DA00044B9B1830
:10D7D0001B6B0022290020009847E0E70C30002056
:10D7E0008428002010B5044CE4220021200010F011
:10D7F0009DFB024BA36010BD8428002069D401006A
:10D8000010B582B0041E2AD08369002B29D003886A
:10D81000042B02D9052002B010BD4369124A944678
:10D820006344124A934201D90720F4E701AA6B46E8
:10D83000991CFFF781FD002801D10198EBE7211D1C
:10D840002088FFF70BFC0190002801D00428E2D1CA
:10D850006B4658882100FFF727FF0020DBE70E20EA
:10D86000D9E70E20D7E7C046803C36FE80C3C90109
:10D870000E4B1B68DB070AD50D4B1B88984210D353
:10D880000B4A52889B1898420DDB002300E00023CE
:10D89000002B04D0488001220A7000224A60180040
:10D8A00070470023F4E70123F2E7C0467029002007
:10D8B0004C2A002010B501235B420B80002305E0B9
:10D8C0009A000E4C125B82420DD00133032B13D809
:10D8D0005A0992000A4C12591F241C40E240D207F8
:10D8E000EED40B80F1E79C00044A1219D278002A8A
:10D8F000EBD00B80012000E0002010BD802900202B
:10D900006829002030B583B005000C006B46991DD6
:10D91000FFF7D0FF002804D0658003232370002385
:10D92000636003B030BD000010B50B88002B01D13F
:10D93000013300E00023012252420A8007E09A00EE
:10D94000D21894000B4AA25A82420DD00133002B08
:10D950000DD15A099200084C12591F241C40E24074
:10D96000D207ECD40B80F1E70B80012000E000200F
:10D9700010BDC046B42A00207829002010B501232C
:10D980005B420B80002304E00C880D4A944213D0C4
:10D990000133032B12D85A0992000A4C12591F2442
:10D9A0001C40E240D207EFD59A00074C125B82423E
:10D9B000EED10B80012002E00B80E9E7002010BDD2
:10D9C000FFFF0000682900208029002010B50123F6
:10D9D0005B420B80002304E00C880F4A944215D070
:10D9E0000133032B15D85A0992000C4C12591F24ED
:10D9F0001C40E240D207EFD516225A43084C125B76
:10DA00008242EDD101330B80012003E05A1C0A80D1
:10DA1000E6E7002010BDC046FFFF0000B02900204F
:10DA2000B829002010B501235B420B800023002B96
:10DA300001D0002010BD5A0992000C4C12591F242D
:10DA40001C40E240D2070AD516225A43084C125B0A
:10DA5000824201D00133EAE70B800120EAE70C881B
:10DA6000044A9442F6D10B80F4E7C0469029002086
:10DA700098290020FFFF000010B5041E05D00D4BB3
:10DA800012339C420AD20C4810BD78460B4B1B68DF
:10DA9000002B01D09847F2E700DEF0E7054B123388
:10DAA0009C4201D90448EFE7E01A5C2110F016F916
:10DAB00080B2E9E7582A0020FFFF00000C30002068
:10DAC00010B5041E05D00D4B3C339C420AD20C48C5
:10DAD00010BD78460B4B1B68002B01D09847F2E72E
:10DAE00000DEF0E7054B3C339C4201D90448EFE7E8
:10DAF000E01A5C2110F0F2F880B2E9E7582A002021
:10DB0000FFFF00000C30002010B5041E0DD0164B96
:10DB100004339C4203D3144B04339C420ED9134B61
:10DB200004339C4210D2124810BD7846114B1B683A
:10DB3000002B01D09847EAE700DEE8E7E01A16215B
:10DB400010F0CCF880B2EFE7084B46339C4201D985
:10DB50000748E9E705480430201A162110F0BEF8FE
:10DB6000013080B2E0E7C04698290020B8290020A3
:10DB7000FFFF00000C300020002811D00023032BF1
:10DB80000CD816225A430749525A904201D0013309
:10DB9000F5E716204343C818043000E00020704722
:10DBA0000020FCE7B829002070B504000D00160025
:10DBB0001068002803D0FFF7A7FF013002E0002023
:10DBC00000E0013000281CD143099B000E4A9B58FD
:10DBD0001F220240D340DB07F3D5162242430B4BF2
:10DBE0009B185B88A342ECD116224243074B9B183B
:10DBF0005B796B409B06E4D1044B9818043030608D
:10DC000001E00023336070BD902900209829002096
:10DC10000B4B8A00D0529B180022DA709A70480988
:10DC20008000084B1B181F3211401E3A8A401968A9
:10DC300011431960044B1B1819680A431A60704796
:10DC400080290020682900206C29002010B50B00D5
:10DC500081B21888FFF7DCFF10BD00008000024B86
:10DC6000C35A0B807047C0468029002010B5041E9F
:10DC700001D0A04710BD7846034B1B68002B01D094
:10DC80009847F6E700DEF4E70C30002070B504009A
:10DC90000E001500052805D978460D4B1B68002B92
:10DCA00013D0984763010B4CE41829003000E36956
:10DCB00098476368720992009B181F213140012226
:10DCC0008A4019680A431A6070BD00DEEAE7C04660
:10DCD0000C30002070E40200F8B5CE46474680B50F
:10DCE0008046894611005C1E114F162565437E193A
:10DCF000B01D102210F00EF900237371013333713F
:10DD00004A4672804246EA5361098900094A52181C
:10DD10001F200440A340106818431060064A5218A0
:10DD200011680B4313600CBC90469946F8BDC04681
:10DD3000B8290020B0290020B429002010B50A1D00
:10DD4000013083B24C8808882100FFF7C5FF10BD61
:10DD5000F8B50D000B1D074F162444433E19B11DA5
:10DD60001022180010F0D6F8E35B2B8073886B80CC
:10DD7000F8BDC046B8290020F8B50D000B1D074FAF
:10DD8000162444433E19B11D1022180010F0C2F8A9
:10DD9000E35B2B8073886B80F8BDC0469829002018
:10DDA00070B50D008B1C064E5C24444331190231C2
:10DDB0001022180010F0AEF8A35B2B8070BDC04697
:10DDC000582A002010B50C0083001B189A00044943
:10DDD000891804311022200010F09CF810BDC046B4
:10DDE000B42A002010B50422014810F093F810BDA9
:10DDF0004C2A002010B508000422024910F08AF8CD
:10DE000010BDC0464C2A0020F0B583B005000F00BD
:10DE100001921E0016215943174C6418A01D1022B0
:10DE2000019910F077F8611D019805F0EFF90028CD
:10DE300005D07846114B1B68002B1AD098470E4925
:10DE400016237343CA18002010715D525780710960
:10DE500089000B4840181F231E400122B24003686E
:10DE600013430360074B5B1819680A431A6003B039
:10DE7000F0BD00DEE3E7C046982900200C3000200A
:10DE8000902900209429002010B50A1D83B24C88E7
:10DE900008882100FFF7B8FF10BD0000F0B583B07F
:10DEA000060001911400294A5C2161430B003033C4
:10DEB000D318043352181364002802D10122244BD2
:10DEC0001A705C2161430B0010332049C9180231DC
:10DED000019805F0A8F9002805D078461D4B1B686D
:10DEE000002B2ED098475C2161430B00403317492B
:10DEF000C9180431019805F0ABF9002805D078461F
:10DF0000144B1B68002B1ED09847104D5C276743AD
:10DF1000E8190230102201990FF0FCFF7E536109CD
:10DF200089000D4B5B181F2214401E3AA24018684E
:10DF300010431860094B5B1819680A431A6003B054
:10DF4000F0BD00DECFE700DEDFE7C046582A002044
:10DF5000482A00200C300020502A0020542A00209B
:10DF600010B50B00023182B21888FFF797FF10BD81
:10DF700070B506000C1FA3001B199A00124DAD18B6
:10DF8000281D102231000FF0C5FF2900300005F0D8
:10DF90008BF9002805D078460C4B1B68002B11D05C
:10DFA0009847600980000A4B1B181F210C40012272
:10DFB000A240196811431960064B1B1819680A43DF
:10DFC0001A6070BD00DEECE7B42A00200C3000209F
:10DFD000782900207C29002010B50B00011D89B292
:10DFE0001800FFF7C5FF10BDF8B505000E0002F0E0
:10DFF00047F8052D05D978461D4B1B68002B0AD024
:10E0000098471C4B1C78002C07D1002C1ED002F026
:10E010005BF82000F8BD00DEF3E76A01164B9B18A1
:10E02000598A891989B25A69144803F035F9071ECB
:10E030000AD06A01104B9B189B69011D300098475C
:10E04000380003F077F9E0E70024DEE76D010A4BC2
:10E050005D19AB68720992009B181F2216401E3A88
:10E06000B24019680A431A60054803F0A7FACEE7E0
:10E070000C300020102A002070E40200142A002036
:10E08000382A002010B50A2201210A4803F004F9B9
:10E090000400631E9C41E4B2002808D0042242819F
:10E0A000012383818380C380028103F043F9200030
:10E0B00010BDC046142A002070B505000E0001F006
:10E0C000DFFF052D05D97846174B1B68002B0AD0BA
:10E0D0009847164B1C78002C07D1002C12D001F069
:10E0E000F3FF200070BD00DEF3E76A01104B9B18C0
:10E0F000598A891989B20F4803F050F944424441C2
:10E10000E4B2EAE76D010A4B5D19AB68720992004F
:10E110009B181F2216401E3AB24019680A431A6023
:10E12000054803F04BFADAE70C300020102A0020F3
:10E1300070E40200142A0020382A0020F8B5DE46D8
:10E1400057464E464546E0B500239B460133984668
:10E1500049E05101611A01238B40013B910049596B
:10E160000B4210D1013223001F335B099A4205D2C2
:10E17000013B9A42EDD001235B42EFE74346002B7F
:10E180002DD100270EE00023F9E739005846FFF7AC
:10E1900093FF002822D001235246934032689A43CD
:10E1A00032600137A7421AD27B099B00EE181F226A
:10E1B0003A40924632685146CA40D207F1D54A46A3
:10E1C0005101134A52185268D3585246D340DB07C4
:10E1D000DBD539005846FFF707FFDAE780465E4691
:10E1E0000136F3B29B465B46052B0BD84346002B0A
:10E1F00008D0D946064B5A46520199188D68D45812
:10E200000022B0E73CBC90469946A246AB46F8BD1A
:10E2100070E4020010B503280AD843099B00314A74
:10E220009B581F220240D340DB0711D5012300E099
:10E230000023002B1FD082002B4B9B189B78002BB8
:10E240004BD1294B9B18DB78002B03D0002023E017
:10E250000023EEE742099200224B9B181F21014048
:10E2600001228A4019689143196001000120FFF7DB
:10E2700023FF002010E0021F92B2002A09D15109A9
:10E2800089001A4C09591F242240D140CA0700D5E1
:10E290000123002B01D1052010BD011F8B005B184D
:10E2A0009A00134B9B189B78002B18D1104B9B188E
:10E2B000DB78002B01D00020EEE74A0992000B4BDF
:10E2C0009B181F2008400122824018689043186064
:10E2D0000220FFF7F1FE0020DEE70020DCE700204F
:10E2E000DAE7C0466829002080290020782900202C
:10E2F000B42A002030B58FB005000C00012905D0EC
:10E30000022C0CD0032C13D00FB030BD7846134B29
:10E310001B68002B01D09847F2E700DEF0E7784653
:10E320000E4B1B68002B01D09847EBE700DEE9E7B6
:10E330003022002102A80FF0F9FD192302AA137060
:10E34000173B13710495064BDA6806921B6901931B
:10E35000079302A801F030FFD6E7C0460C3000203A
:10E36000142A002010B511000020FFF7C3FF10BDD4
:10E3700010B508001100FFF7BDFF10BD10B5002259
:10E38000054B1A70054802F067FE002800D110BD49
:10E39000034803F013F9FAE7102A0020142A00209A
:10E3A0000C23002070B505000C00160001235B4211
:10E3B0000B8004F0A5FF307002281DD0032835D053
:10E3C000012835D0002036E09A00D21891001A4A70
:10E3D0008A5A95420DD00133002B0FD15A09920071
:10E3E000164952581F211940CA40D207ECD4238045
:10E3F000F1E7238001201EE00023EDE700201AE072
:10E400009A000F49525A95420DD00133032B11D86F
:10E410005A0992000B4952581F211940CA40D2078D
:10E42000EED42380F1E72380012004E00023EDE710
:10E430000023EBE7002070BDB42A002078290020DB
:10E44000802900206829002070B582B006000C00E9
:10E450001500002941D06B46DA1D01A9FFF7A2FF84
:10E46000002D13D16B4607331B78032B0ED01020E1
:10E47000002833D101AB1B882380002D26D09B00C0
:10E48000174AD3189A7801329A7027E0012D10D0DC
:10E49000002817D101AB1988124B994214D03000D3
:10E4A000FFF7B6FB01AB19880120FFF79DFD0020A7
:10E4B000DEE76B4607331B78032BE9D0012BE7D04F
:10E4C0001020D5E70020D3E70420D1E79B00044AC1
:10E4D000D318DA780132DA7000E00E2002B070BD95
:10E4E00080290020FFFF000070B505000E00012309
:10E4F0005B420B800024002C01D0002070BD63091A
:10E500009B000F4A9B581F222240D340DB0705D4B3
:10E5100032880C4B9A420DD134800BE0A3001B19BA
:10E520009A00094880180430102229000FF0CEFC10
:10E53000002801D00134DEE734800130DEE7C04638
:10E5400078290020FFFF0000B42A002030B583B0F6
:10E5500005000C004868002805D06B46991DFFF7A0
:10E56000C3FF002803D1012252426B46DA806B467A
:10E57000991D2800FFF7D8F9002816D06B46DA88D5
:10E5800093009B189A000B4B9B18DB78002B0ED046
:10E590006580022323706B4606331B889A00D218CD
:10E5A0009100044B5B180433636003B030BD00205E
:10E5B000FBE7C046B42A002070B500E020BF03F09E
:10E5C00023F80028FAD03C4B1878002800D170BD01
:10E5D00001213A4802F070FD041E00D16AE043892F
:10E5E000042B02D18389012B03D0FFF7C7FE002043
:10E5F000EDE7C388012BF8D10389042BF5D183887B
:10E60000012BF2D1002513E0002B36D080225201DD
:10E6100093422AD1012000E0032069884201284B5F
:10E620009B185B8AC91A2A1DFFF730FB002D3CD0CE
:10E630002A000021214802F071FD051EF6D0844217
:10E64000F4D04288130B1B03802189018B4223D015
:10E65000DAD98022D201934223D0A022D201934260
:10E6600018D0C02292019342D6D07846154B1B6831
:10E67000002B13D098470020CFE7022A13D078460A
:10E68000104B1B68002B02D098470020C5E700DE26
:10E690000020C2E70520C0E70220BEE700DE002020
:10E6A000BBE70420B9E70020B7E7074B1B68012050
:10E6B00018408CE700208AE7102A0020142A002046
:10E6C00070E402000C3000207029002010B504F026
:10E6D0006DF9024B9C46604410BDC04600FCFFFF34
:10E6E00010B586B0164B0393164B0493164B059347
:10E6F00000230293FFF7EAFF00900123019301F04A
:10E70000BFFC6946114802F011FF002809D10F4BE8
:10E710001B78012B01D0012404E0FFF7B3FC0400B7
:10E7200000E0002401F0D0FC002C04D00122084BB2
:10E730001A7006B010BD074802F040FFF9E7C04666
:10E7400071E3010065E3010081E70100142A002064
:10E75000102A00201C23002010B5054B054A9A60A2
:10E76000054ADA600022054B1A70FFF7B9FF10BDA9
:10E77000382A00206DDC01003DE10100102A002054
:10E7800010B5FFF7ADFF10BD10B5041E05D01C4B32
:10E790001B68DB070AD50F2010BD7846194B1B6894
:10E7A000002B01D09847F2E700DEF0E7208863886D
:10E7B000C318013B984201DD0B20EDE704F0A0FDFA
:10E7C000012801D00B20E7E720886388C01880B2B9
:10E7D000013880B204F094FD012801D00B20DBE762
:10E7E0000422210008480FF095FB054A0123116817
:10E7F0000B43136000210800FFF7F6FB0020CBE776
:10E80000702900200C3000204C2A002010B5041E76
:10E8100005D00422064920000FF07CFB10BD78468D
:10E82000044B1B68002B01D09847F2E700DEF0E7AD
:10E830004C2A00200C30002010B50122FFF704FE06
:10E8400010BD000010B503280AD843099B001F4AD9
:10E850009B581F220240D340DB0716D5012200E05F
:10E860000022002A15D1031F9BB2002B09D15909A0
:10E870008900174C09591F242340D940CB0700D5E4
:10E880000132002A03D0012304E00022E9E700233B
:10E8900000E00123002B01D1052010BD032807D87B
:10E8A00080000C4B18188378013383700020F4E744
:10E8B000011F094B88004418A20014009A1892788E
:10E8C0001B1901329A700020E7E7C0466829002032
:10E8D0007829002080290020B42A002070B5032860
:10E8E0000AD843099B001B4A9B581F220240D34071
:10E8F000DB0716D5012200E00022002A13D1031FF6
:10E900009BB2002B09D159098900134C09591F24C6
:10E910002340D940CB0700D50122002A0CD1052085
:10E9200070BD0022E9E782000C4B9B189A78013AEF
:10E930009A70FFF76FFCF3E7041F094AA3001D1943
:10E94000A9000D0051188978521901399170FFF70B
:10E9500061FCE5E768290020782900208029002053
:10E96000B42A002010B503280AD843099B001F4A87
:10E970009B581F220240D340DB0716D5012200E03E
:10E980000022002A15D1031F9BB2002B09D159097F
:10E990008900174C09591F242340D940CB0700D5C3
:10E9A0000132002A03D0012304E00022E9E700231A
:10E9B00000E00123002B01D1052010BD032807D85A
:10E9C00080000C4B1818C3780133C3700020F4E7A3
:10E9D000011F094B88004418A20014009A18D2782D
:10E9E0001B190132DA700020E7E7C04668290020D1
:10E9F0007829002080290020B42A002010B50200C8
:10EA000003280AD843099B001C495B581F21014079
:10EA1000CB40DB0716D5012100E00021002915D1EC
:10EA2000131F9BB2002B09D158098000144C0059C8
:10EA30001F242340D840C30700D50131002903D04B
:10EA4000012304E00021E9E7002300E00123181E70
:10EA500008D0032A07D892000A488218D078431EAB
:10EA60009841C0B210BD101F820012189100064BD1
:10EA70005B18D878431E9841C0B2F3E7682900209C
:10EA80007829002080290020B42A002070B50C1EAF
:10EA90003ED003280AD843099B001E4A9B581F22D8
:10EAA0000240D340DB0716D5012200E00022002AF5
:10EAB00013D1031F9BB2002B09D159098900164DB0
:10EAC00049591F252B40D940CB0700D50122002AE8
:10EAD0000FD1052070BD0022E9E7104B8000C25A1B
:10EAE0006280C05A04F00CFC207000236360002098
:10EAF000F0E704380A4B82001518A9000D00C95A26
:10EB000061805B1904336360022323700020E1E716
:10EB10000E20DFE7682900207829002080290020C6
:10EB2000B42A002030B583B004000D0000282CD09A
:10EB300000292CD0408804F0E3FB02280DD00328E4
:10EB400003D0012801D0102022E060882900FEF7C0
:10EB500015FF00281ED105301AE0012252426B46F3
:10EB6000DA80606800280CD06B46991DFFF7BCFC6A
:10EB7000002808D06B4606331B8804332B80002006
:10EB800006E00E2004E0052002E00E2000E00E204A
:10EB900003B030BD0020FBE710B5002802D0FEF71F
:10EBA000B3FF10BD0048FCE7FFFF000070B5140084
:10EBB000002937D0002A37D01C4B984201D90720B2
:10EBC00070BD1B4E0023002B04D00023002B1AD055
:10EBD0000F20F5E75A099200164D52591F251D4086
:10EBE000EA40D2070AD55C225A43134D525B904249
:10EBF00001D00133E7E79EB20123E7E70C4A9642D2
:10EC0000F7D19EB2F5E70A4B9E4201D10420D7E727
:10EC10003200FFF743F931000320FFF7E5F92680C2
:10EC20000020CDE70E20CBE70E20C9E7FF0F000044
:10EC3000FFFF0000502A0020582A0020F0B583B0C2
:10EC400006000F0014001D00002A37D0002B37D01B
:10EC500004F056FB012801D0102032E0002F01D033
:10EC600005202EE07B099B00174A9B581F223A4043
:10EC7000D340DB0701D4052023E06B46991D30000B
:10EC8000FEF7A4FE002801D00F201AE06B460633E1
:10EC90001B880E4A934201D1042012E02200390061
:10ECA0003000FFF719F86B469C1DD9880139052003
:10ECB000FFF79AF923882B80002002E00E2000E065
:10ECC0000E2003B0F0BDC046502A0020FFFF000018
:10ECD00070B5013881B2032901D9052070BD4A09F8
:10ECE00092000C4B9B181F220A401868D040C007A6
:10ECF00001D40520F2E7162048430025064C0553B1
:10ED0000012090401A6882431A600520FFF7D4F969
:10ED10000020E3E7B0290020B8290020F0B583B037
:10ED200007000D0014001E00002A35D0002B35D03E
:10ED3000002902D0052003B0F0BD4B099B00184A02
:10ED40009B581F220A40D340DB0701D40520F2E77D
:10ED5000144B984201D90720EDE76B46991DFEF749
:10ED600061FE002801D00F20E5E76B4606331B88C3
:10ED70000D4A934201D10420DDE72200290038002A
:10ED8000FFF742F86B469C1DD9880420FFF72CF949
:10ED9000238833800020CEE70E20CCE70E20CAE780
:10EDA000502A0020FF0F0000FFFF000070B5040094
:10EDB0000D00042801D9052070BD002900D182E092
:10EDC00000283FD143099B00404A9B581F22024024
:10EDD000D340DB0701D40520EEE7162242433C4B2B
:10EDE0009B185B88002B05D078463A4B1B68002B9C
:10EDF00024D0984716226243354B9B1859884B09FB
:10EE00009B00354A9B581F220A40D340DB0705D49C
:10EE10007846304B1B68002B12D09847162363436B
:10EE20002B4CE418231D6B6062885C235A4310321C
:10EE30002A4B9B1802332B600020BDE700DED9E788
:10EE400000DEEBE7013C63099B00254A9B581F222B
:10EE50002240D340DB0701D40520ADE716226243F0
:10EE6000204B9B185B88002B05D07846194B1B68FC
:10EE7000002B24D09847162262431A4B9B185988BE
:10EE80004B099B00144A9B581F220A40D340DB07C2
:10EE900005D478460F4B1B68002B12D098471623D9
:10EEA0006343104CE41862885C235A4310320B4BC6
:10EEB0009B1802332B6004346C6000207CE700DE7A
:10EEC000D9E700DEEBE70E2076E7C0469029002068
:10EED000982900200C300020502A0020582A0020B9
:10EEE000B0290020B829002070B504000D1E06D0FE
:10EEF000286800280CD0FEF7BFFD01300BE07846F3
:10EF0000134B1B68002B01D09847F1E700DEEFE7B9
:10EF1000002000E00130002817D143099B000D4A72
:10EF20009B581F220240D340DB07F3D55C224243AB
:10EF3000094B9B189B7C63405B06EBD1130010339D
:10EF40000548C0180230286001E000232B6070BD26
:10EF50000C300020502A0020582A002070B50400F0
:10EF60000E00151E0CD0002C13D02000FEF784FDDF
:10EF70000E4B984216D02A003100FEF715FE70BDE8
:10EF800078460B4B1B68002B01D09847EBE700DE5F
:10EF9000E9E77846064B1B68002B01D09847E4E769
:10EFA00000DEE2E700232B60E9E7C046FFFF000038
:10EFB0000C30002070B505000C1E04D02800FEF7B0
:10EFC000DBFD206070BD7846034B1B68002B01D031
:10EFD0009847F3E700DEF1E70C30002070B505003C
:10EFE0000E1E06D0306800280CD0FEF769FD441CC8
:10EFF00019E07846204B1B68002B01D09847F1E7B9
:10F0000000DEEFE700240EE0012100E001211B4BB0
:10F010005C2044431A193C32117038341B190433F4
:10F02000336028E00134002C23D163099B00144A8B
:10F030009B581F222240D340DB07F3D5002D0CD074
:10F040005C2161430B0050330C49C918043108227C
:10F0500028000EF03BFF0028E4D10A4B1B78002B60
:10F06000D4D05C236343054A9B5A002BCCD00021AB
:10F07000CDE70023336070BD0C300020582A0020FB
:10F08000502A0020482A002070B504000D0004F02A
:10F0900037F902280FD0032808D0012801D000201A
:10F0A00003E029002000FEF7E3FB70BD29002000EB
:10F0B000FEF728FCF9E729002000FFF747FAF4E7FC
:10F0C00052DF704710DF704760DF704761DF7047C5
:10F0D000A023DB05F0225204A121C9005A500449A3
:10F0E0005A50EFF3108372B60028FDD17047C04626
:10F0F0000C05000010B584B00C000D4B1B685B04C0
:10F1000003D50C4B1B68002B04D12000FFF7E0FF58
:10F1100004B010BD084B0949CB58039202940190EA
:10F12000074A009267220749012002F09FFFECE79F
:10F13000302300202C2300200405000000B00040F4
:10F1400044E6020032E6020010B584B00D4B1B68A5
:10F150005B0403D50C4B1B68002B04D10120FFF787
:10F16000B7FF04B010BD094B094CE358039002915E
:10F170000192084A009240220749012002F076FFDE
:10F18000ECE7C046302300202C23002004050000BB
:10F1900000B0004040E5020032E6020010B582B047
:10F1A00004000C4B1B685B0403D50B4B1B68002B46
:10F1B00004D12000FFF78CFF02B010BD074B084AB6
:10F1C000D3580190074A009246220749012002F0D5
:10F1D0004DFFEEE7302300202C2300200405000023
:10F1E00000B0004060E5020032E6020000B583B0E6
:10F1F0000B4B1B685B0403D50A4B1B68032B04D81D
:10F200000120FFF765FF03B000BD074B074AD35845
:10F21000074A00924C220749042002F027FFEFE73B
:10F22000302300202C2300200405000000B0004003
:10F2300030E5020032E6020000B583B002E001983A
:10F2400003F0C6FF01A8FFF73BFF0028F7D04722D5
:10F250006B465A8005E0074803F0B8FF47226B462B
:10F260005A806B46991C0348FFF730FF0028F2D004
:10F2700003B000BDC82A002010B584B00400254B9F
:10F280001B685B0403D5244B1B68032B2AD8234B34
:10F290000393039B02931F4B1B685B0403D51E4B18
:10F2A0001B68032B29D802A92000FFF70DFF0400DB
:10F2B000029A039B9A4212D0164B1B685B040ED530
:10F2C000154B1B68012B0AD9154B1649CB580192D7
:10F2D000154A00927B221549022002F0C7FE200049
:10F2E00004B010BD0E4B0F4AD358114A00926D2244
:10F2F0000E49042002F0BAFEC9E7094B094AD35867
:10F30000039A01920B4A009276220849042002F0E7
:10F31000ADFEC8E7302300202C230020D822002097
:10F320000405000000B00040A8E5020032E602003B
:10F330007CE5020098E5020000B589B00190234900
:10F3400001A8FFF7BFFE00281CD1C5239B00204A5F
:10F35000D258920D0323134002D0022B17D0012361
:10F36000002B16D11B48002825D11422002103A808
:10F370000EF0DCFD03A8FFF77FFF002820D100205E
:10F3800009B000BD144A8221FFF7DEFEDDE700234D
:10F39000E6E7124B5B68002B05D18022D2030C4BB1
:10F3A0001A600020DFE70D4A11688023DB030B435E
:10F3B00013600020D7E7084A8321FFF7C5FED4E792
:10F3C000054A8621FFF7C0FED9E7C046F5F00100E7
:10F3D00000E100E002200000E4E50200102B002024
:10F3E0000200054BA021C905CB58012090401840D0
:10F3F00043425841C0B2704704050000002907D1BC
:10F4000001238340A122D200A021C9058B5070475F
:10F4100001238340024AA021C9058B50F7E7C0466B
:10F420000C05000070B5FE231A40002400E00134F2
:10F4300094421BD2A026F6050D4D735943407351DB
:10F44000FA239B004B43002BF1D00A4D2D680A4E46
:10F45000C046C046C046C046C046C046C046C0467C
:10F46000B54200D0C046013BF2D1E0E770BDC046D6
:10F4700004050000882300200024F40015230DE07B
:10F48000A021C9051A00C132FF329200032050505A
:10F4900001229A40A120C0000A500133182BEFD955
:10F4A00070470000002824D0134B1860112308E097
:10F4B0001A00C132FF3292001048A021C9055050F5
:10F4C0000133142BF4D90E4BC1229200802109067E
:10F4D00099500020BE21490058500A4B99580A48BB
:10F4E0000840C02109040143995040221A600020BD
:10F4F00070470E20FCE7C046182B00200C000300CC
:10F500000060004000E100E0FFFF00FF10B50021B7
:10F51000BE235B001B4AD150002409E01A4A8A58D6
:10F52000D21A1A4B93429B415B421DE00134E4B274
:10F53000032C25D8A223DB00A022D205D25821001B
:10F54000113101238B409343F0D0114B1B680E4ABD
:10F5500010498A589A1AE1D40B4A0E498A589A1AC5
:10F560000A4B93429B415B42002BDFD0064B094A7A
:10F57000D258074B1A60084B1B6820009847D5E704
:10F5800010BDC04600600040040500009A1900004C
:10F590001C2B002000B00040182B002070B50C0080
:10F5A00015004B68002B0BD000232372002D06D0D2
:10F5B000012D0ED16368002202212000984770BD02
:10F5C0007846084B1B68002B01D09847ECE700DE1B
:10F5D000EAE77846034B1B68002B01D09847EEE71B
:10F5E00000DEECE70C30002010B584B00C00008881
:10F5F0000E216944FDF768FD002813D10E236B44EA
:10F6000018880C4B984210D001A9FFF73FFA002848
:10F610000DD101AB5A88E3899A4201D0002002E063
:10F62000013000E0002004B010BD0020FBE7002006
:10F63000F9E7C046FFFF000070B50D0014005368E5
:10F64000002B06D029002000FFF7CEFF002809D1AB
:10F6500070BD7846084B1B68002B01D09847F1E736
:10F6600000DEEFE76B681B7859425941C9B2636805
:10F67000EA8920009847EBE70C30002010B588B0ED
:10F68000048801A804808260838181805923C3801B
:10F69000C42202824382044B4361044B8361FEF720
:10F6A000AFF808B010BDC04680C3C9019DF5010088
:10F6B00010B586B0002815D04368002B14D0012364
:10F6C0006A46138059226C466280A180074A0292E2
:10F6D000039304900023059301006846FDF716FC90
:10F6E00006B010BD0E20FBE70E20F9E764E602002D
:10F6F00010B5041E18D04368002B17D0037A002BD6
:10F7000001D0082010BD4172094A1378591C1170AC
:10F710008372022302000932C121FFF7AFFF0028E4
:10F72000F0D101232372EDE70E20EBE70E20E9E78D
:10F73000202B002070B584B00600150003AB1970B3
:10F740000D490A78501C08705A70C32269460A8015
:10F750006A3A4A80019302230B8100240020AC42C4
:10F7600008D230886946FDF779FC002802D10134BF
:10F77000E4B2F4E704B070BD202B002010B50023E4
:10F780000B2B0BD85A00D2185400054AA25A8242B9
:10F7900001D00133F4E70B60012000E0002010BD30
:10F7A0006CE6020010B584B00C00002303930888B7
:10F7B00003A9FFF7E3FF002805D17846104B1B682B
:10F7C000002B11D09847228903994B005B185800F1
:10F7D0000C4B1B185B889A4204D30A4B1B189B885E
:10F7E0009A4203D904B010BD00DEECE7238801A9DA
:10F7F0000B8063684B60044B5B6801209847F1E71E
:10F800000C3000206CE60200242B0020074B9B7874
:10F81000002B03D0022B05D0002002E00833036048
:10F82000012070470F3303600120FAE7242B0020EA
:10F8300030B589B0114B1C8801AB1C80104C24687A
:10F8400003949981988001214942D9801A82598272
:10F850000C4A06920C4A07921800FDF7D1FF041ECD
:10F8600005D10222054B9A70200009B030BD044D2D
:10F87000286804F0B1F900232B60F5E7242B002061
:10F880002C2B002080C3C90175FA0100F8B50400D3
:10F890002D4B1B68002B05D078462C4B1B68002B8A
:10F8A0000ED0984763691B021B0C294A934209D06A
:10F8B0000D252900244804F0E5F8002804D0F8BDFF
:10F8C00000DEEFE70B25F4E71F4B1B6822881A7058
:10F8D000120A5A70E2889A70120ADA70A289120526
:10F8E000120D1A71120A0F300240597981430A43EE
:10F8F00010218A430F310A405A71E27B9A71227CAF
:10F90000DA71667C07221640187A0727B84330431D
:10F910001872A07C0140C900187A02400A431A728A
:10F92000E17C227D12020A435A72120A9A726269BB
:10F930001202120CDA72120A1A73064A2900032004
:10F94000FFF776FFBBE7C0462C2B00200C300020D1
:10F95000FFFF000019800000F0B585B0060002919D
:10F9600001930AAB1F881A4B1B68002B05D0784601
:10F97000184B1B68002B0ED0984701AB5C88164BC8
:10F980009C420AD008252900114804F07BF8002881
:10F9900005D005B0F0BD00DEEFE70625F3E70C4B20
:10F9A0001B681E70360A5E7002AA52889A70120A8C
:10F9B000DA7001AA12881A71120A5A719C71240A0B
:10F9C000DC71064A29003800FFF732FFE1E7C04644
:10F9D0002C2B00200C300020FFFF00001F800000B7
:10F9E000F0B585B005000C0001920093002303934D
:10F9F00003A8FFF70BFF00282CD11A4B1B68002B24
:10FA000005D07846184B1B68002B26D0984701ABD1
:10FA10005F88164B9F4222D008263100114804F01F
:10FA200031F80390002816D10E4B1A6815702D0A74
:10FA300055709470240AD47001AB1B8813711B0A93
:10FA4000537197713B0AD371094A31000098FFF74F
:10FA5000EFFE00E0039805B0F0BD00DED7E7062614
:10FA6000DBE7C0462C2B00200C300020FFFF0000FD
:10FA70003E80000010B514000A4B1868002804D01E
:10FA800004F0AAF80022074B1A60012C03D00122CF
:10FA9000054B9A7010BD044B5B68002200210020CA
:10FAA0009847F4E72C2B0020242B0020F8B5050004
:10FAB0002D4B1B68002B05D078462C4B1B68002B68
:10FAC0000ED098476B691B021B0C294A934209D040
:10FAD0001B263100244803F0D5FF002804D0F8BDD0
:10FAE00000DEEFE71926F4E71F4B1C682B88237014
:10FAF0001B0A6370A01C1022A9680EF00BFAAB89D8
:10FB00001B051B0DA3741B0A0F210B40E27C8A43CB
:10FB10001343102293430F321340E374EB7B23759E
:10FB20002B7C6375687C07231840A17D0727B943A8
:10FB30000143A175A97C0A40D200A17D0B4013436B
:10FB4000A375EA7C2B7D1B021343E3751B0A237606
:10FB50006B691B021B0C63761B0AA376054A3100F6
:10FB60000548FFF765FEBAE72C2B00200C3000207B
:10FB7000FFFF0000198000001A800000F0B5C646A3
:10FB800000B584B00700039201930AAB1B88984626
:10FB90001A4B1B68002B05D07846194B1B68002BAD
:10FBA00010D0984701AB5C88164B9C420CD01625B0
:10FBB0002900124803F066FF002807D004B004BCF7
:10FBC0009046F0BD00DEEDE71425F1E70B4B1E6813
:10FBD00037703F0A7770B01C102203990EF09AF923
:10FBE00001AB1B88B3741B0AF3743475240A747553
:10FBF000054A29004046FFF71BFEDFE72C2B0020BB
:10FC00000C300020FFFF00001F80000010B586B000
:10FC1000041E25D01822002168460EF087F9012322
:10FC20006A461380023B53800E4B02930C230393CE
:10FC30000D4B9B78002B05D078460C4B1B68002B96
:10FC40000CD0984708496846FDF760F9002803D1B1
:10FC5000054B01229A705C6006B010BD00DEF1E732
:10FC60000E20F9E7B4E60200242B00200C3000201F
:10FC700030B583B005000C000023019301A8FFF705
:10FC8000C5FD002830D1224B9C423DD09D423DD045
:10FC9000204B1A881E4B9A4229D06B46991C01238F
:10FCA0005B420B801B4B1888FDF70EFA0190002871
:10FCB0001BD1184B18882100FDF7DAF901900028B4
:10FCC00013D1144B18882900FDF75CFA0190002825
:10FCD00016D06B4659880E4B994203D00D4B1888AD
:10FCE000FDF7C6F9019800E0019803B030BD7846F1
:10FCF000094B1B68002B01D09847CEE700DECCE70C
:10FD0000FCF740FC0198F0E71020EEE70720ECE755
:10FD1000FFFF0000242B00200C30002010B582B023
:10FD200004000023019301A8FFF770FD002802D012
:10FD3000019802B010BD054B18882100FDF7E6F9C7
:10FD400001900028F4D1FCF71DFCF1E7242B0020E2
:10FD500000B583B00023019301A8FFF757FD0028E9
:10FD60001AD1104B1B68002B05D078460E4B1B6830
:10FD7000002B14D0984701210A4803F083FE01901C
:10FD800000280AD1074B1B6800221A700232012199
:10FD90000648FFF74DFD00E0019803B000BD00DE0E
:10FDA000E9E7C0462C2B00200C3000200880000022
:10FDB00070B582B004000D0016000023019301A865
:10FDC000FFF724FD00282ED1002E2FD01D4B1B68DD
:10FDD000002B05D078461C4B1B68002B2FD0984772
:10FDE0001321184803F04EFE019000281CD1154B3A
:10FDF00018680470240A0F231C4042780F218A439C
:10FE000029400901144323400B4343702D09857099
:10FE10000330102231000EF07DF80C4A132100202F
:10FE2000FFF706FD00E0019802B070BD7846064B72
:10FE30001B68002B01D09847C8E700DEC6E700DE4C
:10FE4000CEE7C0462C2B00200C30002003800000A1
:10FE500010B582B004000023019301A8FFF7D6FC7F
:10FE6000002808D1002C0DD02379022B06D02000C9
:10FE7000FFF70CFD00E0019802B010BD2000FFF775
:10FE800015FEF9E70E20F7E710B588B004000491DD
:10FE9000059203930023079307A8FFF7B7FC0028F8
:10FEA0000DD104AB1B78022B0BD00A4B0093039BA4
:10FEB0000499059A2000FFF74FFD08B010BD079880
:10FEC000FBE7054B0093039B0499059A2000FFF77D
:10FED00055FEF2E71B8000002080000010B582B0C4
:10FEE0000192024BFFF77CFD02B010BD3D80000087
:10FEF00010B50378012B11D0002B02D0022B06D0B5
:10FF000010BD4368002BFBD080689847F8E7436832
:10FF1000002BF5D0C16880689847F1E74368002B53
:10FF2000EED080689847EBE78021C90280235B0010
:10FF3000014AD1507047C04600E100E010B584B0DE
:10FF4000002404E0A300144A9B5898470134134B43
:10FF50001B689C4218D262099200114B9B181F2209
:10FF600022401968D140C907F0D5EFF3108172B66D
:10FF7000012090401A6882431A600029E2D162B6DB
:10FF8000E0E76846FFF7B4FF6946064800F0DEF98F
:10FF90000028F6D004B010BD4C2C0020482C0020C6
:10FFA0005C2C0020302B002010B50100054800F02B
:10FFB0009BF9041E02D00424200010BDFFF7B4FFFB
:10FFC000FAE7C046302B002010B5FFF7B7FF10BD91
:10FFD00010B50B480B4B036010234360836000F0A7
:10FFE00053F9094BC42080001A5808491140C02217
:10FFF00012040A431A508022D2021A6010BDC04671
:020000022000DC
:10000000302B0020442B002000E100E0FFFF00FF28
:1000100030B585B004000D00002809D001236A46E0
:100020001370019402956846FFF7BEFF05B030BD1E
:100030007846044B1B68002B01D09847EEE700DEA2
:10004000ECE7C0460C30002030B585B004000D0050
:10005000002809D000236A4613700194029568466F
:10006000FFF7A2FF05B030BD7846044B1B68002B9C
:1000700001D09847EEE700DEECE7C0460C300020E8
:1000800010B5EFF3108472B60C490A68531C0B606C
:10009000002A04D18020C002803209498850002BF8
:1000A00005D17846074B1B68002B04D09847002CDD
:1000B00000D162B610BD00DEF9E7C046442C002036
:1000C00000E100E00C30002010B5EFF3108472B6B0
:1000D0000C4B1B68002B05D178460B4B1B68002B83
:1000E0000ED09847074A1368013B1360002B03D1D9
:1000F0008022D202054B1A60002C00D162B610BDDE
:1001000000DEEFE7442C00200C30002000E100E08E
:1001100010B5041E17D0114B1B68032B05D9784668
:100120000F4B1B68002B17D09847EFF3108372B664
:100130000A4A1068411C116081000A4A8C50002B49
:1001400000D162B610BD7846054B1B68002B01D06C
:100150009847E0E700DEDEE700DEE6E7482C002017
:100160000C3000204C2C002070B505000F4B1B6894
:10017000834205D878460E4B1B68002B14D0984755
:10018000EFF3108472B66A0992000A4B9B181F2085
:1001900028400122824019680A431A60FFF7C4FE12
:1001A000002C00D162B670BD00DEE9E7482C0020CB
:1001B0000C3000205C2C002070B5051E04D00B4BC9
:1001C0001C68002C0ED10FE07846094B1B68002BF1
:1001D00001D09847F3E700DEF1E7231F1B682800F2
:1001E00098472468002CF8D170BDC046602C0020D0
:1001F0000C30002070B5061E0ED0351D002D14D019
:100200001F4B1B689D4219D01D4B1C68002C1FD131
:100210001D600023736029E078461A4B1B68002B91
:1002200001D09847E9E700DEE7E77846154B1B6801
:10023000002B01D09847E3E700DEE1E77846114B59
:100240001B68002B01D09847DEE700DEDCE71C00CE
:100250002368002B01D0A542F9D1002C07D0002D36
:1002600005D0A54202D023687360256070BD784632
:10027000044B1B68002B01D09847F2E700DEF0E743
:10028000602C00200C30002010B5041E1CD06368C8
:10029000002B05D02368002B02D0A368002B05D1CA
:1002A0007846104B1B68002B17D09847A3685A1E3E
:1002B0001A4205D078460B4B1B68002B0FD098478D
:1002C0000023E360236110BD7846064B1B68002BBA
:1002D00001D09847DBE700DED9E700DEE6E700DE85
:1002E000EEE7C0460C30002070B5041E26D0002971
:1002F00026D08368002B02D10925280070BDEFF3BA
:10030000108572B6806823691A18E668B24210D068
:10031000013830406368584323689C4660446268F3
:100320000DF0F8FDE3680133E360002D0CD162B6F7
:10033000E3E7002D06D162B60435DEE70E25DCE7E3
:100340000E25DAE70425D8E70025D6E770B50400C6
:100350000800002C24D0A368002B02D10925280016
:1003600070BDEFF3108572B62369E268934212D034
:100370006268A16801391940514323689C46614471
:10038000002801D00DF0C6FD236901332361002D43
:100390000AD162B6E3E7002D04D162B60535DEE787
:1003A0000E25DCE70525DAE70025D8E7C3680069F4
:1003B000181A7047F8B504000E001700002824D062
:1003C000002924D08368002B02D109252800F8BD1C
:1003D000EFF3108572B6FFF7E9FFB84204D8002D9D
:1003E00017D162B60535F1E72168626823699C463A
:1003F0006744A368013B1F405743C91930000DF003
:1004000089FD002D07D162B6E0E70E25DEE70E2557
:10041000DCE70525DAE70025D8E710B50022FFF76D
:10042000C9FF10BD0369C068181A43425841C0B2E1
:1004300070470000C3681A795979521A06498C46E8
:10044000624492028021C9008C4662449B18426932
:100450009B1A8068181A7047FFFF3F0070B50500AF
:100460000C00830705D078460F4B1B68002B12D079
:100470009847A30705D078460B4B1B68002B0CD080
:1004800098470023A208934209D29A005259013298
:1004900007D10133F6E700DEEBE700DEF1E70120EC
:1004A00070BD0020FCE7C0460C30002070B5050090
:1004B00000241BE0002000E00020002830D0537909
:1004C0009C4205D07846174B1B68002B23D09847D9
:1004D000EB689C46664433792A69934205D0784696
:1004E000104B1B68002B18D0984701342B699C4295
:1004F00015D2A602EB689A191378083BDBB2F62BEB
:10050000DAD85379FF2B04D01379FF2BD2D00120F6
:10051000D3E70020D1E700DEDAE700DEE5E70120DF
:1005200070BDC0460C30002070B504000579012D67
:1005300001D9002070BD06683000FFF77BFF002D59
:1005400008D1A3899B00834208DB7368002B03D189
:100550000020EFE70023F6E70120EBE70020E9E7C2
:10056000F0B5C64600B586B004000368DA681078B6
:100570008018137951795B1A52498C4663449B0267
:100580008021C90059185118E28901F0D3FC0700F5
:1005900022689668B50AAD028023DB009C4665445C
:1005A0000195A81BA3899B00984251D9F5182100F9
:1005B0000C31A2899200012302A8037003960591D1
:1005C000049200220100012001F0AEFE002806D0B6
:1005D00078463D4B1B68002B00D16BE09847012308
:1005E00002AA13700395394B059304230493384AE8
:1005F00002A9012001F098FE002805D07846324B70
:100600001B68002B58D09847002F1BD022683B88CE
:100610009B0051688C4663445360012302AA137007
:1006200003972C4B059304230493294A02A9012024
:1006300001F07AFE002805D07846234B1B68002B7A
:100640003CD09847A660002006B004BC9046F0BDA0
:10065000D268944611795279891A1A4A90464144CF
:1006600089028022D2008A1862440199914227D0DF
:1006700098421AD0012302AA13700396164B0593D1
:1006800004230493002202A9012001F04DFE00285A
:1006900005D078460C4B1B68002B09D098472E7864
:1006A000AE19A589AD00751981E72B78ED187EE7A5
:1006B00000DEF4E700DE92E700DEA5E700DEC1E73A
:1006C0000120C1E7FFFF3F000C30002030E70200AF
:1006D000862D002028E702002CE7020010B584B028
:1006E00004000368DA6810788018137951795B1A6E
:1006F00019498C4663449B028021C900591851183E
:10070000E28901F017FC002821D0A060226803884C
:100710009B0051688C466344536001236A46137002
:1007200001900E4B0393042302930D4A6946012066
:1007300001F0FAFD00280DD078460A4B1B68002B0B
:1007400002D09847002003E000DE002000E00220F5
:1007500004B010BD0020FBE7FFFF3F0028E70200C8
:10076000862D00200C30002070B584B00500036891
:10077000DB68467BB6029E1908213000FFF76EFE4B
:10078000002814D1002401E000DE0134072C0ED82B
:10079000335D2A000832125D9342F6D0FF2BF4D06D
:1007A0007846104B1B68002BEED09847EDE70835D4
:1007B00001236A46137001960395073302930A4A90
:1007C0006946012001F0B0FD002805D07846054BB0
:1007D0001B68002B03D09847002004B070BD00DEDA
:1007E000FAE7C0460C300020862D002000B585B009
:1007F0000368DA681B699B02022168460170019256
:100800000293094A6946012001F08EFD002805D0B7
:100810007846064B1B68002B03D09847002005B094
:1008200000BD00DEFAE7C046862D00200C30002017
:1008300010B5828992000379012B0FD0002B03D0D1
:10084000022B11D0012008E0836801000C31180050
:100850000DF03CFB43425841C0B210BD836858883C
:1008600043425841C0B2F8E70368DB68427B92021A
:100870009B1801000831082218000DF027FB4342A5
:100880005841C0B2E9E7000070B501000E4803F01E
:100890002DF80E4B5D6809E0002D05D078460C4B15
:1008A0001B68002B0DD09847A5420CD0074806F0D6
:1008B00047FA041EF0D000230360C068A36898477D
:1008C000F2E700DEF0E770BD642C0020782D0020F8
:1008D0000C300020F0B5C64600B504000D0016002F
:1008E000002904D1FFF7A4FF002800D10335002D13
:1008F00001D026000C3627682379012B58D0002B15
:1009000019D0022B00D15BE0042B00D16CE0414BED
:100910009C4203D30533FF339C4206D978463E4BB5
:100920001B68002B00D172E09847201FFFF7ACFF37
:1009300004BC9046F0BD002D07D0BB69002BE6D06B
:100940002A00310038009847E1E7A36898461B88E1
:10095000002B05D17846304B1B68002B1AD09847E6
:1009600043461B889B0043449A0A9202934213D049
:1009700042465188FE22D20191420DD0BB605A8876
:10098000264B9A42D9D07846234B1B68002B0DD0BA
:100990009847D2E700DEE3E743469B0A9B028022AA
:1009A000D200944663441A789B18E7E700DEC4E758
:1009B000FB69002BABD0E1892A0038009847A6E7F5
:1009C0003B78012B05D07846134B1B68002B09D0D0
:1009D0009847627B237B013B9A4200D097E7022332
:1009E0003B7094E700DEF4E7002D05D078460A4B13
:1009F0001B68002B09D0984700233B703B6A002BF3
:100A000000D184E73800984781E700DEF4E700DE94
:100A10008BE7C046702C00200C300020FF7F0000C8
:100A200000B583B00023019382B201A9054802F00A
:100A30003DFE002803D1019B181D03B000BD00201E
:100A4000FBE7C046642C002070B5040000254EE092
:100A50001020FFF7E5FF061E00D172E002230371AC
:100A600006330372043B43720C33C37283724573C3
:100A7000237C037301235B42C3810460324B9842A1
:100A800003D30533FF33984205D978462F4B1B68B3
:100A9000002B06D09847311F0A882D4802F04EFEE1
:100AA00024E000DEF7E7002300E00023002B05D15F
:100AB0007846264B1B68002B37D09847E3689B1974
:100AC0005B799D4205D07846204B1B68002B2ED0C9
