:020000021000EC
:10B0000000800020FDB00100C1B0010079180200ED
:10B010000000000000000000000000000000000030
:10B02000000000000000000000000000C5B00100AA
:10B030000000000000000000C7B00100C9B001001E
:10B04000CBB00100CDB00100CFB00100D1B0010004
:10B05000D3B001000000000069170200D7B0010062
:10B06000D9B00100DBB00100DDB00100DFB00100AC
:10B07000E1B00100E3B00100E5B00100E7B001007C
:10B08000E9B00100EBB00100DD190200EFB00100F2
:10B09000F1B00100F3B00100C5180200F7B00100E3
:10B0A000F9B00100FBB0010000000000000000004A
:10B0B0000000000000000000000000000000000090
:10B0C000FEE7FEE7FEE7FEE7FEE7FEE7FEE7FEE758
:10B0D000FEE7FEE7FEE7FEE7FEE7FEE7FEE7FEE748
:10B0E000FEE7FEE7FEE7FEE7FEE7FEE7FEE7FEE738
:10B0F000FEE7FEE7FEE7FEE7FEE7FEE7032107487F
:10B1000002680A430260064802680A430260054872
:10B11000854611F07FFC07E07047000024050040E1
:10B120005405004000800020354936480A1A02D0F4
:10B13000072291438D46344934480A1A06D0072223
:10B14000914381F30988022282F3148830483149FF
:10B15000314A00F043F831483149324A00F03EF8B4
:10B1600031483249324A00F039F832483249334ADC
:10B1700000F034F832483349334A00F02FF83348AE
:10B180003349344A00F02AF833483449344A00F04D
:10B1900025F834483449002200F02BF8334834496C
:10B1A000002200F026F833483349091A082903DB46
:10B1B00000220260043001601F482049884205D007
:10B1C0000268043003B4904703BCF7E700208646CA
:10B1D000EC4600200021294A9047FEE7884207D02C
:10B1E000521A05D0037801300B700131013AF9D1C0
:10B1F0007047884202D002700130FAE770470000C1
:10B2000000800020007C00200080002000800020C2
:10B21000741A0300D82200209823002080B2010075
:10B2200080B20100F0FE0200741A0300D822002050
:10B23000D8220020F0FE0200F0FE0200F0FE020024
:10B24000F0FE0200F0FE0200F0FE0200F0FE02003E
:10B25000F0FE0200741A0300341B03009823002040
:10B260009823002098230020C84D0020C84D0020BE
:10B27000C84D0020C84D0020C8510020C1B30100B6
:10B2800000B583B0174B1B685B0403D5164B1B68D6
:10B29000032B11D81548164B4360164B83600021D1
:10B2A00006F0DAF9002812D1104B188801F052F993
:10B2B000002811D103B000BD0F4B104AD358104ADB
:10B2C000009254220F49042008F012FCE2E70E4AD3
:10B2D000572106F0A7FAE7E70B4A582106F0A2FA31
:10B2E000E8E7C0463423002030230020C823002094
:10B2F00061B301000DB301000405000000B000407F
:10B300007CFF020073FF02000CFF020010B582B048
:10B310000C000D4B1B685B0403D50C4B1B68032B07
:10B3200006D82100152006F0CBF9200002B010BD90
:10B33000074B084AD3580191074A00926C220749EB
:10B34000042008F0D5FBECE7342300203023002054
:10B350000405000000B000409CFF020073FF0200E3
:10B3600010B5152006F09EF910BD000000B583B0A1
:10B370000D4B1B685B0403D50C4B1B68032B07D8D4
:10B380000422C8218020800306F0AEF903B000BD7E
:10B39000074B084AD358084A00925D220749042007
:10B3A00008F0A6FBECE7C046342300203023002041
:10B3B0000405000000B00040F0FE020073FF020030
:10B3C00000B583B01B4A0521C020C00108F072FB04
:10B3D000194B1B685B040DD5184B1B68032B09D94F
:10B3E000174B184AD358184A009274221749042060
:10B3F00008F07EFB06F0A4F915480123037601212D
:10B400004176002181760377124AC262124A0260B5
:10B41000124A426003730633C37303F0B1FF00287E
:10B4200002D109F0ABFCFCE70D4A882106F0FAF9DD
:10B43000F7E7C046893A0200342300203023002079
:10B440000405000000B00040B4FF020073FF0200DA
:10B4500098230020E4FF02006DB3010081B20100D7
:10B460000CFF020010B50C4B99420AD00B4A430066
:10B470001C1861005118C9786300D2180131D170CD
:10B4800010BD064A43001C186100511889786300FA
:10B49000D21801319170F3E7FFFF0000D4230020A0
:10B4A00030B583B00191184943001D186C000C1988
:10B4B000A4786D004919CB78E318002B01DD002337
:10B4C00003E000201EE001339BB2012B19D8342485
:10B4D0005C430E49091989898842F4D121000B4C3B
:10B4E0000C5B01A909888C42EDD134215943074DE9
:10B4F0006D186C8801A949888C42E4D11380012021
:10B5000000E0002003B030BDD42300200C24002034
:10B5100082B00023009302783F33110099430B005F
:10B52000402912D0C9B240290DD9D9B280291AD0E8
:10B53000C02910D16B461A804278120283781343D7
:10B540006A46538007E0002B05D16B461A80012321
:10B550005B426A465380009B1A0C12041804000CCC
:10B56000104302B07047120243781A436B461A80A8
:10B5700001235B426A465380EDE7000082B00190F0
:10B58000000C0C4B984207D001AB1B880B70030AD0
:10B590004B70887002B0704701AB1B88FF22180007
:10B5A0009043002803DD1A0A0A704B70F2E70B7013
:10B5B000F0E7C046FFFF000082B00190030C144A80
:10B5C000934209D001AB18883F239843C0384342C7
:10B5D0005841C0B202B0704701AB1888FF23020087
:10B5E0009A43002A08DD800B80030A4B9C46604486
:10B5F00043425841C0B2EDE77F2302009A4305D190
:10B600007F2801D00120E5E70020E3E70020E1E703
:10B61000FFFF00000080FFFF70B506000D00002452
:10B62000AC4207D2E300F058FFF7C6FF002802D073
:10B630000134F5E7012070BD30B583B001910021E0
:10B6400000E00131038D994210D2CB00446AA44638
:10B6500063441D8801AC2488A542F2D15C8801AB0B
:10B660005B889C42EDD11160012000E0002003B016
:10B6700030BD0000F8B506000D0017001C1E1AD0E2
:10B680002A897C23FF339A421ED8012E24D9002315
:10B69000002B2DD034227243204B9B189B89002B0A
:10B6A00026D1002F27D02868FFF786FF002832D048
:10B6B000002323600BE07846194B1B68002B01D058
:10B6C0009847DDE700DEDBE7733BFF3B2360206844
:10B6D00043425841C0B2F8BD342272430F4B9B180D
:10B6E00030331B78DB0701D40023D1E70123CFE7F8
:10B6F00005232360EBE734227243084B9B189A889A
:10B70000084B9A4207D034237343044EF618F2884C
:10B71000044B9A42C7D107232360D8E70C240020AA
:10B72000B42E0020FFFF000010B57846034B1B68C5
:10B73000002B01D0984710BD00DEFCE7B42E00209E
:10B7400010B5804710BD000030B543881B051B0DA8
:10B7500017D11D000C49DB005A5C012422435A54C6
:10B760000023002B01D0012030BD9A0082185468BC
:10B77000E4436A00D218920003498A1854600133E6
:10B78000EFE70020F0E7C0467424002043881B0543
:10B790001B0D07D181885A00D3185A00024BD15291
:10B7A000012070470020FCE7D4230020F0B583B0CF
:10B7B0000E00170001AB124A1A80588000250024A1
:10B7C00001E0002C0BD0220001A90E4807F0E8F997
:10B7D000041EF6D0B84700280CD00135F1E7B54279
:10B7E0000ADD7846084B1B68002B01D0984703E020
:10B7F00000DE01E001256D42280003B0F0BDC04627
:10B8000000F0FFFFE4230020B42E002070B50400F8
:10B81000011D40880005000D012801D9002070BDE0
:10B82000238A002B26D134224243144B9B18DB89F8
:10B83000002B09D1628A934201D00020EFE7D200A9
:10B840000F4BD35CDB0717D5638A002B05D10C4D5A
:10B85000DB005A5D042632435A55342343430748DC
:10B86000C018142214F026FBE188208AFFF7FAFDA5
:10B870000120D4E70020D2E70020D0E70C240020EC
:10B880007424002010B50122054B1A70054807F0FA
:10B8900025F9002800D110BD034807F0D1FBFAE7D5
:10B8A00008240020E4230020E8220020F8B506F058
:10B8B000F1F8594B1B78002B1AD1584B1B78002BF1
:10B8C00001D0002515E006220121554807F026FA8F
:10B8D00000280BD00123C38002220281838007F05D
:10B8E0006BFA4E4B01221A70002502E0112500E090
:10B8F0000825002416E06200D218920049498A18EF
:10B900005168C9439A00821851600133002BF2D06C
:10B9100007F052FA434AE1008B5C022083438B54C8
:10B920000134A4B2002C3DD1002D16D1E3003D4AD4
:10B930009A5C03231340032BF2D1C02189012143D8
:10B940000422374807F0EAF9002801D02B00DDE790
:10B950001125E5E711250134A4B2002C50D1002DAA
:10B9600035D163001B195A002F4B9B185B799B073D
:10B97000F1D58021490121430222294807F0CEF95F
:10B980000028E7D0284F660032195300DB5B838024
:10B9900007F012FA32195300FB185A7902218A4330
:10B9A0005A71D8E70024D8E70430342363431F4E8C
:10B9B000F6181422310014F07DFA380007F0FCF973
:10B9C000303633780222934333700134A4B2012C11
:10B9D00018D8002D16D134226243144B9B183033F3
:10B9E0001A7803231340032BEFD1802189012143CF
:10B9F00014220B4807F092F9071ED5D11125E4E770
:10BA00000024E4E7002D02D106F068F8F8BD0848EC
:10BA100007F016FBF8E7C0460824002009240020A0
:10BA2000E423002074240020D42300200C240020D0
:10BA3000F822002010B5682200210F4814F046FAC1
:10BA4000062200210D4814F041FA082200210C487A
:10BA500014F03CFA00230CE034215943064A5218F2
:10BA600001214942D18091800120D081918101330F
:10BA70009BB2012BF0D910BD0C240020D423002050
:10BA800074240020F0B595B0041E61D02068FFF743
:10BA90003FFD139087B27F2F00D109E1854B1B68D2
:10BAA0009B0403D5844B1B68042B5AD8E06902F031
:10BAB00063FF050006002822002109A814F006FAF9
:10BAC000139B0993226808931B0C7C498B4254D02A
:10BAD0000323D3180A93A288139B07931B0C77495F
:10BAE0008B4250D00323D21A09AB1A81227A1A73DF
:10BAF0006289DA81E2680D92227C1A75618AD982A4
:10BB000061690F912021605C04315854DD84012A61
:10BB10003FD005A901235B420B802000103002F0CA
:10BB2000B7FE002806D07846654B1B68002B00D175
:10BB30007BE0984705AB188802F0A8FD002805D1E6
:10BB400078465F4B1B68002B71D09847002471E04A
:10BB500078465B4B1B68002B01D0984796E700DEC8
:10BB600094E7584B584AD3580197584A0092EF220D
:10BB70005749052007F0BCFF98E7FF2F01D90223A2
:10BB8000A7E70123A5E7FF2F01D90223ABE7012394
:10BB9000A9E705AD280002F0B5FC638A2C88A34212
:10BBA00000D285E005AA5288A218934200DB7FE00C
:10BBB0001C1BA4B2002500E00135012D00DD77E05B
:10BBC00034206843434B1818030030331B78DB07DD
:10BBD000F2D534226A4383899C42EDD113000833A5
:10BBE0003C4AD31872099200D3581F223240D340E6
:10BBF000DB07E1D506AA1399FFF71EFD0028DBD06D
:10BC0000A8B234236B43334FFF18FA6A09A9039093
:10BC100001F0B8FB069BDB007A6A944663445B68DC
:10BC2000FA6A09A903989847C6E700DE82E700DEB2
:10BC30008CE70134012C3BDC34206043254B181881
:10BC4000030030331B78DB07F3D5C289002AF0D11B
:10BC50003423634308331F49CB1871098900CB583B
:10BC60001F213140CB40DB07E3D5D2001A4B9A1895
:10BC7000043205AB19884B099B009B581F220A40D0
:10BC8000D340DB07D5D506AA1399FFF7D5FC0028CA
:10BC9000CFD0342262430F4B9B18069AD200596AC8
:10BCA0008C4662445568DA6AA0B209A9A847C0E781
:10BCB00015B0F0BD3423002030230020FFFF00002A
:10BCC000B42E00200405000000B000405400030022
:10BCD000490003000C2400207424002010B50378D0
:10BCE000002B00D010BD0430FFF7CCFEFAE70000B7
:10BCF00000B587B0104B0393104B0493104B059382
:10BD00000423029302F05EFB0E4B9C4660440090BD
:10BD1000012301930C4A137069460C4807F048F957
:10BD2000002804D10022084B1A7007B000BD084853
:10BD300007F086F9F9E7C046E1BD010029B7010027
:10BD400055BD010000FCFFFF08240020E423002073
:10BD5000D822002010B50023002B01D000230EE0D4
:10BD6000DA001C49525CD10704D5D90002200243F5
:10BD700018480A5401339BB2EEE701339BB2002B03
:10BD80000DD15A00D2185100134A8A5A002AF4D011
:10BD9000114841184A79022002434A71EDE7002315
:10BDA00001E001339BB2012B10D8342159430B4AD7
:10BDB000521830321278D107F3D53420584307494E
:10BDC00009183031022002430A70EAE7FFF790FFBA
:10BDD00010BDC04674240020D42300200C24002071
:10BDE00070B58EB005000E001400012A05D0022C9B
:10BDF0000CD0032C13D00EB070BD7846124B1B68CC
:10BE0000002B01D09847F2E700DEF0E778460E4BB2
:10BE10001B68002B01D09847EBE700DEE9E73022F2
:10BE2000002102A814F052F8192302AA1370173B3C
:10BE300013710496EB6806932B6901930793100026
:10BE400005F0C4FED7E7C046B42E0020F0B591B08F
:10BE500002AF04000E007A602C2308218C46BC44FB
:10BE600063443100FFF706FC002831D03389326883
:10BE7000FA60120C66498A422CD003229B180733C1
:10BE8000DB08DB006A46D31A9D4602AD2900306804
:10BE9000FFF774FB3368BB601B0C5D4A934220D0F4
:10BEA000032028183289716814F004F80C23082242
:10BEB000BA18D01802F026FBF98A34226243554B97
:10BEC0009B189B89994213D81020BD460FB0F0BD36
:10BED000786BFAE7BA89FF2A01D90222CEE701225C
:10BEE000CCE73B89FF2B01D90220DAE70120D8E714
:10BEF0007A68002A45D0137B3B76D3897B83D08C2C
:10BF000024230822BA18D11802F06AFF002805D0AD
:10BF10007846414B1B68002B31D09847342262434E
:10BF20003C4B9B181B7CFF2B56D02222BA18137057
:10BF3000BB8A34226243374CA418A2899B183B84E5
:10BF40007D62328933683B611B0C31498B4249D099
:10BF50000323D3183B85002110230822BA18D018D8
:10BF600008F0E2FE7863002807D12C4B1B689B0485
:10BF700003D52B4B1B68042B3BD8786BA5E700DE61
:10BF8000CCE734226243234B9B18D8881023082225
:10BF9000BA18D11802F0C2FB002805D078461E4B13
:10BFA0001B68002B14D0984734226243194B9B180E
:10BFB000988824230822BA18D11802F011FF00280B
:10BFC000ACD07846144B1B68002B03D09847A5E7EC
:10BFD00000DEE9E700DEA1E7124B1B782222BA1847
:10BFE0001370A5E73B8AFF2B01D90223B1E7012398
:10BFF000AFE70D4B0D4AD358328801920C4A00929C
:10C00000C72252000B49053007F072FDB5E7C04664
:10C01000FFFF00000C240020B42E00203423002059
:10C0200030230020082300200405000000B0004059
:10C030008800030049000300F8B500E020BF07F0C6
:10C0400025F80028FAD00022624B1A7001216248BC
:10C0500006F074FD002800D1B9E0C388012B05D09B
:10C060000024002C00D1ACE02000F8BD0389022B95
:10C0700001D00024F5E78388012B01D00024F0E7EC
:10C080000122544B1A70554A0121C0208001FFF74C
:10C090008DFB002801DB002211E00024E1E7504C79
:10C0A000510088184300E31800209870D870891850
:10C0B0004D00285359790230814359710132002AC9
:10C0C000EDDD484A012180204001FFF76FFBC543A9
:10C0D000ED0F01D10024C4E7434A022180208001F2
:10C0E000FFF764FB002865DD002635E000DE4FE049
:10C0F00003240CE000DE17E05B01514211403B4A93
:10C100004A43D20E3A498C5C1C1900E00324032CEC
:10C1100020D0A0B202F06EFA002805D07846354B48
:10C120001B68002BE6D09847611C0229EED84B090A
:10C130009A00D0591F240C400122A24052420240D2
:10C14000002AD9D10133002B02D19A00BA58F7E75F
:10C150000324DCE70136B6B2012E2CD83422724318
:10C16000254B9B189A89254B9A42F3D0342373436D
:10C17000214CE418E088214B984209D002F0DEF906
:10C18000002805D078461B4B1B68002BAED0984783
:10C19000E289012ADED0D200194B9B181F1D5A6874
:10C1A000002AA5D053421A40104B5343DB0E104ACD
:10C1B000D45CACE70025002D01D0012451E7002418
:10C1C0004FE70022034B1A70FFF75CFB4CE700249B
:10C1D0004AE7C04609240020E423002049B70100B3
:10C1E000D42300208DB701000DB8010031B57C07C4
:10C1F00068000300B42E00200C240020FFFF000084
:10C200007424002010B5FFF715FC0548054B0360AA
:10C2100008F087FE01F0FAF8FFF76AFD10BDC0468E
:10C22000DC230020DDBC0100F8B504000D0000286F
:10C2300000D195E08368002B00D193E0002900D164
:10C2400092E001235B420B80C368002B01D10920DF
:10C25000F8BD8088002801D00520F9E70A00216890
:10C26000FFF71EF900280AD02A8834235A433F4B8F
:10C270009B1830331B78DB0701D50F20E8E7E16816
:10C28000A068FFF7C9F9002801D10720E0E72B8853
:10C29000374A93422BD02988344B342251435918C2
:10C2A0002069C862298851435918A06848622988C2
:10C2B00051435918A0890885298860695143591844
:10C2C00088612888110041435918888229884A4387
:10C2D0009B1830331A7801210A431A700020B7E7FF
:10C2E0008BB22B80224A93420ED10420B0E700216A
:10C2F0000129F6D8342048431C4A121830321278EB
:10C30000D207EDD50131F3E7184E34277B43F318FC
:10C3100001225242DA802B887B43F3189A802B88C3
:10C32000A2887B43F3189A812B8822887B439A53F7
:10C330002B8862887B43F3185A802B887B43F31841
:10C340000C4A12781A746188A088FFF78BF82B8842
:10C350005F43F619303632780223134333709AE77D
:10C360000E2075E70E2073E70E2071E70C240020E5
:10C37000FFFF00000823002010B5002903D0002291
:10C38000FFF764FD10BD0E20FCE710B51300002977
:10C3900006D0002A06D00A001900FFF757FD10BD8D
:10C3A0000E20FCE70E20FAE7012804D90023002B19
:10C3B0000DD10520704734224243104B9B18303377
:10C3C0001B78DB0701D40023F1E70123EFE7022903
:10C3D00001D90720EEE734224243084B9B18DB8843
:10C3E000994209D005488018C18030300378022274
:10C3F000134303700020DDE70020DBE70C2400205E
:10C4000000291AD0012804D90023002B0DD10520C2
:10C410007047342242430A4B9B1830331B78DB07AA
:10C4200001D40023F1E70123EFE734234343044819
:10C43000C018C3880B800020EAE70E20E8E7C0465A
:10C440000C240020F0B5C64600B5012803D905200C
:10C4500004BC9046F0BD34244443254B1B193033B3
:10C460001B78DB0701D40520F2E734244443204B3A
:10C470001B199B69002B39D03F2A01D90720E7E718
:10C48000032901D90720E3E734244443184B1B193F
:10C490005B7C9B0893421ED0154B9846342358432F
:10C4A00043461C1893009C46637C03263340654634
:10C4B0002B430E40DBB20325AB4333436374103090
:10C4C0004044043000F076FD3034237802221343D8
:10C4D00023700020BCE734244443054B1B195B7CCC
:10C4E0009B079B0F8B42D7D10020B1E70620AFE717
:10C4F0000C24002010B5002924D0002A24D00128C3
:10C5000004D90023002B0DD1052010BD3424444351
:10C510000F4B1B1930331B78DB0701D40023F1E7E5
:10C520000123EFE734244443094B1B199B69002B7B
:10C530000CD0230010330648C018043000F07EFDF4
:10C540000020E2E70E20E0E70E20DEE70620DCE731
:10C550000C24002010B5012805D90023002B0ED192
:10C560000523180010BD34224243154B9B1830336D
:10C570001B78DB0701D40023F0E70123EEE7342228
:10C5800042430F4B9B18DB89012B01D00023E8E7C6
:10C590000023002B11D1DA000A49525CD10701D5E2
:10C5A0000133F6E7D90001242243064C0A55342210
:10C5B000424303488018C381D3E70423D1E7C04630
:10C5C0000C2400207424002010B5012804D9002375
:10C5D000002B0DD1052010BD342242431B4B9B186C
:10C5E00030331B78DB0701D40023F1E70123EFE7A9
:10C5F00034224243154B9B18DB89012B22D00229A0
:10C6000001D90720E7E7DB00114AD31804334A09B0
:10C6100092009B181C681F2211402200CA40D207BA
:10C6200012D401228A4014431C6034234343074838
:10C63000C018C3890649DB005A5C022002435A54E1
:10C640000020C8E70620C6E70020C4E70C2400202D
:10C650007424002010B5012804D90023002B0DD12B
:10C66000052010BD342242431B4B9B1830331B78EE
:10C67000DB0701D40023F1E70123EFE73422424333
:10C68000154B9B18DB89012B22D0022901D90720E9
:10C69000E7E7DB00114AD31804334A0992009B18DC
:10C6A0001C681F2211402200CA40D20712D5012265
:10C6B0008A4094431C60342343430748C018C3890D
:10C6C0000649DB005A5C022002435A540020C8E7A6
:10C6D0000620C6E70020C4E70C24002074240020B4
:10C6E00070B5002941D0002A41D0012804D9002387
:10C6F000002B0DD1052070BD342444431F4B1B1962
:10C7000030331B78DB0701D40023F1E70123EFE787
:10C710000500342343431948C018C389012B28D08E
:10C7200016880023138000E00133022B1BD8342429
:10C730006C4312480019C0890028F5D1C000104C84
:10C74000201804305C09A40020581F241C40E0403D
:10C75000C007E9D5108886420DD940000B521088D9
:10C7600001301080E0E70020C5E70E20C3E70E206F
:10C77000C1E70620BFE70920BDE7C0460C24002022
:10C780007424002010B5012804D90023002B0DD1FA
:10C79000052010BD34224243174B9B1830331B78C1
:10C7A000DB0701D40023F1E70123EFE7012901D9D9
:10C7B0000720EEE73423434308331A000E4B9B183F
:10C7C0004A0992009B181C681F2211402200CA408F
:10C7D000D2070ED401228A4014431C6034235843EC
:10C7E000054B18183030027802210A4302700020ED
:10C7F000CFE70020CDE7C0460C24002010B501286B
:10C8000004D90023002B0DD1052010BD3422424352
:10C81000174B9B1830331B78DB0701D40023F1E75B
:10C820000123EFE7012901D90720EEE73423434331
:10C8300008331A000E4B9B184A0992009B181C687B
:10C840001F2211402200CA40D2070ED501228A4081
:10C8500094431C6034235843054B18183030027839
:10C8600002210A4302700020CFE70020CDE7C04636
:10C870000C24002070B5002932D0002A32D00128C3
:10C8800004D90023002B0DD1052070BD342444436E
:10C89000164B1B1930331B78DB0701D40023F1E75B
:10C8A0000123EFE7168800231380002B01D000201E
:10C8B000EBE73424444308340C4D2C195D09AD00DA
:10C8C0002C591F251D40EC40E40707D51488A642CB
:10C8D0000AD964000B531488013414800133E4E74F
:10C8E0000E20D2E70E20D0E70920CEE70C2400204E
:10C8F000012804D90023002B0DD1052070473422D4
:10C900004243104B9B1830331B78DB0701D40023C4
:10C91000F1E70123EFE7012901D90720EEE73422EF
:10C920004243084B9B189B88994209D005488018C0
:10C930008180303003780222134303700020DDE74A
:10C940000020DBE70C24002000291AD0012804D99C
:10C950000023002B0DD105207047342242430A4B9F
:10C960009B1830331B78DB0701D40023F1E7012348
:10C97000EFE7342343430448C01883880B8000202A
:10C98000EAE70E20E8E7C0460C2400207F23184089
:10C99000014B18707047C04608230020014B1878DF
:10C9A0007047C04608230020012804D90023002B2B
:10C9B0000DD10520704734224243124B9B1830336F
:10C9C0001B78DB0701D40023F1E70123EFE70B001D
:10C9D000803BDBB27E2B01D80720EBE734224243B9
:10C9E000084B9B181B7C994209D00648801801749B
:10C9F000303003780222134303700020DAE700206E
:10CA0000D8E7C0460C24002000291AD0012804D9F8
:10CA10000023002B0DD105207047342242430A4BDE
:10CA20009B1830331B78DB0701D40023F1E7012387
:10CA3000EFE7342343430448C018037C0B70002005
:10CA4000EAE70E20E8E7C0460C24002000290BD0BE
:10CA5000002801D005207047430018184300034AFE
:10CA60009B5A0B800020F6E70E20F4E7D423002029
:10CA700000290CD0002801D0052070474300181869
:10CA80004200044B9B189B780B700020F5E70E20AA
:10CA9000F3E7C046D423002000290CD0002801D0A1
:10CAA00005207047430018184200044B9B18DB78A0
:10CAB0000B700020F5E70E20F3E7C046D4230020DA
:10CAC000002920D0012804D90023002B0DD10520F6
:10CAD0007047342242430D4B9B1830331B78DB07E1
:10CAE00001D40023F1E70123EFE7084B3422504340
:10CAF000C25A0A70120A4A701B185B888B701B0A94
:10CB0000CB700020E4E70E20E2E7C0460C240020B2
:10CB100030B583B00191002A29D0002802D0052029
:10CB200003B030BD01235B421380002301E00133D9
:10CB30009BB2012B19D834245C430E490919898909
:10CB40008842F4D121000B4C0C5B01A909888C426E
:10CB5000EDD134215943074D6D186C8801A94988DE
:10CB60008C42E4D113800020DAE70520D8E70E20BC
:10CB7000D6E7C0460C240020F0B5002927D0002AB3
:10CB800027D0002801D00520F0BD1788002313808E
:10CB9000002400E00134012C17D81688B7421AD9B6
:10CBA000342565430D4B5B1930331B78DB07F1D51A
:10CBB00034256543094B5B199B899842EAD176007D
:10CBC0008C53138801331380E4E70020DCE70E2048
:10CBD000DAE70E20D8E70920D6E7C0460C2400206B
:10CBE00000291AD0012804D90023002B0DD10520DB
:10CBF0007047342242430A4B9B1830331B78DB07C3
:10CC000001D40023F1E70123EFE734234343044831
:10CC1000C018C36A0B600020EAE70E20E8E7C046B0
:10CC20000C24002010B5040083789B079B0F012B78
:10CC300017D0002B0BD0022B1AD0032B1DD0784617
:10CC40001D4B1B68002B1DD09847002301E0837803
:10CC50009B081A4A1168C918A160194B1B6800206B
:10CC600015E08278920893009B1859000B00F0E7BA
:10CC700083789B0864214B43EBE783789B08114939
:10CC80004B43E6E700DE0023E3E71800DB68002BF8
:10CC900002D09A688A1AF8D5002804D0002B06D052
:10CCA000C460E36010BDE360054B1C60FAE7C4603C
:10CCB0000023E360F6E7C046B42E00209424002051
:10CCC0009C2400207017000070B5724B19688B7897
:10CCD0009B079B0F704A1278934200DCAFE08C6890
:10CCE0006E4B1B68E31A6E4C5C43012A2BD0002A62
:10CCF0000BD0022A20D0032A20D07846694B1B682B
:10CD0000002B1DD09847002100E06549200012F05B
:10CD1000B5FF04005F4B1B689B789B079B0F022BA2
:10CD20001DD03AD8012B62D10A2112F0BBFF002995
:10CD30000BD0002300205CE05B49E7E75B49E5E7B7
:10CD400000DE0021E2E75A49E0E708F095FF584B82
:10CD50009C4660440122504B1A70012349E04E4B1F
:10CD60001D78002D04D1642112F09CFF00290AD007
:10CD7000012D02D0002300203BE00A21200012F008
:10CD800091FF00294CD108F077FF474B9C46604447
:10CD90000222414B1A7001232BE03F4B1D78002DDE
:10CDA00004D1444912F07EFF00290DD0012D04D09A
:10CDB000022D13D0002300201BE0962189002000C3
:10CDC00012F070FF0029F3D108F056FF374B9C4654
:10CDD00060440322304B1A7001230AE03C212000FA
:10CDE00012F060FF0029EFD00023002001E00023B3
:10CDF0000020002B44D108F03FFF0400264B1B7895
:10CE0000012B1AD0002B0ED0022B0FD0032B0FD0EA
:10CE10007846244B1B68002B0CD09847002003E079
:10CE200000230020E5E71E48201829E01E48FBE704
:10CE30001E48F9E700DE0020F6E71D48F4E708F099
:10CE40001BFF0400134B1B689B789B079B0F012B58
:10CE50001ED0002B0BD0022B13D0032B13D07846FF
:10CE6000104B1B68002B10D09847002000E00C48A6
:10CE70002018084B1B689B789B079B0F064A137072
:10CE800070BD0948F4E70948F2E700DE0020EFE74B
:10CE90000748EDE79C2400209924002094240020DA
:10CEA000A0860100B42E0020809698000046C3237F
:10CEB00040420F007017000010B52C4B1B78002B60
:10CEC0000ED12B4B1B68002B48D0FFF7FDFE010055
:10CED000264B1B78002B39D0264809F0E3F910BD0A
:10CEE000244B5C6808F0C8FE241A234B1B78012BE6
:10CEF00022D0002B0BD0022B17D0032B17D0784653
:10CF00001E4B1B68002B14D09847002000E01C48E3
:10CF1000001B194B1B78002B10D11A4B98420DD9CE
:10CF2000194A136801331360CBE71848F0E7184833
:10CF3000EEE700DE0020EBE71648E9E7104912F0C3
:10CF40009DFE114B1A6880181860BAE70122074B42
:10CF50001A700848416009F023F9C0E7034B1B78B9
:10CF6000002BBCD0034809F065F9B8E798240020ED
:10CF70009C2400207C24002099240020B42E002032
:10CF8000A086010050C300009424002080969800E1
:10CF90000046C32340420F0010B50400FFF742FED5
:10CFA000034B1B689C4200D010BDFFF785FFFBE7D9
:10CFB0009C240020F8B504000F001500002805D0BF
:10CFC00004F068FD1B4B1B6800220AE078461A4BF0
:10CFD0001B68002B01D09847F2E700DEF0E71A004B
:10CFE000DB68002B01D0A342F9D103200740A178D0
:10CFF0000326B143AE00394308403043A070002BF4
:10D0000003D0002A0AD0D968D160002D0AD1002BA4
:10D0100001D0002A0AD004F061FDF8BD0549D868A6
:10D020000860F2E72000FFF7B7FFF4E7FFF744FFDF
:10D03000F1E7C0469C240020B42E002070B5040007
:10D040000E001500002807D0A3789B079B0F3370B4
:10D05000A3789B082B7070BD7846044B1B68002B8F
:10D0600001D09847F0E700DEEEE7C046B42E00207E
:10D0700030B501235B420B80002300E00133012B1C
:10D080000ED89C00E418E500094A52193C32127887
:10D09000002AF3D0064A5219128B8242EED10B803D
:10D0A0000888044B9C466044431E9841C0B230BD82
:10D0B000A02400200100FFFF30B583001818C20033
:10D0C0000F4B9B185D6B0F4B9C46654400230E482D
:10D0D00001E001339BB2012B10D89900C918CC0094
:10D0E000074A12193C321278002AF2D0044A121967
:10D0F000526B511BEDD518001500EAE730BDC04654
:10D10000A024002000879303FFFF000010B5040057
:10D1100082001218D100284B5B183C331B78002B7F
:10D1200005D17846254B1B68002B1FD098476823F4
:10D13000214AD35A002B05D17846204B1B68002B7F
:10D1400016D098471C49A2001219D300CB183C33C3
:10D1500000221A7068328B5A013B9BB28B52002B13
:10D1600025D06A23CB5A9C4204D010BD00DEDEE7F6
:10D1700000DEE7E72000FFF79FFF6A230E4AD05248
:10D180000F4B98420AD00C486A23C35A9A00D2180F
:10D19000D300C318596B09F085F8E6E77846074BCA
:10D1A0001B68002B01D09847EDE700DEEBE7024853
:10D1B00009F040F8D9E7C046A0240020B42E002092
:10D1C000FFFF0000F0B583B006006823694AD35A18
:10D1D000002B05D17846684B1B68002B0AD0984776
:10D1E000FA239B00F518012149426A23614AD15272
:10D1F00000248AE000DEF3E75E49A2001219D300A2
:10D20000CB181A003C320020107068300A5A013ADC
:10D210000A52188B01A9FFF7E3FC002805D07846D5
:10D22000554B1B68002B0BD09847A2001219D10058
:10D23000504B5B181F6B188B01220199B84763E0B4
:10D2400000DEF2E74B4FA2001119CB001900FB18CA
:10D25000188B183179180431FFF78EF86A23FC52C5
:10D2600000281CD1A2001219D100424B5B189A6B06
:10D27000596B8918596352009A633E4B621C9100A6
:10D280008918CA009A185068A2001219D1005B18B8
:10D290005B6BC31A38D5374B5B18586334E00428EE
:10D2A00006D07846344B1B68002B28D09847E4E71B
:10D2B0003049A3001819C2008A18536B2F498C46B5
:10D2C0006344536368232B4AD35A002B4ED06A23FE
:10D2D000D35A012B05D97846274B1B68002B41D028
:10D2E0009847244B6A22995A8A005218D1005B1839
:10D2F0005A6B931B38D41F4AD36003B0F0BD00DED5
:10D30000BBE76A231B4AD4520134012CDAD8A200AD
:10D310001219D100174B5B183C331B78002BF3D04C
:10D32000621C93009B18DA00124B9B185B685B1B16
:10D3300000D561E7A3001B19DA000E4B9B185B6B4D
:10D340005A1B00D57EE76A220A49895A0C4A914243
:10D35000D7D08A005218D100064A5218526B9B1A35
:10D36000D2D5CEE700DEBCE7B31AC4E70022014BFA
:10D37000DA60C2E7A0240020B42E0020409C000008
:10D38000FFFF000070B582B004000E0015000128F8
:10D3900005D978461B4B1B68002B18D0984704F022
:10D3A00079FB6B46991D2000FFF762FE00280AD02A
:10D3B0006B46D888421C93009B18DA00124BD25A55
:10D3C00033889A4205D004F089FB02B070BD00DEBC
:10D3D000E5E7421C93009B18DA000B4B9B185A8818
:10D3E00073889A42EFD1FFF791FE6B46DA8893007B
:10D3F0009B18DA00044B9B181B6B002229002000AD
:10D400009847E0E7B42E0020A024002010B5044C7B
:10D410006C220021200012F059FD024BA36010BDC8
:10D42000A0240020C5D101000E4B1B68DB070AD5E4
:10D430000D4B1B88984210D30B4A52889B18984278
:10D440000DDB002300E00023002B04D048800122E4
:10D450000A7000224A60180070470023F4E7012395
:10D46000F2E7C04614250020A425002010B50123B2
:10D470005B420B80002305E09A000E4C125B824257
:10D480000DD00133012B13D85A0992000A4C1259BE
:10D490001F241C40E240D207EED40B80F1E79C0031
:10D4A000044A1219D278002AEBD00B80012000E048
:10D4B000002010BD242500200C25002030B583B0AD
:10D4C00005000C006B46991DFFF7D0FF002804D023
:10D4D0006580032323700023636003B030BD000028
:10D4E00010B50B88002B01D1013300E0002301228D
:10D4F00052420A8007E09A00D21894000B4AA25ABE
:10D5000082420DD00133002B0DD15A099200084CF4
:10D5100012591F241C40E240D207ECD40B80F1E7E3
:10D520000B80012000E0002010BDC0460C2600202A
:10D530001C25002010B501235B420B80002304E072
:10D540000C880D4A944213D00133012B12D85A098A
:10D5500092000A4C12591F241C40E240D207EFD51A
:10D560009A00074C125B8242EED10B80012002E050
:10D570000B80E9E7002010BDFFFF00000C25002014
:10D580002425002010B501235B420B800023002BD3
:10D5900001D0002010BD5A0992000D4C12591F24D1
:10D5A0001C40E240D2070BD516225A43094C125BAD
:10D5B000824201D00133EAE701330B800120E9E721
:10D5C0000C88054A9442F5D15A1C0A80F2E7C046FD
:10D5D0004C25002054250020FFFF000010B501233A
:10D5E0005B420B800023002B01D0002010BD5A09A4
:10D5F00092000C4C12591F241C40E240D2070AD55D
:10D6000016225A43084C125B824201D00133EAE7EA
:10D610000B800120EAE70C88044A9442F6D10B8083
:10D62000F4E7C0462C25002034250020FFFF000031
:10D63000F0B5166800231360002B01D00120F0BD67
:10D640005C09A4000F4D64591F251D40EC40E40700
:10D6500006D516255D430C4C64196488844201D0BC
:10D660000133E9E71468A64209D0640016255D433A
:10D67000054FED5B0D53146801341460F0E7002092
:10D68000DDE7C0462C2500203425002070B50D684C
:10D6900000230B60002B01D0012070BD5A099200BD
:10D6A0000B4C12591F241C40E240D2070BD50A68CC
:10D6B00095420AD052005C245C43064EA45B84521F
:10D6C0000A6801320A600133E4E70020E5E7C0465A
:10D6D000A8250020B025002010B5041E05D00D4B54
:10D6E00012339C420AD20C4810BD78460B4B1B6883
:10D6F000002B01D09847F2E700DEF0E7054B12332C
:10D700009C4201D90448EFE7E01A5C2112F0B6FA16
:10D7100080B2E9E7B0250020FFFF0000B42E002012
:10D7200010B5041E05D00D4B3C339C420AD20C4868
:10D7300010BD78460B4B1B68002B01D09847F2E7D1
:10D7400000DEF0E7054B3C339C4201D90448EFE78B
:10D75000E01A5C2112F092FA80B2E9E7B0250020CD
:10D76000FFFF0000B42E002010B5041E0DD0154B95
:10D7700004339C4203D3134B04339C420ED9124B07
:10D7800004339C4210D2114810BD7846104B1B68E0
:10D79000002B01D09847EAE700DEE8E7E01A1621FF
:10D7A00012F06CFA80B2EFE7074B04339C4201D9C8
:10D7B0000648E9E7E01A162112F060FA013080B25B
:10D7C000E2E7C0463425002054250020FFFF00007A
:10D7D000B42E0020002811D00023002B0CD11622DB
:10D7E0005A430749525A904201D00133F5E71620B7
:10D7F0004343C818043000E0002070470020FCE7D5
:10D800005425002070B504000D0016001068002893
:10D8100003D0FFF7A9FF013002E0002000E0013053
:10D8200000281CD143099B000E4A9B581F2202402E
:10D83000D340DB07F3D5162242430B4B9B185B8882
:10D84000A342ECD116224243074B9B185B796B40F5
:10D850009B06E4D1044B98180430306001E00023AB
:10D86000336070BD2C250020342500200B4B8A002E
:10D87000D0529B180022DA709A7048098000084B39
:10D880001B181F3211401E3A8A4019681143196053
:10D89000044B1B1819680A431A607047242500209E
:10D8A0000C2500201025002010B50B0081B218882F
:10D8B000FFF7DCFF10BD00008000024BC35A0B8055
:10D8C0007047C0462425002010B5041E01D0A04793
:10D8D00010BD7846034B1B68002B01D09847F6E734
:10D8E00000DEF4E7B42E002070B504000E00150031
:10D8F000052805D978460D4B1B68002B13D0984797
:10D9000063010B4CE41829003000E3699847636811
:10D91000720992009B181F21314001228A40196828
:10D920000A431A6070BD00DEEAE7C046B42E00204C
:10D930009C000300F8B5CE46474680B58046894630
:10D9400011005C1E114F162565437E19B01D102273
:10D9500012F0B0FA00237371013333714A467280BA
:10D960004246EA5361098900094A52181F200440BF
:10D97000A340106818431060064A521811680B4300
:10D9800013600CBC90469946F8BDC0465425002053
:10D990004C2500205025002010B50A1D013083B20F
:10D9A0004C8808882100FFF7C5FF10BDF8B50D00B1
:10D9B0000B1D074F162444433E19B11D10221800B9
:10D9C00012F078FAE35B2B8073886B80F8BDC04659
:10D9D00054250020F8B50D000B1D074F16244443B5
:10D9E0003E19B11D1022180012F064FAE35B2B807F
:10D9F00073886B80F8BDC0463425002070B50D00DB
:10DA00008B1C064E5C24444331190231102218004D
:10DA100012F050FAA35B2B8070BDC046B0250020E9
:10DA200010B50C0083001B189A00044989180431B2
:10DA30001022200012F03EFA10BDC0460C26002035
:10DA400010B50422014812F035FA10BDA4250020BB
:10DA500010B508000422024912F02CFA10BDC0468D
:10DA6000A4250020F0B583B005000F0001921E0030
:10DA700016215943174C6418A01D1022019912F069
:10DA800019FA611D019807F069FA002805D0784657
:10DA9000114B1B68002B1AD098470E49162373436D
:10DAA000CA18002010715D525780710989000B4817
:10DAB00040181F231E400122B24003681343036035
:10DAC000074B5B1819680A431A6003B0F0BD00DE0B
:10DAD000E3E7C04634250020B42E00202C2500208A
:10DAE0003025002010B50A1D83B24C88088821001B
:10DAF000FFF7B8FF10BD0000F0B583B0060001913C
:10DB00001400294A5C2161430B003033D3180433DD
:10DB100052181364002802D10122244B1A705C2190
:10DB200061430B0010332049C9180231019807F0F6
:10DB300022FA002805D078461D4B1B68002B2ED0FA
:10DB400098475C2161430B0040331749C9180431E1
:10DB5000019807F025FA002805D07846144B1B6879
:10DB6000002B1ED09847104D5C276743E819023000
:10DB70001022019912F09EF97E53610989000D4B24
:10DB80005B181F2214401E3AA24018681043186008
:10DB9000094B5B1819680A431A6003B0F0BD00DE38
:10DBA000CFE700DEDFE7C046B0250020A02500203B
:10DBB000B42E0020A8250020AC25002010B50B00B5
:10DBC000023182B21888FFF797FF10BD70B50600CA
:10DBD0008C1EA3001B199A00124DAD18281D10228F
:10DBE000310012F067F92900300007F005FA00282B
:10DBF00005D078460C4B1B68002B11D09847600964
:10DC000080000A4B1B181F210C400122A2401968FA
:10DC100011431960064B1B1819680A431A6070BD3E
:10DC200000DEECE70C260020B42E00201C2500208E
:10DC30002025002010B50B00023081B21800FFF73C
:10DC4000C5FF10BDF8B505000E0003F023FF052D3C
:10DC500005D978461D4B1B68002B0AD098471C4BF2
:10DC60001C78002C07D1002C1ED003F037FF2000B9
:10DC7000F8BD00DEF3E76A01164B9B18598A891933
:10DC800089B25A69144805F049F8071E0AD06A019A
:10DC9000104B9B189B69011D30009847380005F018
:10DCA0008BF8E0E70024DEE76D010A4B5D19AB68F5
:10DCB000720992009B181F2216401E3AB240196842
:10DCC0000A431A60054805F0BBF9CEE7B42E0020E0
:10DCD0006A2500209C0003006C2500209025002070
:10DCE00010B50A2201210A4805F018F80400631E45
:10DCF0009C41E4B2002808D002234381013B838188
:10DD00008380C380038105F057F8200010BDC04612
:10DD10006C25002070B505000E0003F0BBFE052D3C
:10DD200005D97846174B1B68002B0AD09847164B2D
:10DD30001C78002C07D1002C12D003F0CFFE20005D
:10DD400070BD00DEF3E76A01104B9B18598A8919F0
:10DD500089B20F4805F064F844424441E4B2EAE76E
:10DD60006D010A4B5D19AB68720992009B181F2266
:10DD700016401E3AB24019680A431A60054805F079
:10DD80005FF9DAE7B42E00206A2500209C0003002A
:10DD90006C25002090250020F8B5DE4657464E46FB
:10DDA0004546E0B500239B460133984649E05101C2
:10DDB000611A01238B40013B910049590B4210D15C
:10DDC000013223001F335B099A4205D2013B9A427C
:10DDD000EDD001235B42EFE74346002B2DD1002716
:10DDE0000EE00023F9E739005846FFF793FF0028BB
:10DDF00022D001235246934032689A433260013761
:10DE0000A7421AD27B099B00EE181F223A40924685
:10DE100032685146CA40D207F1D54A465101134AE9
:10DE200052185268D3585246D340DB07DBD539002D
:10DE30005846FFF707FFDAE780465E460136F3B241
:10DE40009B465B46052B0BD84346002B08D0D94692
:10DE5000064B5A46520199188D68D4580022B0E7F3
:10DE60003CBC90469946A246AB46F8BD9C000300D8
:10DE700010B501280FD90023002B2AD08200304B87
:10DE80009B189B78002B57D12D4B9B18DB78002BD0
:10DE90000ED000202EE043099B002A4A9B581F22E7
:10DEA0000240D340DB0701D50123E5E70023E3E788
:10DEB00042099200234B9B181F21014001228A40F6
:10DEC00019689143196001000120FFF723FF00202A
:10DED00010E0821E92B2002A09D1510989001A4C21
:10DEE00009591F242240D140CA0700D50123002B25
:10DEF00001D1052010BD023883001B189A00134B76
:10DF00009B189B78002B19D1104B9B18DB78002BAA
:10DF100001D00020EEE7420992000B4B9B181F2115
:10DF2000014001228A4019689143196001000220D2
:10DF3000FFF7F0FE0020DDE70020DBE70020D9E757
:10DF4000242500200C2500201C2500200C26002064
:10DF500030B58FB005000C00012905D0022C0CD083
:10DF6000032C13D00FB030BD7846134B1B68002B29
:10DF700001D09847F2E700DEF0E778460E4B1B68C9
:10DF8000002B01D09847EBE700DEE9E730220021C3
:10DF900002A811F09BFF192302AA1370173B1371FB
:10DFA0000495064BDA6806921B690193079302A851
:10DFB00003F00CFED6E7C046B42E00206C250020EE
:10DFC00010B511000020FFF7C3FF10BD10B5080009
:10DFD0001100FFF7BDFF10BD10B50022054B1A70F0
:10DFE000054804F07BFD002800D110BD034805F072
:10DFF00027F8FAE76A2500206C2500200C23002072
:10E0000070B505000C00160001235B420B8007F081
:10E0100063F8307002281DD0032835D0012835D090
:10E02000002036E09A00D21891001A4A8A5A954286
:10E030000DD00133002B0FD15A09920016495258C6
:10E040001F211940CA40D207ECD42380F1E7238076
:10E0500001201EE00023EDE700201AE09A000F499E
:10E06000525A95420DD00133012B11D85A09920012
:10E070000B4952581F211940CA40D207EED42380C1
:10E08000F1E72380012004E00023EDE70023EBE724
:10E09000002070BD0C2600201C2500202425002017
:10E0A0000C25002070B582B006000C001500002978
:10E0B00041D06B46DA1D01A9FFF7A2FF002D13D155
:10E0C0006B4607331B78032B0ED01020002833D16A
:10E0D00001AB1B882380002D26D09B00174AD31844
:10E0E0009A7801329A7027E0012D10D0002817D1BC
:10E0F00001AB1988124B994214D03000FFF7B6FBE0
:10E1000001AB19880120FFF79DFD0020DEE76B467B
:10E1100007331B78032BE9D0012BE7D01020D5E77C
:10E120000020D3E70420D1E79B00044AD318DA7813
:10E130000132DA7000E00E2002B070BD242500200C
:10E14000FFFF000070B505000E0001235B420B804D
:10E150000024002C01D0002070BD63099B000F4AF1
:10E160009B581F222240D340DB0705D432880C4B3A
:10E170009A420DD134800BE0A3001B199A00094884
:10E18000801804301022290011F070FE002801D000
:10E190000134DEE734800130DEE7C0461C25002074
:10E1A000FFFF00000C260020F0B583B004000E0035
:10E1B0001500012252426B46DA80002838D000292F
:10E1C00038D06B469F1D3900FFF7BCFF3B889F1C72
:10E1D000BFB200280DD1194A934201D104202AE090
:10E1E00039002000FFF7F2FC6B46D9880220FFF7C8
:10E1F00029FD3780002D0DD06B46D888104A83004A
:10E200001C18A1000C005118897812190131917065
:10E21000002010E06B46D888094A83001C18A10032
:10E220000C005118C97812190131D170002002E098
:10E230000E2000E00E2003B0F0BDC046FFFF00003E
:10E240000C26002030B583B005000C00486800287B
:10E2500005D06B46991DFFF775FF002803D10122F9
:10E2600052426B46DA806B46991D2800FFF738F959
:10E27000002816D06B46DA8893009B189A000B4B47
:10E280009B18DB78002B0ED06580022323706B4631
:10E2900006331B889A00D2189100044B5B18043394
:10E2A000636003B030BD0020FBE7C0460C260020B1
:10E2B00070B500E020BF04F0E9FE0028FAD03C4B26
:10E2C0001878002800D170BD01213A4804F036FCCE
:10E2D000041E00D16AE04389022B02D18389012BFD
:10E2E00003D0FFF779FE0020EDE7C388012BF8D1BA
:10E2F0000389012BF5D18388012BF2D1002513E08E
:10E30000002B36D08022520193422AD1012000E016
:10E31000032069884201284B9B185B8AC91A2A1D71
:10E32000FFF7E2FA002D3CD02A000021214804F03A
:10E3300037FC051EF6D08442F4D04288130B1B0331
:10E34000802189018B4223D0DAD98022D2019342E5
:10E3500023D0A022D201934218D0C022920193422E
:10E36000D6D07846154B1B68002B13D09847002059
:10E37000CFE7022A13D07846104B1B68002B02D03F
:10E3800098470020C5E700DE0020C2E70520C0E76F
:10E390000220BEE700DE0020BBE70420B9E7002032
:10E3A000B7E7074B1B68012018408CE700208AE77D
:10E3B0006A2500206C2500209C000300B42E00205C
:10E3C0001425002010B506F095F9024B9C466044D8
:10E3D00010BDC04600FCFFFF10B586B0164B03937E
:10E3E000164B0493164B059300230293FFF7EAFFA5
:10E3F00000900123019303F04DFB6946114804F09E
:10E40000D7FD002809D10F4B1B78012B01D0012427
:10E4100004E0FFF765FC040000E0002403F05EFB6D
:10E42000002C04D00122084B1A7006B010BD07481A
:10E4300004F006FEF9E7C046CDDF0100C1DF0100B0
:10E4400079E401006C2500206A2500201C230020AF
:10E4500010B5054B054A9A60054ADA600022054B63
:10E460001A70FFF7B9FF10BD90250020C9D8010030
:10E4700099DD01006A25002010B5FFF7ADFF10BD42
:10E4800010B5041E05D01C4B1B68DB070AD50F20F6
:10E4900010BD7846194B1B68002B01D09847F2E756
:10E4A00000DEF0E720886388C318013B984201DD55
:10E4B0000B20EDE706F010FE012801D00B20E7E766
:10E4C00020886388C01880B2013880B206F004FE4C
:10E4D000012801D00B20DBE704222100084811F0BD
:10E4E000E9FC054A012311680B4313600021080071
:10E4F000FFF7A8FB0020CBE714250020B42E002056
:10E50000A425002010B5041E05D0042206492000D1
:10E5100011F0D0FC10BD7846044B1B68002B01D0D5
:10E520009847F2E700DEF0E7A4250020B42E002093
:10E5300010B50122FFF7B6FD10BD000010B501288F
:10E5400014D90022002A20D1831E9BB2002B09D1AE
:10E55000590989001B4C09591F242340D940CB0776
:10E5600000D50132002A0ED001230FE043099B00A1
:10E57000154A9B581F220240D340DB0701D50122D8
:10E58000E0E70022DEE7002300E00123002B01D1B9
:10E59000052010BD01280CD902380C4A83001C1834
:10E5A000A1000C00511889781219013191700020D6
:10E5B000EFE78000064B1818837801338370002042
:10E5C000E7E7C0461C2500200C2500200C26002073
:10E5D0002425002010B50122FFF7E6FD10BD10B57F
:10E5E0000022FFF75FFD10BD10B50022FFF7DCFD34
:10E5F00010BD000010B5012814D90022002A20D136
:10E60000831E9BB2002B09D1590989001B4C095963
:10E610001F242340D940CB0700D50132002A0ED059
:10E6200001230FE043099B00154A9B581F2202401B
:10E63000D340DB0701D50122E0E70022DEE700231B
:10E6400000E00123002B01D1052010BD01280CD9C9
:10E6500002380C4A83001C18A1000C005118C9781C
:10E6600012190131D1700020EFE78000064B181815
:10E67000C3780133C3700020E7E7C0461C250020A3
:10E680000C2500200C2600202425002010B50200B7
:10E69000012814D90021002920D1931E9BB2002B00
:10E6A00009D158098000194C00591F242340D84033
:10E6B000C30700D5013100290ED001230FE0430923
:10E6C0009B0013495B581F210140CB40DB0701D55C
:10E6D0000121E0E70021DEE7002300E00123181E0E
:10E6E0000BD0012A0AD9023A93009A189100094BDB
:10E6F0005B18D878431E9841C0B210BD92000648FE
:10E700008218D078431E9841C0B2F6E71C2500203D
:10E710000C2500200C2600202425002070B50C1E9E
:10E720003ED0012814D90022002A1ED1831E9BB29C
:10E73000002B09D1590989001A4D49591F252B4031
:10E74000D940CB0700D50122002A1AD1052070BD7F
:10E7500043099B00144A9B581F220240D340DB0709
:10E7600001D50122E0E70022DEE7104B8000C25A0B
:10E770006280C05A06F0B0FC207000236360002065
:10E78000E5E702380A4B82001518A9000D00C95AA6
:10E7900061805B1904336360022323700020D6E795
:10E7A0000E20D4E71C2500200C2500202425002065
:10E7B0000C26002010B582B00400012814D90022D4
:10E7C000002A20D1A31E9BB2002B09D15909890030
:10E7D0002B4809581F200340D940CB0700D50132F0
:10E7E000002A0ED001230FE043099B00254A9B58C5
:10E7F0001F220240D340DB0701D50122E0E70022BF
:10E80000DEE7002300E00123002B02D1052002B047
:10E8100010BD69462000FFF781FF00282ED16B460E
:10E820001B78032B03D0022B12D00F20EFE7A2009E
:10E83000154B9B18DB78002B01D10520E7E7110071
:10E84000114A5218013BD3702000FFF711FBDEE79D
:10E85000A21E93009B1899000C4B5B18DB78002BD1
:10E8600001D10520D3E791008A189100074A521878
:10E87000013BD3702000FFF7FBFAC8E70020C6E792
:10E880001C2500200C250020242500200C2600201B
:10E8900030B583B004000D0000282CD000292CD006
:10E8A000408806F019FC02280DD0032803D0012867
:10E8B00001D0102022E060882900FEF73BFE0028EE
:10E8C0001ED105301AE0012252426B46DA806068A0
:10E8D00000280CD06B46991DFFF734FC002808D0A7
:10E8E0006B4606331B8802332B80002006E00E2087
:10E8F00004E0052002E00E2000E00E2003B030BD51
:10E900000020FBE710B5040010480023002B04D0C2
:10E910000023002B00D10D4810BD5A0992000C496C
:10E9200052581F211940CA40D2070AD55C225A43C7
:10E930000849525A944201D00133E7E798B20123C3
:10E94000E7E7024A9042F7D198B2F5E7FFFF0000EF
:10E95000A8250020B025002000B583B06B46991D86
:10E96000FEF73CFE002802D1024803B000BD6B4612
:10E97000D888FAE7FFFF000010B5002802D0FEF7A4
:10E98000F3FE10BD0048FCE7FFFF0000002915D092
:10E99000002801D00520704743099B00084A9B5876
:10E9A0001F220240D340DB0701D40520F3E71623E2
:10E9B0005843044BC35A0B800020ECE70E20EAE7D3
:10E9C0002C2500203425002070B51400002937D0F4
:10E9D000002A37D01C4B984201D9072070BD1B4E2E
:10E9E0000023002B04D00023002B1AD00F20F5E7C2
:10E9F0005A099200164D52591F251D40EA40D20770
:10EA00000AD55C225A43134D525B904201D0013328
:10EA1000E7E79EB20123E7E70C4A9642F7D19EB2A0
:10EA2000F5E70A4B9E4201D10420D7E73200FFF7F9
:10EA300063F831000320FFF705F926800020CDE7B9
:10EA40000E20CBE70E20C9E7FF0F0000FFFF0000FC
:10EA5000A8250020B025002010B5040000291BD0F7
:10EA6000002801D0052010BD43099B000B4A9B588C
:10EA70001F220240D340DB0701D40520F3E75C23CB
:10EA80004343074A985A2200FFF736F82100032033
:10EA9000FFF7D8F80020E6E70E20E4E7A8250020DD
:10EAA000B025002010B5002807D0002907D0FEF7B8
:10EAB000EDFD002805D1093002E00E2000E00E2017
:10EAC00010BD0020FCE70000F0B583B006000F0089
:10EAD00014001D00002A37D0002B37D006F0FCFAB6
:10EAE000012801D0102032E0002F01D005202EE0B7
:10EAF0007B099B00174A9B581F223A40D340DB07F3
:10EB000001D4052023E06B46991D3000FEF73AFD45
:10EB1000002801D00F201AE06B4606331B880E4AEE
:10EB2000934201D1042012E0220039003000FEF7A8
:10EB300001FF6B469C1DD98801390520FFF782F83B
:10EB400023882B80002002E00E2000E00E2003B07E
:10EB5000F0BDC046A8250020FFFF000070B5411E93
:10EB600089B2012801D0052070BD4A0992000C4BE2
:10EB70009B181F220A401868D040C00701D4052006
:10EB8000F2E7162048430025064C0553012090402B
:10EB90001A6882431A600520FFF7BCF80020E3E7FB
:10EBA0004C25002054250020F0B583B007000D004F
:10EBB00014001E00002A35D0002B35D0002902D0C9
:10EBC000052003B0F0BD4B099B00184A9B581F223B
:10EBD0000A40D340DB0701D40520F2E7144B9842EA
:10EBE00001D90720EDE76B46991DFEF7F7FC0028D9
:10EBF00001D00F20E5E76B4606331B880D4A934290
:10EC000001D10420DDE7220029003800FEF72AFFA9
:10EC10006B469C1DD9880420FFF714F823883380A5
:10EC20000020CEE70E20CCE70E20CAE7A825002062
:10EC3000FF0F0000FFFF000070B5040000291FD087
:10EC4000002801D0052070BD43099B000D4A9B5848
:10EC50001F220240D340DB0701D40520F3E70A4A14
:10EC600016234343D0184588985A23000A002900E8
:10EC7000FEF7F8FE21000420FEF7E4FF0020E2E7A3
:10EC80000E20E0E72C2500203425002010B50028B8
:10EC900001D0052010BD420992000A4B9B1819684B
:10ECA0001F2202400C00D440E40701D40520F1E704
:10ECB00001249440A143196001000430FFF72AF8B1
:10ECC0000020E7E72C250020F8B5051E01D005201F
:10ECD000F8BD4609B6002C4B9E191F270740336824
:10ECE000FB40DB0701D40520F2E7002401E000DE51
:10ECF0000134002C1BD163099B00244A9B581F221E
:10ED00002240D340DB07F3D516226243204B9B18E9
:10ED10005B889D42ECD1A0B2FFF7B8FF0028E7D096
:10ED200078461C4B1B68002BE1D09847E0E7002495
:10ED3000002C0AD00123BB4032689A43326029007C
:10ED40000320FEF7E7FF0020C2E716236343124AC1
:10ED50009B5A002B06D0162262430F4B9B185B88F0
:10ED60009D4201D00134E3E7601C80B2FFF7F6FE5C
:10ED70000028F7D07846074B1B68002B01D0984736
:10ED8000F0E700DEEEE7C046A82500202C25002095
:10ED900034250020B42E00205425002010B5002971
:10EDA00016D0002A16D0002801D0052010BD430936
:10EDB0009B000A4C1B591F240440E340DB0701D48D
:10EDC0000520F3E7FEF734FC002805D10930EDE714
:10EDD0000E20EBE70E20E9E70020E7E7A82500205A
:10EDE00070B504000D00012801D9052070BD00296F
:10EDF00000D182E000283FD143099B00404A9B5844
:10EE00001F220240D340DB0701D40520EEE7162283
:10EE100042433C4B9B185B88002B05D078463A4B0D
:10EE20001B68002B24D0984716226243354B9B1851
:10EE300059884B099B00354A9B581F220A40D340F2
:10EE4000DB0705D47846304B1B68002B12D098475F
:10EE5000162363432B4CE418231D6B6062885C23EC
:10EE60005A4310322A4B9B1802332B600020BDE717
:10EE700000DED9E700DEEBE7013C63099B00254A91
:10EE80009B581F222240D340DB0701D40520ADE769
:10EE900016226243204B9B185B88002B05D07846D6
:10EEA000194B1B68002B24D09847162262431A4B3B
:10EEB0009B1859884B099B00144A9B581F220A40F3
:10EEC000D340DB0705D478460F4B1B68002B12D0CC
:10EED000984716236343104CE41862885C235A4316
:10EEE00010320B4B9B1802332B6004346C600020F3
:10EEF0007CE700DED9E700DEEBE70E2076E7C046D0
:10EF00002C25002034250020B42E0020A825002028
:10EF1000B02500204C2500205425002070B50400A9
:10EF20000D1E06D0286800280CD0FEF7D5FB013056
:10EF30000BE07846134B1B68002B01D09847F1E794
:10EF400000DEEFE7002000E00130002817D1430980
:10EF50009B000D4A9B581F220240D340DB07F3D58C
:10EF60005C224243094B9B189B7C63405B06EBD1C0
:10EF7000130010330548C0180230286001E0002358
:10EF80002B6070BDB42E0020A8250020B0250020E5
:10EF900070B504000E00151E0CD0002C13D02000FC
:10EFA000FEF79AFB0E4B984216D02A003100FEF76E
:10EFB00029FC70BD78460B4B1B68002B01D098478D
:10EFC000EBE700DEE9E77846064B1B68002B01D033
:10EFD0009847E4E700DEE2E700232B60E9E7C0465C
:10EFE000FFFF0000B42E002070B505000C1E04D0F9
:10EFF0002800FEF7EFFB206070BD7846034B1B68CE
:10F00000002B01D09847F3E700DEF1E7B42E002093
:10F0100070B505000E1E06D0306800280CD0FEF733
:10F020007FFB441C19E07846204B1B68002B01D065
:10F030009847F1E700DEEFE700240EE0012100E051
:10F0400001211B4B5C2044431A193C3211703834A7
:10F050001B190433336028E00134002C23D16309E9
:10F060009B00144A9B581F222240D340DB07F3D554
:10F07000002D0CD05C2161430B0050330C49C918A2
:10F0800004310822280010F0F1FE0028E4D10A4BD8
:10F090001B78002BD4D05C236343054A9B5A002B7A
:10F0A000CCD00021CDE70023336070BDB42E00200A
:10F0B000B0250020A8250020A025002070B5040060
:10F0C0000D0006F009F802280FD0032808D0012807
:10F0D00001D0002003E029002000FEF7A5F970BD53
:10F0E00029002000FEF7EAF9F9E729002000FFF7E0
:10F0F000A9F8F4E710DF7047EFF3108372B600E071
:10F1000030BF0028FCD1704710B582B004000C4B12
:10F110001B685B0403D50B4B1B68002B04D120003C
:10F12000FFF7EAFF02B010BD074B084AD358019021
:10F13000074A009270220749012004F0D9FCEEE74B
:10F1400034230020302300200405000000B00040DC
:10F15000C8010300B101030010B584B00C000D4BD1
:10F160001B685B0403D50C4B1B68002B04D12000EB
:10F17000FFF7C2FF04B010BD084B0949CB580392FA
:10F1800002940190074A009266220749012004F088
:10F19000AFFCECE7342300203023002004050000FE
:10F1A00000B00040E4010300B101030010B5040009
:10F1B000074908480AF040FC002800D010BD230091
:10F1C0001833034A034904480AF01CFCF6E7C0461A
:10F1D0002C2600200C2900204C26002010B5044BC2
:10F1E0001A68138D526A002102480AF029FC10BDEA
:10F1F000502900204C26002010B582B0040003786E
:10F20000082B17D00B2B27D0052B01D002B010BD37
:10F21000374B1B78002B0AD0364805F086FE364B5C
:10F220001A681368002BF1D090689847EEE7FFF753
:10F23000D5FFEBE7304B1B68D96A10222F480AF044
:10F2400015FC0028E2D078462D4B1B68002B01D01E
:10F250009847DBE700DED9E7C38A01A803800123D2
:10F260004380FFF70DF9002805D07846244B1B6832
:10F27000002B34D09847A08A6A46A168FFF7A4FB08
:10F28000002805D078461E4B1B68002B29D09847D4
:10F290006B461988E08A0233E268FFF715FC002804
:10F2A00005D07846164B1B68002B1CD09847227E51
:10F2B000D107C90F9207D20F206905F0BBFB6B463F
:10F2C000588802F00FF9002805D078460C4B1B68CF
:10F2D000002B0AD098470122054B1A7096E700DEF2
:10F2E000C9E700DED4E700DEE1E700DEF3E7C04671
:10F2F0002826002020260020502900204C2600200F
:10F30000B42E002000B583B00190002906D001A8DA
:10F31000FFF7F0FE002803D003B000BD1349F6E765
:10F32000C5239B00124AD258920D0323134002D0EA
:10F33000022B09D00123002B08D10E480028EBD165
:10F3400001220D4B1A70E7E70300F4E70B4B5B68F3
:10F35000002B04D18022D203054B1A60EEE7074A46
:10F3600011688023DB030B431360E7E759F10100C9
:10F3700000E100E0022000004C290020A429002028
:10F3800030B585B0041E5DD02F4B18602F4B1B7815
:10F39000002B05D10169C068FFF7B4FF051E0FD12E
:10F3A0000C22002101A810F091FDE368019363692C
:10F3B000002B08D0029301A805F034FC051E05D0EF
:10F3C000280005B030BD224B0293F4E705F084FC21
:10F3D000051EF5D1FFF73CF8FCF714FF02F058F8D2
:10F3E000051EEDD1184B1A685368002B01D09068A8
:10F3F0009847FEF75DFF00280CD10023154A1370D3
:10F40000002B0FD0104B1A681368002B0AD090689D
:10F410009847D5E7FCF710FE002801D00123EDE75F
:10F420000023EBE70C480D4B03600023436005F01D
:10F4300078FD2000FFF7BAFE051EC1D1FFF7CEFE12
:10F440000500BDE70E25BBE7502900204C29002010
:10F4500009F101002826002020260020F9F10100F2
:10F46000F0B5C64600B582B00E00150098460024DF
:10F47000002706E000DE01AB5A88114B9A4210D0FB
:10F480000134AC4216D26300F05A01A9FDF718FB13
:10F490000028F0D078460B4B1B68002BEAD0984729
:10F4A000E9E74346D819022201A910F003FD02370B
:10F4B000BFB2E5E7380002B004BC9046F0BDC046DC
:10F4C000FFFF0000B42E0020F0B5C64600B582B0A4
:10F4D000884616001F000024002515E000DE01AB61
:10F4E0005A88144B9A420ED0781902226B46991D05
:10F4F00010F0E0FCA81C80B23818022201A910F01C
:10F50000D9FC0435ADB20134B4420ED26300424698
:10F51000D05A01A9FDF7D4FA0028E0D07846064B6E
:10F520001B68002BDAD09847D9E7280002B004BC4A
:10F530009046F0BDFFFF0000B42E0020F0B5C64697
:10F5400000B586B00500152904D8092006B004BC12
:10F550009046F0BD00230E226A44138001A959226F
:10F560000A804B808B802033CB801F3B0B814F3A2E
:10F5700010F0A0FC00240A26002C01DD0020E5E7A5
:10F58000A7B2122169443800FDF772FA002805D0AD
:10F590007846354B1B68002B47D0984713216944A8
:10F5A0003800FDF779FA002805D078462E4B1B6805
:10F5B000002B3CD0984704AA9378D2789B18002B54
:10F5C00031DD6B46991C3800FDF740FA002805D064
:10F5D0007846254B1B68002B2BD098476B465A88E2
:10F5E00004AB1A800E226A440223138005A9380056
:10F5F000FDF7C2FA002805D078461B4B1B68002B8C
:10F6000019D09847A81904AB98460422190010F0A5
:10F6100051FC0436B6B243469B78002B0DD104ABA7
:10F62000DB78002B14D10134A6E700DEB6E700DE5C
:10F63000C1E700DED2E700DEE4E7AB190E226A4440
:10F64000128805A93800FFF70BFF3618B6B2E6E7B7
:10F65000AB190E226A44128805A93800FFF734FF5F
:10F660003618B6B2DFE7C046B42E002030B583B0FE
:10F67000040001AD2800FEF745FF2888A04202D90A
:10F68000044803B030BD201A80B20028F9D00148E8
:10F69000F7E7C046FFFF000030B585B008AC25880D
:10F6A00001AC228001225242628002932581220015
:10F6B000FCF76BFE05B030BDF0B587B002AFF86067
:10F6C000B96016007B603D8DEB1DDB08DB006C46EE
:10F6D000E41AA54602AC2A000021200010F0F6FB37
:10F6E0002670009523007A68B968F868FFF7D4FFA0
:10F6F000BD4605B0F0BD0000F0B5DE4657464E46AB
:10F700004546E0B58BB002AFB8600C006B46FB60BD
:10F710000B89062B0BD0042B09D0FB689D46BD46F8
:10F7200009B03CBC90469946A246AB46F0BD258840
:10F7300066683378707800021843FFF797FF664BCE
:10F740009D421BD0B178F3781B020B433B83317988
:10F7500073791B020B437B830E231022BA18D21835
:10F76000B969FDF7D5F9002811D0052300935B4B4B
:10F7700002222100B868FFF79FFFCEE7B278F37846
:10F780001B0213433B8301235B427B83E4E701239A
:10F790007B82F88B1133FA180233F918FDF76AF8F7
:10F7A000002805D078464E4B1B68002B0FD0984799
:10F7B0007B8A5B000833DB08DB006A46D31A9D4670
:10F7C00009256D446D086B009846002504E000DEB5
:10F7D000EEE700DE0135ADB2788A854210D26B00CB
:10F7E0004246D1181422BA18985AFFF7CFF80028C9
:10F7F000F0D078463A4B1B68002BEAD09847E9E7EF
:10F800002288354B9A4236D0EB4601F075FEC31D77
:10F8100099460E30C008C0006B461B1A9D4602ADCB
:10F8200000232B70327873781B02134309226A4439
:10F8300013701B0A53703B8B0B226A4413701B0A14
:10F8400053707B8B0D226A4413701B0A53700F2177
:10F8500069447A8A404601F058FE4B46FB809BB2D1
:10F8600000932B001F4A2100B868FFF715FFDD4603
:10F87000FB689D4653E7EB4601F03EFE431D99466B
:10F880000C30C008C0006B461B1A9D4602AB9A465E
:10F89000002352461370327873781B0213430922F7
:10F8A0006A4413701B0A53703B8B0B226A4413701B
:10F8B0001B0A53700D2169447A8A404601F025FEE7
:10F8C0004B46FB809BB200935346044A2100B86824
:10F8D000FFF7E2FEDD46CBE74B8000004C800000E6
:10F8E000B42E00204E80000000B585B00F236B447D
:10F8F0000A221A70093A0092024AFFF7CDFE05B0BB
:10F9000000BDC0464A80000030B585B00B89032B8E
:10F9100001D005B030BD4C6803AB00221A702578C9
:10F92000627812022A430D246C442270120A62701B
:10F930000222DA7002320092014AFFF7ADFEE8E7D8
:10F940004880000030B585B00B89022B01D005B08E
:10F9500030BD4C6803AB00221A7025786278120221
:10F960002A430D246C442270120A62700222DA705B
:10F9700002320092014AFFF78FFEE8E7488000005C
:10F9800010B584B003AB00241C700D346C4422709D
:10F99000120A627003220092024AFFF77DFE04B051
:10F9A00010BDC0464480000070B586B005000E0052
:10F9B00003AC09220021200010F088FA0A232370EA
:10F9C000013B00932300034A31002800FFF764FE47
:10F9D00006B070BD3C80000070B586B005000E001A
:10F9E00003AC09220021200010F070FA0A232370D2
:10F9F000013B00932300034A31002800FFF74CFE2F
:10FA000006B070BD3C800000F0B587B006000F0066
:10FA100003AC0A250A220021200010F057FA2570B5
:10FA200000952300062239003000FFF735FE07B0AD
:10FA3000F0BDF0B587B006000F0003AC0A250A221E
:10FA40000021200010F042FA2570009523000622C4
:10FA500039003000FFF720FE07B0F0BD70B586B06A
:10FA600004000D000BA90E78002003A908700D21D9
:10FA700069440A70120A4A700F226A4413701B0A02
:10FA8000537004220AA91130684410F013FA002EB2
:10FA900009D10923009303AB044A29002000FFF792
:10FAA000FBFD06B070BD0723F4E7C0461F800000D1
:10FAB00000B585B00B89012B01D005B000BD03ABAB
:10FAC00002221A70013A0092014AFFF7E5FDF4E7BD
:10FAD0001480000000B585B00B89002B01D005B063
:10FAE00000BD03AB02221A70013A0092014AFFF7EF
:10FAF000D3FDF4E71480000000B585B00B89012B1D
:10FB000001D005B000BD03AB02221A70013A009289
:10FB1000014AFFF7C1FDF4E71180000000B585B090
:10FB20000B89002B01D005B000BD03AB02221A7077
:10FB3000013A0092014AFFF7AFFDF4E7118000009F
:10FB400070B586B005000E00039205AC002323704B
:10FB5000032203A91520684410F0ACF90423009394
:10FB60002300034A31002800FFF796FD06B070BD60
:10FB700003800000F0B5C64600B586B002AF7860DD
:10FB80000C00E8460B89002B04D0BD4604B004BC31
:10FB90009046F0BD0133BB600733F9180433F81801
:10FBA000FEF780FF388901F0A7FC0500C31DDB08C4
:10FBB000DB006A46D31A9D4602AE3A8931000C2317
:10FBC000F81801F0A2FCABB200933300034A210005
:10FBD0007868FFF761FDC546D7E7C046438000005F
:10FBE00070B582B005000C004E680B89022B01D065
:10FBF00002B070BD33787078000218430005000D24
:10FC0000FEF780FEFFF760F800280AD0052811D122
:10FC1000032300930C4B042221002800FFF74CFD26
:10FC2000E6E73378727812021A4321002800FFF7C2
:10FC3000A7FEDDE703230093034B112221002800D8
:10FC4000FFF73AFDD4E7C0464480000070B584B0A9
:10FC500005000C004E680B89122B01D004B070BD5A
:10FC600033787078000218430005000D0A881A4B9B
:10FC70009A4212D0FEF746FE0E236B441880B11C48
:10FC8000FEF7EAFE00281DD0052810D00BD9072862
:10FC90000DD00F2814D106220AE0B11C0E226A44AE
:10FCA000FEF792FEEEE704280AD1052200E00422C6
:10FCB00003230093094B21002800FFF7FDFCCDE74B
:10FCC0001122F5E73378727812021A4321002800D6
:10FCD000FFF756FEC2E7C0464080000044800000A7
:10FCE000F0B589B005000F000E89082E03D0062E4E
:10FCF00001D009B0F0BD7C68062E3DD02279637931
:10FD00001B02134307AA1380A179E3791B020B435B
:10FD10005380002204AB1A70227863781B021343CD
:10FD200011226A4413701B0A5370A278E3781B02F5
:10FD3000134313226A4413701B0A5370211D0422BB
:10FD40001520684410F0B6F8237860780002184354
:10FD5000FFF78CFC0E226A440799FCF7D9FE0028B5
:10FD600016D0062E12D009230093274B0222390009
:10FD70002800FFF7A1FCBCE7227963791B0213433B
:10FD800007AA138001235B425380C2E70723EBE7F6
:10FD9000A378E078000218430005000DFEF7DCFDB3
:10FDA00001003A88194B9A420ED00E236B441888F2
:10FDB000FCF724FD05281DD007281FD0002809D0F6
:10FDC000112204AB1A700AE00E236B441888FCF76A
:10FDD000D9FCEFE7002204AB1A70FBF767FD062E93
:10FDE00010D00923009304AB074A39002800FFF71D
:10FDF00053FC7EE7022204AB1A70F0E7032204AB47
:10FE00001A70ECE70723EDE73E8000003D8000001C
:10FE1000F0B5CE46474680B587B002AF06000C006D
:10FE2000E8464D680B89042B06D0C546BD4605B093
:10FE30000CBC90469946F0BD2B78687800021843B8
:10FE4000FFF714FCAA78EB781B021343BB81012354
:10FE50005B42FB810B33FA18F968FCF759FE002866
:10FE600008D0052300932C4B022221003000FFF71D
:10FE700023FCDAE703233B8178890533FA1839003C
:10FE8000FCF72EFC052810D0062810D0002801D041
:10FE9000112200E00022002A0BD0052300931E4B04
:10FEA00021003000FFF708FCBFE70222F3E7082239
:10FEB000F1E73B895B000C33DB08DB006A46D31AB1
:10FEC0009D4602AB994600234A4613702A786B7808
:10FED0001B02134309226A4413701B0A5370AA7849
:10FEE000EB781B0213430B226A4413701B0A5370F6
:10FEF0000D2068443D896A0039000FF0DBFF6D007A
:10FF0000ABB205339BB200934B46034A210030004D
:10FF1000FFF7C2FBC54689E72A80000030B587B0ED
:10FF200004000D00002205AB1A8002A9C820400081
:10FF300005F0B0F8002805D07846194B1B68002B57
:10FF400025D09847039B002B23D1002205AB1A70C4
:10FF500002A99220FF3005F09DF8002805D07846D0
:10FF60000F4B1B68002B18D0984705AB0721039A4D
:10FF700011405A78072082430A435A7002220092A5
:10FF8000084A29002000FFF787FB07B030BD00DEDC
:10FF9000D8E7012205AB1A70DAE700DEE5E7C046D4
:10FFA000B42E00202880000070B584B005000C003D
:10FFB0004E680B89022B01D004B070BD0C220021C9
:10FFC00001A80FF083FF042301933378002B27D07F
:10FFD000012B0DD1029301A9C820400005F038F88B
:10FFE000002805D07846174B1B68002B16D0984781
:10FFF00073785B075B0F029301A99220FF3005F035
:020000022000DC
:1000000027F8002805D078460E4B1B68002B17D028
:10001000984721002800FFF781FFCDE700DEE7E7E2
:1000200001A9C820400005F013F80028E0D0784668
:10003000044B1B68002B01D09847D9E700DED7E7B7
:1000400000DEE6E7B42E002010B50B89002B00D0AF
:1000500010BDFFF763FFFBE7F0B5CE4600B588B0F3
:1000600003900D000C89162C05D0142C03D008B079
:1000700004BC9146F0BD6F682300143B5A425341C3
:10008000DEB2142C24D0BA7CFB7C1B02134307AADB
:100090001380387D7B7D1B02034353803B78787847
:1000A00000021843FFF7E2FA122202AB9C466244B8
:1000B0000799FCF72DFD002816D0142C12D0092327
:1000C0000093434B022229000398FFF7F5FACEE78D
:1000D000BA7CFB7C1B02134307AA138001235B42FB
:1000E0005380DBE70723EBE7B81C06A9FEF77CFA91
:1000F000002810D004280AD10522142C09D0092385
:100100000093334B29000398FFF7D6FAAFE711228B
:10011000F3E70723F4E7122302AA944663441888FE
:1001200006AB1988FCF750FA814600282AD006ABA6
:100130001888FEF73FFB002805D07846254B1B6842
:10014000002B0ED098474B46062B0CD0142C17D002
:10015000092300931E4B112229000398FFF7ACFAE4
:1001600085E700DEEFE7142C08D009230093184B35
:10017000082229000398FFF79FFA78E70133F5E793
:100180000723E6E706AB188804A9FEF7C7FA00289C
:1001900005D078460F4B1B68002B17D09847FBF70C
:1001A00085FB04AB5B8899463B787C7824021C4332
:1001B000019639001231042268460FF07BFE4B464F
:1001C000220029000398FFF749FC50E700DEE6E72C
:1001D0001F800000B42E002070B582B006006B4670
:1001E0009A1C0123138001A9FCF77AFA062835D05E
:1001F000002805D078461A4B1B68002B02D0984780
:10020000002406E000DEFBE700DE16E000DE01343D
:10021000A4B26B4602331B889C421CD225006300AB
:1002200001AA995A3000FCF715FA002805D0784643
:100230000B4B1B68002BE7D098476D0001ABE85AC9
:10024000FEF7B8FA0028E2D07846054B1B68002B71
:10025000DCD09847DBE7002002B070BD0820FBE748
:10026000B42E0020F0B5CE4600B588B003900D0046
:100270000C89162C05D0142C03D008B004BC914670
:10028000F0BD6F682300143B5A425341DEB2142C78
:1002900024D0BA7CFB7C1B02134307AA1380387D51
:1002A0007B7D1B02034353803B7878780002184320
:1002B000FFF7DCF9122202AB9C4662440799FCF777
:1002C00027FC002816D0142C12D0092300934E4B83
:1002D000022229000398FFF7EFF9CEE7BA7CFB7CF6
:1002E0001B02134307AA138001235B425380DBE701
:1002F0000723EBE7122302AA944663441888FFF70A
:100300006BFF00280CD0142C08D0092300933E4B1F
:10031000112229000398FFF7CFF9AEE70723F5E78D
:10032000B81C06A9FEF760F9002812D004280CD1E9
:100330000522142C0BD009230093334B290003987A
:10034000FFF7BAF9FBF7B2FA97E71122F1E70723B3
:10035000F2E7122302AA94466344188806AB198870
:10036000FCF732F9814600282AD006AB1888FEF740
:1003700021FA002805D07846244B1B68002B0ED0AC
:1003800098474B46062B0CD0142C17D0092300930A
:100390001D4B112229000398FFF78EF9D2E700DEEA
:1003A000EFE7142C08D009230093174B08222900EB
:1003B0000398FFF781F9C5E70133F5E70723E6E77F
:1003C00006AB188804A9FEF7A9F9002805D07846DD
:1003D0000E4B1B68002B15D0984704AB5B889946E1
:1003E0003B787C7824021C430196390012310422A8
:1003F00068460FF05FFD4B46220029000398FFF787
:100400002DFB9FE700DEE8E71F800000B42E0020F0
:10041000F0B587B003900D000C89062C03D0042C96
:1004200001D007B0F0BD6F68231F5A425341DEB2BE
:10043000042C24D0BA78FB781B02134305AA13803E
:1004400038797B791B02034353803B78787800022C
:100450001843FFF70BF90A2202AB9C466244059948
:10046000FCF756FB002816D0042C12D00923009369
:100470001D4B022229000398FFF71EF9D1E7BA7835
:10048000FB781B02134305AA138001235B425380B0
:10049000DBE70723EBE70A2302AA944663441888A4
:1004A000FFF79AFE00280CD0042C08D009230093F3
:1004B0000D4B020029000398FFF7FEF8B1E7072370
:1004C000F5E7FBF7F3F93B787C7824021C430196AF
:1004D000B91C042268460FF0EDFC0023220029001D
:1004E0000398FFF7BBFA9CE71F800000F0B5CE46EB
:1004F00000B588B003900D000C89162C05D0142C83
:1005000003D008B004BC9146F0BD6F682300143BD3
:100510005A425341DEB2142C24D0BA7CFB7C1B021D
:10052000134307AA1380387D7B7D1B02034353804E
:100530003B78787800021843FFF798F8122202AB54
:100540009C4662440799FCF7E3FA002816D0142C65
:1005500012D009230093444B022229000398FFF78D
:10056000ABF8CEE7BA7CFB7C1B02134307AA1380CF
:1005700001235B425380DBE70723EBE704AB022256
:100580001A7000225A80B81C05900A2102AB9C46C2
:10059000614404F031FD002805D07846334B1B68D8
:1005A000002B13D0984706A904A8FEF771F9052877
:1005B0000ED000281BD0142C17D0092300932A4BEF
:1005C000112229000398FFF777F89AE700DEEAE79F
:1005D000142C08D009230093234B012229000398EF
:1005E000FFF76AF88DE70723F5E70723E6E712230D
:1005F00002AA94466344188806AB1988FCF72AF8C7
:1006000000280CD0142C08D009230093164B0C2280
:1006100029000398FFF750F873E70723F5E706ABC7
:100620001888FEF7C7F8002805D078460F4B1B68DE
:10063000002B17D09847FBF739F904AB5B88994634
:100640003B787C7824021C43019639001231042245
:1006500068460FF02FFC4B46220029000398FFF755
:10066000FDF94EE700DEE6E71F800000B42E002013
:10067000F0B5C64600B588B003900D000C89082C73
:1006800005D0062C03D008B004BC9046F0BD6F68BE
:10069000A31F5A425341DEB2BB78F87800021843D8
:1006A00004F01AFD03280CD0062C08D0092300936F
:1006B0005C4B012229000398FEF7FEFFE3E70723C6
:1006C000F5E7062C24D03A797B791B02134307AA5D
:1006D0001380B979FB791B020B4353803B78787800
:1006E00000021843FEF7C2FF122202AB9C4662448E
:1006F0000799FCF70DFA002816D0062C12D0092312
:100700000093484B022229000398FEF7D5FFBAE771
:100710003A797B791B02134307AA138001235B42BA
:100720005380DBE70723EBE70822002104A80FF042
:10073000CDFB032302AA1372BA78FB781B02134382
:1007400002AA538106A904A8FEF7A2F805280CD036
:10075000002819D0062C15D009230093314B112203
:1007600029000398FEF7A8FF8DE7062C08D009237F
:1007700000932C4B012229000398FEF79DFF82E78E
:100780000723F5E70723E8E7122302AA9446634408
:10079000188806AB1988FBF75DFF06280CD00028E7
:1007A00019D0062C15D0092300931E4B11222900C5
:1007B0000398FEF781FF66E7062C08D00923009313
:1007C000184B082229000398FEF776FF5BE7072302
:1007D000F5E70723E8E706AB1888FDF7EBFF0028ED
:1007E00005D07846104B1B68002B18D09847FBF7B4
:1007F0005DF8BB78FA7812021A4390463B787C7811
:1008000024021C430196391D042268460FF052FB56
:100810004346220029000398FFF720F933E700DE62
:10082000E5E7C0461F800000B42E0020F0B5CE469C
:1008300000B586B003900D000C89082C05D0062C5D
:1008400003D006B004BC9146F0BD6F68A31F5A42A6
:100850005341DEB2BB78F8780002184304F03CFC48
:1008600003280CD0062C08D0092300935F4B0122EB
:1008700029000398FEF720FFE3E70723F5E7062C9E
:1008800024D03A797B791B02134305AA1380B979E6
:10089000FB791B020B4353803B78787800021843A6
:1008A000FEF7E4FE0A2202AB9C4662440599FCF77F
:1008B0002FF9002816D0062C12D0092300934B4B99
:1008C000022229000398FEF7F7FEBAE73A797B790E
:1008D0001B02134305AA138001235B425380DBE70D
:1008E0000723EBE70A2302AA944663441888FFF71C
:1008F00073FC00280CD0062C08D0092300933B4B36
:10090000020029000398FEF7D7FE9AE70723F5E7D0
:10091000BB78F8780002184304A9FDF760FE0028B0
:1009200014D004280ED010280AD10122062C0BD096
:10093000092300932D4B29000398FEF7BDFE80E7A5
:100940001122F3E70522F1E70723F2E70A2302AABF
:1009500094466344188804AB1988FBF735FE81463A
:1009600000282AD004AB1888FDF724FF002805D002
:1009700078461F4B1B68002B0ED098474B46062B22
:100980000CD0062C17D009230093184B11222900F4
:100990000398FEF791FE54E700DEEFE7062C08D03F
:1009A00009230093114B082229000398FEF784FEC7
:1009B00047E70133F5E70723E6E7FAF777FFBA7869
:1009C000FB781B02134399463B787C7824021C4336
:1009D0000196391D042268460FF06CFA4B4622003E
:1009E00029000398FFF73AF82BE7C0461F80000064
:1009F000B42E0020F0B5CE4600B586B003900D00B1
:100A00000C89082C05D0062C03D006B004BC9146F6
:100A1000F0BD6F68A31F5A425341DEB2BB78F8782D
:100A20000002184304F058FB03280CD0062C08D011
:100A300009230093544B012229000398FEF73CFE42
:100A4000E3E70723F5E7062C24D03A797B791B02EC
:100A5000134305AA1380B979FB791B020B4353801A
:100A60003B78787800021843FEF700FE0A2202ABBA
:100A70009C4662440599FCF74BF8002816D0062CDA
:100A800012D009230093404B112229000398FEF74E
:100A900013FEBAE73A797B791B02134305AA138048
:100AA00001235B425380DBE70723EBE7BB78F87851
:100AB0000002184304A9FDF792FD002814D0042871
:100AC0000ED010280AD10122062C0BD00923009346
