:020000021000EC
:10B0000000800020FDB00100C1B0010005E2010098
:10B010000000000000000000000000000000000030
:10B02000000000000000000000000000C5B00100AA
:10B030000000000000000000C7B00100C9B001001E
:10B04000CBB00100CDB00100CFB00100D1B0010004
:10B05000D3B001000000000049E00100D7B00100BA
:10B06000D9B00100DBB00100DDB00100DFB00100AC
:10B07000E1B00100E3B00100E5B00100E7B001007C
:10B08000E9B00100EBB00100C9FD0100EFB0010023
:10B09000F1B00100F3B0010051E20100F7B001008E
:10B0A000F9B00100FBB0010000000000000000004A
:10B0B0000000000000000000000000000000000090
:10B0C000FEE7FEE7FEE7FEE7FEE7FEE7FEE7FEE758
:10B0D000FEE7FEE7FEE7FEE7FEE7FEE7FEE7FEE748
:10B0E000FEE7FEE7FEE7FEE7FEE7FEE7FEE7FEE738
:10B0F000FEE7FEE7FEE7FEE7FEE7FEE7032107487F
:10B1000002680A430260064802680A430260054872
:10B1100085460FF069FB07E07047000024050040FA
:10B120005405004000800020354936480A1A02D0F4
:10B13000072291438D46344934480A1A06D0072223
:10B14000914381F30988022282F3148830483149FF
:10B15000314A00F043F831483149324A00F03EF8B4
:10B1600031483249324A00F039F832483249334ADC
:10B1700000F034F832483349334A00F02FF83348AE
:10B180003349344A00F02AF833483449344A00F04D
:10B1900025F834483449002200F02BF8334834496C
:10B1A000002200F026F833483349091A082903DB46
:10B1B00000220260043001601F482049884205D007
:10B1C0000268043003B4904703BCF7E700208646CA
:10B1D000EC4600200021294A9047FEE7884207D02C
:10B1E000521A05D0037801300B700131013AF9D1C0
:10B1F0007047884202D002700130FAE770470000C1
:10B2000000800020007C00200080002000800020C2
:10B2100060FB0200D82200206023002080B20100E1
:10B2200080B2010054DC020060FB0200D822002042
:10B23000D822002054DC020054DC020054DC02005E
:10B2400054DC020054DC020054DC020054DC020036
:10B2500054DC020060FB0200E8FB020060230020D7
:10B2600060230020602300204C5000204C50002020
:10B270004C5000204C5000204C54002069B8010074
:10B2800000B587B0334B1B685B0403D5324B1B689A
:10B29000032B33D8314B1868059003F059F82D4B28
:10B2A0001B685B0403D52C4B1B68032B31D80C2285
:10B2B000002102A812F0BCFC059B0293284B0393CB
:10B2C00002A807F0ABFC00282ED12648264B0360CD
:10B2D0000023436007F021FE1E4B1B685B0403D56F
:10B2E0001D4B1B68032B24D807F0F2FC00282BD140
:10B2F00002F0F8FA00F094FF07B000BD1B4B1C4AA7
:10B30000D3581C4A009272221B49042006F04EFDBD
:10B31000C0E7164B164AD358184A00927A221649AB
:10B32000042006F043FDC2E7154A802102F018FF11
:10B33000CBE70E4B0E4AD358124A009286220E4992
:10B34000042006F033FDCFE70D4A872102F008FF05
:10B35000CEE7C04600230020FC22002084DC02004F
:10B36000B5E101006823002055B501000405000087
:10B3700000B0004080DD020077DD02009CDD0200AD
:10B3800014DD0200B8DD020010B586B01D4B1B684D
:10B390005B0403D51C4B1B68032B1ED803AC0B228C
:10B3A0000021200012F044FC012323700D226A4486
:10B3B00001211170002151702371144914480CF0BF
:10B3C00039FA002814D103AB104A114911480CF086
:10B3D00017FA002811D106B010BD0F4B0F4AD358F1
:10B3E0000F4A00928F220F49042006F0DFFCD5E7B8
:10B3F0000D4A962102F0B4FEE5E70B4A972102F0D0
:10B40000AFFEE8E700230020FC220020D827002020
:10B41000F8270020742300200405000000B000403D
:10B42000DCDE020077DD020014DD020000B587B02B
:10B430003D4B1B685B0403D53C4B1B68032B3FD87B
:10B4400000213B4804F0CAFB002844D1102200210F
:10B4500002A812F0EDFB374B1988374B02AA0020E7
:10B4600002F020FC00283BD13449012002F0AAFA66
:10B4700000283AD12E4B18882F4B198800F0F0FF86
:10B48000002837D12A4B18882C4B198800F09AFFD6
:10B49000002834D1264B1888274B198801F01CF856
:10B4A000002831D1224B1888062101F041F80028EC
:10B4B0002FD11F4804F0FAFB00282FD107B000BDA0
:10B4C0001F4B204AD358204A009262221F49042071
:10B4D00006F06CFCB4E71E4A632102F041FEB5E7BA
:10B4E0001B4A672102F03CFEBEE7194A682102F0C0
:10B4F00037FEBFE7164A692102F032FEC2E7144A5E
:10B500006A2102F02DFEC5E7114A6B2102F028FEE8
:10B51000C8E70F4A6C2102F023FECAE70C4A6D21EE
:10B5200002F01EFECAE7C04600230020FC220020D5
:10B5300038260020702300206023002034260020BD
:10B540000405000000B00040A4DE020077DD020028
:10B5500014DD0200F0B5CE46474680B589B004AF91
:10B56000040002780B2A00D93AE19300A749CB588E
:10B570009F46A74B1B685B0400D48FE0A54B1B685C
:10B58000032B00D88AE0A44BA44AD358A44A0092C3
:10B59000A222A449042006F009FC7FE09C4B1B6812
:10B5A0005B0403D59B4B1B68032B08D89E4B1B7871
:10B5B000002B0FD0012B71D1FFF738FF6EE0964BB7
:10B5C000964AD358994A0092AB229649042006F035
:10B5D000EDFBEBE70B220021380012F029FB0123E1
:10B5E0007B700023BB7001333B71914991480CF093
:10B5F00021F9002814D13B008D4A8E498E480CF069
:10B60000FFF8002811D10023002200218A480CF005
:10B6100015F9002842D0894AB72102F0A1FD3DE08A
:10B62000864AB32102F09CFDE5E7844AB62102F088
:10B6300097FDE8E7C38A3B8001237B80380002F056
:10B6400069F9002830D1A08A7D4AA16802F098FAF1
:10B6500000282ED1E08A7A4B19887A4BE26802F0F2
:10B66000D7FA00282AD16A4B1B685B0403D5694BC3
:10B670001B68032B27D8664B1B685B0403D5654BFF
:10B680001B68032B2CD8624B1B685B0403D5614BF2
:10B690001B68032B50D80122634B1A70BD4605B0BE
:10B6A0000CBC90469946F0BD644AC72102F058FD93
:10B6B000C9E7624ACA2102F053FDCBE75F4ACF21B6
:10B6C00002F04EFDCFE7544B544AD358E28A019220
:10B6D0005D4A0092D2225349042006F067FBCAE774
:10B6E000E8468AB004AB9C46994600230FE0A26866
:10B6F000D65C5A00310955480568695C4D46A95425
:10B7000001320F2131400068415CA95401330F2BF5
:10B71000EDD9002220236146CA543F4B3F4AD358FB
:10B7200002914B4A01924B4A0092D3223D49042098
:10B7300006F03CFBC546A6E7E8468AB004AB9C464B
:10B74000994600230FE0E268D65C5A0031093F4871
:10B750000568695C4D46A95401320F2131400068EB
:10B76000415CA95401330F2BEDD9002220236146FF
:10B77000CA54294B294AD3580291374A0192354A73
:10B780000092D4222749042006F010FBC54682E728
:10B7900039003A00314B043361CB61C21B6813603E
:10B7A000606810220CF060F8002814D1184B1B6858
:10B7B0005B0400D472E7174B1B68032B00D86DE7BE
:10B7C000154B164AD358264A0092DD22154904200B
:10B7D00006F0ECFA62E7194ADC2102F0C1FCE5E769
:10B7E0000B4B1B685B0400D458E70A4B1B68032B08
:10B7F00000D853E7084B0949CB580192194A0092E7
:10B80000EB220849042006F0D1FA47E754DC020095
:10B8100000230020FC2200200405000000B00040AE
:10B82000D0DD020077DD020062230020F0DD02009F
:10B83000D8270020F82700207423002014DD020000
:10B8400070230020642300200CDE0200042300206B
:10B8500034DE020048DE020050DE020084DC02001A
:10B8600064DE02008CDE020000B583B0002300E03D
:10B8700001331F2B0DD8F02252041A41D207F7D5FD
:10B880001A00C132FF3292000320A021C905505096
:10B89000EEE71F4A0421C020C00106F069FA1D4BE3
:10B8A0001B685B040DD51C4B1B68032B09D91B4B74
:10B8B0001B4AD3581B4A0092F5221B49042006F06C
:10B8C00075FAFFF7DDFCFFF75FFD124B1B685B04A9
:10B8D0000DD5114B1B68032B09D9104B104AD358B7
:10B8E000124A0092FA221049042006F05FFA00235F
:10B8F000002200210E480BF0A1FF002802D107F022
:10B9000039FAFCE70B4AFB2102F02AFCF7E7C046B4
:10B91000451D020000230020FC2200200405000039
:10B9200000B0004098DC020077DD0200DCDC0200A1
:10B930007423002014DD020010B50C4B99420AD08C
:10B940000B4A43001C1861005118C9786300D218D3
:10B950000131D17010BD064A43001C186100511816
:10B9600089786300D21801319170F3E7FFFF00007E
:10B970003828002030B583B00191184943001D18C4
:10B980006C000C19A4786D004919CB78E318002BD2
:10B9900001DD002303E000201EE001339BB2002BF9
:10B9A00019D134245C430E49091989898842F4D19C
:10B9B00021000B4C0C5B01A909888C42EDD134218C
:10B9C0005943074D6D186C8801A949888C42E4D110
:10B9D0001380012000E0002003B030BD3828002093
:10B9E0007028002082B00023009302783F331100BA
:10B9F00099430B00402912D0C9B240290DD9D9B2C0
:10BA000080291AD0C02910D16B461A8042781202C0
:10BA1000837813436A46538007E0002B05D16B46B9
:10BA20001A8001235B426A465380009B1A0C120461
:10BA30001804000C104302B07047120243781A43F6
:10BA40006B461A8001235B426A465380EDE7000093
:10BA500082B00190000C0C4B984207D001AB1B88C0
:10BA60000B70030A4B70887002B0704701AB1B88E3
:10BA7000FF2218009043002803DD1A0A0A704B7059
:10BA8000F2E70B70F0E7C046FFFF000082B00190C4
:10BA9000030C144A934209D001AB18883F23984302
:10BAA000C03843425841C0B202B0704701AB188859
:10BAB000FF2302009A43002A08DD800B80030A4B13
:10BAC0009C46604443425841C0B2EDE77F230200E8
:10BAD0009A4305D17F2801D00120E5E70020E3E764
:10BAE0000020E1E7FFFF00000080FFFF70B50600C7
:10BAF0000D000024AC4207D2E300F058FFF7C6FF68
:10BB0000002802D00134F5E7012070BD30B583B0C4
:10BB10000191002100E00131038D994210D2CB0048
:10BB2000446AA44663441D8801AC2488A542F2D12E
:10BB30005C8801AB5B889C42EDD11160012000E084
:10BB4000002003B030BD0000F8B505000E0017005E
:10BB50001C1E10D032897C23FF339A4214D8002D4A
:10BB60001AD134226A43224B9B1830331B78DB07EF
:10BB700026D4002311E078461E4B1B68002B01D011
:10BB80009847E7E700DEE5E7733BFF3B236020686B
:10BB900043425841C0B2F8BD0023002B12D03422DA
:10BBA0006A43134B9B189B89002B0BD1002F0CD0A1
:10BBB0003068FFF76BFF002817D000232360E6E70B
:10BBC0000123EAE705232360E1E734226A43084BB7
:10BBD0009B189A88084B9A4207D034236B43044D34
:10BBE000ED18EA88044B9A42E2D107232360CEE79E
:10BBF0007028002010310020FFFF000010B57846AB
:10BC0000034B1B68002B01D0984710BD00DEFCE7FA
:10BC10001031002010B5804710BD000010B534224F
:10BC200000210F4812F004F8062200210D4811F0FF
:10BC3000FFFF082200210C4811F0FAFF0023002B1F
:10BC400000D010BD34215943054A52180121494200
:10BC5000D18091800120D081918101339BB2EEE7A8
:10BC60007028002038280020A4280020F0B595B0C6
:10BC7000041E00D166E02068FFF7B4FE139087B27F
:10BC80007F2F5DD0854B1B689B0404D5844B1B68BC
:10BC9000042B00D95FE0E06901F068FF06000500B1
:10BCA0002822002109A811F0C3FF139B09932268E1
:10BCB00008931B0C7B498B4259D00323D3180A935A
:10BCC000A288139B07931B0C76498B4255D0032304
:10BCD000D21A09AB1A81227A1A736289DA81E26870
:10BCE0000D92227C1A75618AD98261690F91202197
:10BCF000605C04315854DE84012A44D005A9012334
:10BD00005B420B802000103001F0F6FE002806D0C8
:10BD10007846654B1B68002B00D17DE0984705AB4A
:10BD2000188801F055FE002806D178465E4B1B6846
:10BD3000002B00D172E098470024002C00DC6FE05B
:10BD400015B0F0BD7846584B1B68002B01D09847C2
:10BD500091E700DE8FE7554B554AD3580197554A76
:10BD60000092EF225449052006F020F893E7FF2FB8
:10BD700001D90223A2E70123A0E7FF2F01D9022363
:10BD8000A6E70123A4E705AE300001F005FE638AB3
:10BD900032889342D4D305A9498851188B42CFDA0F
:10BDA0009B1A9CB20026002ECADC34207043434B01
:10BDB0001818030030331B78DB0704D53422724394
:10BDC00083899C4201D00136EDE7130008333B4ADA
:10BDD000D3186A099200D3581F222A40D340DB07A8
:10BDE000F1D506AA1399FFF791FE0028EBD0B0B267
:10BDF00034237343314FFF18FA6A09A9039000F006
:10BE00008FFE069BDB007A6A944663445B68FA6A9D
:10BE100009A903989847D6E700DE80E700DE8BE7A4
:10BE200034206043254B1818030030331B78DB07A0
:10BE30001DD5C289002A1AD13423634308331F4910
:10BE4000CB1869098900CB581F212940CB40DB075B
:10BE50000DD5D2001A4B9A18043205AB19884B093C
:10BE60009B009B581F220A40D340DB0701D40134BA
:10BE700063E706AA1399FFF749FE0028F7D034229A
:10BE800062430E4B9B18069AD200596A8C46624454
:10BE90005668DA6AA0B209A9B047E8E70023002093
:10BEA000FC220020FFFF00001031002004050000EC
:10BEB00000B0004064DF020059DF0200702800205B
:10BEC000A428002010B50378002B00D010BD04304A
:10BED000FFF7CCFEFAE7000000B587B0104B0393E4
:10BEE000104B0493104B05930423029301F0B4FC10
:10BEF0000E4B9C4660440090012301930C4A137042
:10BF000069460C4805F0B2F9002804D10022084B1C
:10BF10001A7007B000BD084805F0F0F9F9E7C0460F
:10BF2000C9BF0100FDBB01003DBF010000FCFFFFD8
:10BF30006C28002048280020D822002010B50023BB
:10BF4000002B01D000230EE0DA001C49525CD1071F
:10BF500004D5D9000220024318480A5401339BB289
:10BF6000EEE701339BB2002B0DD15A00D2185100DD
:10BF7000134A8A5A002AF4D0114841184A790220FB
:10BF800002434A71EDE7002301E001339BB2002B2D
:10BF900010D1342159430B4A521830321278D1074C
:10BFA000F3D53420584307490918303102200243A1
:10BFB0000A70EAE7FFF790FF10BDC046A4280020F2
:10BFC000382800207028002070B58EB005000E00C3
:10BFD0001400012A05D0022C0CD0032C13D00EB073
:10BFE00070BD7846124B1B68002B01D09847F2E7D2
:10BFF00000DEF0E778460E4B1B68002B01D0984717
:10C00000EBE700DEE9E73022002102A811F010FE84
:10C01000192302AA1370173B13710496EB68069359
:10C020002B6901930793100003F0C6FFD7E7C046C2
:10C0300010310020F0B591B002AF04000E007A601C
:10C040002C2308218C46BC4463443100FFF77CFD5F
:10C05000002831D033893268FA60120C66498A426E
:10C060002CD003229B180733DB08DB006A46D31A67
:10C070009D4602AD29003068FFF7EAFC3368BB60DB
:10C080001B0C5D4A934220D0032028183289716826
:10C0900011F0C2FD0C230822BA18D01801F07CFC64
:10C0A000F98A34226243554B9B189B89994213D8D5
:10C0B0001020BD460FB0F0BD786BFAE7BA89FF2AB1
:10C0C00001D90222CEE70122CCE73B89FF2B01D91F
:10C0D0000220DAE70120D8E77A68002A45D0137BEE
:10C0E0003B76D3897B83D08C24230822BA18D118BD
:10C0F00001F020FE002805D07846414B1B68002B3C
:10C1000031D09847342262433C4B9B181B7CFF2B59
:10C1100056D02222BA181370BB8A34226243374C9D
:10C12000A418A2899B183B847D62328933683B61E5
:10C130001B0C31498B4249D00323D3183B85002186
:10C1400010230822BA18D01806F0EAFD78630028F8
:10C1500007D12C4B1B689B0403D52B4B1B68042B6E
:10C160003BD8786BA5E700DECCE734226243234B53
:10C170009B18D88810230822BA18D11801F070FC37
:10C18000002805D078461E4B1B68002B14D098471A
:10C1900034226243194B9B18988824230822BA182A
:10C1A000D11801F0C7FD0028ACD07846144B1B68AD
:10C1B000002B03D09847A5E700DEE9E700DEA1E702
:10C1C000124B1B782222BA181370A5E73B8AFF2B6B
:10C1D00001D90223B1E70123AFE70D4B0D4AD35834
:10C1E000328801920C4A0092C72252000B49053056
:10C1F00005F0DCFDB5E7C046FFFF00007028002019
:10C200001031002000230020FC220020E822002022
:10C210000405000000B0004078DF020059DF020092
:10C2200010B5FFF7FBFC0548054B036006F075FEF3
:10C2300000F0BAFCFFF750FE10BDC04640280020B9
:10C24000C5BE0100F8B504000D00002800D195E03E
:10C250008368002B00D193E0002900D192E00123F4
:10C260005B420B80C368002B01D10920F8BD808898
:10C27000002801D00520F9E70A002168FFF77AFBC2
:10C2800000280AD02A8834235A433F4B9B18303366
:10C290001B78DB0701D50F20E8E7E168A068FFF70E
:10C2A00025FC002801D10720E0E72888374B984279
:10C2B0002BD02988344B3422514359182069C86245
:10C2C000298851435918A068486229885143591850
:10C2D000A089088529886069514359188861288890
:10C2E000110041435918888229884A439B183033EA
:10C2F0001A7801210A431A700020B7E790B228800B
:10C30000224B98420ED10420B0E70022002AF6D139
:10C31000342151431C4B5B1830331B78DB07EDD5C0
:10C320000132F3E7184E3427784330180122524285
:10C33000C2802B887B43F3189A802B88A2887B438A
:10C34000F3189A812B8822887B439A532B88628822
:10C350007B43F3185A802B887B43F3180C4A1278DE
:10C360001A746188A088FFF7E7FA2B885F43F619F3
:10C37000303632780223134333709AE70E2075E784
:10C380000E2073E70E2071E770280020FFFF0000E9
:10C39000E822002010B5002903D00022FFF74AFE52
:10C3A00010BD0E20FCE710B51300002906D0002AAE
:10C3B00006D00A001900FFF73DFE10BD0E20FCE775
:10C3C0000E20FAE7002809D134224243124B9B1871
:10C3D00030331B78DB0706D4002300E00023002B5A
:10C3E00003D1052070470123F9E7042901D907206B
:10C3F000F8E734224243084B9B18DB88994209D066
:10C4000005488018C180303003780222134303703E
:10C410000020E7E70020E5E77028002000291AD077
:10C42000002809D1342242430C4B9B1830331B782F
:10C43000DB0706D4002300E00023002B03D10520F6
:10C4400070470123F9E7342343430448C018C388E5
:10C450000B800020F4E70E20F2E7C0467028002091
:10C4600010B5002809D1342242431A4B9B183033AF
:10C470001B78DB0706D4002300E00023002B03D148
:10C48000052010BD0123F9E7012901D90720F8E7AC
:10C490003423434308331A000E4B9B184A09920079
:10C4A0009B181C681F2211402200CA40D2070ED4DC
:10C4B00001228A4014431C6034235843054B18184A
:10C4C0003030027802210A4302700020D9E70020B0
:10C4D000D7E7C04670280020002809D13422424303
:10C4E000124B9B1830331B78DB0706D4002300E087
:10C4F0000023002B03D1052070470123F9E7012910
:10C5000001D90720F8E734224243084B9B189B8847
:10C51000994209D005488018818030300378022282
:10C52000134303700020E7E70020E5E770280020B0
:10C53000002809D134224243144B9B1830331B7816
:10C54000DB0706D4002300E00023002B03D10520E5
:10C5500070470123F9E70B00803BDBB27E2B01D84B
:10C560000720F5E734224243084B9B181B7C994275
:10C5700009D0064880180174303003780222134332
:10C5800003700020E4E70020E2E7C04670280020A6
:10C5900000291AD0002809D1342242430C4B9B18A1
:10C5A00030331B78DB0706D4002300E00023002B88
:10C5B00003D1052070470123F9E73423434304489E
:10C5C000C018037C0B700020F4E70E20F2E7C04691
:10C5D0007028002000291AD0002809D134224243B3
:10C5E0000C4B9B1830331B78DB0706D4002300E08C
:10C5F0000023002B03D1052070470123F9E73423E2
:10C6000043430448C018C36A0B600020F4E70E20BF
:10C61000F2E7C0467028002030B501235B420B8052
:10C620000023002B07D008880C4B9C466044431E17
:10C630009841C0B230BD9C00E418E500084A521988
:10C640003C321278002A04D0054A5219128B8242D9
:10C6500001D00133E5E70B80E5E7C0460100FFFFAD
:10C66000AC28002040230C4AD35A002B10D01300D2
:10C6700042229A5A91008918CA009A18516B820076
:10C680001018C2009B185B6BCB1A03D4012000E08A
:10C69000012070470020FCE7AC28002030B5830063
:10C6A0001818C2000F4B9B185D6B0F4B9C466544DE
:10C6B00000230E48002B00D030BD9900C918CC00D3
:10C6C000084A12193C321278002A04D0054A12197D
:10C6D000526B511B02D401339BB2EBE718001500DB
:10C6E000F9E7C046AC28002000879303FFFF000055
:10C6F00070B506000C00150001235B420B8005336A
:10C70000136003F0BDFB4023164AD35A012B26D9F0
:10C7100003F0DAFB286843425841C0B270BD9A006A
:10C72000D218D1000F4A5218118B3288914213D07F
:10C730000133002BECD19900C918C800094A12181E
:10C740003C321278002AEAD12188074A9142EFD17F
:10C7500000222A602380EBE708232B60D8E7002320
:10C76000E7E7C046AC280020FFFF000010B504003A
:10C7700082001218D100284B5B183C331B78002B29
:10C7800005D17846254B1B68002B1FD098474023C6
:10C79000214AD35A002B05D17846204B1B68002B29
:10C7A00016D098471C49A2001219D300CB183C336D
:10C7B00000221A7040328B5A013B9BB28B52002BE5
:10C7C00025D04223CB5A9C4204D010BD00DEDEE7C8
:10C7D00000DEE7E72000FFF761FF42230E4AD05258
:10C7E0000F4B98420AD00C484223C35A9A00D218E1
:10C7F000D300C318596B07F009FDE6E77846074BED
:10C800001B68002B01D09847EDE700DEEBE70248FC
:10C8100007F0C4FCD9E7C046AC2800201031002046
:10C82000FFFF0000F0B583B0050040236B4AD35AE8
:10C83000002B05D178466A4B1B68002B2BD09847FC
:10C84000FA239B00EE18012149424223634AD15248
:10C850000024002C21D04023604AD35A002B00D161
:10C86000B7E04223D35A002B06D078465C4B1B68B6
:10C87000002B00D1A9E09847584B4222995A8A00D0
:10C880005218D1005B185A6B531B00D59FE0534AD6
:10C89000D36003B0F0BD00DED2E7A2001219D100D0
:10C8A0004E4B5B183C331B78002B1FD0621C93004F
:10C8B0009B18DA00494B9B185B689B1B18D4A3009C
:10C8C0001B19DA00454B9B185B6B9A1B36D442222E
:10C8D0004249895A434A914200D172E08A00521873
:10C8E000D1003E4A5218526B9B1A6AD40134B0E709
:10C8F0003A49A2001219D300CB181A003C3200208A
:10C90000107040300A5A013A0A52188B01A9FFF7F9
:10C9100061FE002805D07846314B1B68002B0BD0F8
:10C920009847A2001219D1002C4B5B181F6B188B73
:10C9300001220199B847D9E700DEF2E7274FA200AC
:10C940001119CB001900FB18188B18317918043114
:10C95000FFF720FD4223FC5200281CD1A20012192F
:10C96000D1001E4B5B189A6B596B891859635200A2
:10C970009A631A4B621C91008918CA009A18506871
:10C98000A2001219D1005B185B6BC31AAED5134B12
:10C990005B185863AAE7042806D07846104B1B683A
:10C9A000002B0CD09847E4E70C49A3001819C200EB
:10C9B0008A18536B0C498C46634453634BE700DE83
:10C9C000D7E74223054AD45290E700DE54E7AB1A7A
:10C9D0005DE70022014BDA605BE7C046AC2800202F
:10C9E00010310020FFFF0000409C000010B582B015
:10C9F000040000886B46D91DFFF7CAFD002805D04A
:10CA00007846164B1B68002B1ED09847636800932E
:10CA10001B0C134A934219D00323A089C01880B27B
:10CA20006B4607331B780F4C5C430F4B9C466444AA
:10CA30000B2806D90B300C2110F0B4FF094B5843DA
:10CA40002418200002B010BD00DEDFE76B461B8813
:10CA5000FF2B01D90223E0E70123DEE7103100209C
:10CA6000FFFF0000204E0000400D0300F0B583B032
:10CA70000400019182001218D100274B5B183C334F
:10CA80001B78002B05D07846244B1B68002B35D033
:10CA9000984707F0A5F807001F4DA6003319D800E6
:10CAA000183028181C22019911F0B6F80198FFF7E8
:10CAB0009DFF3219D300EB189863661CB2009119E0
:10CAC000C90069184A68D2194A603F185F6303F0C9
:10CAD000D7F92000FFF7C6FD002811D10E4AA300A8
:10CAE0001C19E300D3183C33012119703F31535A0C
:10CAF0000133535203F0E8F903B0F0BD00DEC8E79C
:10CB0000054DA2001219D300EB18596B280007F04D
:10CB10007DFB4223EC52E1E7AC28002010310020DD
:10CB200070B582B004000E001500002805D07846CC
:10CB30001B4B1B68002B18D0984703F0A1F96B46DC
:10CB4000991D2000FFF768FD00280AD06B46D888A1
:10CB5000421C93009B18DA00124BD25A33889A4237
:10CB600005D003F0B1F902B070BD00DEE5E7421C6C
:10CB700093009B18DA000B4B9B185A8873889A42D3
:10CB8000EFD1FFF7F3FD6B46DA8893009B18DA00CC
:10CB9000044B9B181B6B0022290020009847E0E7FC
:10CBA00010310020AC28002010B5044C4422002194
:10CBB000200011F03DF8024BA36010BDAC2800200E
:10CBC00025C8010010B582B0041E03D00524200042
:10CBD00002B010BD03F054F96B46991D2000FFF719
:10CBE0001BFD002803D1052403F06EF9EFE76B4627
:10CBF000D888FFF7BBFDF7E710B582B0041E2AD036
:10CC00008369002B29D00388002B02D0052002B0B5
:10CC100010BD4369124A94466344124A934201D9B3
:10CC20000720F4E701AA6B46991CFFF761FD002875
:10CC300001D10198EBE7211D2088FFF7ABFB0190A4
:10CC4000002801D00428E2D16B4658882100FFF764
:10CC50000DFF0020DBE70E20D9E70E20D7E7C04606
:10CC6000803C36FE80C3C9010E4B1B68DB070AD52A
:10CC70000D4B1B88984210D30B4A52889B18984240
:10CC80000DDB002300E00023002B04D048800122AC
:10CC90000A7000224A60180070470023F4E701235D
:10CCA000F2E7C046F82800209029002010B50123A3
:10CCB0005B420B80002305E09A000E4C125B82421F
:10CCC0000DD00133032B13D85A0992000A4C125984
:10CCD0001F241C40E240D207EED40B80F1E79C00F9
:10CCE000044A1219D278002AEBD00B80012000E010
:10CCF000002010BD08290020F028002030B583B0A6
:10CD000005000C006B46991DFFF7D0FF002804D0EA
:10CD10006580032323700023636003B030BD0000EF
:10CD200010B50B88002B01D1013300E00023012254
:10CD300052420A8007E09A00D21894000B4AA25A85
:10CD400082420DD00133002B0DD15A099200084CBC
:10CD500012591F241C40E240D207ECD40B80F1E7AB
:10CD60000B80012000E0002010BDC046F829002003
:10CD70000029002010B501235B420B80002304E052
:10CD80000C880D4A944213D00133032B12D85A0950
:10CD900092000A4C12591F241C40E240D207EFD5E2
:10CDA0009A00074C125B8242EED10B80012002E018
:10CDB0000B80E9E7002010BDFFFF0000F0280020F5
:10CDC0000829002010B501235B420B800023002BB3
:10CDD00001D0002010BD5A0992000D4C12591F2499
:10CDE0001C40E240D2070BD516225A43094C125B75
:10CDF000824201D00133EAE701330B800120E9E7E9
:10CE00000C88054A9442F5D15A1C0A80F2E7C046C4
:10CE10003829002040290020FFFF000010B5012321
:10CE20005B420B800023002B01D0002010BD5A096B
:10CE300092000C4C12591F241C40E240D2070AD524
:10CE400016225A43084C125B824201D00133EAE7B2
:10CE50000B800120EAE70C88044A9442F6D10B804B
:10CE6000F4E7C0461829002020290020FFFF000019
:10CE700010B5041E05D00D4B12339C420AD20C484B
:10CE800010BD78460B4B1B68002B01D09847F2E78A
:10CE900000DEF0E7054B12339C4201D90448EFE76E
:10CEA000E01A5C2110F09CFD80B2E9E79C2900208B
:10CEB000FFFF00001031002010B5041E05D00D4BFF
:10CEC0003C339C420AD20C4810BD78460B4B1B6881
:10CED000002B01D09847F2E700DEF0E7054B3C332A
:10CEE0009C4201D90448EFE7E01A5C2110F078FD7C
:10CEF00080B2E9E79C290020FFFF000010310020EC
:10CF000010B5041E0DD0154B04339C4203D3134BB4
:10CF100004339C420ED9124B04339C4210D2114868
:10CF200010BD7846104B1B68002B01D09847EAE7EC
:10CF300000DEE8E7E01A162110F052FD80B2EFE7BC
:10CF4000074B04339C4201D90648E9E7E01A162151
:10CF500010F046FD013080B2E2E7C04620290020F3
:10CF600040290020FFFF000010310020002811D0D0
:10CF70000023002B0CD116225A430749525A9042E3
:10CF800001D00133F5E716204343C818043000E010
:10CF9000002070470020FCE74029002070B5040005
:10CFA0000D0016001068002803D0FFF7A9FF01301C
:10CFB00002E0002000E0013000281CD143099B0062
:10CFC0000E4A9B581F220240D340DB07F3D516229E
:10CFD00042430B4B9B185B88A342ECD11622424381
:10CFE000074B9B185B796B409B06E4D1044B981868
:10CFF0000430306001E00023336070BD1829002048
:10D00000202900200B4B8A00D0529B180022DA7096
:10D010009A7048098000084B1B181F3211401E3AB5
:10D020008A40196811431960044B1B1819680A4398
:10D030001A60704708290020F0280020F4280020FA
:10D0400010B50B0081B21888FFF7DCFF10BD00009F
:10D050008000024BC35A0B807047C046082900204D
:10D0600010B5041E01D0A04710BD7846034B1B68C5
:10D07000002B01D09847F6E700DEF4E710310020DE
:10D08000F8B5CE46474680B58046894611005C1EFD
:10D09000114F162565437E19B01D102210F0BCFDFE
:10D0A00000237371013333714A4672804246EA535A
:10D0B00061098900094A52181F200440A3401068E2
:10D0C00018431060064A521811680B4313600CBCD9
:10D0D00090469946F8BDC0464029002038290020D6
:10D0E0003C29002010B50A1D013083B24C88088805
:10D0F0002100FFF7C5FF10BDF8B50D000B1D074F50
:10D10000162444433E19B11D1022180010F084FD6E
:10D11000E35B2B8073886B80F8BDC04640290020FC
:10D12000F8B50D000B1D074F162444433E19B11DE1
:10D130001022180010F070FDE35B2B8073886B8069
:10D14000F8BDC0462029002070B50D008B1C064E8E
:10D150005C244443311902311022180010F05CFDA8
:10D16000A35B2B8070BDC0469C29002010B50C002D
:10D1700083001B189A0004498918043110222000EA
:10D1800010F04AFD10BDC046F829002010B5042259
:10D19000014810F041FD10BD9029002010B5080095
:10D1A0000422024910F038FD10BDC046902900202D
:10D1B000F0B583B005000F0001921E0016215943FF
:10D1C000174C6418A01D1022019910F025FD611D57
:10D1D000019805F0BBFE002805D07846114B1B686E
:10D1E000002B1AD098470E4916237343CA18002003
:10D1F00010715D525780710989000B4840181F2338
:10D200001E400122B240036813430360074B5B18C2
:10D2100019680A431A6003B0F0BD00DEE3E7C046B8
:10D220002029002010310020182900201C2900206E
:10D2300010B50A1D83B24C8808882100FFF7B8FF9B
:10D2400010BD0000F0B583B0060001911400294A1A
:10D250005C2161430B003033D3180433521813643C
:10D26000002802D10122244B1A705C2161430B007B
:10D2700010332049C9180231019805F074FE0028C6
:10D2800005D078461D4B1B68002B2ED098475C219B
:10D2900061430B0040331749C9180431019805F068
:10D2A00077FE002805D07846144B1B68002B1ED053
:10D2B0009847104D5C276743E81902301022019906
:10D2C00010F0AAFC7E53610989000D4B5B181F22E8
:10D2D00014401E3AA240186810431860094B5B18AE
:10D2E00019680A431A6003B0F0BD00DECFE700DE24
:10D2F000DFE7C0469C2900208C2900201031002047
:10D30000942900209829002010B50B00023182B228
:10D310001888FFF797FF10BD70B506000C1FA3001B
:10D320001B199A00124DAD18281D1022310010F063
:10D3300073FC2900300005F057FE002805D0784620
:10D340000C4B1B68002B11D09847600980000A4BDA
:10D350001B181F210C400122A240196811431960BB
:10D36000064B1B1819680A431A6070BD00DEECE713
:10D37000F829002010310020002900200429002075
:10D3800010B50B00011D89B21800FFF7C5FF10BDD5
:10D39000F8B505000E0002F073FD052D05D978469D
:10D3A0001D4B1B68002B0AD098471C4B1C78002C87
:10D3B00007D1002C1ED002F087FD2000F8BD00DE52
:10D3C000F3E76A01164B9B18598A891989B25A6981
:10D3D000144803F001FE071E0AD06A01104B9B1887
:10D3E0009B69011D30009847380003F043FEE0E7D9
:10D3F0000024DEE76D010A4B5D19AB6872099200EB
:10D400009B181F2216401E3AB24019680A431A6040
:10D41000054803F073FFCEE71031002056290020A5
:10D420008CDF0200582900207C29002010B50A2238
:10D4300001210A4803F0D0FD0400631E9C41E4B2C0
:10D44000002808D004234381033B83818380C38069
:10D45000038103F00FFE200010BDC04658290020B4
:10D4600070B505000E0002F00BFD052D05D97846BC
:10D47000174B1B68002B0AD09847164B1C78002CC2
:10D4800007D1002C12D002F01FFD200070BD00DE7D
:10D49000F3E76A01104B9B18598A891989B20F4822
:10D4A00003F01CFE44424441E4B2EAE76D010A4B3A
:10D4B0005D19AB68720992009B181F2216401E3A34
:10D4C000B24019680A431A60054803F017FFDAE70B
:10D4D00010310020562900208CDF0200582900203E
:10D4E0007C290020F8B5DE4657464E464546E0B555
:10D4F00000239B460133984649E05101611A0123FC
:10D500008B40013B910049590B4210D1013223005D
:10D510001F335B099A4205D2013B9A42EDD00123A9
:10D520005B42EFE74346002B2DD100270EE000239E
:10D53000F9E739005846FFF793FF002822D001236E
:10D540005246934032689A4332600137A7421AD25A
:10D550007B099B00EE181F223A40924632685146E2
:10D56000CA40D207F1D54A465101134A52185268AF
:10D57000D3585246D340DB07DBD539005846FFF776
:10D5800007FFDAE780465E460136F3B29B465B460C
:10D59000052B0BD84346002B08D0D946064B5A46DC
:10D5A000520199188D68D4580022B0E73CBC9046CF
:10D5B0009946A246AB46F8BD8CDF020030B58FB06D
:10D5C00005000C00012905D0022C0CD0032C13D02F
:10D5D0000FB030BD7846134B1B68002B01D0984725
:10D5E000F2E700DEF0E778460E4B1B68002B01D017
:10D5F0009847EBE700DEE9E73022002102A810F0AF
:10D6000017FB192302AA1370173B13710495064BDD
:10D61000DA6806921B690193079302A802F0CCFC1A
:10D62000D6E7C046103100205829002010B511005F
:10D630000020FFF7C3FF10BD10B508001100FFF771
:10D64000BDFF10BD70B505000C00160001235B4244
:10D650000B8005F0F5FC307002281DD0032835D072
:10D66000012835D0002036E09A00D21891001A4ADD
:10D670008A5A95420DD00133002B0FD15A099200DE
:10D68000164952581F211940CA40D207ECD42380B2
:10D69000F1E7238001201EE00023EDE700201AE0DF
:10D6A0009A000F49525A95420DD00133032B11D8DD
:10D6B0005A0992000B4952581F211940CA40D207FB
:10D6C000EED42380F1E72380012004E00023EDE77E
:10D6D0000023EBE7002070BDF8290020002900207E
:10D6E00008290020F028002070B582B006000C0048
:10D6F0001500002941D06B46DA1D01A9FFF7A2FFF2
:10D70000002D13D16B4607331B78032B0ED010204E
:10D71000002833D101AB1B882380002D26D09B002D
:10D72000174AD3189A7801329A7027E0012D10D049
:10D73000002817D101AB1988124B994214D0300040
:10D74000FFF760FC01AB19880120FFF721FE0020E4
:10D75000DEE76B4607331B78032BE9D0012BE7D0BC
:10D760001020D5E70020D3E70420D1E79B00044A2E
:10D77000D318DA780132DA7000E00E2002B070BD02
:10D7800008290020FFFF000070B505000E000123EE
:10D790005B420B800024002C01D0002070BD630987
:10D7A0009B000F4A9B581F222240D340DB0705D421
:10D7B00032880C4B9A420DD134800BE0A3001B1928
:10D7C0009A000948801804301022290010F000FA4D
:10D7D000002801D00134DEE734800130DEE7C046A6
:10D7E00000290020FFFF0000F829002030B583B099
:10D7F00005000C004868002805D06B46991DFFF70E
:10D80000C3FF002803D1012252426B46DA806B46E7
:10D81000991D2800FFF784FA002816D06B46DA8895
:10D8200093009B189A000B4B9B18DB78002B0ED0B3
:10D830006580022323706B4606331B889A00D2183A
:10D840009100044B5B180433636003B030BD0020CB
:10D85000FBE7C046F829002010B504F047FF024B53
:10D860009C46604410BDC04600FCFFFF10B586B06A
:10D87000164B0393164B0493164B05930023029308
:10D88000FFF7EAFF00900123019302F0F9FA6946DD
:10D89000114803F0EBFC002809D10F4B1B78012B3A
:10D8A00001D0012404E0FFF7C1FD040000E00024E2
:10D8B00002F00AFB002C04D00122084B1A7006B0BB
:10D8C00010BD074803F01AFDF9E7C04639D601003C
:10D8D0002DD601000DD9010058290020562900201D
:10D8E000EC22002010B5054B054A9A60054ADA6023
:10D8F0000022054B1A70FFF7B9FF10BD7C290020EC
:10D9000061D00100E5D401005629002010B5FFF7D1
:10D91000ADFF10BD10B5041E05D01C4B1B68DB0706
:10D920000AD50F2010BD7846194B1B68002B01D07B
:10D930009847F2E700DEF0E720886388C318013BD0
:10D94000984201DD0B20EDE705F07AFB012801D0BC
:10D950000B20E7E720886388C01880B2013880B2C6
:10D9600005F06EFB012801D00B20DBE7042221002B
:10D97000084810F051F9054A012311680B43136060
:10D9800000210800FFF704FD0020CBE7F828002065
:10D99000103100209029002010B5041E05D004226B
:10D9A0000649200010F038F910BD7846044B1B687A
:10D9B000002B01D09847F2E700DEF0E79029002025
:10D9C0001031002010B50122FFF78EFE10BD0000BF
:10D9D00010B5020003280AD843099B001C495B5874
:10D9E0001F210140CB40DB0716D5012100E00021BB
:10D9F000002915D1131F9BB2002B09D158098000B3
:10DA0000144C00591F242340D840C30700D50131CE
:10DA1000002903D0012304E00021E9E7002300E00E
:10DA20000123181E08D0032A07D892000A4882183A
:10DA3000D078431E9841C0B210BD101F820012184A
:10DA40009100064B5B18D878431E9841C0B2F3E7AB
:10DA5000F02800200029002008290020F8290020B3
:10DA600070B50C1E3ED003280AD843099B001E4AFD
:10DA70009B581F220240D340DB0716D5012200E04D
:10DA80000022002A13D1031F9BB2002B09D1590990
:10DA90008900164D49591F252B40D940CB0700D589
:10DAA0000122002A0FD1052070BD0022E9E7104BAA
:10DAB0008000C25A6280C05A05F0C2FA207000236A
:10DAC00063600020F0E704380A4B82001518A900B3
:10DAD0000D00C95A61805B1904336360022323700F
:10DAE0000020E1E70E20DFE7F028002000290020D9
:10DAF00008290020F829002030B583B004000D006B
:10DB000000282CD000292CD0408805F099FA022852
:10DB10000DD0032803D0012801D0102022E0608816
:10DB20002900FFF727F900281ED105301AE001224D
:10DB300052426B46DA80606800280CD06B46991D13
:10DB4000FFF722FE002808D06B4606331B880433FB
:10DB50002B80002006E00E2004E0052002E00E20CD
:10DB600000E00E2003B030BD0020FBE710B5002818
:10DB700002D0FFF7C5F910BD0048FCE7FFFF000029
:10DB800070B51400002937D0002A37D01C4B9842BA
:10DB900001D9072070BD1B4E0023002B04D00023A9
:10DBA000002B1AD00F20F5E75A099200164D525952
:10DBB0001F251D40EA40D2070AD55C225A43134D67
:10DBC000525B904201D00133E7E79EB20123E7E7C1
:10DBD0000C4A9642F7D19EB2F5E70A4B9E4201D11C
:10DBE0000420D7E73200FFF72DFB31000320FFF7B9
:10DBF000CFFB26800020CDE70E20CBE70E20C9E723
:10DC0000FF0F0000FFFF0000942900209C29002046
:10DC1000F0B583B006000F0014001D00002A37D0B5
:10DC2000002B37D005F00CFA012801D0102032E08B
:10DC3000002F01D005202EE07B099B00174A9B583E
:10DC40001F223A40D340DB0701D4052023E06B4676
:10DC5000991D3000FFF7B6F8002801D00F201AE018
:10DC60006B4606331B880E4A934201D1042012E012
:10DC7000220039003000FFF703FA6B469C1DD9885B
:10DC800001390520FFF784FB23882B80002002E068
:10DC90000E2000E00E2003B0F0BDC0469429002005
:10DCA000FFFF0000F0B583B007000D0014001E0058
:10DCB000002A35D0002B35D0002902D0052003B032
:10DCC000F0BD4B099B00184A9B581F220A40D340C5
:10DCD000DB0701D40520F2E7144B984201D9072055
:10DCE000EDE76B46991DFFF799F8002801D00F204A
:10DCF000E5E76B4606331B880D4A934201D10420A9
:10DD0000DDE7220029003800FFF752FA6B469C1D20
:10DD1000D9880420FFF73CFB238833800020CEE71E
:10DD20000E20CCE70E20CAE794290020FF0F000048
:10DD3000FFFF000070B504000D00012801D9052087
:10DD400070BD002900D182E000283FD143099B002B
:10DD5000404A9B581F220240D340DB0701D40520D4
:10DD6000EEE7162242433C4B9B185B88002B05D004
:10DD700078463A4B1B68002B24D098471622624302
:10DD8000354B9B1859884B099B00354A9B581F22DD
:10DD90000A40D340DB0705D47846304B1B68002B84
:10DDA00012D09847162363432B4CE418231D6B6055
:10DDB00062885C235A4310322A4B9B1802332B6033
:10DDC0000020BDE700DED9E700DEEBE7013C630998
:10DDD0009B00254A9B581F222240D340DB0701D4D9
:10DDE0000520ADE716226243204B9B185B88002B71
:10DDF00005D07846194B1B68002B24D09847162273
:10DE000062431A4B9B1859884B099B00144A9B5834
:10DE10001F220A40D340DB0705D478460F4B1B680E
:10DE2000002B12D0984716236343104CE4186288E5
:10DE30005C235A4310320B4B9B1802332B60043483
:10DE40006C6000207CE700DED9E700DEEBE70E2007
:10DE500076E7C04618290020202900201031002034
:10DE6000942900209C2900203829002040290020E6
:10DE700070B504000D1E06D0286800280CD0FEF7EF
:10DE8000F7FF01300BE07846134B1B68002B01D0E5
:10DE90009847F1E700DEEFE7002000E001300028BE
:10DEA00017D143099B000D4A9B581F220240D340C3
:10DEB000DB07F3D55C224243094B9B189B7C6340F4
:10DEC0005B06EBD1130010330548C0180230286000
:10DED00001E000232B6070BD103100209429002048
:10DEE0009C29002070B504000E00151E0CD0002CDB
:10DEF00013D02000FEF7BCFF0E4B984216D02A002C
:10DF00003100FFF74BF870BD78460B4B1B68002BB8
:10DF100001D09847EBE700DEE9E77846064B1B683F
:10DF2000002B01D09847E4E700DEE2E700232B60F6
:10DF3000E9E7C046FFFF00001031002070B5050082
:10DF40000C1E04D02800FFF711F8206070BD784641
:10DF5000034B1B68002B01D09847F3E700DEF1E785
:10DF60001031002070B505000E1E06D03068002864
:10DF70000CD0FEF7A1FF441C19E07846204B1B682B
:10DF8000002B01D09847F1E700DEEFE700240EE018
:10DF9000012100E001211B4B5C2044431A193C3253
:10DFA000117038341B190433336028E00134002C1D
:10DFB00023D163099B00144A9B581F222240D3405F
:10DFC000DB07F3D5002D0CD05C2161430B005033EF
:10DFD0000C49C9180431082228000FF0F9FD002867
:10DFE000E4D10A4B1B78002BD4D05C236343054A51
:10DFF0009B5A002BCCD00021CDE70023336070BDAD
:10E00000103100209C290020942900208C29002018
:10E0100070B504000D0005F013F802280FD0032896
:10E0200008D0012801D0002003E029002000FEF7DD
:10E030001BFE70BD29002000FEF760FEF9E72900F5
:10E040002000FFF7D3FBF4E710B50021BE235B00EF
:10E050001B4AD150002409E01A4A8A58D21A1A4B96
:10E0600093429B415B421DE00134E4B2032C25D86E
:10E07000A223DB00A022D205D258210011310123B6
:10E080008B409343F0D0114B1B680E4A10498A58BD
:10E090009A1AE1D40B4A0E498A589A1A0A4B9342AB
:10E0A0009B415B42002BDFD0064B094AD258074BFD
:10E0B0001A60084B1B6820009847D5E710BDC04682
:10E0C00000600040040500009A190000102A00209A
:10E0D00000B000400C2A002052DF704710DF70476C
:10E0E00060DF704761DF7047A023DB05F022520438
:10E0F000A121C9005A5004495A50EFF3108372B657
:10E100000028FDD17047C0460C05000010B584B052
:10E110000C000D4B1B685B0403D50C4B1B68002BDC
:10E1200004D12000FFF7E0FF04B010BD084B0949FF
:10E13000CB58039202940190074A00926722074944
:10E14000012003F033FEECE700230020FC22002036
:10E150000405000000B0004060E102004EE1020052
:10E1600010B584B00D4B1B685B0403D50C4B1B68CA
:10E17000002B04D10120FFF7B7FF04B010BD094BFD
:10E18000094CE358039002910192084A0092402200
:10E190000749012003F00AFEECE7C04600230020F7
:10E1A000FC2200200405000000B000405CE00200FA
:10E1B0004EE1020010B582B004000C4B1B685B04FA
:10E1C00003D50B4B1B68002B04D12000FFF78CFFFD
:10E1D00002B010BD074B084AD3580190074A00927D
:10E1E00046220749012003F0E1FDEEE7002300206D
:10E1F000FC2200200405000000B000407CE002008A
:10E200004EE1020000B583B00B4B1B685B0403D5E5
:10E210000A4B1B68032B04D80120FFF765FF03B0EE
:10E2200000BD074B074AD358074A00924C220749C2
:10E23000042003F0BBFDEFE700230020FC220020B8
:10E240000405000000B000404CE002004EE1020076
:10E2500000B583B002E0019804F05AFE01A8FFF770
:10E260003BFF0028F7D047226B465A8005E007485D
:10E2700004F04CFE47226B465A806B46991C0348BB
:10E28000FFF730FF0028F2D003B000BD142A0020B1
:10E2900010B584B00400254B1B685B0403D5244BE8
:10E2A0001B68032B2AD8234B0393039B02931F4B1A
:10E2B0001B685B0403D51E4B1B68032B29D802A9DE
:10E2C0002000FFF70DFF0400029A039B9A4212D030
:10E2D000164B1B685B040ED5154B1B68012B0AD926
:10E2E000154B1649CB580192154A00927B221549CD
:10E2F000022003F05BFD200004B010BD0E4B0F4A5E
:10E30000D358114A00926D220E49042003F04EFDAD
:10E31000C9E7094B094AD358039A01920B4A009264
:10E3200076220849042003F041FDC8E700230020BD
:10E33000FC220020D82200200405000000B000408C
:10E34000C4E002004EE1020098E00200B4E00200E6
:10E3500000B589B00190234901A8FFF7BFFE00284E
:10E360001CD1C5239B00204AD258920D0323134091
:10E3700002D0022B17D00123002B16D11B480028F6
:10E3800025D11422002103A80FF052FC03A8FFF7A7
:10E390007FFF002820D1002009B000BD144A82214F
:10E3A000FFF7DEFEDDE70023E6E7124B5B68002B9C
:10E3B00005D18022D2030C4B1A600020DFE70D4A02
:10E3C00011688023DB030B4313600020D7E7084A62
:10E3D0008321FFF7C5FED4E7054A8621FFF7C0FE7B
:10E3E000D9E7C0460DE1010000E100E00220000095
:10E3F00000E102005C2A002070B58CB01B4D6B461A
:10E400002A0070CA70C370CA70C370CA70C370CA61
:10E4100070C30588122D0BD00023072B22D85A0079
:10E42000D21854006A46A25A95420CD00133F4E740
:10E430000A230B700389013B9BB2002040229A42C1
:10E440004041C0B20FE06C4464880289944201D01C
:10E45000002008E05A00D3185A006A4413790B7060
:10E46000012000E000200CB070BDC046B8E1020001
:10E4700010B584B0040080780200082807D1C823B2
:10E480005B00E25A0F4B9A420AD1E07808E00E4B4B
:10E490001B689B0403D50D4B1B68032B02D8A07887
:10E4A00004B010BD0A4B0B48C35809780292019181
:10E4B000094A0092E422FF320849042003F076FC66
:10E4C000EDE7C0466D80000000230020FC22002004
:10E4D0000405000000B00040A4E402008FE4020044
:10E4E00000B585B082788A4209D0C27081700C4B29
:10E4F0001B689B0403D50B4B1B68042B01D805B08C
:10E5000000BD094B0948C35802910192084A009284
:10E510000822FF320749052003F048FCEFE7C04618
:10E5200000230020FC2200200405000000B0004071
:10E53000E8E102008FE4020030B595B00400544BCE
:10E540001B78002B01D015B030BD0122504B1A7042
:10E55000504801F02EFE05000AE002A90B789B004E
:10E560004D4A9B582000984701002000FFF7B8FF54
:10E5700002A94A4801F0EAFD002817D102AB1A7837
:10E58000092AEAD0464B1B689B04E6D5454B1B681D
:10E59000042BE2D9444B4549CB580192444A00929E
:10E5A000444A4549052003F001FCD6E702AB1B783D
:10E5B000092B01D0002D11D1CE235B00E35C002B91
:10E5C00008D002AB1B78092B04D00E2B02D0A37805
:10E5D000022B3AD000222E4B1A70B4E72D4801F0DE
:10E5E000E8FD8542E8D102A92A4801F0AFFD0028E4
:10E5F00005D07846314B1B68002B18D0984702ABEA
:10E600001A78092A07D0264B1B689B0403D5254B93
:10E610001B68042B0DD802A90B789B001E4A9B583F
:10E620002000984701002000FFF75AFFC4E700DEF2
:10E63000E5E71D4B1D49CB5801921D4A0092204A27
:10E640001D49052003F0B2FBE5E7002202AB1A707A
:10E65000134B1B689B0403D5124B1B68042B09D872
:10E660003322002117480FF0E3FA03212000FFF7BF
:10E6700037FFAFE70C4B0D4AD358002201920C4AEA
:10E680000092F92292000C49052003F08FFBE7E786
:10E690006C2A0020B42A002050E20200582B0020EF
:10E6A00000230020FC2200200405000000B00040F0
:10E6B00034E50200CB0300008FE40200103100209B
:10E6C000D7030000FC2B002030B595B00D001400DE
:10E6D00000290AD0002C11D0012C27D078462D4BD0
:10E6E0001B68002B54D098474EE07846294B1B6896
:10E6F000002B01D09847EDE700DEEBE7264B1B68C7
:10E700009B0441D5254B1B68042B3DD9244B254A3E
:10E71000D358C2225200AA5A0192234A00923822A8
:10E72000FF322249052003F041FB2DE01A4B1B6804
:10E730009B0412D5194B1B68012B0ED9184B194A93
:10E74000D358C2225200AA5A0192194A00929E221C
:10E7500052001649022003F029FB02AC4822002196
:10E7600020000FF065FA0E2323702100114801F0FC
:10E77000BBFC002805D07846064B1B68002B05D053
:10E7800098472800FFF7D8FE15B030BD00DEF8E747
:10E7900000DEF9E71031002000230020FC220020D9
:10E7A0000405000000B0004040E502008FE40200D4
:10E7B0005CE50200582B002010B592B00C00114B04
:10E7C0001B680433834201D012B010BD48220021DF
:10E7D00068460FF02DFA07236A46137014716946D4
:10E7E000094801F081FC002805D07846074B1B68DA
:10E7F000002B05D09847034B1868FFF79DFEE3E711
:10E8000000DEF8E7302C0020582B002010310020CB
:10E8100000B593B0104B1B680433834201D013B092
:10E8200000BD4822002168460FF002FA05236A461F
:10E8300013706946094801F057FC002805D0784656
:10E84000074B1B68002B05D09847034B1868FFF750
:10E8500073FEE4E700DEF8E7302C0020582B0020A0
:10E860001031002000B593B0104B1B680433834275
:10E8700001D013B000BD4822002168460FF0D8F93E
:10E880000B236A4613706946094801F02DFC0028E5
:10E8900005D07846074B1B68002B05D09847034BE3
:10E8A0001868FFF749FEE4E700DEF8E7302C0020A7
:10E8B000582B00201031002000B593B00378032BB3
:10E8C00001D013B000BD06336A461370011D1E222D
:10E8D00001A80FF0A1F96946084801F005FC0028DD
:10E8E00005D07846064B1B68002B05D09847054B92
:10E8F0001868FFF721FEE4E700DEF8E7582B002058
:10E9000010310020302C002010B584B004004B687A
:10E910005A688078010008282BD1C8235B00E15A8F
:10E92000204B99422ED11278022A03D8002A0DD109
:10E93000062027E0032AFBD01B4B1B689B0403D552
:10E940001A4B1B68042B07D8A0781BE0201D02215E
:10E950000AF068F8022015E0154B1649CB580192D1
:10E96000154A0092EB2292001449052003F01EFA8A
:10E97000EAE70D4B1B689B0403D50C4B1B68032B6C
:10E9800002D8A07804B010BD094B0A48C3581278C9
:10E99000029101920A4A00920A4A0849042003F0AF
:10E9A00005FAEEE76080000000230020FC22002032
:10E9B0000405000000B00040D4E402008FE402002F
:10E9C000F0E40200B603000010B582B004004B680A
:10E9D0005B68807805283BD008286FD1C822520098
:10E9E000A15A424A91427ED11B78052B05D0404B5B
:10E9F0001B689B041AD4022075E03D4B1B689B04E6
:10EA000001D402206FE03B4B1B68042B01D802208D
:10EA100069E0394B394AD358394A0092B122920001
:10EA20003849033803F0C2F902205CE0314B1B681F
:10EA3000042B01D8022056E02F4B304AD358324ADB
:10EA40000092324A2F49052003F0B0F902204AE033
:10EA50001A78052A0DD0264B1B689B0403D5254B3D
:10EA60001B68042B1ED8201D022109F0DBFF0620A5
:10EA700039E01F4B1B689B0401D4062033E01D4B7B
:10EA80001B68042B01D806202DE01B4B1B4AD358D2
:10EA90001F4A0092B52292001A49052003F086F918
:10EAA000062020E0144B1549CB580192194A0092D8
:10EAB000194A1449052003F079F9D4E70C4B1B6877
:10EAC0009B040FD50B4B1B68012B0BD90A4B0B4931
:10EAD000CB580190114A0092B822920009490220B5
:10EAE00003F064F9A07802B010BDC0466380000056
:10EAF00000230020FC2200200405000000B000409C
:10EB00002CE302008FE4020044E30200C90200008B
:10EB100060E3020078E30200D902000098E30200FB
:10EB200010B58378052B09D0082B07D07846084B01
:10EB30001B68002B0AD09847022010BD0430022128
:10EB400009F070FF034801F031FBF5E700DEF3E761
:10EB500010310020B42A002010B592B01400144BDC
:10EB60001B681A1D824201D012B010BD9B78062B83
:10EB700001D0082BF8D10C236A46137022006B4693
:10EB8000981D0FF049F86B469C806946094801F0D2
:10EB9000ABFA002805D07846074B1B68002B05D040
:10EBA0009847034B1868FFF7C7FCDDE700DEF8E77E
:10EBB000302C0020582B00201031002010B584B0DC
:10EBC0000C000E21694401235B420B800088FDF795
:10EBD00025FC002813D10E236B4418880B4B984258
:10EBE00010D001A9FEF73CFF00280DD101AB5A88D7
:10EBF000E3899A4201D0002002E0013000E00020C9
:10EC000004B010BD0020FBE70020F9E7FFFF000083
:10EC100010B582B004008278072A15D0204B1B68FB
:10EC20009B040ED51F4B1B68012B0AD91E4B1F4995
:10EC3000CB5801921E4A00921E4A1F49022003F03F
:10EC4000B5F8A07802B010BD1C4A00231370112142
:10EC50008533FF33C152863BFF3B7631FF31435250
:10EC6000023142508839FF39C6225200815214497C
:10EC700004328152023283528130FF30FDF7BCFFF3
:10EC800000280AD078460F4B1B68002B02D098470B
:10EC90000820D7E700DE0820D4E70820D2E7C046E6
:10ECA00000230020FC2200200405000000B00040EA
:10ECB000BCE302006D0300008FE40200702A002014
:10ECC0006080FFFF1031002010B582B00400827810
:10ECD000052A0AD0214B1B689B0403D5204B1B68D7
:10ECE000042B2CD8A07802B010BD1E4B00221A7045
:10ECF000FF325A701C4985328152863AFF3AC3214D
:10ED000049004252023143508739FF39C6235B0024
:10ED1000C15216490433C1520233C2528130FF300E
:10ED2000FDF76AFF002816D07846114B1B68002BB0
:10ED300002D098470520D6E700DE0520D3E70D4B2B
:10ED40000D49CB5801920D4A00920D4A0D490520FC
:10ED500003F02CF8C6E70520C5E7C04600230020D5
:10ED6000FC220020702A00206C80FFFF6380FFFFE0
:10ED7000103100200405000000B00040BCE2020099
:10ED8000550200008FE4020070B582B004000D004F
:10ED9000424B1B689B0403D5414B1B68042B1CD8BA
:10EDA000A378062B37D0082B00D06AE03B4B1B68BA
:10EDB0009B0403D53A4B1B68042B1CD82900394807
:10EDC00001F092F9002805D07846374B1B68002BDC
:10EDD0001FD09847A07802B070BD344B344AD35846
:10EDE0008A790192334A0092DD229200324905204D
:10EDF00002F0DCFFD4E72D4B2D4AD3582A7801923C
:10EE00002E4A0092DE2292002B49052002F0CEFF0E
:10EE1000D4E700DEDEE7AB88412B05D97846224BEC
:10EE20001B68002B28D09847A91DAA88244E3000C3
:10EE30000EF0F2FEA9881222C2235B00E252863B4A
:10EE4000FF3B7532FF32A3520232A6500432A15268
:10EE50001C490432A1520232A35220008130FF30FB
:10EE6000FDF7CAFE002817D078460F4B1B68002B11
:10EE700004D098470820AEE700DED5E700DE082082
:10EE8000A9E77846084B1B68002B02D09847022060
:10EE9000A1E700DE02209EE708209CE70023002077
:10EEA000FC220020B42A00201031002004050000BC
:10EEB00000B00040D4E302008FE40200ECE3020063
:10EEC000702A00206080FFFF30B583B005000C0081
:10EED0008378053BDAB2042A00D99DE09300524AB8
:10EEE000D3589F460088FDF76DFE002807D00528FF
:10EEF00005D078464D4B1B68002B2AD098474C4BC9
:10EF000001221A7022795A704A49C2225200A9522B
:10EF1000863AFF3AC32149006A5202316B50873961
:10EF2000FF39C6235B00E95243490433E9520233F7
:10EF3000EA5228008130FF30FDF75EFE002800D144
:10EF40006CE07846394B1B68002B04D098470820AA
:10EF500019E000DED3E700DE082014E0374B1B6821
:10EF60009B0403D5364B1B68042B0ED82100354873
:10EF700001F0BAF8002853D078462C4B1B68002BC0
:10EF800011D09847082003B030BD2F4B2F4AD358DB
:10EF90000A7801922E4A0092A72292002D4905205C
:10EFA00002F004FFE2E700DE0820ECE70122204B3C
:10EFB0001A700B79002B28D102211D4A11701C4AAE
:10EFC00053701C49C2235B00E952863BFF3BC321BF
:10EFD00049006B5202316A508739FF39C62252000C
:10EFE000A95215490432A9520232AB52280081308D
:10EFF000FF30FDF701FE002814D078460B4B1B684C
:10F00000002B06D098470820BDE70321084A11705D
:10F01000D5E700DE0820B6E70220B4E70820B2E713
:10F020000820B0E70820AEE780E1020010310020A0
:10F03000702A00206C80FFFF6380FFFF0023002008
:10F04000FC220020B42A00200405000000B000408B
:10F05000ECE302008FE40200F0B587B006000F0079
:10F060008578032D19D0042D00D191E0280007B038
:10F07000F0BD0134022C12DC23011B19614A9B5C98
:10F08000002BF6D023011B19D0180130391D102296
:10F090000EF09EFD0028ECD1E8E70024EAE700240A
:10F0A000022C3FDC23011B19564A9B5C002B01D02C
:10F0B0000134F5E7100023011B1901221A54C0186E
:10F0C000013004370F3239000EF0A6FD4E4D1022EC
:10F0D000390028000EF0A0FD2C744C4AC2235B00BE
:10F0E000F252863BFF3BC3225200B3520232B5506C
:10F0F00011210432B15246490432B1520232B352A4
:10F1000030008130FF30FDF777FD00283AD0784697
:10F11000404B1B68002B02D098470825A6E700DE6D
:10F120000825A3E73C4B1B689B0403D53B4B1B689E
:10F13000042B19D802AA0123137003A938480880A8
:10F140000120404248804A600B813088FDF722F957
:10F15000002819D0042819D078462E4B1B68002BA4
:10F160000DD09847022581E72E4B2F4AD3582F4ABE
:10F1700000922F4A2F49052002F018FEDAE700DE40
:10F18000022573E7082571E702256FE702256DE781
:10F190000437102239001B4801300EF019FD0028F9
:10F1A00000D063E7184C1022390020000EF034FD27
:10F1B00000232374154A8533FF33F252863BFF3B0D
:10F1C000C3225200B3520232B45011210432B15260
:10F1D0000F490432B1520232B35230008130FF3055
:10F1E000FDF70AFD00280AD078460A4B1B68002B61
:10F1F00002D09847082539E700DE082536E70825BC
:10F2000034E7C046FC2B0020702A00206A80FFFFF4
:10F210006D80FFFF1031002000230020FC22002021
:10F220006780FFFF0405000000B0004018E5020001
:10F23000110300008FE40200F0B583B004000D005C
:10F2400001921F004B685968061D1A89300009F0A9
:10F2500054FC002816D00221300009F0E3FB022301
:10F260003B7069682088019AFDF79DF8002826D038
:10F27000042827D07846144B1B68002B18D09847D9
:10F2800009201DE000233B7069682088019AFDF782
:10F290008AF800280FD004280FD078460A4B1B6844
:10F2A000002B02D0984707200AE000DE072007E085
:10F2B00000DE092004E0072002E0072000E009202A
:10F2C00003B0F0BD0920FBE71031002010B584B079
:10F2D00004008378033BDBB2012B1ED801236A466E
:10F2E000137001AA1C4810800120404250806846DB
:10F2F0005060138149682088FDF755F8002807D031
:10F30000042805D07846154B1B68002B03D098477E
:10F31000022004B010BD00DEFAE703236A46137032
:10F3200001AA0D4B138001235B4253806B4653604F
:10F330000123138149680088FDF735F8002807D0BC
:10F34000042805D07846054B1B68002B02D098474F
:10F35000A078DEE700DEFBE76780FFFF10310020CA
:10F3600030B585B004000D008378023BDBB2022B80
:10F3700024D83322002121480EF05AFC00236A468B
:10F38000137001AA1E4B138001235B4253806B460E
:10F3900053600123138169682088FDF704F8002871
:10F3A00007D0042805D07846164B1B68002B03D0E5
:10F3B0009847032005B030BD00DEFAE702236A4615
:10F3C000137001AA0E4B138001235B4253806B46DE
:10F3D00053600123138149680088FCF7E4FF00288B
:10F3E00007D0042805D07846064B1B68002B02D0B6
:10F3F0009847A078DEE700DEFBE7C046FC2B002044
:10F400006780FFFF1031002030B587B004000D0089
:10F4100003AB334A1A80012252425A8002AA049254
:10F4200001221A818078020006282ED004D90728EC
:10F430003CD008284DD001E005284AD0294B1B6854
:10F440009B040ED5284B1B68012B0AD9274B284952
:10F45000CB580192274A0092274A2849022002F0FD
:10F46000A5FC012202AB1A706968208803AAFCF788
:10F470009AFF002807D0042805D07846204B1B6847
:10F48000002B2AD09847A07823E04B685B681B7854
:10F490009E22FF32A25C934208D09E22FF32A354E8
:10F4A00002AB03AA2000FFF7C7FE12E0002202AB66
:10F4B0001A706968208803AAFCF775FF002807D036
:10F4C000042805D078460E4B1B68002B03D09847C4
:10F4D000A07807B030BD00DEFAE700DED3E7C04613
:10F4E0006080FFFF00230020FC22002004050000B4
:10F4F00000B0004000E40200570300008FE4020067
:10F500001031002000B585B00122524201AB5A8073
:10F510000B88424A934245D01DD8414A934241D07C
:10F5200044D8122B38D104236A46137001AA3D4BEC
:10F5300013806B465360012313810088FCF733FF6F
:10F5400000282FD004282DD07846374B1B68002B7D
:10F550002AD0984726E0354A93421AD8344A934233
:10F560003ED203236A46137001AA324B13806B46C6
:10F570005360012313810088FCF715FF002811D088
:10F5800004280FD07846284B1B68002B42D09847A0
:10F5900008E0294A934205D07846234B1B68002B8C
:10F5A0003AD0984705B000BD00DEFBE706236A4667
:10F5B000137001AA214B13806B4653600123138102
:10F5C0000088FCF7F0FE0028ECD00428EAD078464A
:10F5D000154B1B68002B01D09847E3E700DEE1E7FD
:10F5E00002236A46137001AA124B13806B465360C4
:10F5F000012313810088FCF7D6FE0028D2D004280E
:10F60000D0D07846084B1B68002B01D09847C9E73B
:10F6100000DEC7E700DEC5E700DEC3E76380000069
:10F62000608000006080FFFF1031002066800000D5
:10F63000658000006780FFFF6D8000006380FFFF32
:10F6400070B592B006000D00141E10D02388B3428E
:10F6500005D078461A4B1B68002B11D09847694695
:10F660002800FEF7C9FE00280CD112B070BD784604
:10F67000134B1B68002B01D09847E7E700DEE5E756
:10F6800000DEECE729002000FFF798FA002804D1FB
:10F6900029002000FFF736FFE7E701956946094892
:10F6A00000F022FD002805D07846054B1B68002B92
:10F6B00004D098472000FEF73FFFD6E700DEF9E7C9
:10F6C00010310020582B0020F0B5DE4657464E463C
:10F6D0004546E0B58BB004AF834639608378023B82
:10F6E000DBB2022B00D96AE04B687B60454B1B689C
:10F6F0009B0403D5444B1B68042B2DD87968043137
:10F700001022424801300EF087FA00233B72404B32
:10F71000BB8101235B42FB810933FB183B61012361
:10F72000BB823B6859685B4618880C23FA18FCF7C3
:10F730003AFE002807D0042805D07846354B1B68D0
:10F74000002B3AD098470420BD4607B03CBC9046F9
:10F750009946A246AB46F0BDE8468AB004AB99464E
:10F760001D00002313E07A68D21811795A000809A5
:10F770008246294806685446345DAC5401329246AC
:10F780000F220A4001688A5C51466A5401330F2BEC
:10F79000E9D9002220234946CA54204B204AD35895
:10F7A0000291204A0192204A0092CB2252001F4926
:10F7B000052002F0FBFAC546A0E700DEC3E70223FE
:10F7C0003B72134BBB8101235B42FB810933FB1866
:10F7D0003B610123BB823B68596800880C23FA18FF
:10F7E000FCF7E1FD002807D0042805D07846094B36
:10F7F0001B68002B03D098475B469878A4E700DE8F
:10F80000FAE7C04600230020FC220020FC2B002049
:10F810006780FFFF10310020042300200405000052
:10F8200000B00040C4E4020048DE02008FE40200A1
:10F8300070B586B004000E004B685B681B78191C1D
:10F84000022B00D90221CDB203AB414A1A8001221A
:10F8500052425A8002AA049202221A81A278062AEF
:10F8600047D3072A12D9082A43D1C8235B00E25A9A
:10F87000384B9A4222D02088FDF7A4F9002805D001
:10F880007846354B1B68002B2ED09847201D290049
:10F8900009F0C8F8052202AB1A707168208803AA23
:10F8A000FCF781FD00284ED004284ED078462A4B24
:10F8B0001B68002B1AD09847092040E0032202ABB6
:10F8C0001A707168208803AAFCF76DFD002807D024
:10F8D000042805D07846204B1B68002B02D098479F
:10F8E000A0782CE000DEFBE700DECFE700DE092099
:10F8F00025E01A4B1B689B040ED5194B1B68012B86
:10F900000AD9184B1849CB580192184A0092184A44
:10F910001849022002F04AFA032202AB1A707168F9
:10F92000208803AAFCF73FFD002807D0042805D053
:10F930007846094B1B68002B03D09847A07806B087
:10F9400070BD00DEFAE70920F9E70920F7E7C046B5
:10F950006380FFFF6D800000103100200023002035
:10F96000FC2200200405000000B000409CE20200E0
:10F970007F0200008FE4020070B586B004000D0025
:10F980004B685E6803AB874A1A80012252425A8054
:10F9900002AA049202221A818378082B00D9E5E09A
:10F9A0009B00814AD3589F46E923C35C023BDBB2EC
:10F9B000012B2AD90088FDF705F9002805D07846E3
:10F9C0007A4B1B68002B38D098473378022B05D828
:10F9D0001A01D318764A9B5C002B32D102AB042269
:10F9E0001A7000225A706968208803AAFCF7DBFCB1
:10F9F000002807D0042805D078466C4B1B68002BE4
:10FA00001DD09847A07806B070BD02AB01221A70D5
:10FA100000225A704968008803AAFCF7C4FC002839
:10FA200007D0042805D07846604B1B68002B02D015
:10FA30009847A078E7E700DEFBE700DEC5E700DED9
:10FA4000E0E7FF229E23FF33E25433781901CB18FD
:10FA50005749C9180131201D08F0DAFF00283ED0AF
:10FA6000544B1B689B040FD5534B1B68012B0BD9C0
:10FA7000524B534AD3580190524A00928822920026
:10FA80005149022002F092F9504A02231370537038
:10FA90004F48C221490060528639FF39C3204000D7
:10FAA000215202302250C6225200A3523D4A8F33C7
:10FAB000FF33E2520233E15220008130FF30FDF784
:10FAC0009BF8002800D166E07846384B1B68002B75
:10FAD00002D09847082096E700DE082093E702ABA3
:10FAE00000221A705A706968208803AAFCF75BFC30
:10FAF000002852D0042852D078462C4B1B68002B8B
:10FB000002D0984705207EE700DE05207BE702ABA8
:10FB100000221A705A704968008803AAFCF743FC57
:10FB2000002807D0042805D07846204B1B68002BFE
:10FB300002D09847A07866E700DEFBE702AB01221F
:10FB40001A7000225A704968008803AAFCF72BFC3F
:10FB5000002807D0042805D07846144B1B68002BDA
:10FB600002D09847A0784EE700DEFBE7114B1B68F8
:10FB70009B0403D5104B1B68032B01D8A07842E7E8
:10FB80000E4B0F4AD358134A0092134A0E490420D1
:10FB900002F00CF9F2E7082035E7052033E70520ED
:10FBA00031E7C0466380FFFF94E10200103100207E
:10FBB000FC2B002000230020FC2200200405000074
:10FBC00000B00040ECE202008FE40200702A002046
:10FBD0006C80FFFF14E302003F020000F0B587B025
:10FBE00004000D00002848D08378002B02D00820A4
:10FBF00007B0F0BD2248234B036048264660022729
:10FC0000876000F041FA20488760204B036046601F
:10FC100000F03AFA00221E4B1A70261D08F02CFE46
:10FC200001001C4B1C4A300008F0CAFE0028DFD13E
:10FC30006B469D8004236A461380053B5380174B17
:10FC4000029309230393049400230593210068463B
:10FC5000FCF7F8FA0028CBD12288C0235B00E252DF
:10FC60000F4A1833E2500F4A043BE250943BFF3BEB
:10FC7000A37000220C4B1A60BAE70E20B8E7C0460A
:10FC8000582B00206C2B0020B42A0020C82A00200A
:10FC90006C2A0020008793038CE2020008E2020035
:10FCA000C9E6010080C3C901302C002010B5041E34
:10FCB00016D08378012B01D0082010BD094B1B689A
:10FCC000002B01D00820F8E70748084B036003F039
:10FCD00024F90223A370E370024B1C600020ECE7C0
:10FCE0000E20EAE7302C0020642A0020B9E8010049
:10FCF00010B50378012B11D0002B02D0022B06D0B7
:10FD000010BD4368002BFBD080689847F8E7436834
:10FD1000002BF5D0C16880689847F1E74368002B55
:10FD2000EED080689847EBE78021C90280235B0012
:10FD3000014AD1507047C04600E100E010B584B0E0
:10FD4000002404E0A300144A9B5898470134134B45
:10FD50001B689C4218D262099200114B9B181F220B
:10FD600022401968D140C907F0D5EFF3108172B66F
:10FD7000012090401A6882431A600029E2D162B6DD
:10FD8000E0E76846FFF7B4FF6946064800F0DEF991
:10FD90000028F6D004B010BD502D00204C2D0020BE
:10FDA000602D0020342C002010B50100054800F023
:10FDB0009BF9041E02D00424200010BDFFF7B4FFFD
:10FDC000FAE7C046342C002010B5FFF7B7FF10BD8E
:10FDD00010B50B480B4B036010234360836000F0A9
:10FDE00053F9094BC42080001A5808491140C02219
:10FDF00012040A431A508022D2021A6010BDC04673
:10FE0000342C0020482C002000E100E0FFFF00FF20
:10FE100030B585B004000D00002809D001236A46E2
:10FE20001370019402956846FFF7BEFF05B030BD20
:10FE30007846044B1B68002B01D09847EEE700DEA4
:10FE4000ECE7C0461031002030B585B004000D004D
:10FE5000002809D000236A46137001940295684671
:10FE6000FFF7A2FF05B030BD7846044B1B68002B9E
:10FE700001D09847EEE700DEECE7C04610310020E5
:10FE800010B5EFF3108472B60C490A68531C0B606E
:10FE9000002A04D18020C002803209498850002BFA
:10FEA00005D17846074B1B68002B04D09847002CDF
:10FEB00000D162B610BD00DEF9E7C046482D002033
:10FEC00000E100E01031002010B5EFF3108472B6AD
:10FED0000C4B1B68002B05D178460B4B1B68002B85
:10FEE0000ED09847074A1368013B1360002B03D1DB
:10FEF0008022D202054B1A60002C00D162B610BDE0
:10FF000000DEEFE7482D00201031002000E100E086
:10FF100010B5041E17D0114B1B68032B05D978466A
:10FF20000F4B1B68002B17D09847EFF3108372B666
:10FF30000A4A1068411C116081000A4A8C50002B4B
:10FF400000D162B610BD7846054B1B68002B01D06E
:10FF50009847E0E700DEDEE700DEE6E74C2D002014
:10FF600010310020502D002070B505000F4B1B688C
:10FF7000834205D878460E4B1B68002B14D0984757
:10FF8000EFF3108472B66A0992000A4B9B181F2087
:10FF900028400122824019680A431A60FFF7C4FE14
:10FFA000002C00D162B670BD00DEE9E74C2D0020C8
:10FFB00010310020602D002070B5051E04D00B4BC1
:10FFC0001C68002C0ED10FE07846094B1B68002BF3
:10FFD00001D09847F3E700DEF1E7231F1B682800F4
:10FFE00098472468002CF8D170BDC046642D0020CD
:10FFF0001031002070B5061E0ED0351D002D14D016
:020000022000DC
:100000001F4B1B689D4219D01D4B1C68002C1FD133
:100010001D600023736029E078461A4B1B68002B93
:1000200001D09847E9E700DEE7E77846154B1B6803
:10003000002B01D09847E3E700DEE1E77846114B5B
:100040001B68002B01D09847DEE700DEDCE71C00D0
:100050002368002B01D0A542F9D1002C07D0002D38
:1000600005D0A54202D023687360256070BD784634
:10007000044B1B68002B01D09847F2E700DEF0E745
:10008000642D00201031002010B5041E1CD06368C0
:10009000002B05D02368002B02D0A368002B05D1CC
:1000A0007846104B1B68002B17D09847A3685A1E40
:1000B0001A4205D078460B4B1B68002B0FD098478F
:1000C0000023E360236110BD7846064B1B68002BBC
:1000D00001D09847DBE700DED9E700DEE6E700DE87
:1000E000EEE7C0461031002070B5041E26D000296E
:1000F00026D08368002B02D10925280070BDEFF3BC
:10010000108572B6806823691A18E668B24210D06A
:10011000013830406368584323689C4660446268F5
:100120000DF07AFDE3680133E360002D0CD162B677
:10013000E3E7002D06D162B60435DEE70E25DCE7E5
:100140000E25DAE70425D8E70025D6E770B50400C8
:100150000800002C24D0A368002B02D10925280018
:1001600070BDEFF3108572B62369E268934212D036
:100170006268A16801391940514323689C46614473
:10018000002801D00DF048FD236901332361002DC3
:100190000AD162B6E3E7002D04D162B60535DEE789
:1001A0000E25DCE70525DAE70025D8E7C3680361FB
:1001B0007047C3680069181A7047F8B504000E004C
:1001C0001700002824D0002924D08368002B02D1F6
:1001D00009252800F8BDEFF3108572B6FFF7E9FF97
:1001E000B84204D8002D17D162B60535F1E7216871
:1001F000626823699C466744A368013B1F405743DC
:10020000C91930000DF008FD002D07D162B6E0E7F6
:100210000E25DEE70E25DCE70525DAE70025D8E721
:1002200010B50022FFF7C9FF10BD0369C068181A96
:1002300043425841C0B27047C3681A795979521A7B
:1002400006498C46624492028021C9008C46624471
:100250009B1842699B1A8068181A7047FFFF3F007D
:1002600070B505000C00830705D078460F4B1B685E
:10027000002B12D09847A30705D078460B4B1B687C
:10028000002B0CD098470023A208934209D29A0071
:100290005259013207D10133F6E700DEEBE700DE09
:1002A000F1E7012070BD0020FCE7C04610310020BE
:1002B00070B5050000241BE0002000E000200028AD
:1002C00030D053799C4205D07846174B1B68002BE1
:1002D00023D09847EB689C46664433792A69934259
:1002E00005D07846104B1B68002B18D09847013476
:1002F0002B699C4215D2A602EB689A191378083B29
:10030000DBB2F62BDAD85379FF2B04D01379FF2B0D
:10031000D2D00120D3E70020D1E700DEDAE700DE0B
:10032000E5E7012070BDC0461031002070B5040023
:100330000579012D01D9002070BD06683000FFF756
:100340007BFF002D08D1A3899B00834208DB7368E3
:10035000002B03D10020EFE70023F6E70120EBE7B5
:100360000020E9E7F0B5C64600B586B00400036892
:10037000DA6810788018137951795B1A52498C46E3
:1003800063449B028021C90059185118E28901F089
:1003900071FC070022689668B50AAD028023DB0075
:1003A0009C4665440195A81BA3899B00984251D99E
:1003B000F51821000C31A2899200012302A80370D4
:1003C00003960591049200220100012001F04CFEE9
:1003D000002806D078463D4B1B68002B00D16BE00F
:1003E0009847012302AA13700395394B0593042300
:1003F0000493384A02A9012001F036FE002805D0F6
:100400007846324B1B68002B58D09847002F1BD0E2
:1004100022683B889B0051688C46634453600123EB
:1004200002AA137003972C4B059304230493294AC3
:1004300002A9012001F018FE002805D07846234BC0
:100440001B68002B3CD09847A660002006B004BC77
:100450009046F0BDD268944611795279891A1A4AA9
:100460009046414489028022D2008A186244019950
:10047000914227D098421AD0012302AA1370039602
:10048000164B059304230493002202A9012001F0D6
:10049000EBFD002805D078460C4B1B68002B09D0DB
:1004A00098472E78AE19A589AD00751981E72B788C
:1004B000ED187EE700DEF4E700DE92E700DEA5E758
:1004C00000DEC1E70120C1E7FFFF3F00103100203F
:1004D000A0E502008A2E002098E502009CE50200BB
:1004E00010B584B004000368DA68107880181379B6
:1004F00051795B1A19498C4663449B028021C900DB
:1005000059185118E28901F0B5FB002821D0A060EC
:10051000226803889B0051688C4663445360012322
:100520006A46137001900E4B0393042302930D4A05
:100530006946012001F098FD00280DD078460A4B4D
:100540001B68002B02D09847002003E000DE00204B
:1005500000E0022004B010BD0020FBE7FFFF3F00D9
:1005600098E502008A2E00201031002070B584B07A
:1005700005000368DB68467BB6029E19082130003F
:10058000FFF76EFE002814D1002401E000DE0134E4
:10059000072C0ED8335D2A000832125D9342F6D044
:1005A000FF2BF4D07846104B1B68002BEED09847F9
:1005B000EDE7083501236A4613700196039507336A
:1005C00002930A4A6946012001F04EFD002805D039
:1005D0007846054B1B68002B03D09847002004B0D9
:1005E00070BD00DEFAE7C046103100208A2E0020E0
:1005F00000B585B00368DA681B699B020221684672
:10060000017001920293094A6946012001F02CFD14
:10061000002805D07846064B1B68002B03D098476E
:10062000002005B000BD00DEFAE7C0468A2E00209B
:100630001031002010B5828992000379012B0FD070
:10064000002B03D0022B11D0012008E083680100A9
:100650000C3118000DF0BCFA43425841C0B210BD35
:100660008368588843425841C0B2F8E70368DB68A2
:10067000427B92029B1801000831082218000DF0FD
:10068000A7FA43425841C0B2E9E7000070B5010043
:100690000E4802F0CBFF0E4B5D6809E0002D05D03F
:1006A00078460C4B1B68002B0DD09847A5420CD008
:1006B000074806F0E5F9041EF0D000230360C06887
:1006C000A3689847F2E700DEF0E770BD682D0020D0
:1006D0007C2E002010310020F0B5C64600B5040085
:1006E0000D001600002904D1FFF7A4FF002800D157
:1006F0000335002D01D026000C3627682379012B05
:1007000058D0002B19D0022B00D15BE0042B00D174
:100710006CE0414B9C4203D30533FF339C4206D926
:1007200078463E4B1B68002B00D172E09847201F93
:10073000FFF7ACFF04BC9046F0BD002D07D0BB69AD
:10074000002BE6D02A00310038009847E1E7A36883
:1007500098461B88002B05D17846304B1B68002B30
:100760001AD0984743461B889B0043449A0A92023A
:10077000934213D042465188FE22D20191420DD0BD
:10078000BB605A88264B9A42D9D07846234B1B68C7
:10079000002B0DD09847D2E700DEE3E743469B0AE3
:1007A0009B028022D200944663441A789B18E7E7A4
:1007B00000DEC4E7FB69002BABD0E1892A003800DA
:1007C0009847A6E73B78012B05D07846134B1B686A
:1007D000002B09D09847627B237B013B9A4200D0D3
:1007E00097E702233B7094E700DEF4E7002D05D085
:1007F00078460A4B1B68002B09D0984700233B70B2
:100800003B6A002B00D184E73800984781E700DE7F
:10081000F4E700DE8BE7C046742D00201031002085
:10082000FF7F000000B583B00023019382B201A9CD
:10083000054802F0DBFD002803D1019B181D03B021
:1008400000BD0020FBE7C046682D002070B5040005
:1008500000254EE01020FFF7E5FF061E00D172E0F4
:100860000223037106330372043B43720C33C372D9
:1008700083724573237C037301235B42C38104604D
:10088000324B984203D30533FF33984205D978465B
:100890002F4B1B68002B06D09847311F0A882D4824
:1008A00002F0ECFD24E000DEF7E7002300E0002387
:1008B000002B05D17846264B1B68002B37D0984774
:1008C000E3689B195B799D4205D07846204B1B68F5
:1008D000002B2ED09847E3689C4666443379226902
:1008E000934205D078461A4B1B68002B23D09847BB
:1008F000013523699D4220D2AE02E3689819043085
:10090000FF218900FFF7ACFC0028A3D1E3689A1906
:100910001378083BDBB2F62BC9D85379FF2B04D0F0
:100920001379FF2BC1D00123C2E70023C0E700DE0B
:10093000C6E700DECFE700DEDAE7074B1868FFF70F
:1009400013FB002070BD0420FCE7C046742D00207E
:1009500010310020682D0020842E002070B5050085
:10096000C3681C78E41800200EE000DE23889B009A
:10097000E3189A0A9202934223D06188FE22D201A0
:1009800091421ED020001C00EA68137951795B1A4D
:1009900011498C4663449B028021C9008C46634404
:1009A000D3189C4216D262880C4B9A4212D02388EC
:1009B000002BDBD178460A4B1B68002BD5D098471B
:1009C000D4E7A30A9B028022D200944663441A789B
:1009D0009B18D7E770BDC046FFFF3F00FFFF000038
:1009E0001031002070B50400FFF7B8FFA0600028A8
:1009F00023D04288164B9A4226D00820FFF712FFD8
:100A0000051E23D0032303710460124B984203D3C5
:100A10000533FF33984205D978460F4B1B68002BEE
:100A200010D09847291F0A880C4802F027FD0C4B6C
:100A30001868FFF799FA002007E0E26813789B181E
:100A4000A36002E000DEEDE7002070BD0420FCE7BB
:100A5000FF7F0000742D002010310020682D002041
:100A6000842E0020F8B506794379F61A224B9C466D
:100A70006644B6028023DB009C46664486190578EE
:100A80002D1800270CE000DE1FE0AC0AA402802332
:100A9000DB009C4664442378E41822E000DE250055
:100AA0006B88164A934225D0154A934222D0002BD8
:100AB00002D12B889B00FF182B88002B05D178468C
:100AC000104B1B68002BDED098472C88A4002C19F3
