:020000021000EC
:10B0000000800020FDB00100C1B0010001D00100AE
:10B010000000000000000000000000000000000030
:10B02000000000000000000000000000C5B00100AA
:10B030000000000000000000C7B00100C9B001001E
:10B04000CBB00100CDB00100CFB00100D1B0010004
:10B05000D3B001000000000045CE0100D7B00100D0
:10B06000D9B00100DBB00100DDB00100DFB00100AC
:10B07000E1B00100E3B00100E5B00100E7B001007C
:10B08000E9B00100EBB00100E1F90100EFB001000F
:10B09000F1B00100F3B001004DD00100F7B00100A4
:10B0A000F9B00100FBB0010000000000000000004A
:10B0B0000000000000000000000000000000000090
:10B0C000FEE7FEE7FEE7FEE7FEE7FEE7FEE7FEE758
:10B0D000FEE7FEE7FEE7FEE7FEE7FEE7FEE7FEE748
:10B0E000FEE7FEE7FEE7FEE7FEE7FEE7FEE7FEE738
:10B0F000FEE7FEE7FEE7FEE7FEE7FEE7032107487F
:10B1000002680A430260064802680A430260054872
:10B1100085460FF013F907E0704700002405004052
:10B120005405004000800020354936480A1A02D0F4
:10B13000072291438D46344934480A1A06D0072223
:10B14000914381F30988022282F3148830483149FF
:10B15000314A00F043F831483149324A00F03EF8B4
:10B1600031483249324A00F039F832483249334ADC
:10B1700000F034F832483349334A00F02FF83348AE
:10B180003349344A00F02AF833483449344A00F04D
:10B1900025F834483449002200F02BF8334834496C
:10B1A000002200F026F833483349091A082903DB46
:10B1B00000220260043001601F482049884205D007
:10B1C0000268043003B4904703BCF7E700208646CA
:10B1D000EC4600200021294A9047FEE7884207D02C
:10B1E000521A05D0037801300B700131013AF9D1C0
:10B1F0007047884202D002700130FAE770470000C1
:10B2000000800020007C00200080002000800020C2
:10B2100030FA0200D82200206423002080B201000E
:10B2200080B20100A4D8020030FA0200D822002027
:10B23000D8220020A4D80200A4D80200A4D802007A
:10B24000A4D80200A4D80200A4D80200A4D8020006
:10B25000A4D8020030FA0200BCFA020064230020E5
:10B2600064230020642300206C4E00206C4E0020DC
:10B270006C4E00206C4E00206C520020BDBB0100C3
:10B2800000B587B0314B1B685B0403D5304B1B689E
:10B29000032B2FD82F4B1868059001F057FF2B4B2D
:10B2A0001B685B0403D52A4B1B68032B2DD80C228B
:10B2B000002102A812F0E4FA059B0293264B0393A7
:10B2C00002A807F0B5FA00282AD12448244B0360CD
:10B2D0000023436007F02BFC1C4B1B685B0403D569
:10B2E0001B4B1B68032B20D807F0FCFA002827D142
:10B2F00007B000BD1B4B1C4AD3581C4A0092772252
:10B300001B49042006F05CFBC4E7164B164AD358D1
:10B31000184A00927F221649042006F051FBC6E726
:10B32000154A852101F01AFECFE70E4B0E4AD3587D
:10B33000124A00928B220E49042006F041FBD3E70B
:10B340000D4A8C2101F00AFED2E7C04604230020FA
:10B3500000230020B0D90200B1CF010080230020DB
:10B3600041B401000405000000B00040A4DB02006D
:10B370009BDB0200C0DB020038DB0200DCDB0200EA
:10B3800030B58BB0040003AB50221A700E3A5A70DD
:10B390005F2098701032DA700D3A1A714D21597190
:10B3A000023199710531D9711A7258721138987237
:10B3B000DA721973093959739A731432DA730022E5
:10B3C0001A821E326A44002111805180174A128865
:10B3D000DA821A7E0125AA4302318A431A760B22A9
:10B3E0000021684612F04CFA6B4601225A70002286
:10B3F0009A706B461D710E4A0E490F480CF00AF800
:10B40000002809D1002303AA21000B480CF020F8E2
:10B41000002806D10BB030BD084ACE2101F09EFDB8
:10B42000F0E7064ACF2101F099FDF3E7D82200208A
:10B430009023002070260020B023002038DB02007B
:10B4400070B588B0040002780B2A00D9D9E09300C7
:10B450007749CB589F46774B1B78012B57D1043047
:10B46000FFF78EFF0022734B1A7050E0724B1B687F
:10B470005B044CD5714B1B68032B48D9704B714A48
:10B48000D358714A0092E2227049042006F098FADB
:10B490003DE0694B1B685B0439D5684B1B68032B87
:10B4A00035D9674B674AD358694A0092E622674903
:10B4B000042006F085FA2AE0664B1888664B1B7854
:10B4C0005B006649C91803F0DDFE002821D1E08A3F
:10B4D000634B1988604B1B7801335B00614AD318BA
:10B4E000E26803F0F5FF002818D1534B1B685B049A
:10B4F00003D5524B1B68032B15D8574A13780133D9
:10B500001370544A1388584909885B18138008B08F
:10B5100070BD564AEB2101F021FDD8E7534AEF21D7
:10B5200001F01CFDE1E7464B464AD358E18A4A4AFE
:10B53000127852004948125A029201914C4A0092E4
:10B54000F4224249042006F03BFAD6E710220121FA
:10B5500040680BF0B9FF002814D0374B1B685B0420
:10B56000D5D5364B1B68002BD1D0354B354AD35837
:10B570000190404A00920222FF323449012006F035
:10B580001FFAC4E7227A384B1A802B4B1B685B04E6
:10B59000BDD52A4B1B68032BB9D9294B294AD3584F
:10B5A000354A0092832252002849042006F008FA06
:10B5B000ADE704A90A00314B043361CB61C21B68BB
:10B5C0001360606810220BF08BFF002813D11A4B18
:10B5D0001B685B049BD5194B1B68032B97D9184B31
:10B5E000184AD358264A00921222FF3217490420E3
:10B5F00006F0E6F98BE71D4A8821490001F0AEFC10
:10B60000E5E70D4B1B685B0400D480E70B4B1B6820
:10B61000032B00D87BE70A4B0A49CB580192194A01
:10B6200000921A22FF320949042006F0C9F96EE798
:10B63000A4D802007023002004230020002300204F
:10B640000405000000B00040F4DB02009BDB0200B8
:10B650001CDC0200D82200208A230020682300205E
:10B6600088230020742300208C23002038DB020074
:10B670003CDC02006CDC0200A0DC0200B0D902005D
:10B68000C0DC0200E8DC020000B587B003F08AFDF0
:10B690001022002102A812F0F3F82F4B5B690193EE
:10B6A00001A803F097FD002832D12C4A2C49002034
:10B6B00003F0C6FE002830D1284B1988294B02AA76
:10B6C000002003F04FFF00282CD102F007FA264B90
:10B6D000264A0021264801F0F1FA002827D1244B00
:10B6E0001888204B198802F019FB002824D1204B20
:10B6F00018881C4B198802F04DFB002821D11C4BE7
:10B700001888062102F072FB00281FD107B000BD87
:10B71000184A9A2101F022FCC7E7164A9B2101F042
:10B720001DFCC9E7134A9C2101F018FCCDE7114A22
:10B730009F2101F013FCD2E70E4AA02101F00EFC7C
:10B74000D5E70C4AA12101F009FCD8E7094AA2215A
:10B7500001F004FCDAE7C046B0D9020088230020DB
:10B76000E4DA02006423002079B70100B02300204E
:10B77000B026002038DB0200F0B5CE46474680B543
:10B7800085B004AF040002780A2A18D00B2A32D000
:10B79000042A28D0464B1B685B043CD5454B1B68EC
:10B7A000032B38D9444B4549CB580192444A009267
:10B7B0003022FF324349042006F002F92BE03C4BD3
:10B7C0001B685B0427D53B4B1B68032B23D93A4BE3
:10B7D0003A4AD3583C4A00922422FF323949042085
:10B7E00006F0EEF817E0324B1B685B0403D5314BD3
:10B7F0001B68032B15D82E4B1B685B0403D52D4B00
:10B800001B68032B19D82A4B1B685B0403D5294BF3
:10B810001B68032B3ED8BD4601B00CBC9046994630
:10B82000F0BD254B254AD358284A00922822FF32E2
:10B830002449042006F0C4F8DDE7E8468AB004ABEA
:10B840009C46994600230FE06268D65C5A00310995
:10B850001F480568695C4D46A95401320F213140EB
:10B860000068415CA95401330F2BEDD9002220233D
:10B870006146CA54104B114AD3580291154A01929D
:10B88000154A0092952252000E49042006F098F8BD
:10B89000C546B8E7084B094AD358227A01920F4AA5
:10B8A00000922C22FF320749042006F089F8B2E703
:10B8B00004230020002300200405000000B0004005
:10B8C00068DD02009BDB020000DD020024DD0200D7
:10B8D0000823002040DD020050DD020058DD020098
:10B8E00010B5064906480BF0AFFD002800D110BD89
:10B8F000044A912101F032FBF9E7C0469023002071
:10B900007026002038DB020010B50EF087FEC0B2B2
:10B910000A28FAD00D28F8D0FF28F6D010BD000074
:10B92000F0B58DB0070005AC502323700E3B63705B
:10B930005F21A1701033E3700D3B23714D226271C2
:10B940000232A2710532E271237261721139A17261
:10B95000E3722273093A6273A3731433E37300230F
:10B96000238226336B4400221A805A801A4B1B888C
:10B97000E382237E0126B34302329343237602AD52
:10B9800009320021280011F07BFF09236B440122BA
:10B990001A7000225A702E71019700950F4B104AB1
:10B9A0002100104801F01EFA002807D00E4B1B683A
:10B9B0005B0403D50D4B1B68002B01D10DB0F0BD0E
:10B9C0000B4B0C4AD35801900B4A0092BC220B49F6
:10B9D000012005F0F5FFF1E7D82200209023002098
:10B9E00070260020B0260020042300200023002021
:10B9F0000405000000B0004078DD02009BDB02007F
:10BA000000B583B00EF00AFE0130362800D9A1E05F
:10BA100080005B4B1B589F4601225A4B1A7003B0A3
:10BA200000BD594B1B685B0403D5584B1B68032BA7
:10BA30001FD8FFF769FF81B2303989B2544B18889B
:10BA400002F01EF9002820D04F4B1B685B04E6D59E
:10BA50004E4B1B68002BE2D04E4B4F4AD3580190FF
:10BA60004E4A0092A92252004D49012005F0A8FF3C
:10BA7000D5E7484B484AD3584A4A0092A62252007A
:10BA80004749042005F09CFFD3E73F4B1B685B044C
:10BA9000C5D53E4B1B68032BC1D93E4B3E4AD358FC
:10BAA000414A0092AB2252003D49042005F088FF34
:10BAB000B5E7374801F052F90028B0D0324B1B6887
:10BAC0005B04ACD5314B1B68002BA8D0314B324AFC
:10BAD000D3580190354A0092AF22520030490120DC
:10BAE00005F06EFF9BE72A4801F05AF9002896D02E
:10BAF000254B1B685B0400D491E7244B1B68002B8B
:10BB000000D18CE7234B244AD3580190284A009255
:10BB10006622FF322249012005F052FF7FE71A4BCF
:10BB20001B685B0403D5194B1B68032B06D8FFF772
:10BB3000EBFE3038C0B2FFF7F3FE70E7154B164A44
:10BB4000D3581C4A0092B52252001549042005F032
:10BB500037FFECE70C4B1B685B0400D45FE70B4B33
:10BB60001B68032B00D85AE70A4B0B4AD358124ADA
:10BB70000092BA2252000A49042005F021FF4EE744
:10BB8000D4D80200702300200423002000230020CA
:10BB9000B02600200405000000B00040D0DD020007
:10BBA0009BDB0200A8DD0200FCDD02000CDE0200CF
:10BBB00038DE020064DE0200C8D9020000B583B09E
:10BBC000002300E001331F2B0DD8F02252041A414C
:10BBD000D207F7D51A00C132FF3292000320A0210C
:10BBE000C9055050EEE71B4A0421C020C00105F0F2
:10BBF000C9FE194B1B685B040ED5184B1B68032B41
:10BC00000AD9174B174AD358174A0092BF2252003D
:10BC10001649042005F0D4FEFFF732FBFFF734FD90
:10BC2000FFF75EFE0C4B1B685B040ED50B4B1B68CD
:10BC3000032B0AD90A4B0B4AD3580D4A0092C22251
:10BC400052000A49042005F0BBFEFFF7D9FE06F0BA
:10BC50009BFEFAE75919020004230020002300206C
:10BC60000405000000B00040F4DA02009BDB020093
:10BC7000C8D9020070B584B005000E0001AC0C22DA
:10BC80000021200011F0FCFD2670AB6A20009847CF
:10BC900004B070BD70B58CB001AC1D4D23002A00FE
:10BCA00070CA70C370CA70C370CA70C314681C6055
:10BCB00092889A800588122D0BD00023062B24D859
:10BCC0005A00D218540001AAA25A95420CD001334E
:10BCD000F4E708230B700389013B9BB2002040224C
:10BCE0009A424041C0B211E001AA9446644464887B
:10BCF0000289944201D0002008E05A00D3185A006B
:10BD0000624413790B70012000E000200CB070BD7C
:10BD1000A4DE02000020704700207047002070471A
:10BD200010B50400037A032B07D078460C4B1B6830
:10BD3000002B12D09847012010BD0A21FFF79AFF6F
:10BD4000A28B084B9A42F6D0022160680CF00BFDE2
:10BD500004212000FFF78EFFEDE700DEEBE7C04691
:10BD60002C2F00206780000010B584B004004B68C1
:10BD70005A68007A0100032812D1A18B154B994211
:10BD800017D11378002B01D1022012E00221606844
:10BD90000CF0E9FC04212000FFF76CFF012008E013
:10BDA0000D4B1B689B0403D50C4B1B68032B02D85F
:10BDB000207A04B010BD0A4B0A48C3581278029189
:10BDC0000192094A0092094A0949042005F0F8FD48
:10BDD000EEE7C0466080000004230020002300201E
:10BDE0000405000000B00040E0E1020099020000FC
:10BDF000CBE1020010B582B004004B685A68007AAB
:10BE000002280DD003285AD001280BD0544B1B68B0
:10BE10009B0404D5534B1B68032B00D98CE0207A7C
:10BE200002B010BD1278002A0BD0012A21D04C4B51
:10BE30001B689B0403D54B4B1B68042B32D8207A1C
:10BE4000EEE7474B1B689B0400D483E0454B1B681F
:10BE5000042B01D80120E3E7434B444AD358444A1A
:10BE60000092C022FF324349052005F0A9FD0120C0
:10BE7000D6E73B4B1B689B0401D40220D0E7394B2B
:10BE80001B68042B01D80220CAE7374B374AD35826
:10BE9000394A0092C422FF323649052005F090FD50
:10BEA0000220BDE7304B3149CB580192334A009212
:10BEB000C822FF322F49052005F082FDBFE7A18B84
:10BEC0002F4B9942ACD11278052A1DD892002D4BE8
:10BED0009B589F460120A3E706212000FFF7CAFEDA
:10BEE00002209DE708212000FFF7C4FE012097E70C
:10BEF00005212000FFF7BEFE012091E70921200067
:10BF0000FFF7B8FE01208BE7154B1B689B0425D576
:10BF1000144B1B68032B01D8012081E7124B1349F6
:10BF2000CB580192184A0092F022FF3211490420A6
:10BF300005F046FD012073E70B4B0C49CB581278F6
:10BF400001920E4A0092FC22FF320A49042005F0B9
:10BF500037FD64E7012063E7022061E701205FE726
:10BF600004230020002300200405000000B000404E
:10BF7000C4DF0200CBE10200E0DF0200F4DF0200D8
:10BF8000638000008CDE02000CE0020010B582B07D
:10BF900004004B685B68007A032803D1A18B344A04
:10BFA000914201D002B010BD1A78012A35D0002A82
:10BFB00019D0022A4BD0032A4FD02E4B1B689B046A
:10BFC00051D52D4B1B68012B4FD92C4B2C49CB58ED
:10BFD00001922C4A0092D42252002B49022005F0F3
:10BFE000EFFC0120DEE7234B1B689B0403D5224BAB
:10BFF0001B68042B05D800212000FFF73BFE012021
:10C00000D0E71E4B1E4AD358204A00929422FF329A
:10C010001D49052005F0D4FCEDE7164B1B689B0479
:10C0200003D5154B1B68042B05D801212000FFF711
:10C0300021FE0120B6E7114B114AD358144A009251
:10C04000CC2252001049052005F0BAFCEDE7022190
:10C050002000FFF70FFE0120A4E703212000FFF7D7
:10C0600009FE01209EE701209CE701209AE7C046D7
:10C070006780000004230020002300200405000046
:10C0800000B0004050E10200CBE1020008E10200F4
:10C090002CE1020010B582B00400027A0B4B1B6841
:10C0A0009B040FD50A4B1B68012B0BD9094B0A497E
:10C0B000CB580192094A00926622FF3208490220B9
:10C0C00005F07EFC207A02B010BDC046042300209B
:10C0D000002300200405000000B000404CE20200F4
:10C0E000CBE1020030B587B004000D00007A0228D1
:10C0F00019D003286AD1A28B404B9A4200D079E034
:10C100003F4B1B689B0403D53E4B1B68042B2ED86A
:10C11000208802F0B5F9002805D078463A4B1B6814
:10C12000002B30D098476B685B681B78002B2ED1B2
:10C1300003AA364B138001235B42538002AB53604A
:10C1400001211181023119706968208801F089FD8F
:10C15000002807D0042805D078462B4B1B68002BFD
:10C1600013D0984760680CF035FB022042E0284B62
:10C17000284AD358284A0092AA229200274902301E
:10C1800005F01EFCC4E700DECDE700DEEAE72B7910
:10C19000234A1370234B238201235B426382626133
:10C1A00001222283204AA283E38320000C3002F084
:10C1B00081F9002820D07846134B1B68002B02D051
:10C1C0009847032016E000DE032013E00C4B1B68A9
:10C1D0009B040ED50B4B1B68012B0AD90C4B0D4A47
:10C1E000D358124A0092B12292000C49022005F065
:10C1F000E7FB207A07B030BD0320FBE7608000003A
:10C2000004230020002300202C2F00206080FFFF4B
:10C210000405000000B0004008E20200CBE102008B
:10C22000E02600206180FFFF6380FFFF18E202002C
:10C2300030B597B00500264B1B78002B45D1012265
:10C24000234B1A700AE004A90B789B00214A9B58E3
:10C250002800984704002A7A90421CD104A91E485D
:10C2600003F080FD00282DD11C4B1B689B04EAD5F0
:10C270001B4B1B68042BE6D91A4B1B4AD35804AA44
:10C2800012780192194A0092C122920018490520A1
:10C2900005F096FBD7E7114B1B689B0403D5104BA9
:10C2A0001B68042B01D82C72D8E70E4B0E49CB58D3
:10C2B000029001920F4A00920F4A0D49052005F0A5
:10C2C0007FFBF0E70022024B1A7017B030BDC0466A
:10C2D000DC2600204CDF020024270020042300205D
:10C2E000002300200405000000B000409CE2020092
:10C2F000CBE10200A8E202000E03000010B592B0EC
:10C300000C00002812D048220021684611F0B8FA2B
:10C3100007236A46137014716946094803F0F0FC5C
:10C32000084B1868FFF784FF12B010BD7846064B23
:10C330001B68002B01D09847E5E700DEE3E7C04625
:10C3400024270020C82700202C2F002010B592B0F1
:10C35000002813D0002913D00C2368460370828074
:10C36000063011F081FA6946074803F0C9FC041E43
:10C3700007D1064B1868FFF75BFF02E00E2400E0D0
:10C380000E24200012B010BD24270020C827002052
:10C3900030B595B00D00140000290AD0002C11D042
:10C3A000012C24D078462A4B1B68002B4ED098478E
:10C3B00048E07846264B1B68002B01D09847EDE7F4
:10C3C00000DEEBE7234B1B689B043BD5224B1B682D
:10C3D000042B37D9214B224AD3582A8A0192214A69
:10C3E0000092F7222049052005F0EAFA2AE0194BCD
:10C3F0001B689B040FD5184B1B68012B0BD9174BDF
:10C40000174AD3582A8A0192184A0092FD221649E7
:10C41000022005F0D5FA02AC48220021200011F0DC
:10C420002FFA0D2323702100114803F069FC002826
:10C4300005D07846064B1B68002B05D0984728008E
:10C44000FFF7F6FE15B030BD00DEF8E700DEF9E7D5
:10C450002C2F0020042300200023002004050000CE
:10C4600000B00040D0DE0200CBE10200ECDE0200B2
:10C470002427002010B584B00C000E21694401234C
:10C480005B420B80008801F027FC002813D10E23AB
:10C490006B4418880B4B984210D001A902F040FF62
:10C4A00000280DD101AB5A88E3899A4201D00020BF
:10C4B00002E0013000E0002004B010BD0020FBE7E6
:10C4C0000020F9E7FFFF000070B582B004000D0006
:10C4D000027A022A2BD18B88412B05D97846204B32
:10C4E0001B68002B1ED09847A91DAA881D4E30003E
:10C4F00011F0BAF9AA8812232382133B6382666182
:10C500002283194AA283E38320000C3001F0D2FF7A
:10C51000002823D07846124B1B68002B04D0984784
:10C52000032019E000DEDFE700DE032014E00F4BFC
:10C530001B689B040FD50E4B1B68012B0BD90D4BB1
:10C540000D49CB5801920D4A0092BC2292000C4931
:10C55000022005F035FA207A02B070BD0320FBE717
:10C560002C2F0020E02600206080FFFF0423002005
:10C57000002300200405000000B000407CE0020021
:10C58000CBE1020010B582B00400027A012A16D075
:10C590001A4B1B689B040FD5194B1B68012B0BD939
:10C5A000184B1949CB580192184A00927422FF3255
:10C5B0001749022005F004FA207A02B010BD154B8D
:10C5C000038201235B424382134A426100220283B9
:10C5D000124A8283C3830C3001F06CFF00280AD01A
:10C5E00078460F4B1B68002B02D098470320E4E7E6
:10C5F00000DE0320E1E70320DFE7C046042300203C
:10C60000002300200405000000B00040E8E0020024
:10C61000CBE102006580FFFFE02600206780FFFF7E
:10C620002C2F002010B582B00400027A012A16D007
:10C630001A4B1B689B040FD5194B1B68012B0BD998
:10C64000184B1949CB580192184A0092C122520046
:10C650001749022005F0B4F9207A02B010BD154B3D
:10C66000038201235B424382134A42610022028318
:10C67000124A8283C3830C3001F01CFF00280AD0C9
:10C6800078460F4B1B68002B02D098470320E4E745
:10C6900000DE0320E1E70320DFE7C046042300209B
:10C6A000002300200405000000B00040C8E00200A4
:10C6B000CBE102006480FFFFE02600206780FFFFDF
:10C6C0002C2F002000B583B0027A022A14D01D4B13
:10C6D0001B689B0430D51C4B1B68012B2FD91B4BAF
:10C6E0001B49CB5801921B4A00921B4A1B4902204E
:10C6F00005F066F9012020E00B79194A1370194BF7
:10C70000038201235B424382426101220283164A73
:10C710008283C3830C3001F0CDFE00280AD0784616
:10C72000124B1B68002B02D09847032005E000DE67
:10C73000032002E0032000E0012003B000BD01203F
:10C74000FBE7C0460423002000230020040500006E
:10C7500000B0004098DF020051020000CBE102006F
:10C76000E02600206180FFFF6380FFFF2C2F002068
:10C7700070B504000D00037A012B07D078461D4BDD
:10C780001B68002B31D09847207A70BD8B6800223F
:10C79000194940680CF016FB002805D07846154B67
:10C7A0001B68002B1CD098472B79144A1370144B2C
:10C7B000238201235B426382626101222283114A48
:10C7C000A283E38320000C3001F074FE00280ED019
:10C7D0007846084B1B68002B04D098470320D4E709
:10C7E00000DEE1E700DE0320CFE700DECCE7032038
:10C7F000CBE7C0462C2F002084DF0200E02600207B
:10C800006280FFFF6380FFFF70B588B004000D00F9
:10C810004B685E68027A002A00D16FE0022A0DD9C7
:10C82000032A00D06AE0008801F02AFE002805D023
:10C8300078463E4B1B68002B2ED0984705AA3C4BF0
:10C84000138001235B42538004AB536002211181AA
:10C8500003311970002159706968208801F001FACC
:10C86000002807D0042805D07846304B1B68002BE1
:10C8700014D098473378012B12D0002B15D0042BFD
:10C8800018D8717860680BF06EFF04212000FFF764
:10C89000F1F9012008B070BD00DECFE700DEE9E766
:10C8A00007212000FFF7E6F9EBE760680BF054FF83
:10C8B0000220EFE7022160680BF055FF0421200001
:10C8C000FFF7D8F91B4B1B689B0413D51A4B1B6849
:10C8D000012B11D9194B1A4AD3583278217A029177
:10C8E0000192184A0092184A1849022005F068F887
:10C8F0000120CFE70120CDE70120CBE70D4B1B68DE
:10C900009B0410D50C4B1B68012B0CD90B4B0C490D
:10C91000CB583178029201910D4A00920D4A0B4991
:10C92000022005F04DF8207AB4E7C0462C2F0020F5
:10C930006380FFFF04230020002300200405000083
:10C9400000B000402CE0020037020000CBE1020002
:10C9500050E002003D02000070B586B004000D00FA
:10C9600002AB354A1A80012252425A8005AA03922C
:10C9700001221A81027A022A18D0032A33D1002216
:10C9800005AB1A704968008802AA01F06AF900280C
:10C9900007D0042805D07846284B1B68002B03D00D
:10C9A0009847207A06B070BD00DEFAE749684E6805
:10C9B000002205AB1A70008802AA01F052F9002883
:10C9C00007D0042805D078461C4B1B68002B08D0E4
:10C9D000984760686B681A8931000BF0CBFE022023
:10C9E000E0E700DEF5E7164B1B689B040ED5154B00
:10C9F0001B68012B0AD9144B1449CB580192144AD5
:10CA00000092144A1449022004F0DAFF012205AB17
:10CA10001A706968208802AA01F023F9002807D05B
:10CA2000042805D07846054B1B68002B02D0984798
:10CA3000207AB7E700DEFBE76080FFFF2C2F0020A5
:10CA400004230020002300200405000000B0004063
:10CA500098E0020076020000CBE1020070B58AB0D7
:10CA600004000D0006AB2D4A1A80012252425A8062
:10CA700009AA079202221A8149684E68027A012A9D
:10CA80001ED0274B1B689B0403D5264B1B68032B2A
:10CA900035D809AB01221A70327C5A706968208837
:10CAA00006AA01F0DEF8002807D0042805D0784651
:10CAB0001D4B1B68002B2FD09847207A0AB070BD01
:10CAC00009AB00221A70327C5A70008806AA01F065
:10CAD000C8F8002807D0042805D07846124B1B68F8
:10CAE000002B0AD0984703A80B2303704660337CC1
:10CAF0000372A36A9847207AE0E700DEF3E70B4B66
:10CB00000B49CB5801920B4A00925822FF320A4936
:10CB1000042004F055FFBCE700DECEE76D80FFFF88
:10CB200004230020002300202C2F002004050000F7
:10CB300000B0004078E20200CBE1020000B585B011
:10CB40000122524201AB5A800B88374A934249D0A6
:10CB50001FD9364A934249D0354A934239D10623E8
:10CB60006A4613700023537001AA324B13806B4640
:10CB7000536002231381008801F073F8002831D03C
:10CB800004282FD078462C4B1B68002B48D09847A0
:10CB900028E0112B20D3122B17D804236A461370D8
:10CBA00001AA264B13806B46536001231381008832
:10CBB00001F057F8002815D0042813D078461E4BF2
:10CBC0001B68002B10D098470CE01D4A934209D0F7
:10CBD00002E01C4A934205D07846174B1B68002B95
:10CBE00020D0984705B000BD00DEFBE705236A466C
:10CBF000137001AA144B13806B46536001231381F9
:10CC0000008801F02EF80028ECD00428EAD07846FD
:10CC1000094B1B68002B01D09847E3E700DEE1E7F2
:10CC200000DEDFE700DEDDE7638000006A800000F1
:10CC30006C8000006380FFFF2C2F00206080FFFFCE
:10CC400060800000678000006780FFFF30B593B010
:10CC50000D00141E07D069462800FFF71BF80028B6
:10CC60000AD113B030BD7846124B1B68002B01D09F
:10CC70009847F0E700DEEEE729002000FFF7FAFB17
:10CC8000002804D129002000FFF758FFE9E70195AB
:10CC90006946094803F034F8002805D07846054B6A
:10CCA0001B68002B04D098472000FFF7C1FAD8E793
:10CCB00000DEF9E72C2F00202427002030B587B0B4
:10CCC00004000D00002831D0002A32D0002B32D0D1
:10CCD00042608362194B1860194802238360194B24
:10CCE00003604823436002F0DBFF6B469D80164BD8
:10CCF0006A46138001235B425380144B029307233F
:10CD000003930494002305932100684600F0F8FE85
:10CD100000280CD12388A3810D4B63620D4B236245
:10CD20000123237200220C4B1A7000E00E2007B082
:10CD300030BD0E20FBE70E20F9E7C046C8270020D3
:10CD400024270020382700200480FFFF14DF020082
:10CD500091C3010080C3C901DC26002030B593B027
:10CD6000041E18D0037A012B03D00825280013B025
:10CD700030BD48220021684610F082FD02236A4639
:10CD800013706946054802F0BBFF051EEED1200076
:10CD9000FFF74EFAEAE70E25E8E7C0462427002011
:10CDA00030B593B0041E18D0037A012B03D00825A8
:10CDB000280013B030BD48220021684610F060FD05
:10CDC00003236A4613706946054802F099FF051E61
:10CDD000EED12000FFF72CFAEAE70E25E8E7C0467F
:10CDE00024270020F0B593B004000E0011001A00B3
:10CDF00018A808C80778002C1FD0207A012803D073
:10CE00000825280013B0F0BD60680AF003FB051E7A
:10CE1000F7D148220021684610F032FD0B236A4604
:10CE20001370177102966946054802F069FF051EE6
:10CE3000E7D12000FFF7FCF9E3E70E25E1E7C04664
:10CE40002427002010B50021BE235B001B4AD150CF
:10CE5000002409E01A4A8A58D21A1A4B93429B417D
:10CE60005B421DE00134E4B2032C25D8A223DB0091
:10CE7000A022D205D2582100113101238B409343C7
:10CE8000F0D0114B1B680E4A10498A589A1AE1D407
:10CE90000B4A0E498A589A1A0A4B93429B415B42AD
:10CEA000002BDFD0064B094AD258074B1A60084BBB
:10CEB0001B6820009847D5E710BDC04600600040C1
:10CEC000040500009A190000D027002000B000409F
:10CED000CC27002052DF704710DF704760DF7047BB
:10CEE00061DF7047A023DB05F0225204A121C900B5
:10CEF0005A5004495A50EFF3108372B60028FDD1FE
:10CF00007047C0460C05000010B584B00C000D4BF6
:10CF10001B685B0403D50C4B1B68002B04D120005D
:10CF2000FFF7E0FF04B010BD084B0949CB5803924E
:10CF300002940190074A009267220749012004F0F9
:10CF40003FFDECE70423002000230020040500003F
:10CF500000B00040D4E30200C2E3020010B584B088
:10CF60000D4B1B685B0403D50C4B1B68002B04D1D5
:10CF70000120FFF7B7FF04B010BD094B094CE3587F
:10CF8000039002910192084A009240220749012031
:10CF900004F016FDECE7C046042300200023002027
:10CFA0000405000000B00040D0E20200C2E302002D
:10CFB00010B582B004000C4B1B685B0403D50B4B0F
:10CFC0001B68002B04D12000FFF78CFF02B010BDBE
:10CFD000074B084AD3580190074A00924622074956
:10CFE000012004F0EDFCEEE70423002000230020E4
:10CFF0000405000000B00040F0E20200C2E30200BD
:10D0000000B583B00B4B1B685B0403D50A4B1B6850
:10D01000032B04D80120FFF765FF03B000BD074BC9
:10D02000074AD358074A00924C220749042004F0CB
:10D03000C7FCEFE7042300200023002004050000C4
:10D0400000B00040C0E20200C2E3020000B583B0BD
:10D0500002E0019805F066FD01A8FFF73BFF0028FC
:10D06000F7D047226B465A8005E0074805F058FD87
:10D0700047226B465A806B46991C0348FFF730FFE6
:10D080000028F2D003B000BDD427002010B584B032
:10D090000400254B1B685B0403D5244B1B68032B42
:10D0A0002AD8234B0393039B02931F4B1B685B04FB
:10D0B00003D51E4B1B68032B29D802A92000FFF7BC
:10D0C0000DFF0400029A039B9A4212D0164B1B6874
:10D0D0005B040ED5154B1B68012B0AD9154B16495D
:10D0E000CB580192154A00927B221549022004F088
:10D0F00067FC200004B010BD0E4B0F4AD358114AF4
:10D1000000926D220E49042004F05AFCC9E7094B35
:10D11000094AD358039A01920B4A00927622084991
:10D12000042004F04DFCC8E7042300200023002065
:10D13000D82200200405000000B0004038E30200BF
:10D14000C2E302000CE3020028E3020000B589B04C
:10D150000190234901A8FFF7BFFE00281CD1C52379
:10D160009B00204AD258920D0323134002D0022B79
:10D1700017D00123002B16D11B48002825D11422DB
:10D18000002103A810F07CFB03A8FFF77FFF002815
:10D1900020D1002009B000BD144A8221FFF7DEFE35
:10D1A000DDE70023E6E7124B5B68002B05D1802208
:10D1B000D2030C4B1A600020DFE70D4A1168802370
:10D1C000DB030B4313600020D7E7084A8321FFF7F6
:10D1D000C5FED4E7054A8621FFF7C0FED9E7C04661
:10D1E00009CF010000E100E00220000074E302002A
:10D1F0001C28002010B50C4B99420AD00B4A430062
:10D200001C1861005118C9786300D2180131D1701F
:10D2100010BD064A43001C1861005118897863004C
:10D22000D21801319170F3E7FFFF0000242800209D
:10D2300030B583B00191184943001D186C000C19DA
:10D24000A4786D004919CB78E318002B01DD002389
:10D2500003E000201EE001339BB2002B19D13424DF
:10D260005C430E49091989898842F4D121000B4C8D
:10D270000C5B01A909888C42EDD134215943074D3B
:10D280006D186C8801A949888C42E4D11380012073
:10D2900000E0002003B030BD242800205C280020DE
:10D2A00082B00023009302783F33110099430B00B2
:10D2B000402912D0C9B240290DD9D9B280291AD03B
:10D2C000C02910D16B461A8042781202837813432A
:10D2D0006A46538007E0002B05D16B461A80012374
:10D2E0005B426A465380009B1A0C12041804000C1F
:10D2F000104302B07047120243781A436B461A80FB
:10D3000001235B426A465380EDE7000082B0019042
:10D31000000C0C4B984207D001AB1B880B70030A22
:10D320004B70887002B0704701AB1B88FF22180059
:10D330009043002803DD1A0A0A704B70F2E70B7065
:10D34000F0E7C046FFFF000082B00190030C144AD2
:10D35000934209D001AB18883F239843C038434219
:10D360005841C0B202B0704701AB1888FF230200D9
:10D370009A43002A08DD800B80030A4B9C466044D8
:10D3800043425841C0B2EDE77F2302009A4305D1E2
:10D390007F2801D00120E5E70020E3E70020E1E756
:10D3A000FFFF00000080FFFF70B506000D000024A5
:10D3B000AC4207D2E300F058FFF7C6FF002802D0C6
:10D3C0000134F5E7012070BD30B583B00191002133
:10D3D00000E00131038D994210D2CB00446AA4468B
:10D3E00063441D8801AC2488A542F2D15C8801AB5E
:10D3F0005B889C42EDD11160012000E0002003B069
:10D4000030BD0000F8B505000E0017001C1E10D03E
:10D4100032897C23FF339A4214D8002D1AD134224A
:10D420006A43224B9B1830331B78DB0726D400233A
:10D4300011E078461E4B1B68002B01D09847E7E7A8
:10D4400000DEE5E7733BFF3B236020684342584121
:10D45000C0B2F8BD0023002B12D034226A43134B14
:10D460009B189B89002B0BD1002F0CD03068FFF745
:10D470006BFF002817D000232360E6E70123EAE7CB
:10D4800005232360E1E734226A43084B9B189A88FE
:10D49000084B9A4207D034236B43044DED18EA88B9
:10D4A000044B9A42E2D107232360CEE75C28002098
:10D4B0002C2F0020FFFF000010B57846034B1B689F
:10D4C000002B01D0984710BD00DEFCE72C2F002078
:10D4D00010B5804710BD000010B5342200210F4860
:10D4E00010F0CEF9062200210D4810F0C9F90822EB
:10D4F00000210C4810F0C4F90023002B00D010BD0F
:10D5000034215943054A521801214942D180918062
:10D510000120D081918101339BB2EEE75C2800208D
:10D520002428002090280020F0B595B0041E00D1DA
:10D5300066E02068FFF7B4FE139087B27F2F5DD0BE
:10D54000854B1B689B0404D5844B1B68042B00D9B6
:10D550005FE0E06901F06AFF060005002822002173
:10D5600009A810F08DF9139B0993226808931B0CEE
:10D570007B498B4259D00323D3180A93A288139B6B
:10D5800007931B0C76498B4255D00323D21A09AB63
:10D590001A81227A1A736289DA81E2680D92227CFA
:10D5A0001A75618AD98261690F912021605C04310A
:10D5B0005854DE84012A44D005A901235B420B8024
:10D5C0002000103001F0F8FE002806D07846654BA8
:10D5D0001B68002B00D17DE0984705AB188801F04F
:10D5E00057FE002806D178465E4B1B68002B00D101
:10D5F00072E098470024002C00DC6FE015B0F0BD0D
:10D600007846584B1B68002B01D0984791E700DE05
:10D610008FE7554B554AD3580197554A0092EF2250
:10D620005449052004F0CCF993E7FF2F01D90223D8
:10D63000A2E70123A0E7FF2F01D90223A6E70123D8
:10D64000A4E705AE300001F007FE638A32889342FA
:10D65000D4D305A9498851188B42CFDA9B1A9CB2C2
:10D660000026002ECADC34207043434B18180300F8
:10D6700030331B78DB0704D53422724383899C4204
:10D6800001D00136EDE7130008333B4AD3186A098D
:10D690009200D3581F222A40D340DB07F1D506AAB7
:10D6A0001399FFF791FE0028EBD0B0B234237343F7
:10D6B000314FFF18FA6A09A9039000F08FFE069B0C
:10D6C000DB007A6A944663445B68FA6A09A90398A6
:10D6D0009847D6E700DE80E700DE8BE73420604322
:10D6E000254B1818030030331B78DB071DD5C28982
:10D6F000002A1AD13423634308331F49CB18690920
:10D700008900CB581F212940CB40DB070DD5D20023
:10D710001A4B9A18043205AB19884B099B009B5889
:10D720001F220A40D340DB0701D4013463E706AA75
:10D730001399FFF749FE0028F7D0342262430E4BBD
:10D740009B18069AD200596A8C4662445668DA6A77
:10D75000A0B209A9B047E8E7042300200023002075
:10D76000FFFF00002C2F00200405000000B0004047
:10D7700054E4020049E402005C28002090280020C4
:10D7800010B50378002B00D010BD0430FFF7CCFE9D
:10D79000FAE7000000B587B0104B0393104B0493D9
:10D7A000104B05930423029301F0B6FC0E4B9C46EC
:10D7B00060440090012301930C4A137069460C48A1
:10D7C00003F05EFB002804D10022084B1A7007B05A
:10D7D00000BD084803F09CFBF9E7C04685D801006E
:10D7E000B9D40100F9D7010000FCFFFF5828002040
:10D7F00034280020DC22002010B50023002B01D0AB
:10D8000000230EE0DA001C49525CD10704D5D90090
:10D810000220024318480A5401339BB2EEE7013359
:10D820009BB2002B0DD15A00D2185100134A8A5ACC
:10D83000002AF4D0114841184A79022002434A7163
:10D84000EDE7002301E001339BB2002B10D134211E
:10D8500059430B4A521830321278D107F3D534208D
:10D860005843074909183031022002430A70EAE799
:10D87000FFF790FF10BDC04690280020242800200C
:10D880005C28002070B58EB005000E001400012A3F
:10D8900005D0022C0CD0032C13D00EB070BD7846EE
:10D8A000124B1B68002B01D09847F2E700DEF0E72F
:10D8B00078460E4B1B68002B01D09847EBE700DE43
:10D8C000E9E73022002102A80FF0DAFF192302AAAB
:10D8D0001370173B13710496EB6806932B69019341
:10D8E0000793100002F074F9D7E7C0462C2F0020F0
:10D8F000F0B591B002AF04000E007A602C2308212D
:10D900008C46BC4463443100FFF77CFD002831D0D5
:10D9100033893268FA60120C66498A422CD003229D
:10D920009B180733DB08DB006A46D31A9D4602AD1D
:10D9300029003068FFF7EAFC3368BB601B0C5D4AC6
:10D94000934220D003202818328971680FF08CFF91
:10D950000C230822BA18D01801F07EFCF98A342270
:10D960006243554B9B189B89994213D81020BD46A2
:10D970000FB0F0BD786BFAE7BA89FF2A01D902220D
:10D98000CEE70122CCE73B89FF2B01D90220DAE761
:10D990000120D8E77A68002A45D0137B3B76D389EB
:10D9A0007B83D08C24230822BA18D11801F022FEE0
:10D9B000002805D07846414B1B68002B31D0984792
:10D9C000342262433C4B9B181B7CFF2B56D02222F7
:10D9D000BA181370BB8A34226243374CA418A28948
:10D9E0009B183B847D62328933683B611B0C314953
:10D9F0008B4249D00323D3183B85002110230822F2
:10DA0000BA18D01804F096FF7863002807D12C4B81
:10DA10001B689B0403D52B4B1B68042B3BD8786BEE
:10DA2000A5E700DECCE734226243234B9B18D8885D
:10DA300010230822BA18D11801F072FC002805D072
:10DA400078461E4B1B68002B14D098473422624343
:10DA5000194B9B18988824230822BA18D11801F072
:10DA6000C9FD0028ACD07846144B1B68002B03D0AE
:10DA70009847A5E700DEE9E700DEA1E7124B1B7837
:10DA80002222BA181370A5E73B8AFF2B01D9022383
:10DA9000B1E70123AFE70D4B0D4AD358328801920D
:10DAA0000C4A0092C72252000B49053003F088FF50
:10DAB000B5E7C046FFFF00005C2800202C2F0020A7
:10DAC0000423002000230020EC2200200405000095
:10DAD00000B0004068E4020049E4020010B5FFF71E
:10DAE000FBFC0548054B036005F021F800F0BAFC8B
:10DAF000FFF750FE10BDC0462C28002081D7010042
:10DB0000F8B504000D00002800D195E08368002BD3
:10DB100000D193E0002900D192E001235B420B8009
:10DB2000C368002B01D10920F8BD8088002801D0EE
:10DB30000520F9E70A002168FFF77AFB00280AD0E0
:10DB40002A8834235A433F4B9B1830331B78DB071A
:10DB500001D50F20E8E7E168A068FFF725FC002861
:10DB600001D10720E0E72888374B98422BD029883D
:10DB7000344B3422514359182069C86229885143D3
:10DB80005918A0684862298851435918A089088506
:10DB900029886069514359188861288811004143D8
:10DBA0005918888229884A439B1830331A780121F2
:10DBB0000A431A700020B7E790B22880224B98429F
:10DBC0000ED10420B0E70022002AF6D134215143BF
:10DBD0001C4B5B1830331B78DB07EDD50132F3E7C4
:10DBE000184E34277843301801225242C2802B88C5
:10DBF0007B43F3189A802B88A2887B43F3189A8181
:10DC00002B8822887B439A532B8862887B43F318A6
:10DC10005A802B887B43F3180C4A12781A74618857
:10DC2000A088FFF7E7FA2B885F43F6193036327881
:10DC30000223134333709AE70E2075E70E2073E733
:10DC40000E2071E75C280020FFFF0000EC2200207E
:10DC500010B5002903D00022FFF74AFE10BD0E20A8
:10DC6000FCE710B51300002906D0002A06D00A00F0
:10DC70001900FFF73DFE10BD0E20FCE70E20FAE76D
:10DC8000002809D134224243124B9B1830331B78B1
:10DC9000DB0706D4002300E00023002B03D105207E
:10DCA00070470123F9E7042901D90720F8E7342256
:10DCB0004243084B9B18DB88994209D005488018DD
:10DCC000C180303003780222134303700020E7E75D
:10DCD0000020E5E75C28002000291AD0002809D19F
:10DCE000342242430C4B9B1830331B78DB0706D49D
:10DCF000002300E00023002B03D1052070470123FF
:10DD0000F9E7342343430448C018C3880B8000203C
:10DD1000F4E70E20F2E7C0465C28002010B500288A
:10DD200009D1342242431A4B9B1830331B78DB074E
:10DD300006D4002300E00023002B03D1052010BDF2
:10DD40000123F9E7052901D90720F8E734234343E4
:10DD500008331A000E4B9B184A0992009B181C6846
:10DD60001F2211402200CA40D2070ED401228A404D
:10DD700014431C60342343430548C01830300378F3
:10DD80000222134303700020D9E70020D7E7C046E2
:10DD90005C280020002809D134224243124B9B18F2
:10DDA00030331B78DB0706D4002300E00023002B70
:10DDB00003D1052070470123F9E7052901D9072080
:10DDC000F8E734224243084B9B189B88994209D0BC
:10DDD0000548801881803030037802221343037095
:10DDE0000020E7E70020E5E75C280020002809D1B3
:10DDF00034224243144B9B1830331B78DB0706D484
:10DE0000002300E00023002B03D1052070470123ED
:10DE1000F9E70B00803BDBB27E2B01D80720F5E74A
:10DE200034224243084B9B181B7C994209D0064878
:10DE300080180174303003780222134303700020ED
:10DE4000E4E70020E2E7C0465C28002000291AD061
:10DE5000002809D1342242430C4B9B1830331B78E5
:10DE6000DB0706D4002300E00023002B03D10520AC
:10DE700070470123F9E7342343430448C018037C67
:10DE80000B700020F4E70E20F2E7C0465C2800206B
:10DE900000291AD0002809D1342242430C4B9B1888
:10DEA00030331B78DB0706D4002300E00023002B6F
:10DEB00003D1052070470123F9E734234343044885
:10DEC000C018C36A0B600020F4E70E20F2E7C046DA
:10DED0005C28002030B501235B420B800023002B1F
:10DEE00007D008880C4B9C466044431E9841C0B242
:10DEF00030BD9C00E418E500084A52193C32127803
:10DF0000002A04D0054A5219128B824201D00133F3
:10DF1000E5E70B80E5E7C0460100FFFF98280020F9
:10DF200040230C4AD35A002B10D0130042229A5A95
:10DF300091008918CA009A18516B82001018C2000B
:10DF40009B185B6BCB1A03D4012000E001207047C3
:10DF50000020FCE79828002030B583001818C20084
:10DF60000F4B9B185D6B0F4B9C46654400230E487E
:10DF7000002B00D030BD9900C918CC00084A1219F6
:10DF80003C321278002A04D0054A1219526B511BF8
:10DF900002D401339BB2EBE718001500F9E7C04645
:10DFA0009828002000879303FFFF000070B506004B
:10DFB0000C00150001235B420B800533136001F058
:10DFC0006BFD4023164AD35A012B26D901F088FD58
:10DFD000286843425841C0B270BD9A00D218D1009F
:10DFE0000F4A5218118B3288914213D00133002B03
:10DFF000ECD19900C918C800094A12183C321278AD
:10E00000002AEAD12188074A9142EFD100222A60F2
:10E010002380EBE708232B60D8E70023E7E7C0461F
:10E0200098280020FFFF000010B50400820012189D
:10E03000D100284B5B183C331B78002B05D1784668
:10E04000254B1B68002B1FD098474023214AD35AE9
:10E05000002B05D17846204B1B68002B16D0984723
:10E060001C49A2001219D300CB183C3300221A70AD
:10E0700040328B5A013B9BB28B52002B25D042235E
:10E08000CB5A9C4204D010BD00DEDEE700DEE7E79D
:10E090002000FFF761FF42230E4AD0520F4B9842F7
:10E0A0000AD00C484223C35A9A00D218D300C3188E
:10E0B000596B05F0B5FEE6E77846074B1B68002B69
:10E0C00001D09847EDE700DEEBE7024805F070FE6F
:10E0D000D9E7C046982800202C2F0020FFFF000021
:10E0E000F0B583B0050040236B4AD35A002B05D10D
:10E0F00078466A4B1B68002B2BD09847FA239B006D
:10E10000EE18012149424223634AD1520024002CD7
:10E1100021D04023604AD35A002B00D1B7E04223DC
:10E12000D35A002B06D078465C4B1B68002B00D1DD
:10E13000A9E09847584B4222995A8A005218D100B8
:10E140005B185A6B531B00D59FE0534AD36003B052
:10E15000F0BD00DED2E7A2001219D1004E4B5B18D1
:10E160003C331B78002B1FD0621C93009B18DA00F5
:10E17000494B9B185B689B1B18D4A3001B19DA0042
:10E18000454B9B185B6B9A1B36D442224249895AF5
:10E19000434A914200D172E08A005218D1003E4AAF
:10E1A0005218526B9B1A6AD40134B0E73A49A20064
:10E1B0001219D300CB181A003C32002010704030E6
:10E1C0000A5A013A0A52188B01A9FFF761FE00288A
:10E1D00005D07846314B1B68002B0BD09847A20026
:10E1E0001219D1002C4B5B181F6B188B012201995F
:10E1F000B847D9E700DEF2E7274FA2001119CB009C
:10E200001900FB18188B183179180431FFF720FD1D
:10E210004223FC5200281CD1A2001219D1001E4B2F
:10E220005B189A6B596B8918596352009A631A4BA1
:10E23000621C91008918CA009A185068A20012192D
:10E24000D1005B185B6BC31AAED5134B5B185863D8
:10E25000AAE7042806D07846104B1B68002B0CD088
:10E260009847E4E70C49A3001819C2008A18536BB9
:10E270000C498C46634453634BE700DED7E74223E7
:10E28000054AD45290E700DE54E7AB1A5DE700225E
:10E29000014BDA605BE7C046982800202C2F002055
:10E2A000FFFF0000409C000010B582B00400008811
:10E2B0006B46D91DFFF7CAFD002805D07846164BDE
:10E2C0001B68002B1ED09847636800931B0C134AF1
:10E2D000934219D00323A089C01880B26B4607333C
:10E2E0001B780F4C5C430F4B9C4664440B2806D9AB
:10E2F0000B300C210FF07EF9094B584324182000F5
:10E3000002B010BD00DEDFE76B461B88FF2B01D992
:10E310000223E0E70123DEE72C2F0020FFFF0000AF
:10E32000204E0000400D0300F0B583B004000191C1
:10E3300082001218D100274B5B183C331B78002B4E
:10E3400005D07846244B1B68002B35D0984705F044
:10E3500051FA07001F4DA6003319D80018302818AD
:10E360001C2201990FF080FA0198FFF79DFF3219E6
:10E37000D300EB189863661CB2009119C9006918A4
:10E380004A68D2194A603F185F6301F085FB20009C
:10E39000FFF7C6FD002811D10E4AA3001C19E300A7
:10E3A000D3183C33012119703F31535A0133535272
:10E3B00001F096FB03B0F0BD00DEC8E7054DA200FA
:10E3C0001219D300EB18596B280005F029FD4223E0
:10E3D000EC52E1E7982800202C2F002070B582B085
:10E3E00004000E001500002805D078461B4B1B6862
:10E3F000002B18D0984701F04FFB6B46991D200069
:10E40000FFF768FD00280AD06B46D888421C9300AD
:10E410009B18DA00124BD25A33889A4205D001F089
:10E420005FFB02B070BD00DEE5E7421C93009B1865
:10E43000DA000B4B9B185A8873889A42EFD1FFF78A
:10E44000F3FD6B46DA8893009B18DA00044B9B18A7
:10E450001B6B0022290020009847E0E72C2F0020AA
:10E460009828002010B5044C4422002120000FF011
:10E4700007FA024BA36010BD98280020E1E00100DC
:10E4800010B582B0041E03D00524200002B010BDD8
:10E4900001F002FB6B46991D2000FFF71BFD0028D1
:10E4A00003D1052401F01CFBEFE76B46D888FFF78A
:10E4B000BBFDF7E710B582B0041E2AD08369002B9C
:10E4C00029D00388002B02D0052002B010BD43697B
:10E4D000124A94466344124A934201D90720F4E752
:10E4E00001AA6B46991CFFF761FD002801D1019834
:10E4F000EBE7211D2088FFF7ABFB0190002801D03E
:10E500000428E2D16B4658882100FFF70DFF002058
:10E51000DBE70E20D9E70E20D7E7C046803C36FE69
:10E5200080C3C9010E4B1B68DB070AD50D4B1B8846
:10E53000984210D30B4A52889B1898420DDB002357
:10E5400000E00023002B04D0488001220A70002242
:10E550004A60180070470023F4E70123F2E7C04641
:10E56000E4280020D429002010B501235B420B8051
:10E57000002305E09A000E4C125B82420DD001335D
:10E58000032B13D85A0992000A4C12591F241C401D
:10E59000E240D207EED40B80F1E79C00044A121946
:10E5A000D278002AEBD00B80012000E0002010BDC3
:10E5B000F4280020DC28002030B583B005000C00D2
:10E5C0006B46991DFFF7D0FF002804D06580032318
:10E5D00023700023636003B030BD000010B50B88CA
:10E5E000002B01D1013300E00023012252420A80B6
:10E5F00007E09A00D21894000B4AA25A82420DD02A
:10E600000133002B0DD15A099200084C12591F24D6
:10E610001C40E240D207ECD40B80F1E70B800120D4
:10E6200000E0002010BDC0463C2A0020EC2800205D
:10E6300010B501235B420B80002304E00C880D4AD7
:10E64000944213D00133032B12D85A0992000A4C7A
:10E6500012591F241C40E240D207EFD59A00074C04
:10E66000125B8242EED10B80012002E00B80E9E7D1
:10E67000002010BDFFFF0000DC280020F42800204F
:10E6800010B501235B420B80002304E00C880F4A85
:10E69000944215D00133042B15D85A0992000C4C22
:10E6A00012591F241C40E240D207EFD516225A43CC
:10E6B000084C125B8242EDD101330B80012003E054
:10E6C0005A1C0A80E6E7002010BDC046FFFF00008C
:10E6D000242900202C29002010B501235B420B8047
:10E6E0000023002B01D0002010BD5A0992000C4CD1
:10E6F00012591F241C40E240D2070AD516225A4361
:10E70000084C125B824201D00133EAE70B80012002
:10E71000EAE70C88044A9442F6D10B80F4E7C0463D
:10E72000042900200C290020FFFF000010B5041E62
:10E7300005D00D4B12339C420AD20C4810BD7846CE
:10E740000B4B1B68002B01D09847F2E700DEF0E787
:10E75000054B12339C4201D90448EFE7E01A5C21D3
:10E760000EF066FF80B2E9E7E0290020FFFF00001D
:10E770002C2F002010B5041E05D00D4B3C339C42BD
:10E780000AD20C4810BD78460B4B1B68002B01D0F9
:10E790009847F2E700DEF0E7054B3C339C4201D995
:10E7A0000448EFE7E01A5C210EF042FF80B2E9E78F
:10E7B000E0290020FFFF00002C2F002010B5041ED0
:10E7C0000DD0164B04339C4203D3144B04339C42AC
:10E7D0000ED9134B04339C4210D2124810BD784618
:10E7E000114B1B68002B01D09847EAE700DEE8E7F1
:10E7F000E01A16210EF01CFF80B2EFE7084B5C33E5
:10E800009C4201D90748E9E705480430201A16213F
:10E810000EF00EFF013080B2E0E7C0460C29002068
:10E820002C290020FFFF00002C2F0020002811D0F1
:10E830000023042B0CD816225A430749525A9042FF
:10E8400001D00133F5E716204343C818043000E037
:10E85000002070470020FCE72C29002070B5040040
:10E860000D0016001068002803D0FFF7A7FF013045
:10E8700002E0002000E0013000281CD143099B0089
:10E880000E4A9B581F220240D340DB07F3D51622C5
:10E8900042430B4B9B185B88A342ECD116224243A8
:10E8A000074B9B185B796B409B06E4D1044B98188F
:10E8B0000430306001E00023336070BD0429002083
:10E8C0000C2900200B4B8A00D0529B180022DA70D2
:10E8D0009A7048098000084B1B181F3211401E3ADD
:10E8E0008A40196811431960044B1B1819680A43C0
:10E8F0001A607047F4280020DC280020E02800205F
:10E9000010B50B0081B21888FFF7DCFF10BD0000C6
:10E910008000024BC35A0B807047C046F428002089
:10E9200010B5041E01D0A04710BD7846034B1B68EC
:10E93000002B01D09847F6E700DEF4E72C2F0020EB
:10E94000F8B5CE46474680B58046894611005C1E24
:10E95000114F162565437E19B01D10220EF084FF5D
:10E9600000237371013333714A4672804246EA5381
:10E9700061098900094A52181F200440A340106809
:10E9800018431060064A521811680B4313600CBC00
:10E9900090469946F8BDC0462C2900202429002025
:10E9A0002829002010B50A1D013083B24C88088840
:10E9B0002100FFF7C5FF10BDF8B50D000B1D074F77
:10E9C000162444433E19B11D102218000EF04CFFCE
:10E9D000E35B2B8073886B80F8BDC0462C29002038
:10E9E000F8B50D000B1D074F162444433E19B11D09
:10E9F000102218000EF038FFE35B2B8073886B80C9
:10EA0000F8BDC0460C29002070B50D008B1C064EC9
:10EA10005C24444331190231102218000EF024FF07
:10EA2000A35B2B8070BDC046E029002010B50C0010
:10EA300083001B189A000449891804311022200011
:10EA40000EF012FF10BDC0463C2A002010B5042273
:10EA500001480EF009FF10BDD429002010B50800B0
:10EA6000042202490EF000FF10BDC046D429002048
:10EA7000F0B583B005000F0001921E001621594326
:10EA8000174C6418A01D102201990EF0EDFE611DB7
:10EA9000019804F065F8002805D07846114B1B68F2
:10EAA000002B1AD098470E4916237343CA1800202A
:10EAB00010715D525780710989000B4840181F235F
:10EAC0001E400122B240036813430360074B5B18EA
:10EAD00019680A431A6003B0F0BD00DEE3E7C046E0
:10EAE0000C2900202C2F00200429002008290020B8
:10EAF00010B50A1D83B24C8808882100FFF7B8FFC3
:10EB000010BD0000F0B583B0060001911400294A41
:10EB10005C2161430B003033D31804335218136463
:10EB2000002802D10122244B1A705C2161430B00A2
:10EB300010332049C9180231019804F01EF800284A
:10EB400005D078461D4B1B68002B2ED098475C21C2
:10EB500061430B0040331749C9180431019804F090
:10EB600021F8002805D07846144B1B68002B1ED0D6
:10EB70009847104D5C276743E8190230102201992D
:10EB80000EF072FE7E53610989000D4B5B181F2247
:10EB900014401E3AA240186810431860094B5B18D5
:10EBA00019680A431A6003B0F0BD00DECFE700DE4B
:10EBB000DFE7C046E0290020D02900202C2F0020CC
:10EBC000D8290020DC29002010B50B00023182B2C8
:10EBD0001888FFF797FF10BD70B506000C1FA30043
:10EBE0001B199A00124DAD18281D102231000EF08D
:10EBF0003BFE2900300004F001F8002805D07846DB
:10EC00000C4B1B68002B11D09847600980000A4B01
:10EC10001B181F210C400122A240196811431960E2
:10EC2000064B1B1819680A431A6070BD00DEECE73A
:10EC30003C2A00202C2F0020EC280020F028002067
:10EC400010B50B00011D89B21800FFF7C5FF10BDFC
:10EC5000F8B505000E0000F01FFF052D05D9784618
:10EC60001D4B1B68002B0AD098471C4B1C78002CAE
:10EC700007D1002C1ED000F033FF2000F8BD00DECD
:10EC8000F3E76A01164B9B18598A891989B25A69A8
:10EC9000144801F0ABFF071E0AD06A01104B9B1805
:10ECA0009B69011D30009847380001F0EDFFE0E757
:10ECB0000024DEE76D010A4B5D19AB687209920012
:10ECC0009B181F2216401E3AB24019680A431A6068
:10ECD000054802F01DF9CEE72C2F00209A290020CC
:10ECE0007CE402009C290020C029002010B50A22E3
:10ECF00001210A4801F07AFF0400631E9C41E4B23E
:10ED0000002809D004234381033B83818380C3808F
:10ED10000433038101F0B8FF200010BD9C290020BE
:10ED200070B505000E0000F0B7FE052D05D9784638
:10ED3000174B1B68002B0AD09847164B1C78002CE9
:10ED400007D1002C12D000F0CBFE200070BD00DEF9
:10ED5000F3E76A01104B9B18598A891989B20F4849
:10ED600001F0C6FF44424441E4B2EAE76D010A4BB8
:10ED70005D19AB68720992009B181F2216401E3A5B
:10ED8000B24019680A431A60054802F0C1F8DAE790
:10ED90002C2F00209A2900207CE402009C290020CE
:10EDA000C0290020F8B5DE4657464E464546E0B538
:10EDB00000239B460133984649E05101611A012323
:10EDC0008B40013B910049590B4210D10132230085
:10EDD0001F335B099A4205D2013B9A42EDD00123D1
:10EDE0005B42EFE74346002B2DD100270EE00023C6
:10EDF000F9E739005846FFF793FF002822D0012396
:10EE00005246934032689A4332600137A7421AD281
:10EE10007B099B00EE181F223A4092463268514609
:10EE2000CA40D207F1D54A465101134A52185268D6
:10EE3000D3585246D340DB07DBD539005846FFF79D
:10EE400007FFDAE780465E460136F3B29B465B4633
:10EE5000052B0BD84346002B08D0D946064B5A4603
:10EE6000520199188D68D4580022B0E73CBC9046F6
:10EE70009946A246AB46F8BD7CE4020030B58FB09F
:10EE800005000C00012905D0022C0CD0032C13D056
:10EE90000FB030BD7846134B1B68002B01D098474C
:10EEA000F2E700DEF0E778460E4B1B68002B01D03E
:10EEB0009847EBE700DEE9E73022002102A80EF0D8
:10EEC000DFFC192302AA1370173B13710495064B3C
:10EED000DA6806921B690193079302A800F078FE96
:10EEE000D6E7C0462C2F00209C29002010B5110029
:10EEF0000020FFF7C3FF10BD10B508001100FFF799
:10EF0000BDFF10BD70B505000C00160001235B426B
:10EF10000B8003F09FFE307002281DD0032835D0EF
:10EF2000012835D0002036E09A00D21891001A4A04
:10EF30008A5A95420DD00133002B0FD15A09920005
:10EF4000164952581F211940CA40D207ECD42380D9
:10EF5000F1E7238001201EE00023EDE700201AE006
:10EF60009A000F49525A95420DD00133032B11D804
:10EF70005A0992000B4952581F211940CA40D20722
:10EF8000EED42380F1E72380012004E00023EDE7A5
:10EF90000023EBE7002070BD3C2A0020EC28002075
:10EFA000F4280020DC28002070B582B006000C0098
:10EFB0001500002941D06B46DA1D01A9FFF7A2FF19
:10EFC000002D13D16B4607331B78032B0ED0102076
:10EFD000002833D101AB1B882380002D26D09B0055
:10EFE000174AD3189A7801329A7027E0012D10D071
:10EFF000002817D101AB1988124B994214D0300068
:10F00000FFF760FC01AB19880120FFF721FE00200B
:10F01000DEE76B4607331B78032BE9D0012BE7D0E3
:10F020001020D5E70020D3E70420D1E79B00044A55
:10F03000D318DA780132DA7000E00E2002B070BD29
:10F04000F4280020FFFF000070B505000E0001232A
:10F050005B420B800024002C01D0002070BD6309AE
:10F060009B000F4A9B581F222240D340DB0705D448
:10F0700032880C4B9A420DD134800BE0A3001B194F
:10F080009A00094880180430102229000EF0C8FBAD
:10F09000002801D00134DEE734800130DEE7C046CD
:10F0A000EC280020FFFF00003C2A002030B583B090
:10F0B00005000C004868002805D06B46991DFFF735
:10F0C000C3FF002803D1012252426B46DA806B460F
:10F0D000991D2800FFF782FA002816D06B46DA88BF
:10F0E00093009B189A000B4B9B18DB78002B0ED0DB
:10F0F0006580022323706B4606331B889A00D21862
:10F100009100044B5B180433636003B030BD0020F2
:10F11000FBE7C0463C2A002010B503F0F1F8024B93
:10F120009C46604410BDC04600FCFFFF10B586B091
:10F13000164B0393164B0493164B0593002302932F
:10F14000FFF7EAFF00900123019300F0A5FC694658
:10F15000114801F095FE002809D10F4B1B78012BB7
:10F1600001D0012404E0FFF7C1FD040000E0002409
:10F1700000F0B6FC002C04D00122084B1A7006B037
:10F1800010BD074801F0C4FEF9E7C046F9EE0100E2
:10F19000EDEE0100CDF101009C2900209A2900200C
:10F1A000F022002010B5054B054A9A60054ADA6046
:10F1B0000022054B1A70FFF7B9FF10BDC0290020CF
:10F1C00021E90100A5ED01009A29002010B5FFF703
:10F1D000ADFF10BD10B5041E05D01C4B1B68DB072E
:10F1E0000AD50F2010BD7846194B1B68002B01D0A3
:10F1F0009847F2E700DEF0E720886388C318013BF8
:10F20000984201DD0B20EDE703F024FD012801D039
:10F210000B20E7E720886388C01880B2013880B2ED
:10F2200003F018FD012801D00B20DBE704222100A8
:10F2300008480EF019FB054A012311680B431360BF
:10F2400000210800FFF704FD0020CBE7E4280020A0
:10F250002C2F0020D429002010B5041E05D0042234
:10F26000064920000EF000FB10BD7846044B1B68D9
:10F27000002B01D09847F2E700DEF0E7D429002008
:10F280002C2F002010B50122FFF78EFE10BD0000CC
:10F2900010B5020003280AD843099B001C495B589B
:10F2A0001F210140CB40DB0716D5012100E00021E2
:10F2B000002915D1131F9BB2002B09D158098000DA
:10F2C000144C00591F242340D840C30700D50131F6
:10F2D000002903D0012304E00021E9E7002300E036
:10F2E0000123181E08D0032A07D892000A48821862
:10F2F000D078431E9841C0B210BD101F8200121872
:10F300009100064B5B18D878431E9841C0B2F3E7D2
:10F31000DC280020EC280020F42800203C2A0020D3
:10F3200070B50C1E3ED003280AD843099B001E4A24
:10F330009B581F220240D340DB0716D5012200E074
:10F340000022002A13D1031F9BB2002B09D15909B7
:10F350008900164D49591F252B40D940CB0700D5B0
:10F360000122002A0FD1052070BD0022E9E7104BD1
:10F370008000C25A6280C05A03F06CFC20700023E7
:10F3800063600020F0E704380A4B82001518A900DA
:10F390000D00C95A61805B19043363600223237036
:10F3A0000020E1E70E20DFE7DC280020EC28002029
:10F3B000F42800203C2A002030B583B004000D0062
:10F3C00000282CD000292CD0408803F043FC0228D0
:10F3D0000DD0032803D0012801D0102022E060883E
:10F3E0002900FFF725F900281ED105301AE0012277
:10F3F00052426B46DA80606800280CD06B46991D3B
:10F40000FFF722FE002808D06B4606331B88043322
:10F410002B80002006E00E2004E0052002E00E20F4
:10F4200000E00E2003B030BD0020FBE710B500283F
:10F4300002D0FFF7C3F910BD0048FCE7FFFF000052
:10F4400070B51400002937D0002A37D01C4B9842E1
:10F4500001D9072070BD1B4E0023002B04D00023D0
:10F46000002B1AD00F20F5E75A099200164D525979
:10F470001F251D40EA40D2070AD55C225A43134D8E
:10F48000525B904201D00133E7E79EB20123E7E7E8
:10F490000C4A9642F7D19EB2F5E70A4B9E4201D143
:10F4A0000420D7E73200FFF72DFB31000320FFF7E0
:10F4B000CFFB26800020CDE70E20CBE70E20C9E74A
:10F4C000FF0F0000FFFF0000D8290020E0290020E6
:10F4D000F0B583B006000F0014001D00002A37D0DD
:10F4E000002B37D003F0B6FB012801D0102032E00A
:10F4F000002F01D005202EE07B099B00174A9B5866
:10F500001F223A40D340DB0701D4052023E06B469D
:10F51000991D3000FFF7B4F8002801D00F201AE041
:10F520006B4606331B880E4A934201D1042012E039
:10F53000220039003000FFF703FA6B469C1DD98882
:10F5400001390520FFF784FB23882B80002002E08F
:10F550000E2000E00E2003B0F0BDC046D8290020E8
:10F56000FFFF0000F0B583B007000D0014001E007F
:10F57000002A35D0002B35D0002902D0052003B059
:10F58000F0BD4B099B00184A9B581F220A40D340EC
:10F59000DB0701D40520F2E7144B984201D907207C
:10F5A000EDE76B46991DFFF797F8002801D00F2073
:10F5B000E5E76B4606331B880D4A934201D10420D0
:10F5C000DDE7220029003800FFF752FA6B469C1D48
:10F5D000D9880420FFF73CFB238833800020CEE746
:10F5E0000E20CCE70E20CAE7D8290020FF0F00002C
:10F5F000FFFF000070B504000D00052801D90520AB
:10F6000070BD002900D182E000283FD143099B0052
:10F61000404A9B581F220240D340DB0701D40520FB
:10F62000EEE7162242433C4B9B185B88002B05D02B
:10F6300078463A4B1B68002B24D098471622624329
:10F64000354B9B1859884B099B00354A9B581F2204
:10F650000A40D340DB0705D47846304B1B68002BAB
:10F6600012D09847162363432B4CE418231D6B607C
:10F6700062885C235A4310322A4B9B1802332B605A
:10F680000020BDE700DED9E700DEEBE7013C6309BF
:10F690009B00254A9B581F222240D340DB0701D400
:10F6A0000520ADE716226243204B9B185B88002B98
:10F6B00005D07846194B1B68002B24D0984716229A
:10F6C00062431A4B9B1859884B099B00144A9B585C
:10F6D0001F220A40D340DB0705D478460F4B1B6836
:10F6E000002B12D0984716236343104CE41862880D
:10F6F0005C235A4310320B4B9B1802332B600434AB
:10F700006C6000207CE700DED9E700DEEBE70E202E
:10F7100076E7C046042900200C2900202C2F002069
:10F72000D8290020E0290020242900202C290020AD
:10F7300070B504000D1E06D0286800280CD0FEF716
:10F74000F5FF01300BE07846134B1B68002B01D00E
:10F750009847F1E700DEEFE7002000E001300028E5
:10F7600017D143099B000D4A9B581F220240D340EA
:10F77000DB07F3D55C224243094B9B189B7C63401B
:10F780005B06EBD1130010330548C0180230286027
:10F7900001E000232B6070BD2C2F0020D829002011
:10F7A000E029002070B504000E00151E0CD0002CBE
:10F7B00013D02000FEF7BAFF0E4B984216D02A0055
:10F7C0003100FFF74BF870BD78460B4B1B68002BE0
:10F7D00001D09847EBE700DEE9E77846064B1B6867
:10F7E000002B01D09847E4E700DEE2E700232B601E
:10F7F000E9E7C046FFFF00002C2F002070B5050090
:10F800000C1E04D02800FFF711F8206070BD784668
:10F81000034B1B68002B01D09847F3E700DEF1E7AC
:10F820002C2F002070B505000E1E06D03068002871
:10F830000CD0FEF79FFF441C19E07846204B1B6854
:10F84000002B01D09847F1E700DEEFE700240EE03F
:10F85000012100E001211B4B5C2044431A193C327A
:10F86000117038341B190433336028E00134002C44
:10F8700023D163099B00144A9B581F222240D34086
:10F88000DB07F3D5002D0CD05C2161430B00503316
:10F890000C49C9180431082228000DF0C1FF0028C6
:10F8A000E4D10A4B1B78002BD4D05C236343054A78
:10F8B0009B5A002BCCD00021CDE70023336070BDD4
:10F8C0002C2F0020E0290020D8290020D02900205A
:10F8D00070B504000D0003F0BDF902280FD0032815
:10F8E00008D0012801D0002003E029002000FEF705
:10F8F00019FE70BD29002000FEF75EFEF9E7290021
:10F900002000FFF7D3FBF4E710B50378012B11D0EB
:10F91000002B02D0022B06D010BD4368002BFBD079
:10F9200080689847F8E74368002BF5D0C168806885
:10F930009847F1E74368002BEED080689847EBE7E3
:10F940008021C90280235B00014AD1507047C04624
:10F9500000E100E010B584B0002404E0A300144AE4
:10F960009B5898470134134B1B689C4218D262097C
:10F970009200114B9B181F2222401968D140C907E1
:10F98000F0D5EFF3108172B6012090401A688243DF
:10F990001A600029E2D162B6E0E76846FFF7B4FFDB
:10F9A0006946064800F0DEF90028F6D004B010BD24
:10F9B0006C2B0020682B00207C2B0020502A00207C
:10F9C00010B50100054800F09BF9041E02D0042484
:10F9D000200010BDFFF7B4FFFAE7C046502A002010
:10F9E00010B5FFF7B7FF10BD10B50B480B4B036008
:10F9F00010234360836000F053F9094BC42080005A
:10FA00001A5808491140C02212040A431A50802291
:10FA1000D2021A6010BDC046502A0020642A00207D
:10FA200000E100E0FFFF00FF30B585B004000D00ED
:10FA3000002809D001236A46137001940295684694
:10FA4000FFF7BEFF05B030BD7846044B1B68002BA6
:10FA500001D09847EEE700DEECE7C0462C2F0020EF
:10FA600030B585B004000D00002809D000236A4697
:10FA70001370019402956846FFF7A2FF05B030BDF0
:10FA80007846044B1B68002B01D09847EEE700DE58
:10FA9000ECE7C0462C2F002010B5EFF3108472B6AF
:10FAA0000C490A68531C0B60002A04D18020C00254
:10FAB000803209498850002B05D17846074B1B68D6
:10FAC000002B04D09847002C00D162B610BD00DE98
:10FAD000F9E7C046642B002000E100E02C2F002055
:10FAE00010B5EFF3108472B60C4B1B68002B05D1D8
:10FAF00078460B4B1B68002B0ED09847074A1368BB
:10FB0000013B1360002B03D18022D202054B1A6007
:10FB1000002C00D162B610BD00DEEFE7642B0020A0
:10FB20002C2F002000E100E010B5041E17D0114B6F
:10FB30001B68032B05D978460F4B1B68002B17D089
:10FB40009847EFF3108372B60A4A1068411C11609F
:10FB500081000A4A8C50002B00D162B610BD784655
:10FB6000054B1B68002B01D09847E0E700DEDEE77D
:10FB700000DEE6E7682B00202C2F00206C2B0020F5
:10FB800070B505000F4B1B68834205D878460E4BB5
:10FB90001B68002B14D09847EFF3108472B66A09E3
:10FBA00092000A4B9B181F202840012282401968AE
:10FBB0000A431A60FFF7C4FE002C00D162B670BD84
:10FBC00000DEE9E7682B00202C2F00207C2B002092
:10FBD00070B5051E04D00B4B1C68002C0ED10FE035
:10FBE0007846094B1B68002B01D09847F3E700DEED
:10FBF000F1E7231F1B68280098472468002CF8D1E0
:10FC000070BDC046802B00202C2F002070B5061E32
:10FC10000ED0351D002D14D01F4B1B689D4219D0EE
:10FC20001D4B1C68002C1FD11D600023736029E050
:10FC300078461A4B1B68002B01D09847E9E700DE95
:10FC4000E7E77846154B1B68002B01D09847E3E7A0
:10FC500000DEE1E77846114B1B68002B01D0984786
:10FC6000DEE700DEDCE71C002368002B01D0A542A4
:10FC7000F9D1002C07D0002D05D0A54202D0236871
:10FC80007360256070BD7846044B1B68002B01D063
:10FC90009847F2E700DEF0E7802B00202C2F0020B1
:10FCA00010B5041E1CD06368002B05D02368002B00
:10FCB00002D0A368002B05D17846104B1B68002B9F
:10FCC00017D09847A3685A1E1A4205D078460B4BA6
:10FCD0001B68002B0FD098470023E360236110BD01
:10FCE0007846064B1B68002B01D09847DBE700DE07
:10FCF000D9E700DEE6E700DEEEE7C0462C2F002065
:10FD000070B5041E26D0002926D08368002B02D1AE
:10FD10000925280070BDEFF3108572B6806823694D
:10FD20001A18E668B24210D0013830406368584370
:10FD300023689C46604462680DF096FDE3680133D9
:10FD4000E360002D0CD162B6E3E7002D06D162B668
:10FD50000435DEE70E25DCE70E25DAE70425D8E7D3
:10FD60000025D6E770B504000800002C24D0A36855
:10FD7000002B02D10925280070BDEFF3108572B663
:10FD80002369E268934212D06268A1680139194080
:10FD9000514323689C466144002801D00DF064FD66
:10FDA000236901332361002D0AD162B6E3E7002DF8
:10FDB00004D162B60535DEE70E25DCE70525DAE776
:10FDC0000025D8E7C3680069181A7047F8B5040021
:10FDD0000E001700002824D0002924D08368002BAF
:10FDE00002D109252800F8BDEFF3108572B6FFF7A0
:10FDF000E9FFB84204D8002D17D162B60535F1E706
:10FE00002168626823699C466744A368013B1F40E0
:10FE10005743C91930000DF027FD002D07D162B6F8
:10FE2000E0E70E25DEE70E25DCE70525DAE700250D
:10FE3000D8E710B50022FFF7C9FF10BD0369C068FD
:10FE4000181A43425841C0B270470000C3681A797B
:10FE50005979521A06498C46624492028021C9009F
:10FE60008C4662449B1842699B1A8068181A704736
:10FE7000FFFF3F0070B505000C00830705D07846F2
:10FE80000F4B1B68002B12D09847A30705D078466C
:10FE90000B4B1B68002B0CD098470023A208934201
:10FEA00009D29A005259013207D10133F6E700DE38
:10FEB000EBE700DEF1E7012070BD0020FCE7C04663
:10FEC0002C2F002070B5050000241BE0002000E06E
:10FED0000020002830D053799C4205D07846174B3B
:10FEE0001B68002B23D09847EB689C466644337907
:10FEF0002A69934205D07846104B1B68002B18D016
:10FF0000984701342B699C4215D2A602EB689A19D6
:10FF10001378083BDBB2F62BDAD85379FF2B04D0E9
:10FF20001379FF2BD2D00120D3E70020D1E700DEE8
:10FF3000DAE700DEE5E7012070BDC0462C2F002087
:10FF400070B504000579012D01D9002070BD066847
:10FF50003000FFF77BFF002D08D1A3899B0083426F
:10FF600008DB7368002B03D10020EFE70023F6E7DE
:10FF70000120EBE70020E9E7F0B5C64600B586B002
:10FF800004000368DA6810788018137951795B1AD5
:10FF900052498C4663449B028021C900591851186C
:10FFA000E28901F071FC070022689668B50AAD028B
:10FFB0008023DB009C4665440195A81BA3899B0018
:10FFC000984251D9F51821000C31A28992000123E1
:10FFD00002A80370039605910492002201000120FB
:10FFE00001F04CFE002806D078463D4B1B68002BE4
:10FFF00000D16BE09847012302AA13700395394B97
:020000022000DC
:10000000059304230493384A02A9012001F036FE27
:10001000002805D07846324B1B68002B58D09847F3
:10002000002F1BD022683B889B0051688C4663449C
:100030005360012302AA137003972C4B05930423EA
:100040000493294A02A9012001F018FE002805D0D6
:100050007846234B1B68002B3CD09847A6600020B5
:1000600006B004BC9046F0BDD2689446117952792E
:10007000891A1A4A9046414489028022D2008A187D
:1000800062440199914227D098421AD0012302AAD2
:1000900013700396164B059304230493002202A9C0
:1000A000012001F0EBFD002805D078460C4B1B68C1
:1000B000002B09D098472E78AE19A589AD00751987
:1000C00081E72B78ED187EE700DEF4E700DE92E7AB
:1000D00000DEA5E700DEC1E70120C1E7FFFF3F002A
:1000E0002C2F002058E50200A62C002050E502002D
:1000F00054E5020010B584B004000368DA68107893
:100100008018137951795B1A19498C4663449B0214
:100110008021C90059185118E28901F0B5FB002867
:1001200021D0A060226803889B0051688C466344FC
:10013000536001236A46137001900E4B039304230E
:1001400002930D4A6946012001F098FD00280DD068
:1001500078460A4B1B68002B02D09847002003E02A
:1001600000DE002000E0022004B010BD0020FBE70C
:10017000FFFF3F0050E50200A62C00202C2F00209E
:1001800070B584B005000368DB68467BB6029E1933
:1001900008213000FFF76EFE002814D1002401E092
:1001A00000DE0134072C0ED8335D2A000832125DC0
:1001B0009342F6D0FF2BF4D07846104B1B68002BEF
:1001C000EED09847EDE7083501236A461370019693
:1001D0000395073302930A4A6946012001F04EFD58
:1001E000002805D07846054B1B68002B03D09847A4
:1001F000002004B070BD00DEFAE7C0462C2F0020BE
:10020000A62C002000B585B00368DA681B699B0244
:1002100002216846017001920293094A6946012051
:1002200001F02CFD002805D07846064B1B68002BFA
:1002300003D09847002005B000BD00DEFAE7C046B5
:10024000A62C00202C2F002010B582899200037963
:10025000012B0FD0002B03D0022B11D0012008E07E
:10026000836801000C3118000DF0DAFA434258415E
:10027000C0B210BD8368588843425841C0B2F8E705
:100280000368DB68427B92029B1801000831082258
:1002900018000DF0C5FA43425841C0B2E9E700002A
:1002A00070B501000E4802F0CBFF0E4B5D6809E00F
:1002B000002D05D078460C4B1B68002B0DD09847BD
:1002C000A5420CD0074806F0E5F9041EF0D0002343
:1002D0000360C068A3689847F2E700DEF0E770BDEE
:1002E000842B0020982C00202C2F0020F0B5C6462F
:1002F00000B504000D001600002904D1FFF7A4FF8B
:10030000002800D10335002D01D026000C362768C7
:100310002379012B58D0002B19D0022B00D15BE0A0
:10032000042B00D16CE0414B9C4203D30533FF33D7
:100330009C4206D978463E4B1B68002B00D172E0E8
:100340009847201FFFF7ACFF04BC9046F0BD002D7E
:1003500007D0BB69002BE6D02A003100380098474F
:10036000E1E7A36898461B88002B05D17846304BFF
:100370001B68002B1AD0984743461B889B004344B8
:100380009A0A9202934213D042465188FE22D20129
:1003900091420DD0BB605A88264B9A42D9D07846FC
:1003A000234B1B68002B0DD09847D2E700DEE3E714
:1003B00043469B0A9B028022D200944663441A78EB
:1003C0009B18E7E700DEC4E7FB69002BABD0E189AF
:1003D0002A0038009847A6E73B78012B05D07846DD
:1003E000134B1B68002B09D09847627B237B013B92
:1003F0009A4200D097E702233B7094E700DEF4E7CF
:10040000002D05D078460A4B1B68002B09D0984771
:1004100000233B703B6A002B00D184E738009847EB
:1004200081E700DEF4E700DE8BE7C046902B00207A
:100430002C2F0020FF7F000000B583B00023019324
:1004400082B201A9054802F0DBFD002803D1019B1F
:10045000181D03B000BD0020FBE7C046842B002020
:1004600070B5040000254EE01020FFF7E5FF061EE2
:1004700000D172E00223037106330372043B43721E
:100480000C33C37283724573237C037301235B4275
:10049000C3810460324B984203D30533FF33984243
:1004A00005D978462F4B1B68002B06D09847311F83
:1004B0000A882D4802F0ECFD24E000DEF7E7002377
:1004C00000E00023002B05D17846264B1B68002B4B
:1004D00037D09847E3689B195B799D4205D07846F1
:1004E000204B1B68002B2ED09847E3689C4666443F
:1004F00033792269934205D078461A4B1B68002B4A
:1005000023D09847013523699D4220D2AE02E3688B
:1005100098190430FF218900FFF7ACFC0028A3D113
:10052000E3689A191378083BDBB2F62BC9D85379E4
:10053000FF2B04D01379FF2BC1D00123C2E7002386
:10054000C0E700DEC6E700DECFE700DEDAE7074BF4
:100550001868FFF715FB002070BD0420FCE7C046BB
:10056000902B00202C2F0020842B0020A02C00207A
:1005700070B50500C3681C78E41800200EE000DEAA
:1005800023889B00E3189A0A9202934223D0618841
:10059000FE22D20191421ED020001C00EA6813798D
:1005A00051795B1A11498C4663449B028021C90032
:1005B0008C466344D3189C4216D262880C4B9A42F4
:1005C00012D02388002BDBD178460A4B1B68002B06
:1005D000D5D09847D4E7A30A9B028022D200944644
:1005E00063441A789B18D7E770BDC046FFFF3F00F1
:1005F000FFFF00002C2F002070B50400FFF7B8FFAC
:10060000A060002823D04288164B9A4226D00820AA
:10061000FFF712FF051E23D0032303710460124B62
:10062000984203D30533FF33984205D978460F4BE0
:100630001B68002B10D09847291F0A880C4802F02D
:1006400027FD0C4B1868FFF79BFA002007E0E268D3
:1006500013789B18A36002E000DEEDE7002070BD78
:100660000420FCE7FF7F0000902B00202C2F0020AF
:10067000842B0020A02C0020F8B506794379F61AC7
:10068000224B9C466644B6028023DB009C466644AF
:10069000861905782D1800270CE000DE1FE0AC0A53
:1006A000A4028023DB009C4664442378E41822E003
:1006B00000DE25006B88164A934225D0154A9342E6
:1006C00022D0002B02D12B889B00FF182B88002BF7
:1006D00005D17846104B1B68002BDED098472C883C
:1006E000A4002C19A30A9B029C42D8D06A88FE233E
:1006F000DB019A42D3D0A642DBD87846064B1B6872
:10070000002BD5D09847D4E73800F8BDFFFF3F0055
:10071000FFFF0000FF7F00002C2F002070B584B089
:1007200005000068FFF724FF041E2CD06388002B0F
:1007300032D12E682388002B05D17846434B1B68A5
:10074000002B41D0984723889B00E3189A0A920215
:1007500093423BD06188FE22D201914236D0B360F1
:100760002B689868D9680A794B79D21A384B9C461D
:10077000624492028023DB00D318CB1898422ED318
:10078000002004B070BD7846304B1B68002B01D0B0
:100790009847CBE700DEC9E701236A46137001944E
:1007A0002C4B0393042302932B4A6946012001F04A
:1007B00065FA0028BDD07846244B1B68002B01D079
:1007C0009847B6E700DEB4E700DEBCE7A30A9B0269
:1007D0008022D200944663441A789B18BFE723888E
:1007E000002B05D17846194B1B68002B21D0984768
:1007F00023889B00E3189A0A920293421BD06188D7
:10080000FE22D201914216D0012269460A7001935C
:10081000124B0393042302930F4A012001F02EFA96
:100820000028ADD07846094B1B68002B0BD09847A9
:10083000A6E700DEDCE7A40AA4028023DB00E318BD
:100840001C781B19E0E700DE9AE7C0462C2F002039
:10085000FFFF3F0050E50200A62C002058E50200F3
:1008600010B584B0040002A80923037023794370F3
:1008700000238370436001F057F8002812D01D4B0D
:100880001B689B060ED51C4B1B68012B0AD91B4B02
:100890001B4AD35801901B4A00921B4A1B49022055
:1008A00001F08EF82379042B18D89B00184AD358EE
:1008B0009F462000FFF760FB04B010BD2000FFF74B
:1008C00019FCF9E72000FFF75BFCF5E72000FFF7D4
:1008D00025FFF1E72000FFF795FCEDE778460D4B8B
:1008E0001B68002B02D098470020E5E700DE0020BF
:1008F000E2E7C04604230020002300200405000096
:1009000000B00040C0E502008E020000AFE502002A
:100910003CE502002C2F002010B582B0294B1B783B
:10092000022B4DD1284B1B78012B30D0002B12D03D
:10093000022B45D0032BF1D1244B1B68002B36D062
:10094000224B1868224B19788268FFF7CFFC0022EF
:100950001D4B1A70E2E70023019301A91D4802F024
:100960000BFC00282CD1019C201D184B1860012283
:10097000154B1A70FFF7E4FA0028CFD00323114A71
:10098000137062681370606800F01AFFC6E70F4BBF
:100990001868FFF765FF0E4B1870002803D102227C
:1009A000094B1A70BAE70322074B1A70B6E778466C
:1009B000094B1B68002B01D09847C1E700DEBFE759
:1009C00002B010BDA42C0020942C0020A82C0020E4
:1009D000AC2C0020842B00202C2F002010B5074BBE
:1009E0001B88934200D010BD054B1B78022BFAD117
:1009F0000322034B1A70FFF78FFFF4E7A62C0020A9
:100A0000942C002010B5822252001049104802F0A8
:100A100077FA1049012001F019F90F48FFF784F81F
:100A20000E4B186000230E4A13700E4A13800E48B6
:100A300005F0F2FD00F09CFE002803D102220B4BD2
:100A40001A7010BD0322094B1A70FAE7902B002090
:100A5000842B0020DD09020019090200A02C0020CF
:100A6000942C0020A62C0020982C0020A42C0020E0
:100A7000F8B507000C00150000283CD03B78022B8D
:100A800000D0A3E0002D3FD0F9680B785B189D42A1
:100A900000D29DE00A794B79D21A514B9C466244B0
:100AA00092028023DB00D318CB189D4200D991E03D
:100AB0002B88002B05D178464A4B1B68002B27D08A
:100AC00098472B889B00EE18B30A9B029E4221D0C8
