:020000021000EC
:10B0000000800020FDB00100C1B00100E11002008D
:10B010000000000000000000000000000000000030
:10B02000000000000000000000000000C5B00100AA
:10B030000000000000000000C7B00100C9B001001E
:10B04000CBB00100CDB00100CDD30100D1B00100E3
:10B05000D3B0010000000000250F0200D7B00100AE
:10B06000D9B00100DBB00100DDB00100DFB00100AC
:10B07000E1B00100E3B00100E5B00100E7B001007C
:10B08000E9B00100EBB0010039220200EFB001008D
:10B09000F1B00100F3B001002D110200F7B0010082
:10B0A000F9B00100FBB0010000000000000000004A
:10B0B0000000000000000000000000000000000090
:10B0C000FEE7FEE7FEE7FEE7FEE7FEE7FEE7FEE758
:10B0D000FEE7FEE7FEE7FEE7FEE7FEE7FEE7FEE748
:10B0E000FEE7FEE7FEE7FEE7FEE7FEE7FEE7FEE738
:10B0F000FEE7FEE7FEE7FEE7FEE7FEE7032107487F
:10B1000002680A430260064802680A430260054872
:10B11000854612F0C5FE07E0704700002405004098
:10B120005405004000800020354936480A1A02D0F4
:10B13000072291438D46344934480A1A06D0072223
:10B14000914381F30988022282F3148830483149FF
:10B15000314A00F043F831483149324A00F03EF8B4
:10B1600031483249324A00F039F832483249334ADC
:10B1700000F034F832483349334A00F02FF83348AE
:10B180003349344A00F02AF833483449344A00F04D
:10B1900025F834483449002200F02BF8334834496C
:10B1A000002200F026F833483349091A082903DB46
:10B1B00000220260043001601F482049884205D007
:10B1C0000268043003B4904703BCF7E700208646CA
:10B1D000EC4600200021294A9047FEE7884207D02C
:10B1E000521A05D0037801300B700131013AF9D1C0
:10B1F0007047884202D002700130FAE770470000C1
:10B2000000800020007C00200080002000800020C2
:10B21000681F0300D8220020A823002080B201006C
:10B2200080B20100C8000300681F0300D82200207C
:10B23000D8220020C8000300C8000300C800030093
:10B24000C8000300C8000300C8000300C8000300D2
:10B25000C8000300681F030038200300A823002053
:10B26000A8230020A8230020AC550020AC550020C6
:10B27000AC550020AC550020AC59002081B2010033
:10B2800010B58AB0734A0421734809F013F8734B60
:10B290001B685B040DD5724B1B68032B09D9714BDE
:10B2A000714AD358714A009243227149042009F02F
:10B2B0001FF8A023DB0501214942A322D2009950A7
:10B2C000F0214904674A9950002319E0A020C005E5
:10B2D000644944588022920362404250654A116892
:10B2E000654A6648C046C046C046C046C046C046DD
:10B2F000C046C046814200D0C046013AF2D1013377
:10B30000092BE3DD5E4B1868099005F08FFF534B66
:10B310001B685B040DD5524B1B68032B09D9514B9D
:10B32000514AD358574A009256225149042008F0F6
:10B33000DFFF0C22002106A814F0B4FE099B06933F
:10B34000514B079306A809F029FF00286ED1434B03
:10B350001B685B040DD5424B1B68032B09D9414B7D
:10B36000414AD358494A00925D224149042008F0DD
:10B37000BFFF09F06DFF00285DD103F05DFA04F016
:10B3800081FD364B1B685B040DD5354B1B68032BC9
:10B3900009D9344B344AD3583D4A00926422344987
:10B3A000042008F0A5FF0C22002103A814F07AFE67
:10B3B00004230393033B049303A9C8200AF01EF956
:10B3C000264B1B685B040DD5254B1B68032B09D945
:10B3D000244B254AD3582F4A00926822244904203E
:10B3E00008F086FF002000F05DF8002828D100F06A
:10B3F00076F8002829D1194B1B685B040DD5184B32
:10B400001B68032B09D9174B174AD358224A0092BD
:10B410006C221749042008F06BFF802189031F4B21
:10B42000A022D205D15009F079FFFCE71C4A5B212C
:10B4300005F004FE8BE71A4A5E2105F0FFFD9CE74C
:10B44000174A692105F0FAFDD1E7154A6A2105F08E
:10B45000F5FDD0E78942020007E00000302300201C
:10B460002C2300200405000000B000402C01030044
:10B47000250103009C230020A08601000024F40085
:10B48000C80003006801030091100200840103005A
:10B490009C010300BC010300DC0103000C0500005B
:10B4A000CC00030070B5050000F07AFB002802D044
:10B4B0000824200070BD01F089FD041EF9D100F0C0
:10B4C000F7F9041EF5D100F03BFF01F0C9FA02F0D4
:10B4D00025F9002DEDD0280001F082FFE9E710B535
:10B4E00000F018FA10BD000010B50E4B1B78002BB1
:10B4F00000D010BD0C490D480AF052FB0028F8D1CD
:10B50000094B1B6818790123064A1370084A002466
:10B510008E2149005450936006495050064A1380CA
:10B52000E7E7C04624240020A02400209024002027
:10B53000002000401C050000A823002010B5024B8D
:10B54000186806F049FF10BDAC23002010B51E4B53
:10B550001B78002B05D178461C4B1B68002B16D09E
:10B5600098471B4B1B68002B13D0194B1968194BBC
:10B570001B880A790132934214D007DAC918097975
:10B580000133144A1380144B144AD15010BD00DE0D
:10B59000E7E70122114BDA6000220B4B1A70FFF72C
:10B5A000CDFFF3E701330B4A13800D480AF05CFB33
:10B5B0000023074A13600121084AD160024A137030
:10B5C000FFF7BCFFE2E7C0462424002088380020B3
:10B5D000A0240020A82300201C050000002000401B
:10B5E0009024002010B56822134914480AF09CF9F1
:10B5F0006822134913480AF097F91349134801F0D8
:10B6000045FE002805D07846114B1B68002B10D052
:10B610009847012001F0DEFE00230E4A13700E4A07
:10B6200013800E4A13800E4806F0AAFE0D4B1860D8
:10B6300010BD00DEEDE7C046282400209024002045
:10B64000B0230020182400204DB50100B9B7010037
:10B65000883800202424002026240020A82300204D
:10B66000E9B40100AC23002030B583B004000D0024
:10B67000421C92B201A905480AF0D6F9002803D16C
:10B68000019B1A1D2A601C7103B030BD902400205C
:10B6900070B505000C0002E004220B4B1A6021007B
:10B6A0002800FFF7E1FF04280CD104218023064A7B
:10B6B000D15001F055FE054B1B78002BECD1FFF764
:10B6C00013FFE9E770BDC04600E100E0242400203C
:10B6D00070B5051E1FD02C1FA378012B05D078460E
:10B6E000134B1B68002B1FD098472A7823889A4257
:10B6F00005D978460E4B1B68002B17D0984706F0EB
:10B70000F7FDFFF71BFF228821000A480AF0D4F951
:10B7100006F012FE70BD7846054B1B68002B01D069
:10B720009847D8E700DED6E700DEDEE700DEE6E792
:10B73000883800209024002030B583B004000D002C
:10B7400001A90320FFF790FF002801D003B030BD0E
:10B750008423019A5370019B9D70019BDC700198BA
:10B76000FFF7B6FFF2E7000070B504000388002B76
:10B7700012D00F4A11680A79013293420DD04978EC
:10B780008420FFF7D9FF0A4D29680A480AF06CFAAD
:10B7900000232B600023238070BD0A8805480AF02F
:10B7A0008BF90022024B1A6000F094F9F2E7C046D0
:10B7B0009C2400201824002070B50400294B1B880D
:10B7C000002B12D02849274A13880868844663440E
:10B7D0001C71138801339BB213800A68002A03D0BE
:10B7E00012790132934238D070BD421C1F4B1D8824
:10B7F000002D00D11500012D04D91D480AF076F85E
:10B8000085421AD900218420FFF796FF0023002BE0
:10B8100010D0164A1288002A0CD00021134A118039
:10B82000114A11680F4A1088013D09180D711188DD
:10B8300001311180002BC5D1D6E72A000A490C48F6
:10B840000AF0F2F8002801D10123E0E7074B1D8040
:10B85000002001F0BFFD0023D9E70248FFF784FF75
:10B86000C2E7C046A42400209C24002026240020F7
:10B870001824002010B582B0040001A90B480AF07A
:10B880008FF9002802D0002002B010BD019B191DC5
:10B890001A88200014F0FAFB019904480AF0E4F930
:10B8A000012001F097FD0120EEE7C046182400209A
:10B8B00010B5064B1B78002B01D0082010BDFFF7F8
:10B8C00091FE0122014B1A700020F7E7A724002007
:10B8D00010B5044B1B78022B01D0082010BDFFF7D8
:10B8E000D7FEFBE7A724002010B50400074B1B7808
:10B8F000022B05D07846064B1B68002B04D09847D6
:10B900002000FFF7E5FE10BD00DEF9E7A7240020C8
:10B910008838002010B584B02A4B1B78012B17D033
:10B92000294B1B681B0403D40824200004B010BD5D
:10B93000264B1B68012B42D9254B264AD358264A51
:10B940000092A6222549022008F0D2FC0824ECE748
:10B9500002221C4B1A7003A90420FFF7B9FF041E32
:10B9600017D0194B1B681B0403D5184B1B68002B01
:10B9700003D10122134B1A70D7E7154B154AD35840
:10B980000190174A0092B0221449012008F0B0FC3F
:10B99000EFE78123039A53707F3B039A93708023D0
:10B9A000DB008022D205D25808231340039AD370BB
:10B9B0006323039A13711000FFF796FFB5E708247D
:10B9C000B3E7C046A7240020302300202C2300200A
:10B9D0000405000000B00040B8020300AD020300FF
:10B9E000CC02030010B59CB00022314B1A7018E055
:10B9F0000133082B12D8DA002E49515C03AA527881
:10BA00009142F5D8D8002B49091849788A42EFD8D5
:10BA1000284A13185B6803A8984700E00024002C0C
:10BA200006D003A8FFF726FF041E3ED00023E0E760
:10BA3000214B1B681B0410D5204B1B68012B0CD914
:10BA40001F4B204AD35803AA527801921E4A0092F3
:10BA500081221E49022008F04BFC02A90320FFF7B7
:10BA600037FF002813D0144B1B681B04D9D5134B88
:10BA70001B68002BD5D0124B124AD3580190144AA0
:10BA8000009287221149012008F032FCC9E7842383
:10BA9000029A537003AB5B78029A93708223029AE6
:10BAA000D3700298FFF720FFBBE71CB010BDC04663
:10BAB000A6240020F8010300302300202C230020BE
:10BAC0000405000000B0004040020300AD02030086
:10BAD000CC02030010B50B4B1B78002B03D10A4B93
:10BAE0001B78022B00D010BD0122064B1A700021DA
:10BAF000064806F0C5FB0028F5D00022014B1A705D
:10BB0000F1E7C046A6240020A7240020E5B90100E3
:10BB1000092832D00BD90E2835D01AD80B282ED0B0
:10BB20000FD30C282DD00D2835D193200AE00428FE
:10BB30001BD008D906281CD019D307281BD00828E9
:10BB400029D18320704702280DD80028F9D1002080
:10BB5000F8E710281BD018D311281AD00F4B9842A1
:10BB600019D18E20EEE78120ECE78E20EAE78E20C7
:10BB7000E8E78E20E6E78520E4E78420E2E78720F7
:10BB8000E0E78420DEE78120DCE78E20DAE787200B
:10BB9000D8E78620D6E78020D4E7C04601300000F1
:10BBA000014B18787047C046A7240020F0B583B039
:10BBB00007000E0014001D00002A01D0002B07D141
:10BBC000002C0BD07846154B1B68002B09D09847EA
:10BBD000134B1B78022B06D003B0F0BD002DF7D01D
:10BBE000F0E700DEF4E7E81C80B201A9FFF770FE81
:10BBF0000028F1D18423019A5370019B9F70019B0F
:10BC0000DE70002C05D0019B181D2A00210014F0C5
:10BC10003DFA0198FFF768FEDEE7C046883800204D
:10BC2000A724002010B5040003F060FD6078002315
:10BC300000220021FFF7BAFF10BD10B598B0040034
:10BC40005C236A4613808378C07800021843911CF5
:10BC500004F0F2FC00280BD0092809D06478FFF723
:10BC600057FF0100002300222000FFF79FFF08E09C
:10BC70006478FFF74DFF01005E236A462000FFF75E
:10BC800095FF18B010BD10B582B004008278C0785E
:10BC9000000210432179627912020A43A179090452
:10BCA0000A43E1790906114301AA04F091FC01005D
:10BCB0006078022301AA00F0B9F902B010BD10B5F6
:10BCC00082B004008378C0780002184301A904F010
:10BCD00057FC01006078042301AA00F0A7F902B024
:10BCE00010BD10B582B004008378C07800021843FC
:10BCF00001A904F031FC01006078012301AA00F0E1
:10BD000095F902B010BD10B582B004008378C078F8
:10BD10000002184301A904F00BFC01006078012324
:10BD200001AA00F083F902B010BD10B582B0040082
:10BD30008378C0780002184301A904F0E7FB0100F2
:10BD40006078022301AA00F071F902B010BD10B5AD
:10BD500004008278C07800021043227961790902D8
:10BD6000114304F0B5FB6478FFF7D2FE0100002315
:10BD700000222000FFF71AFF10BD10B582B00400AA
:10BD80008378C0780002184301A904F07FFB01000A
:10BD90006078012301AA00F049F902B010BD10B586
:10BDA00004008278C07800021043217904F03EFB41
:10BDB0006478FFF7ADFE0100002300222000FFF7AA
:10BDC000F5FE10BD10B582B004008378C078000283
:10BDD000184301A904F008FB01006078022301AABE
:10BDE00000F024F902B010BD10B504008278C078CC
:10BDF00000021043227961790902114304F0C8FA64
:10BE00006478FFF785FE0100002300222000FFF781
:10BE1000CDFE10BD10B598B004002E236A461380E5
:10BE20008378C07800021843911C04F071FA00284E
:10BE30000BD0092809D06478FFF76AFE01000023BF
:10BE400000222000FFF7B2FE08E06478FFF760FEF2
:10BE500001005E236A462000FFF7A8FE18B010BD5F
:10BE600010B504008278C07800021043227961790D
:10BE70000902114304F010FA6478FFF749FE01004B
:10BE8000002300222000FFF791FE10BD10B5040032
:10BE90008278C07800021043227961790902114347
:10BEA00004F0BEF96478FFF733FE0100002300229E
:10BEB0002000FFF77BFE10BD10B598B004005C2396
:10BEC0006A4613808378C07800021843911C04F0FE
:10BED00055F900280BD0092809D06478FFF718FE1F
:10BEE0000100002300222000FFF760FE08E06478D4
:10BEF000FFF70EFE01005E236A462000FFF756FEA4
:10BF000018B010BD10B504008278C078000210434C
:10BF1000227961790902114304F0EAF86478FFF7A5
:10BF2000F7FD0100002300222000FFF73FFE10BDB7
:10BF300010B504008278C07800021043227961793C
:10BF40000902114304F08EF86478FFF7E1FD010067
:10BF5000002300222000FFF729FE10BD10B582B09B
:10BF600004008378C078000218436B465A1D01A96B
:10BF700004F048F801006078022301AA00F056F8A6
:10BF800002B010BD10B504008378C07800021843D9
:10BF90002179627903F0E0FF6478FFF7B9FD0100D1
:10BFA000002300222000FFF701FE10BD10B582B073
:10BFB00004008378C0780002184301A903F0AAFFA7
:10BFC00001006078022301AA00F030F802B010BD31
:10BFD00010B504008378C078000218432379617992
:10BFE0000902194303F06AFF6478FFF791FD01002D
:10BFF000002300222000FFF7D9FD10BD10B504007A
:10C000004378F52B05D97846064B1B68002B06D0E4
:10C01000984716220449200000F022F810BD00DEE7
:10C02000F7E7C046883800200403030070B5040019
:10C0300015001E00002909D00800FFF769FD010066
:10C04000002300222000FFF7B1FD70BD0800FFF7BC
:10C050005FFD010033002A002000FFF7A7FDF4E791
:10C0600070B5002494421AD24578E300CB181E78AC
:10C07000B54201D00134F5E701785A780132914296
:10C0800003DB9C781219914206DD002300228421F3
:10C090002800FFF78BFD08E05B68984705E04078D3
:10C0A000002300228221FFF781FD70BD10B540788A
:10C0B000002300228221FFF779FD10BD00B583B077
:10C0C00001AA042313804078023B0021FFF76EFD94
:10C0D00003B000BD10B582B004008378002B1DD1E1
:10C0E0006A461370E4225A43104B9B185A7B6946E8
:10C0F0008A705B686A46CB70190A1171190C51710C
:10C100001B0E937109F0DEFF6B46587060780723B1
:10C110006A460021FFF74AFD02B010BD40780023B7
:10C1200000228521FFF742FDF6E7C046A824002043
:10C1300010B504008278002A0AD007206478FFF73F
:10C14000E7FC0100002300222000FFF72FFD10BDB7
:10C15000E4235A430F4B9A18101D6379A179090201
:10C160001943E3791B041943237A1B060B435360DD
:10C170006379A17909021943E3791B041943237AEE
:10C180001B060B430A3393602379537305F02CFC91
:10C190000020D3E7A824002010B5040080780028F0
:10C1A0001FD1E4234343104A9B5C012B0AD0082093
:10C1B0006478FFF7ADFC0100002300222000FFF7A8
:10C1C000F5FC10BDE3334343D018043005F0C5FB44
:10C1D0000028EDD1A278E42353430021024A995468
:10C1E000E6E70720E4E7C046A824002070B582B047
:10C1F00004008378002B0CD0072564782800FFF713
:10C2000087FC0100002300222000FFF7CFFC02B0D2
:10C2100070BD01788E1E073101A809F0F1FD051EE1
:10C22000EBD1019D28000930E11C320013F02EFFF4
:10C23000F6B206366E70A378E42043430948C0186E
:10C240000430FF22019905F043FB051E06D1A278B8
:10C25000E42353430121034A9954CEE7019809F09E
:10C2600079FECAE7A824002010B50400012007F0D9
:10C27000BBFF6078002300228E21FFF797FC10BDE2
:10C2800010B50400044807F0C5FF607800230022C1
:10C290000021FFF78BFC10BD9DC2010030B583B0BB
:10C2A00004008078043001A9FFF712FB002805D0B4
:10C2B0007846114B1B68002B1BD098478323019AAB
:10C2C0005370A3780433019A13702378019A937002
:10C2D0006378019AD370019DA3782B71681D616802
:10C2E000A27813F0D3FE2800FFF7FEFA002003B077
:10C2F00030BD00DEE2E7C0468838002010B582B0CD
:10C300000400007801A9FFF7E3FA002805D0784679
:10C310000A4B1B68002B0FD098478223019A537059
:10C32000019B981CA11C1A78013A13F0AFFE0198EA
:10C33000FFF7DAFA02B010BD00DEEEE78838002021
:10C3400010B50024002C00D010BDE4226243084B3D
:10C350009B1802221A731C329A60181D0A3A5A60FE
:10C360000D3A5A7300221A6105F0F8F90134E9E731
:10C37000A824002010B5040043781F2B05D9784667
:10C38000064B1B68002B06D0984709220449200061
:10C39000FFF766FE10BD00DEF7E7C04688380020D4
:10C3A000B4030300F8B504000378022B00D180E049
:10C3B0001AD90E2B00D19CE00F2B00D06FE0594909
:10C3C0000120FFF785FA002806D07846564B1B68F7
:10C3D000002B00D1A3E09847524BD62219684A702F
:10C3E0001868FFF781FA5AE0002B58D107894E2FC1
:10C3F00000D94E273800143080B24A49FFF768FA56
:10C40000002805D07846484B1B68002B19D0984768
:10C41000444B1D682389EB741B0A2B75237D012B6C
:10C4200011D0D1236B7020001430291D02F058FC6C
:10C4300000280ED078463C4B1B68002B30D0984724
:10C4400007E000DEE4E7CF336B70E38A2B711B0A51
:10C450006B71E389AB701B0AEB70206A02F084FCFD
:10C46000A871000AE871E06902F074FC2872000A01
:10C4700068722423E35CAB722523E35CEB72280033
:10C480000C3006222100263113F000FE2C23E35647
:10C49000AB74002F06D1234B1868FFF725FAF8BDBF
:10C4A00000DED6E72800153061683A0013F0EEFD93
:10C4B000F1E71C490520FFF70BFA002805D0784664
:10C4C000194B1B68002B12D09847164AD3231168CA
:10C4D0004B701068A368811C8370180A4870180C90
:10C4E00088701B0ECB701068FFF7FEF9D7E700DEEF
:10C4F000EBE70C490120FFF7EBF9002805D078465F
:10C50000094B1B68002B08D09847064BD5221968A9
:10C510004A701868FFF7E8F9C1E700DEF5E700DECA
:10C520005AE7C046942500208838002010B5040042
:10C5300003F0A0FC02F098F908F0E0FA607800231C
:10C5400000220021FFF732FB10BD10B588B00400B7
:10C550008379C0790002184301A902F0C3FA011ED1
:10C5600006D0607800230022FFF760FD08B010BD00
:10C57000684602F0FDF9227963791B0213436A468B
:10C58000128893422FD3694649885218934201DB9F
:10C590001021E6E7A378E0780002184306A902F02C
:10C5A000FBFD011EDDD1227963791B02134301AA31
:10C5B0001381237A9372637A591E8B41D372237845
:10C5C000092B0BD923000A33D3602378093B13824C
:10C5D000002101A808F078FE0100C2E701AB0022AB
:10C5E00004921A82F4E71021BBE700B583B001AAD8
:10C5F000082313804078063B0021FFF717FD03B0A6
:10C6000000BD00B583B001AA1023138040780E3B13
:10C610000021FFF70BFD03B000BD30B583B005006E
:10C6200001AC200002F0A4F923886A4613806388D5
:10C630005380687804230021FFF7F8FC03B030BD75
:10C6400000B583B001AA032313804078013B002189
:10C65000FFF7ECFC03B000BD00B583B001AA0823CE
:10C6600013804078063B0021FFF7E0FC03B000BDDB
:10C6700000B583B001AA042313804078023B002157
:10C68000FFF7D4FC03B000BD10B59AB004002F230F
:10C69000019301A902A802F0E3FA0100019B5B00EB
:10C6A0009BB2607802AAFFF7C1FC1AB010BD70B54A
:10C6B00088B004008378C0780002184306A902F00D
:10C6C00011FA050016220021684613F0EBFC002D3C
:10C6D00008D000239BB260786A462900FFF7A6FCC9
:10C6E00008B070BDA378E078000218436B4618804C
:10C6F00006AE33786A46937002F0AAF96B46D8709A
:10C7000073886A4693807168002906D010226B46B0
:10C71000981D13F0BBFC1623DCE70623DAE710B5FF
:10C7200082B004008378C0780002184302F040F918
:10C730000100A278E3781B02134301AA13806078FA
:10C740000223FFF773FC02B010BD30B583B00400C4
:10C7500002306B469D1D290002F025F9010001AA57
:10C760002B88138060780223FFF760FC03B030BD94
:10C7700030B583B004008378C078000218436B465C
:10C780009D1D290002F00AF9010001AA2B881380DF
:10C7900060780223FFF74AFC03B030BD10B582B0C9
:10C7A00004008378C0780002184302F0E9F9010020
:10C7B000A278E3781B02134301AA13806078022356
:10C7C000FFF734FC02B010BD30B583B00400023076
:10C7D0006B469D1D290002F036F9010001AA2B8845
:10C7E000138060780223FFF721FC03B030BD30B521
:10C7F00083B004008378C078000218436B469D1D07
:10C80000290002F01BF9010001AA2B88138060782F
:10C810000223FFF70BFC03B030BD10B582B004005B
:10C820008278C3781B02134301A8038022796379BD
:10C830001B021343438002F059F801006078002383
:10C840000022FFF7F3FB02B010BD10B582B0040068
:10C850008378C0780002184302F05AFB0100A278E6
:10C86000E3781B02134301AA138060780223FFF7C9
:10C87000DDFB02B010BD10B582B004008378C07833
:10C88000000218432379617909021943A21D01AB03
:10C8900002F0F4FA01006078022301AAFFF7C6FB58
:10C8A00002B010BD10B59AB004002E230193837816
:10C8B000C0780002184302AB188001AA0A2169441B
:10C8C00002F048FC0100019B002B08D001335B0003
:10C8D0009BB2607802AAFFF7A9FB1AB010BD60787E
:10C8E0000022FFF7A3FBF8E710B582B004008378BD
:10C8F000C0780002184302F0A5FB0100A278E3789B
:10C900001B02134301AA138060780223FFF78EFBFA
:10C9100002B010BD10B582B004008378C078000268
:10C920001843211D02F064FB0100A278E3781B028A
:10C93000134301AA138060780223FFF777FB02B04C
:10C9400010BD30B583B004008378C078000218436E
:10C950002379617909021943A21D6B469D1C2B00A6
:10C9600002F0FEFA010001AA2B88138060780223EE
:10C97000FFF75CFB03B030BD10B59AB004002F2365
:10C98000019301A902A802F067FA0100019B002BA4
:10C9900007D05B009BB2607802AAFFF747FB1AB092
:10C9A00010BD60780022FFF741FBF8E710B582B0B8
:10C9B00004008378C0780002184302F061FB010094
:10C9C000A278E3781B02134301AA13806078022344
:10C9D000FFF72CFB02B010BD10B582B004008378C5
:10C9E000C07800021843211D02F010FA0100A2785D
:10C9F000E3781B02134301AA138060780223FFF738
:10CA000015FB02B010BD30B583B004008378C07848
:10CA100000021843211D6B469D1C2A0002F0AEF94E
:10CA2000010001AA2B88138060780223FFF7FEFA29
:10CA300003B030BD10B5447808F032FC010000238B
:10CA400000222000FFF7F2FA10BD10B5447808F07C
:10CA5000FFFB0100002300222000FFF7E7FA10BDD2
:10CA600010B50348034B036008F02BFD10BDC04612
:10CA70008C250020A5C3010070B5040043787033F5
:10CA8000DBB21F2B05D978461D4B1B68002B26D027
:10CA900098476078AC2824D80500903DEA00194BEF
:10CAA000D35C984205D07846154B1B68002B1ED0EE
:10CAB00098472078EA00134B9B185B780133984223
:10CAC00006DB11000F4A521892789B18984210DD2D
:10CAD0006078002300228421FFF768F870BD00DE33
:10CAE000D7E7002300228221FFF760F8F6E700DE97
:10CAF000DFE7ED00034B5D196B6820009847EDE719
:10CB000088380020FC03030070B505000024002CC9
:10CB100001D0002070BD63001B199A000B4B9B18BD
:10CB20005B68002B0FD0094989180422280013F0F4
:10CB300089FA002801D00134E9E763001C19A30039
:10CB40000248C018E6E70020E4E7C0469825002028
:10CB500070B59AB00400851C8378C0780002184331
:10CB600019A903F00DFD00280ED119A8FFF7CCFF7D
:10CB700000281FD001AE00233370836831002800E5
:10CB800098473378002B0AD16478FEF7C1FF010083
:10CB9000002300222000FFF709F81AB070BD647866
:10CBA000FEF7B6FF010001AA137801332000FEF75B
:10CBB000FDFFF2E70520E7E770B582B00400851CB1
:10CBC0002800FFF7A1FF002201AB1A80002810D037
:10CBD00043686A46961C3100280098470100328855
:10CBE00001AB1A806078022301AAFFF71FFA02B096
:10CBF00070BD0521F6E7000030B599B005005E2252
:10CC00000021684613F04EFA0024002C0DD00024B9
:10CC10006B461B889B009BB202339BB268786A46C6
:10CC20002100FFF703FA19B030BD63001B199A0009
:10CC30000C4B9B185B68002BEAD06B4618881628B3
:10CC40000ED880006844023006498918042213F087
:10CC50001DFA6B461B8801336A4613800134D4E702
:10CC60000C24D5E79825002010B504004378FF2B4D
:10CC700005D0032206492000FFF7F2F910BD7846DF
:10CC8000044B1B68002B01D09847F2E700DEF0E769
:10CC9000E4040300883800200023012B0ADCB021C3
:10CCA00089005943044A5218824201D00133F4E703
:10CCB000D8B200E0FF207047CC25002070B582B0CC
:10CCC00004000378033BDAB20A2A48D89300AD4A3D
:10CCD000D3589F46AC4B1B78002B40D001A91A209B
:10CCE000FEF7F6FD002805D07846A84B1B68002B00
:10CCF0001CD09847C023019A5370019DAE1C211D82
:10CD00001022300013F0C2F91C23E356AB74E37E0B
:10CD1000EB74237D2B752800153021001531062278
:10CD200013F0B4F90198FEF7DFFD18E000DEE1E74B
:10CD300001A90220FEF7CCFD002805D07846934BD0
:10CD40001B68002B0DD09847C123019A5370019D99
:10CD50006068FFF7A1FFA8700198FEF7C5FD02B05B
:10CD600070BD00DEF0E701A90320FEF7B1FD002849
:10CD700005D07846854B1B68002B0ED09847C22300
:10CD8000019A5370019D6068FFF786FFA870237AAF
:10CD9000EB700198FEF7A8FDE1E700DEEFE701A9DF
:10CDA0000B20FEF795FD002805D07846774B1B68D1
:10CDB000002B20D09847C323019A5370019D6068CF
:10CDC000FFF76AFFA870237AEB70E37A2B71237B5D
:10CDD0006B71637BAB71E389EB711B0A2B72237C54
:10CDE0006B7223691B021B0CAB721B0AEB7201985E
:10CDF000FEF77AFDB3E700DEDDE701A92C20FEF7A0
:10CE000067FD002805D07846604B1B68002B30D0AA
:10CE10009847C523019A5370019D6068FFF73CFF56
:10CE2000A8702369EB70180A2871180C68711B0E22
:10CE3000AB71E38A6B721B0AAB72A38AEB711B0A9C
:10CE40002B72237EDB07DB0FEB72237E9B07DB0F4E
:10CE50002B7328000D301022E16813F017F9280019
:10CE60001D30A168102213F011F90198FEF73CFD66
:10CE700075E700DECDE701A90520FEF729FD0028B2
:10CE800005D07846414B1B68002B12D09847C6232B
:10CE9000019A5370019D6068FFF7FEFEA8700122A1
:10CEA000EA7000222A7110326A710198FEF71CFDA7
:10CEB00055E700DEEBE701A96220FEF709FD002837
:10CEC00005D07846314B1B68002B17D09847C723F5
:10CED000019A5370019D6068FFF7DEFEA870E81CA0
:10CEE0004022A16813F0D2F828004330E1682022E4
:10CEF00013F0CCF80198FEF7F7FC30E700DEE6E728
:10CF000001A91320FEF7E4FC002805D078461F4B4A
:10CF10001B68002B13D09847C823019A5370019DBA
:10CF20006068FFF7B9FEA870237AEB70281DE168EE
:10CF3000627A13F0ABF80198FEF7D6FC0FE700DE3B
:10CF4000EAE701A90520FEF7C3FC002805D07846D2
:10CF50000E4B1B68002B12D09847C623019A5370C2
:10CF6000019D6068FFF798FEA8700322EA70227A9C
:10CF70002A71627A6A710198FEF7B6FCEFE600DE6C
:10CF8000EBE7C046FC040300982B00208838002003
:10CF900001A90320FEF79CFC002805D078460A4B27
:10CFA0001B68002B0ED09847C923019A5370019D2E
:10CFB0006068FFF771FEA870237AEB700198FEF7A6
:10CFC00093FCCCE600DEEFE78838002010B582B095
:10CFD000104B1B681B0403D50F4B1B68032B08D891
:10CFE0000E490F480DF0C6FB041E0DD0200002B004
:10CFF00010BD0C4B0C4AD3580C4A0092D4220C4959
:10D00000042007F075F9EBE70A480B4B036008F0C2
:10D0100058FAEBE7302300202C230020AC25002019
:10D02000582B00200405000000B00040BC050300A0
:10D03000A5050300A4250020BDCC010030B589B0B2
:10D04000040040780300613BDAB2092A32D8930029
:10D05000884AD3589F46884B1B78002B05D0002365
:10D0600000228321FEF7A2FD24E00122824B1A70E8
:10D07000002300220021FEF799FD1BE07E4B1B7868
:10D08000002B04D100228321FEF790FD12E0002244
:10D09000794B1A7000230021FEF788FD0AE0A3787F
:10D0A000012B09D90B21A37801AA13700123632056
:10D0B000FEF7BCFF09B030BD01AD192200212800E8
:10D0C00012F0F0FF102221001331280012F0DEFFD1
:10D0D00002222100233105A812F0D8FF04222100EA
:10D0E00025311620684412F0D1FF02222100293197
:10D0F0001A20684412F0CAFF2B23E15C0122114080
:10D100002B7E012083432B30205C024052000B43D6
:10D1100002218B4313432B76A378B0208000434336
:10D120005648C018564B574A57490DF009FB011E87
:10D13000B9D1A378B020800043435048C018E11C07
:10D14000002301AA0DF030FB0100ACE74C4B4D4A27
:10D150004D494A480DF0F4FA002809D06478FEF7EA
:10D16000D7FC0100002300222000FEF71FFDA1E7ED
:10D1700000230022002141480DF000FBEEE7A078DB
:10D18000012808D90B21A37801AA13700123662076
:10D19000FEF74CFF8EE7B0239B0043433748C0188F
:10D1A000E17822790DF03CFB0100ECE7A078012842
:10D1B00008D90B21A37801AA137001236720FEF779
:10D1C00035FF77E7B0239B0043432C48C018E11C90
:10D1D0002278023AD2B20DF02FFB0100EAE7A078E4
:10D1E000012808D90B21A37801AA13700123682014
:10D1F000FEF71CFF5EE7B0239B0043431F48C018A7
:10D20000E11C0DF027FB0100EDE7A11C20221D48C9
:10D2100012F03CFF2100223140221B4812F036FF61
:10D220006078002300220021FEF7C0FC42E7A278CC
:10D23000134B1A700121597000219970E278DA704D
:10D2400022791A71227A1A72617AA27A12020A4338
:10D250005A72120A9A7262795A71A179E2791202AB
:10D260000A43DA806078002300220021FEF79EFC4A
:10D2700020E7C04628050300982B0020CC2500207D
:10D280004C2B0020AC250020582B002010B5002886
:10D290004AD000294AD0264B1860264B1960A0239B
:10D2A000DB05254A8021090199508021C900995048
:10D2B0000C2222495A5004395A50A122D20080200F
:10D2C00080009850A321C90058500138FF385850A9
:10D2D0001B4BF7381B49585002301B495850013836
:10D2E0000439585008219950012218495A501848B9
:10D2F000184958500420243958508424FD39FF39E6
:10D300005C50002184341951143419511A60124BA5
:10D31000E534FF341A5911491140C02212040A435E
:10D320001A511860002010BD0E20FCE70E20FAE70D
:10D330009C2B0020A02B00201C0500002C070000C7
:10D34000002000400C050000140500006C050000E2
:10D3500000E0D7012405000000E100E0FFFF00FF2E
:10D3600010B5164B1B78002B16D084235B00144A93
:10D37000D358002B10D0124A84235B000021D150D7
:10D38000D358104B1B68002BEBD0A322D2000C49C2
:10D390008858C0B29847E4E78E235B00084AD35808
:10D3A000002B09D08E235B000021D150D358064BAF
:10D3B0001B68002B00D0984710BDC046992B002059
:10D3C000002000409C2B0020A02B002010B5FFF770
:10D3D000C7FF10BD014B18707047C046992B002045
:10D3E000014B18607047C046A42B002010B5040004
:10D3F0000A4B1B68002B0AD002302178013998476C
:10D400006078002300220021FEF7D0FB10BD407899
:10D41000002300228E21FEF7C9FBF7E7A42B002092
:10D4200030B587B0040040780300403BDAB2142ADC
:10D4300052D89300324AD3589F46002300228221BB
:10D44000FEF7B4FB07B030BD2378012B05D00023D5
:10D4500000228421FEF7AAFBF4E7684604F0CAFB29
:10D460006B461B7802AD2B7006226B46591C0920B7
:10D47000684412F00BFE607807232A000021FEF7B3
:10D4800095FBDFE72378112B05D0002300228421B0
:10D49000FEF78CFBD6E7A01C08F018F86078002394
:10D4A00000220021FEF782FBCCE72378012B05D078
:10D4B000002300228421FEF779FBC3E708F020F85F
:10D4C0000100102202A812F0E1FD6078102302AAE8
:10D4D0000021FEF76BFBB5E74038C0B21F2805D925
:10D4E0007846084B1B68002B07D0984760780023CC
:10D4F00000228221FEF75AFBA4E700DEF6E7C046D1
:10D50000E00503008838002030B583B004000378BC
:10D51000103BDAB2062A26D893007E4AD3589F469B
:10D5200001A91620FEF7D4F9002805D078467A4BD9
:10D530001B68002B19D09847A523019A53702379B3
:10D54000019A9370019BD81C611D0A2212F09EFD66
:10D55000019D28000D3021000F310A2212F096FDA6
:10D560002800FEF7C1F903B030BD00DEE4E701A9F1
:10D570001620FEF7ADF9002805D07846664B1B68EB
:10D58000002B18D09847A623019A53702379019A4B
:10D590009370019BD81C611D0A2212F077FD019D3A
:10D5A00028000D3021000F310A2212F06FFD2800F3
:10D5B000FEF79AF9D7E700DEE5E701A90D20FEF7AF
:10D5C00087F9002805D07846534B1B68002B13D0F1
:10D5D0009847A023019A53702379019A9370019B75
:10D5E000D81C611D0A2212F051FDE37B019A53738E
:10D5F0001000FEF779F9B6E700DEEAE701A902209C
:10D60000FEF766F9002805D07846434B1B68002BCF
:10D610000AD09847A123019A53702379019A9370F5
:10D620000198FEF761F99EE700DEF3E701A90D20FE
:10D63000FEF74EF9002805D07846374B1B68002BC3
:10D6400013D09847A223019A53702379019A9370BB
:10D650006379019AD370019D281DA11D0A2212F041
:10D6600015FD2800FEF740F97DE700DEEAE701A995
:10D670000E20FEF72DF9002805D07846264B1B68B2
:10D68000002B15D09847A323019A53702379019A50
:10D6900093706379019AD370019D281DA11D0A2200
:10D6A00012F0F4FC237CAB732800FEF71DF95AE757
:10D6B00000DEE8E701A91520FEF70AF9002805D0E9
:10D6C0007846154B1B68002B22D09847A423019A5B
:10D6D00053702379019A9370019BD81C611D0A2213
:10D6E00012F0D4FC019823694373190A8173190C51
:10D6F000C1731B0E037463694374190A8174190C96
:10D70000C1741B0E0375237E4375FEF7EDF82AE7FF
:10D7100000DEDBE7340603008838002010B503483C
:10D72000034B036007F0CDFE10BDC046A82B0020C0
:10D7300009D5010030B58DB0040040780300D03B1E
:10D74000062B04D822787049CB5C9A4209D1030099
:10D750003033DAB2062A00D9C3E093006B4AD358BB
:10D760009F46002300228421FEF720FA0DB030BD31
:10D770000CF02EFD6478FEF7CBF9010000230022A7
:10D780002000FEF713FAF1E7A078E11C627BA37B8F
:10D790001B021343E27B12041343227C12061A433A
:10D7A0000CF010FF6478FEF7B3F9010000230022AB
:10D7B0002000FEF7FBF9D9E7A078E11C0CF04AFF46
:10D7C0006478FEF7A5F90100002300222000FEF78F
:10D7D000EDF9CBE70CF070FF6478FEF799F90100E2
:10D7E000002300222000FEF7E1F9BFE7A07802A99C
:10D7F0000CF07AFF00281AD102AB1B7807AD2B7012
:10D800000A2202AB591C15309C46604412F03EFCC3
:10D8100002ABDB7AEB72059B0193EB60069B2B61FD
:10D82000607814232A000021FEF7C0F99EE764788F
:10D83000FEF76EF90100002300222000FEF7B6F982
:10D8400094E72378022B05D0002300228421FEF7E1
:10D85000ADF98BE7A0780CF05FFF6478FEF758F91C
:10D860000100002300222000FEF7A0F97EE72378C4
:10D87000012B05D0002300228421FEF797F975E7DC
:10D880000A22002102AB981C12F00CFC02A80CF03A
:10D89000AFFC00281BD102AB1B7807AD2B7002AB8D
:10D8A0005B786B700A2202AB991C16309C46604470
:10D8B00012F0ECFB02AB1B7B2B7302AB5B7B6B733D
:10D8C00060780E232A000021FEF770F94EE7647895
:10D8D000FEF71EF90100002300222000FEF766F982
:10D8E00044E73030C0B20F2805D97846084B1B6892
:10D8F000002B07D098476078002300228221FEF792
:10D9000055F933E700DEF6E76C0603005006030026
:10D910008838002010B504004078782805D000230E
:10D9200000228221FEF742F910BDA01C21780139A6
:10D930000CF014FE6478FEF7EBF8010000230022DF
:10D940002000FEF733F9EFE70E4B1B68DB070AD523
:10D950000D4B1B88984210D30B4A52889B18984253
:10D960000DDB002300E00023002B04D048800122BF
:10D970000A7000224A60180070470023F4E7012370
:10D98000F2E7C046B82B0020442D002010B501233B
:10D990005B420B80002305E09A000E4C125B824232
:10D9A0000DD001330F2B13D85A0992000A4C12598B
:10D9B0001F241C40E240D207EED40B80F1E79C000C
:10D9C000044A1219D278002AEBD00B80012000E023
:10D9D000002010BDC82B0020B02B002030B583B034
:10D9E00005000C006B46991DFFF7D0FF002804D0FE
:10D9F0006580032323700023636003B030BD000003
:10DA000010B50B88072B01D8013300E00023012259
:10DA100052420A8007E09A00D21894000B4AA25A98
:10DA200082420DD00133072B0DD85A099200084CC1
:10DA300012591F241C40E240D207ECD40B80F1E7BE
:10DA40000B80012000E0002010BDC046C02E002049
:10DA5000C02B002010B501235B420B80002304E0A3
:10DA60000C880D4A944213D001330F2B12D85A0957
:10DA700092000A4C12591F241C40E240D207EFD5F5
:10DA80009A00074C125B8242EED10B80012002E02B
:10DA90000B80E9E7002010BDFFFF0000B02B002045
:10DAA000C82B002010B501235B420B80002304E04B
:10DAB0000C880F4A944215D00133022B16D85A090C
:10DAC00092000C4C12591F241C40E240D207EFD5A3
:10DAD00016225A43084C125B8242EDD108330B8068
:10DAE000012004E01A0008320A80E5E7002010BD9A
:10DAF000FFFF0000C02C0020C82C002010B501231F
:10DB00005B420B80002304E00C880E4A944214D040
:10DB10000133072B13D85A0992000B4C12591F24BA
:10DB20001C40E240D207EFD516225A43074C125B45
:10DB30008242EDD10B80012002E00B80E8E700205B
:10DB400010BDC046FFFF0000082C0020102C002054
:10DB5000F0B516680023136000E00133072B1CD8D2
:10DB60005C09A4000F4D64591F251D40EC40E407DB
:10DB7000F3D516255D430C4C641964888442ECD1BE
:10DB80001468A6420BD0640016255D43064FED5B7A
:10DB90000D53146801341460DFE70120F0BD00204C
:10DBA000FCE7C046082C0020102C002070B50D6842
:10DBB00000230B6000E00133032B15D85A099200B3
:10DBC0000B4C12591F241C40E240D207F3D50A68BF
:10DBD00095420BD052005C245C43064EA45B8452F9
:10DBE0000A6801320A60E6E7012070BD0020FCE708
:10DBF000482D0020502D002010B5041E05D00F4BDD
:10DC000012339C420AD20E4810BD78460D4B1B6859
:10DC1000002B01D09847F2E700DEF0E7074B2733EF
:10DC2000FF339C4201D90648EEE704481230201A1F
:10DC30005C2112F00FF980B2E6E7C046502D0020BB
:10DC4000FFFF00008838002010B5041E05D00F4BE0
:10DC50003C339C420AD20E4810BD78460D4B1B68DF
:10DC6000002B01D09847F2E700DEF0E7074B513375
:10DC7000FF339C4201D90648EEE704483C30201AA5
:10DC80005C2112F0E7F880B2E6E7C046502D002094
:10DC9000FFFF00008838002010B5041E0DD0174B80
:10DCA00004339C4203D3154B9E339C420ED9144B34
:10DCB00004339C4212D2134810BD7846124B1B68A5
:10DCC000002B01D09847EAE700DEE8E70B48043074
:10DCD000201A162112F0BEF880B2EDE7084B30335F
:10DCE0009C4201D90748E7E705480430201A16216D
:10DCF00012F0B0F8083080B2DEE7C046102C0020E9
:10DD0000C82C0020FFFF000088380020002811D018
:10DD10000023022B0CD816225A430749525A90422C
:10DD200001D00133F5E716204343C818043000E062
:10DD3000002070470020FCE7C82C002070B50400CC
:10DD40000D0016001068002803D0FFF7A5FF013072
:10DD500002E0002000E0013007281CD843099B00A6
:10DD60000E4A9B581F220240D340DB07F3D51622F0
:10DD700042430B4B9B185B88A342ECD116224243D3
:10DD8000074B9B185B796B409B06E4D1044B9818BA
:10DD90000430306001E00023336070BD082C0020A7
:10DDA000102C00200B4B8A00D0529B180022DA70F6
:10DDB0009A7048098000084B1B181F3211401E3A08
:10DDC0008A40196811431960044B1B1819680A43EB
:10DDD0001A607047C82B0020B02B0020B42B002005
:10DDE00010B50B0081B21888FFF7DCFF10BD0000F2
:10DDF0008000024BC35A0B807047C046C82B0020DE
:10DE000010B5041E01D0A04710BD7846034B1B6817
:10DE1000002B01D09847F6E700DEF4E788380020B1
:10DE2000F8B5CE46474680B5804689461100083B86
:10DE30001C00114F16255D437E19B01D102212F0F3
:10DE400025F900237371013333714A4672804246CB
:10DE5000EA5361098900094A52181F200440A3406F
:10DE6000106818431060064A521811680B4313607B
:10DE70000CBC90469946F8BDC82C0020C02C002050
:10DE8000C42C002010B50A1D083083B24C880888C5
:10DE90002100FFF7C5FF10BDF8B50D000B1D074FA2
:10DEA000162444433E19B11D1022180012F0EEF85A
:10DEB000E35B2B8073886B80F8BDC046C82C0020C4
:10DEC000F8B50D000B1D074F162444433E19B11D34
:10DED0001022180012F0DAF8E35B2B8073886B8055
:10DEE000F8BDC046102C002070B50D008B1C064EEE
:10DEF0005C244443311902311022180012F0C6F894
:10DF0000A35B2B8070BDC046502D002010B50C00C7
:10DF100083001B189A00044989180431102220003C
:10DF200012F0B4F810BDC046C02E002010B5042277
:10DF3000014812F0ABF810BD442D002010B50800C8
:10DF40000422024912F0A2F810BDC046442D002060
:10DF5000F0B583B005000F0001921E001621594351
:10DF6000174C6418A01D1022019912F08FF8611D42
:10DF7000019807F0C9FA002805D07846114B1B68B4
:10DF8000002B1AD098470E4916237343CA18002055
:10DF900010715D525780710989000B4840181F238A
:10DFA0001E400122B240036813430360074B5B1815
:10DFB00019680A431A6003B0F0BD00DEE3E7C0460B
:10DFC000102C002088380020082C00200C2C002069
:10DFD00010B50A1D83B24C8808882100FFF7B8FFEE
:10DFE00010BD0000F0B583B0060001911400294A6D
:10DFF0005C2161430B003033D3180433521813648F
:10E00000002802D10122244B1A705C2161430B00CD
:10E0100010332049C9180231019807F082FA00280C
:10E0200005D078461D4B1B68002B2ED098475C21ED
:10E0300061430B0040331749C9180431019807F0B8
:10E0400085FA002805D07846144B1B68002B1ED09B
:10E050009847104D5C276743E81902301022019958
:10E0600012F014F87E53610989000D4B5B181F22D2
:10E0700014401E3AA240186810431860094B5B1800
:10E0800019680A431A6003B0F0BD00DECFE700DE76
:10E09000DFE7C046502D0020402D002088380020AA
:10E0A000482D00204C2D002010B50B00023182B20B
:10E0B0001888FFF797FF10BD70B5060010390C00E7
:10E0C0008B005B189A00134DAD18281D10223100EB
:10E0D00011F0DCFF2900300007F064FA002805D0B9
:10E0E00078460D4B1B68002B11D0984760098000C3
:10E0F0000A4B1B181F210C400122A2401968114332
:10E100001960074B1B1819680A431A6070BD00DEBE
:10E11000ECE7C046C02E002088380020C02B00202D
:10E12000C42B002010B50B000100103189B218007B
:10E13000FFF7C2FF10BD0000F8B505000E0004F0A7
:10E14000D7F8052D05D978461D4B1B68002B0AD042
:10E1500098471C4B1C78002C07D1002C1ED004F0D3
:10E16000EBF82000F8BD00DEF3E76A01164B9B18C0
:10E17000598A891989B25A69144805F093F9071E1A
:10E180000AD06A01104B9B189B69011D300098470B
:10E19000380005F0D5F9E0E70024DEE76D010A4B11
:10E1A0005D19AB68720992009B181F2216401E3A37
:10E1B000B24019680A431A60054805F005FBCEE72E
:10E1C000883800200A2D0020740603000C2D002042
:10E1D000302D002010B50A2201210B4805F062F90C
:10E1E0000400631E9C41E4B200280AD0102343813E
:10E1F000083B838104228280C380053B038105F0B4
:10E200009FF9200010BDC0460C2D002070B5050000
:10E210000E0004F06DF8052D05D97846174B1B68E4
:10E22000002B0AD09847164B1C78002C07D1002CE5
:10E2300012D004F081F8200070BD00DEF3E76A011F
:10E24000104B9B18598A891989B20F4805F0ACF90F
:10E2500044424441E4B2EAE76D010A4B5D19AB6800
:10E26000720992009B181F2216401E3AB24019688C
:10E270000A431A60054805F0A7FADAE78838002053
:10E280000A2D0020740603000C2D0020302D0020E4
:10E29000F8B5DE4657464E464546E0B500239B4658
:10E2A0000133984649E05101611A01238B40013B3B
:10E2B000910049590B4210D1013223001F335B09F1
:10E2C0009A4205D2013B9A42EDD001235B42EFE72F
:10E2D0004346002B2DD100270EE00023F9E739003B
:10E2E0005846FFF793FF002822D00123524693405F
:10E2F00032689A4332600137A7421AD27B099B00E9
:10E30000EE181F223A40924632685146CA40D20760
:10E31000F1D54A465101134A52185268D358524611
:10E32000D340DB07DBD539005846FFF705FFDAE7B6
:10E3300080465E460136F3B29B465B46052B0BD802
:10E340004346002B08D0D946064B5A46520199182D
:10E350008D68D4580022B0E73CBC90469946A2464E
:10E36000AB46F8BD7406030010B50F280AD8430960
:10E370009B00324A9B581F220240D340DB0711D535
:10E38000012300E00023002B1FD082002C4B9B18A0
:10E390009B78002B4DD12A4B9B18DB78002B03D0A8
:10E3A000002024E00023EEE742099200234B9B1853
:10E3B0001F21014001228A40196891431960010020
:10E3C0000120FFF723FF002011E00200103A92B273
:10E3D000072A09D8510989001A4C09591F242240DB
:10E3E000D140CA0700D50123002B01D1052010BD63
:10E3F000010010398B005B189A00134B9B189B7817
:10E40000002B18D1104B9B18DB78002B01D000207B
:10E41000EDE74A0992000B4B9B181F200840012290
:10E4200082401868904318600220FFF7EFFE00203A
:10E43000DDE70020DBE70020D9E7C046B02B002055
:10E44000C82B0020C02B0020C02E002030B58FB07C
:10E4500005000C00012905D0022C0CD0032C13D090
:10E460000FB030BD7846134B1B68002B01D0984786
:10E47000F2E700DEF0E778460E4B1B68002B01D078
:10E480009847EBE700DEE9E73022002102A811F00F
:10E4900009FE192302AA1370173B13710495064B4A
:10E4A000DA6806921B690193079302A803F0BCFF88
:10E4B000D6E7C046883800200C2D002010B511008A
:10E4C0000020FFF7C3FF10BD10B508001100FFF7D3
:10E4D000BDFF10BD10B50022054B1A70054804F0B1
:10E4E000F3FE002800D110BD034805F06DF9FAE7EE
:10E4F0000A2D00200C2D0020D822002070B5050028
:10E500000C00160001235B420B8007F099F8307075
:10E5100002281DD0032835D0012835D0002070BD39
:10E520009A00D21891001A4A8A5A95420DD00133A6
:10E53000072B0FD85A099200164952581F2119402B
:10E54000CA40D207ECD42380F1E723800120E6E71C
:10E550000023EDE70020E2E79A000F49525A954266
:10E560000DD001330F2B11D85A0992000B49525884
:10E570001F211940CA40D207EED42380F1E723803F
:10E580000120CCE70023EDE70023EBE70020C6E7FE
:10E59000C02E0020C02B0020C82B0020B02B002054
:10E5A00070B582B006000C001500002941D06B4602
:10E5B000DA1D01A9FFF7A2FF002D13D16B46073327
:10E5C0001B78032B0ED01020002833D101AB1B8801
:10E5D0002380002D26D09B00174AD3189A78013249
:10E5E0009A7027E0012D10D0002817D101AB1988AF
:10E5F000124B994214D03000FFF7D4FB01AB1988BD
:10E600000120FFF799FD0020DEE76B4607331B78FA
:10E61000032BE9D0012BE7D01020D5E70020D3E76A
:10E620000420D1E79B00044AD318DA780132DA706B
:10E6300000E00E2002B070BDC82B0020FFFF0000DC
:10E6400070B505000E0001235B420B8000240CE036
:10E65000A3001B199A0010488018043010222900CA
:10E6600011F0F0FC002811D00134072C11D86309F7
:10E670009B000A4A9B581F222240D340DB07E7D465
:10E680003288074B9A42EFD13480EDE73480013075
:10E6900000E0002070BDC046C02E0020C02B00202E
:10E6A000FFFF0000F0B583B004000E00150001224A
:10E6B00052426B46DA80002839D0002939D06B46A7
:10E6C0009F1D3900FFF7BCFF3B881F001037BFB20A
:10E6D00000280DD1184A934201D104202AE03900C4
:10E6E0002000FFF7E9FC6B46D9880220FFF724FDE4
:10E6F0003780002D0DD06B46D888104A83001C1837
:10E70000A1000C0051188978121901319170002074
:10E7100010E06B46D888094A83001C18A1000C0041
:10E720005118C97812190131D170002002E00E2071
:10E7300000E00E2003B0F0BDFFFF0000C02E00205F
:10E7400030B583B005000C004868002805D06B4642
:10E75000991DFFF775FF002803D1012252426B4635
:10E76000DA806B46991D2800FFF74AF9002816D079
:10E770006B46DA8893009B189A000B4B9B18DB784A
:10E78000002B0ED06580022323706B4606331B8856
:10E790009A00D2189100044B5B180433636003B0F5
:10E7A00030BD0020FBE7C046C02E002010B506F0AB
:10E7B0005DFA024B9C46604410BDC04600FCFFFF62
:10E7C00010B586B0164B0393164B0493164B059366
:10E7D00000230293FFF7EAFF00900123019303F067
:10E7E00087FD6946114804F0A7FF002809D10F4BA7
:10E7F0001B78012B01D0012404E0FFF7EBFC04009F
:10E8000000E0002403F098FD002C04D00122084B06
:10E810001A7006B010BD074804F0D6FFF9E7C046ED
:10E82000C9E40100BDE4010061E801000C2D0020F5
:10E830000A2D0020E822002010B5054B054A9A60F9
:10E84000054ADA600022054B1A70FFF7B9FF10BDC8
:10E85000302D002001DE010091E201000A2D002090
:10E8600010B5FFF7ADFF10BD70B5002511E01A4BD4
:10E870006A019E18D4581F346409A40022000021A4
:10E88000706811F00FFCB0682200002111F00AFC42
:10E890000135052DEBD9002206E091000F4B5B18E6
:10E8A0000021D970997001320F2AF6D9002308E0AF
:10E8B0009900C91888000A4A12180021D170917075
:10E8C0000133072BF4D9074B00221A805A80064BDC
:10E8D0001A70FFF7FFFD70BD74060300C82B0020FF
:10E8E000C02E0020442D0020402D002010B5041E15
:10E8F00005D01C4B1B68DB070AD50F2010BD7846DE
:10E90000194B1B68002B01D09847F2E700DEF0E7B7
:10E9100020886388C318013B984201DD0B20EDE796
:10E9200006F08EFE012801D00B20E7E720886388DF
:10E93000C01880B2013880B206F082FE012801D0F2
:10E940000B20DBE704222100084811F09FFB054A59
:10E95000012311680B43136000210800FFF7ECFB53
:10E960000020CBE7B82B002088380020442D002061
:10E9700010B5041E05D004220649200011F086FBC4
:10E9800010BD7846044B1B68002B01D09847F2E776
:10E9900000DEF0E7442D00208838002010B5012269
:10E9A000FFF7FEFD10BD10B50122FFF77BFE10BD85
:10E9B00070B50F280AD843099B001C4A9B581F2298
:10E9C0000240D340DB0717D5012200E00022002AD5
:10E9D00014D10300103B9BB2072B09D859098900B9
:10E9E000134C09591F242340D940CB0700D50122DD
:10E9F000002A0CD1052070BD0022E8E782000D4BF3
:10EA00009B189A78013A9A70FFF7AEFCF3E704007E
:10EA1000103C094AA3001D19A9000D00511889785E
:10EA2000521901399170FFF79FFCE4E7B02B0020E9
:10EA3000C02B0020C82B0020C02E002010B50022C3
:10EA4000FFF7AEFD10BD10B50022FFF72BFE10BD85
:10EA500010B502000F280AD843099B001D495B58D6
:10EA60001F210140CB40DB0717D5012100E0002129
:10EA7000002916D11300103B9BB2072B09D8580967
:10EA80008000154C00591F242340D840C30700D5EF
:10EA90000131002903D0012304E00021E8E700232D
:10EAA00000E00123181E08D00F2A07D892000B4857
:10EAB0008218D078431E9841C0B210BD103A1000A1
:10EAC000920012189100064B5B18D878431E9841AB
:10EAD000C0B2F2E7B02B0020C02B0020C82B0020D2
:10EAE000C02E002070B50C1E3FD00F280AD8430955
:10EAF0009B001F4A9B581F220240D340DB0717D5BB
:10EB0000012200E00022002A14D10300103B9BB236
:10EB1000072B09D859098900164D49591F252B4043
:10EB2000D940CB0700D50122002A0FD1052070BDA6
:10EB30000022E8E7104B8000C25A6280C05A06F0FB
:10EB40007FFD2070002363600020F0E710380B4B3E
:10EB500082001518A9000D00C95A61805B190433A1
:10EB60006360022323700020E1E70E20DFE7C04648
:10EB7000B02B0020C02B0020C82B0020C02E00206E
:10EB800010B582B004000F280AD843099B00304A10
:10EB90009B581F220240D340DB0717D5012200E01B
:10EBA0000022002A16D12300103B9BB2072B09D864
:10EBB00059098900274809581F200340D940CB072D
:10EBC00000D50132002A03D0012304E00022E8E747
:10EBD000002300E00123002B02D1052002B010BD6C
:10EBE00069462000FFF77EFF00282FD16B461B7877
:10EBF000032B03D0022B12D00F20EFE7A200164BFD
:10EC00009B18DB78002B01D10520E7E71100124AA1
:10EC10005218013BD3702000FFF7A6FBDEE722006D
:10EC2000103A93009B1899000C4B5B18DB78002B73
:10EC300001D10520D2E791008A189100074A5218A5
:10EC4000013BD3702000FFF78FFBC7E70020C5E72B
:10EC5000B02B0020C02B0020C82B0020C02E00208D
:10EC600030B5002832D0002932D00F23002500E033
:10EC7000013B002B0FDB5A099200174C12591F243D
:10EC80001C40E240D207F3D50A68954222D06A00C0
:10EC900083520135ECE7072305E06A001C001034BD
:10ECA00084520135013B002B0DDB5A0992000B4CBD
:10ECB00012591F241C40E240D207F3D50A6895423E
:10ECC000EBD1092001E00D60002030BD0E20FCE7F3
:10ECD0000E20FAE70920F8E7B02B0020C02B002017
:10ECE00030B583B004000D0000282CD000292CD0B2
:10ECF000408806F0A5FC02280DD0032803D0012887
:10ED000001D0102022E060882900FEF7A3FE002831
:10ED10001ED105301AE0012252426B46DA8060684B
:10ED200000280CD06B46991DFFF78AFC002808D0FC
:10ED30006B4606331B8810332B80002006E00E2024
:10ED400004E0052002E00E2000E00E2003B030BDFC
:10ED50000020FBE710B5002802D0FEF74DFF10BDE4
:10ED60000048FCE7FFFF000010B5002802D0FEF7C6
:10ED700093FF10BD0048FCE7FFFF000070B51400D2
:10ED8000002937D0002A37D01C4B984201D90720E0
:10ED900070BD1B4E002303E0194A964214D0013384
:10EDA000032B13D85A099200164D52591F251D40A6
:10EDB000EA40D207F0D55C225A43134D525B904291
:10EDC000EDD19EB2012302E09EB2E8E70023002BC2
:10EDD00001D00F20DCE70A4B9E4201D10420D7E787
:10EDE0003200FFF7FFF831000320FFF7A5F9268076
:10EDF0000020CDE70E20CBE70E20C9E7FF0F000073
:10EE0000FFFF0000482D0020502D002010B5040009
:10EE100000291BD0032801D9052010BD43099B0000
:10EE20000B4A9B581F220240D340DB0701D4052028
:10EE3000F3E75C234343074A985A2200FFF7D2F8CE
:10EE400021000320FFF778F90020E6E70E20E4E731
:10EE5000482D0020502D002010B5002807D0002993
:10EE600007D0FEF7A3FE002805D1093002E00E20EE
:10EE700000E00E2010BD0020FCE70000F0B583B0DC
:10EE800006000F0014001D00002A37D0002B37D0D9
:10EE900006F0D6FB012801D0102032E0032F01D963
:10EEA00005202EE07B099B00174A9B581F223A4001
:10EEB000D340DB0701D4052023E06B46991D3000C9
:10EEC000FEF7F0FD002801D00F201AE06B46063354
:10EED0001B880E4A934201D1042012E0220039001F
:10EEE0003000FEF79DFF6B469C1DD9880839052030
:10EEF000FFF722F923882B80002002E00E2000E09B
:10EF00000E2003B0F0BDC046482D0020FFFF0000DA
:10EF100070B50100083989B2022901D9052070BDF8
:10EF20004A0992000C4B9B181F220A401868D040D7
:10EF3000C00701D40520F2E7162048430025074CFE
:10EF40000553012090401A6882431A600520FFF79C
:10EF50005DF90020E3E7C046C02C0020C82C00204B
:10EF6000F0B583B007000D0014001E00002A35D054
:10EF7000002B35D0032902D9052003B0F0BD4B0981
:10EF80009B00184A9B581F220A40D340DB0701D43C
:10EF90000520F2E7144B984201D90720EDE76B46B4
:10EFA000991DFEF7ABFD002801D00F20E5E76B4669
:10EFB00006331B880D4A934201D10420DDE722006D
:10EFC00029003800FEF7C4FF6B469C1DD988042039
:10EFD000FFF7B2F8238833800020CEE70E20CCE77D
:10EFE0000E20CAE7482D0020FF0F0000FFFF0000A1
:10EFF00070B5040000291FD0072801D9052070BD75
:10F0000043099B000D4A9B581F220240D340DB0757
:10F0100001D40520F3E70A4A16234343D018458854
:10F02000985A23000A002900FEF792FF21000420CD
:10F03000FFF782F80020E2E70E20E0E7082C00202E
:10F04000102C002010B5072801D9052010BD420959
:10F0500092000A4B9B1819681F2202400C00D440F2
:10F06000E40701D40520F1E701249440A14319608D
:10F0700001000420FFF7CAF80020E7E7082C002071
:10F08000F8B50500032801D90520F8BD4609B600EA
:10F090002B4B9E191F2707403368FB40DB0701D429
:10F0A0000520F2E7002401E000DE0134072C1BD824
:10F0B00063099B00234A9B581F222240D340DB0751
:10F0C000F3D516226243204B9B185B889D42ECD1FE
:10F0D000A0B2FFF7B7FF0028E7D078461B4B1B68AC
:10F0E000002BE1D09847E0E7002401E000DE013486
:10F0F000022C1AD816236343154A9B5A002BF6D0CC
:10F1000016226243124B9B185B889D42EFD1200070
:10F11000083080B2FFF7FCFE0028E8D078460B4BA1
:10F120001B68002BE2D09847E1E70123BB4032681F
:10F130009A43326029000320FFF768F80020A4E713
:10F14000482D0020082C0020102C0020883800209A
:10F15000C82C002010B5002916D0002A16D003288C
:10F1600001D9052010BD43099B000A4C1B591F24DF
:10F170000440E340DB0701D40520F3E7FEF7E8FC99
:10F18000002805D10930EDE70E20EBE70E20E9E776
:10F190000020E7E7482D002070B504000D000A2884
:10F1A00001D9052070BD002900D182E007283FD891
:10F1B00043099B00404A9B581F220240D340DB0773
:10F1C00001D40520EEE7162242433C4B9B185B8896
:10F1D000032B05D978463A4B1B68002B24D098475F
:10F1E00016226243354B9B1859884B099B00354AC0
:10F1F0009B581F220A40D340DB0705D47846304B8A
:10F200001B68002B12D09847162363432B4CE4183D
:10F21000231D6B6062885C235A4310322A4B9B1873
:10F2200002332B600020BDE700DED9E700DEEBE70C
:10F23000083C63099B00254A9B581F222240D3406B
:10F24000DB0701D40520ADE716226243204B9B1853
:10F250005B88032B05D97846194B1B68002B24D0FB
:10F260009847162262431A4B9B1859884B099B00FA
:10F27000144A9B581F220A40D340DB0705D4784626
:10F280000F4B1B68002B12D0984716236343104C7A
:10F29000E41862885C235A4310320B4B9B180233EC
:10F2A0002B6004346C6000207CE700DED9E700DED0
:10F2B000EBE70E2076E7C046082C0020102C00203B
:10F2C00088380020482D0020502D0020C02C002020
:10F2D000C82C002070B504000D1E06D02868002838
:10F2E0000CD0FEF789FC01300BE07846134B1B680D
:10F2F000002B01D09847F1E700DEEFE7002000E0A7
:10F300000130032817D843099B000D4A9B581F2240
:10F310000240D340DB07F3D55C224243094B9B18E4
:10F320009B7C63405B06EBD1130010330548C0188B
:10F330000230286001E000232B6070BD8838002077
:10F34000482D0020502D002070B504000E00151E21
:10F350000CD0002C13D02000FEF74EFC0E4B984230
:10F3600016D02A003100FEF7E9FC70BD78460B4B41
:10F370001B68002B01D09847EBE700DEE9E77846F1
:10F38000064B1B68002B01D09847E4E700DEE2E75C
:10F3900000232B60E9E7C046FFFF0000883800200B
:10F3A00070B505000C1E04D02800FEF7AFFC2060ED
:10F3B00070BD7846034B1B68002B01D09847F3E7DC
:10F3C00000DEF1E78838002070B505000E1E06D07B
:10F3D000306800280CD0FEF737FC441C19E0784652
:10F3E000204B1B68002B01D09847F1E700DEEFE7C8
:10F3F00000240EE0012100E001211B4B5C2044436E
:10F400001A193C32117038341B190433336028E068
:10F410000134032C23D863099B00144A9B581F22F4
:10F420002240D340DB07F3D5002D0CD05C21614393
:10F430000B0050330C49C91804310822280010F081
:10F4400001FE0028E4D10A4B1B78002BD4D05C23AA
:10F450006343054A9B5A002BCCD00021CDE7002303
:10F46000336070BD88380020502D0020482D0020CA
:10F47000402D002070B504000D0006F0E1F80228D0
:10F480000FD0032808D0012801D0002003E0290074
:10F490002000FEF759FA70BD29002000FEF79EFA01
:10F4A000F9E729002000FFF74BF9F4E782B00023C9
:10F4B000009302783F33110099430B00402912D08A
:10F4C000C9B240290DD9D9B280291AD0C02910D18A
:10F4D0006B461A8042781202837813436A4653803F
:10F4E00007E0002B05D16B461A8001235B426A4678
:10F4F0005380009B1A0C12041804000C104302B035
:10F500007047120243781A436B461A8001235B420C
:10F510006A465380EDE7000082B00190000C0C4B6E
:10F52000984207D001AB1B880B70030A4B708870A0
:10F5300002B0704701AB1B88FF22180090430028DF
:10F5400003DD1A0A0A704B70F2E70B70F0E7C04651
:10F55000FFFF000082B00190030C144A934209D0CF
:10F5600001AB18883F239843C03843425841C0B28A
:10F5700002B0704701AB1888FF2302009A43002AAB
:10F5800008DD800B80030A4B9C466044434258418F
:10F59000C0B2EDE77F2302009A4305D17F2801D056
:10F5A0000120E5E70020E3E70020E1E7FFFF00009E
:10F5B0000080FFFF30B583B00191002100E00131F0
:10F5C000038D994210D2CB00446AA44663441D883F
:10F5D00001AC2488A542F2D15C8801AB5B889C42D7
:10F5E000EDD11160012000E0002003B030BD00002B
:10F5F000F8B505000E0017001C1E10D032897C23C0
:10F60000FF339A4214D8002D1AD134226A43224B78
:10F610009B1830331B78DB0726D4002311E0784693
:10F620001E4B1B68002B01D09847E7E700DEE5E79B
:10F63000733BFF3B2360206843425841C0B2F8BD92
:10F640000023002B12D034226A43134B9B189B8952
:10F65000002B0BD1002F0CD03068FFF77BFF002868
:10F6600017D000232360E6E70123EAE705232360A0
:10F67000E1E734226A43084B9B189A88084B9A4268
:10F6800007D034236B43044DED18EA88044B9A42AB
:10F69000E2D107232360CEE7982F0020883800208E
:10F6A000FFFF000010B57846034B1B68002B01D00C
:10F6B000984710BD00DEFCE78838002010B5804771
:10F6C00010BD000010B50122054B1A70054803F06B
:10F6D000FBFD002800D110BD034804F075F8FAE7DF
:10F6E000942F0020702F002008230020F8B502F08E
:10F6F000FFFD584B1B78002B19D1574B1B78002B63
:10F7000001D0002514E006220121544803F0CAFE6E
:10F7100000280AD00123C3800381838003F010FFF7
:10F720004D4B01221A70002502E0112500E008254A
:10F73000002416E06200D218920049498A185168E4
:10F74000C9439A00821851600133002BF2D003F0B4
:10F75000F7FE434AE1008B5C022083438B54013463
:10F76000A4B2002C3DD1002D16D1E3003C4A9A5C96
:10F7700003231340032BF2D1C0218901214304222A
:10F78000364803F08FFE002801D02B00DDE711255D
:10F79000E5E711250134A4B2002C50D1002D25D16C
:10F7A00063001B195A002F4B9B185B799B07F1D5FF
:10F7B0008021490121430222284803F073FE0028DA
:10F7C000E7D0284F660032195300DB5B838003F0DB
:10F7D000B7FE32195300FB185A7902218A435A7135
:10F7E000D8E70024D8E711250134A4B2002C28D191
:10F7F000002D26D1342262431B4B9B1830331A78DC
:10F8000003231340032BEFD18021890121431422CC
:10F81000124803F047FE071EE5D00430342363434B
:10F82000114EF6181422310010F030FC380003F0AD
:10F8300087FE30363378022293433370D4E70024B6
:10F84000D4E7002D02D102F077FDF8BD074803F0A0
:10F85000BBFFF8E7942F0020952F0020702F002089
:10F86000CC2F0020602F0020982F0020182300208C
:10F8700010B5342200210F4810F014FC062200219C
:10F880000D4810F00FFC082200210C4810F00AFC73
:10F890000023002B00D010BD34215943054A5218D3
:10F8A00001214942D18091800120D0819181013391
:10F8B0009BB2EEE7982F0020602F0020CC2F002075
:10F8C000F0B595B0041E00D166E02068FFF7EEFDAC
:10F8D000139087B27F2F5DD0854B1B689B0404D5A6
:10F8E000844B1B68042B00D95FE0E069FFF73CFA0A
:10F8F000060005002822002109A810F0D3FB139B65
:10F900000993226808931B0C7B498B4259D003232F
:10F91000D3180A93A288139B07931B0C76498B423A
:10F9200055D00323D21A09AB1A81227A1A7362893D
:10F93000DA81E2680D92227C1A75618AD982616946
:10F940000F912021605C04315854DE84012A44D098
:10F9500005A901235B420B8020001030FFF7C0F99E
:10F96000002806D07846654B1B68002B00D17DE04F
:10F97000984705AB1888FFF76BF8002806D1784642
:10F980005E4B1B68002B00D172E098470024002CCE
:10F9900000DC6FE015B0F0BD7846584B1B68002BBB
:10F9A00001D0984791E700DE8FE7554B554AD35871
:10F9B0000197554A0092EF225449052004F098FC23
:10F9C00093E7FF2F01D90223A2E70123A0E7FF2F2E
:10F9D00001D90223A6E70123A4E705AE3000FEF714
:10F9E000C7FF638A32889342D4D305A94988511846
:10F9F0008B42CFDA9B1A9CB20026002ECADC342040
:10FA00007043434B1818030030331B78DB0704D5D1
:10FA10003422724383899C4201D00136EDE7130002
:10FA200008333B4AD3186A099200D3581F222A4050
:10FA3000D340DB07F1D506AA1399FFF7BBFD0028D9
:10FA4000EBD0B0B234237343314FFF18FA6A09A9DF
:10FA5000039001F0FBF9069BDB007A6A944663444D
:10FA60005B68FA6A09A903989847D6E700DE80E741
:10FA700000DE8BE734206043254B18180300303339
:10FA80001B78DB071DD5C289002A1AD134236343B2
:10FA900008331F49CB1869098900CB581F21294019
:10FAA000CB40DB070DD5D2001A4B9A18043205ABB8
:10FAB00019884B099B009B581F220A40D340DB0743
:10FAC00001D4013463E706AA1399FFF773FD0028F8
:10FAD000F7D0342262430E4B9B18069AD200596A23
:10FAE0008C4662445668DA6AA0B209A9B047E8E7D2
:10FAF000302300202C230020FFFF00008838002046
:10FB00000405000000B000409407030089070300CB
:10FB1000982F0020CC2F002010B50378002B00D0A8
:10FB200010BD0430FFF7CCFEFAE7000000B587B047
:10FB3000104B0393104B0493104B05930423029333
:10FB4000FEF734FE0E4B9C46604400900123019367
:10FB50000C4A137069460C4803F0EEFD002804D1EE
:10FB60000022084B1A7007B000BD084803F02CFEB5
:10FB7000F9E7C0461DFC0100A5F6010091FB01005C
:10FB800000FCFFFF942F0020702F0020F82200209F
:10FB900010B50023002B01D000230EE0DA001C4931
:10FBA000525CD10704D5D9000220024318480A54F8
:10FBB00001339BB2EEE701339BB2002B0DD15A000B
:10FBC000D2185100134A8A5A002AF4D01148411819
:10FBD0004A79022002434A71EDE7002301E0013334
:10FBE0009BB2002B10D1342159430B4A52183032AA
:10FBF0001278D107F3D5342058430749091830311A
:10FC0000022002430A70EAE7FFF790FF10BDC046EA
:10FC1000CC2F0020602F0020982F002070B58EB0D0
:10FC200005000E001400012A05D0022C0CD0032C74
:10FC300013D00EB070BD7846124B1B68002B01D05C
:10FC40009847F2E700DEF0E778460E4B1B68002B82
:10FC500001D09847EBE700DEE9E73022002102A857
:10FC600010F020FA192302AA1370173B137104969F
:10FC7000EB6806932B6901930793100002F0D4FB05
:10FC8000D7E7C04688380020F0B591B002AF040035
:10FC90000E007A602C2308218C46BC44634431005A
:10FCA000FFF7A6FC002831D033893268FA60120CC5
:10FCB00066498A422CD003229B180733DB08DB00FD
:10FCC0006A46D31A9D4602AD29003068FFF724FC2E
:10FCD0003368BB601B0C5D4A934220D00320281878
:10FCE0003289716810F0D2F90C230822BA18D018A2
:10FCF000FEF73EFEF98A34226243554B9B189B89DE
:10FD0000994213D81020BD460FB0F0BD786BFAE7CA
:10FD1000BA89FF2A01D90222CEE70122CCE73B892A
:10FD2000FF2B01D90220DAE70120D8E77A68002A00
:10FD300045D0137B3B76D3897B83D08C2423082248
:10FD4000BA18D118FFF728FA002805D07846414B99
:10FD50001B68002B31D09847342262433C4B9B18E0
:10FD60001B7CFF2B56D02222BA181370BB8A342278
:10FD70006243374CA418A2899B183B847D62328968
:10FD800033683B611B0C31498B4249D00323D318A4
:10FD90003B85002110230822BA18D01805F094FAE8
:10FDA0007863002807D12C4B1B689B0403D52B4B91
:10FDB0001B68042B3BD8786BA5E700DECCE7342228
:10FDC0006243234B9B18D88810230822BA18D118F5
:10FDD000FEF788FE002805D078461E4B1B68002BD6
:10FDE00014D0984734226243194B9B1898882423D7
:10FDF0000822BA18D118FFF7CFF90028ACD07846FE
:10FE0000144B1B68002B03D09847A5E700DEE9E7F9
:10FE100000DEA1E7124B1B782222BA181370A5E767
:10FE20003B8AFF2B01D90223B1E70123AFE70D4B3A
:10FE30000D4AD358328801920C4A0092C7225200D0
:10FE40000B49053004F054FAB5E7C046FFFF000047
:10FE5000982F002088380020302300202C230020F9
:10FE6000282300200405000000B00040A80703007C
:10FE70008907030010B5FFF7FBFC01F039F8FFF725
:10FE800021FC10BD10B5FFF7F3FC0548054B0360DE
:10FE900005F017FB01F01EF8FFF748FE10BDC04645
:10FEA000682F002019FB010010B5002903D00022A3
:10FEB000FFF7EAFE10BD0E20FCE70000002809D184
:10FEC00034224243124B9B1830331B78DB0706D495
:10FED000002300E00023002B03D1052070470123FD
:10FEE000F9E7172901D90720F8E734224243084BE4
:10FEF0009B18DB88994209D005488018C1803030B2
:10FF000003780222134303700020E7E70020E5E7AF
:10FF1000982F002000291AD0002809D1342242430A
:10FF20000C4B9B1830331B78DB0706D4002300E012
:10FF30000023002B03D1052070470123F9E7342368
:10FF400043430448C018C3880B800020F4E70E2008
:10FF5000F2E7C046982F0020F8B5002801D0052010
:10FF6000F8BD34244443264B1B1930331B78DB0780
:10FF700001D40520F4E734244443214B1B199B6929
:10FF8000002B3AD03F2A01D90720E9E7032901D9FC
:10FF90000720E5E734244443194B1B195B7C9B087D
:10FFA00093421FD0164E342358433518243B9C46A9
:10FFB000AC44940063465B7803273B4023430F40E7
:10FFC000DBB20324A3433B43644663701030301814
:10FFD000043000F04DFD30352B78022213432B7096
:10FFE0000020BDE734244443054B1B195B7C9B0771
:10FFF0009B0F8B42D6D10020B2E70620B0E7C04667
:020000022000DC
:10000000982F002010B5002924D0002A24D00028E1
:1000100009D134244443124B1B1930331B78DB07BE
:1000200006D4002300E00023002B03D1052010BDDF
:100030000123F9E734244443094B1B199B69002B26
:100040000CD0230010330648C018043000F054FDD3
:100050000020ECE70E20EAE70E20E8E70620E6E7BE
:10006000982F002010B5002809D1342242431E4B9E
:100070009B1830331B78DB0706D4002300E00023F5
:10008000002B03D1052010BD0123F9E734224243A0
:10009000154B9B18DB89012B22D0172901D907208A
:1000A000F1E7DB00114AD31804334A0992009B1888
:1000B0001C681F2211402200CA40D20712D401221C
:1000C0008A4014431C60342343430748C018C38943
:1000D0000649DB005A5C022002435A540020D2E752
:1000E0000620D0E70020CEE7982F0020CC2F00205C
:1000F00010B5002809D1342242431E4B9B183033DF
:100100001B78DB0706D4002300E00023002B03D17B
:10011000052010BD0123F9E734224243154B9B18FB
:10012000DB89012B22D0172901D90720F1E7DB0059
:10013000114AD31804334A0992009B181C681F22E5
:1001400011402200CA40D20712D501228A409443AE
:100150001C60342343430748C018C3890649DB00A9
:100160005A5C022002435A540020D2E70620D0E70E
:100170000020CEE7982F0020CC2F002070B500295A
:1001800041D0002A41D0002809D134244443224BD5
:100190001B1930331B78DB0706D4002300E0002353
:1001A000002B03D1052070BD0123F9E7050034239E
:1001B00043431948C018C389012B28D0168800234F
:1001C000138000E00133172B1BD834246C431248F2
:1001D0000019C0890028F5D1C000104C2018043047
:1001E0005C09A40020581F241C40E040C007E9D54A
:1001F000108886420DD940000B52108801301080C3
:10020000E0E70020CFE70E20CDE70E20CBE7062069
:10021000C9E70920C7E7C046982F0020CC2F00204F
:1002200010B5002809D1342242431A4B9B183033B1
:100230001B78DB0706D4002300E00023002B03D14A
:10024000052010BD0123F9E70A2901D90720F8E7A5
:100250003423434308331A000E4B9B184A0992007B
:100260009B181C681F2211402200CA40D2070ED4DE
:1002700001228A4014431C60342343430548C018BC
:10028000303003780222134303700020D9E70020A6
:10029000D7E7C046982F002010B5002809D1342296
:1002A00042431A4B9B1830331B78DB0706D40023DC
:1002B00000E00023002B03D1052010BD0123F9E746
:1002C0000A2901D90720F8E73423434308331A00E9
:1002D0000E4B9B184A0992009B181C681F22114064
:1002E0002200CA40D2070ED501228A4094431C60E6
:1002F000342343430548C0183030037802221343A7
:1003000003700020D9E70020D7E7C046982F0020CF
:1003100070B5002934D0002A34D0002809D1342403
:1003200044431A4B1B1930331B78DB0706D40023D8
:1003300000E00023002B03D1052070BD0123F9E765
:10034000168800231380002400E00134072C15D800
:100350003423434308330D4DEB186509AD00EB58CA
:100360001F252540EB40DB07EFD513889E420BD9B4
:100370005B00CC52138801331380E6E70020DCE7F2
:100380000E20DAE70E20D8E70920D6E7982F0020C4
:10039000002809D134224243124B9B1830331B787A
:1003A000DB0706D4002300E00023002B03D1052047
:1003B00070470123F9E70A2901D90720F8E7342219
:1003C0004243084B9B189B88994209D005488018E6
:1003D0008180303003780222134303700020E7E766
:1003E0000020E5E7982F002000291AD0002809D125
:1003F000342242430C4B9B1830331B78DB0706D466
:10040000002300E00023002B03D1052070470123C7
:10041000F9E7342343430448C01883880B80002045
:10042000F4E70E20F2E7C046982F0020002809D1FB
:1004300034224243144B9B1830331B78DB0706D41D
:10044000002300E00023002B03D105207047012387
:10045000F9E70B00803BDBB27E2B01D80720F5E7E4
:1004600034224243084B9B181B7C994209D0064812
:100470008018017430300378022213430370002087
:10048000E4E70020E2E7C046982F002000291AD0B8
:10049000002809D1342242430C4B9B1830331B787F
:1004A000DB0706D4002300E00023002B03D1052046
:1004B00070470123F9E7342343430448C018037C01
:1004C0000B700020F4E70E20F2E7C046982F0020C2
:1004D00030B5002801D0052030BD43001B185A005C
:1004E000094BD35A8B420CD0074A43001D186C00AD
:1004F000A152690051184B79022213434B7100201D
:10050000EAE70020E8E7C046602F002000290BD072
:10051000002801D005207047430018184300034A03
:100520009B5A0B800020F6E70E20F4E7602F002096
:1005300000290CD0002801D005207047430018186E
:100540004200044B9B189B780B700020F5E70E20AF
:10055000F3E7C046602F002000290CD0002801D00E
:1005600005207047430018184200044B9B18DB78A5
:100570000B700020F5E70E20F3E7C046602F002047
:10058000002920D0002809D1342242430F4B9B1868
:1005900030331B78DB0706D4002300E00023002B58
:1005A00003D1052070470123F9E7084B342250435B
:1005B000C25A0A70120A4A701B185B888B701B0A99
:1005C000CB700020EEE70E20ECE7C046982F00200D
:1005D00030B583B00191002A29D0002802D005202F
:1005E00003B030BD01235B4213800023002B01D0F8
:1005F0000520F5E734245C430E49091989898842AE
:1006000002D001339BB2F1E721000A4C0C5B01A937
:1006100009888C42F5D134215943064D6D186C88F8
:1006200001A949888C42ECD113800020D8E70E2024
:10063000D6E7C046982F0020F0B5002926D0002A22
:1006400026D0002801D00520F0BD17880023138094
:10065000002B01D00020F7E71688B7421AD93425BD
:100660005D430D4C641930342478E40706D53425F5
:100670005D43094C6419A489A04201D00133E7E726
:1006800076008B53148801341480F7E70E20DBE7E3
:100690000E20D9E70920D7E7982F002000291AD08B
:1006A000002809D1342242430C4B9B1830331B786D
:1006B000DB0706D4002300E00023002B03D1052034
:1006C00070470123F9E7342343430448C018C36A41
:1006D0000B600020F4E70E20F2E7C046982F0020C0
:1006E00010B5040083789B079B0F012B17D0002BBC
:1006F0000BD0022B1AD0032B1DD078461D4B1B6844
:10070000002B1DD09847002301E083789B081A4AEC
:100710001168C918A160194B1B68002015E0827888
:10072000920893009B1859000B00F0E783789B0810
:1007300064214B43EBE783789B0811494B43E6E781
:1007400000DE0023E3E71800DB68002B02D09A6884
:100750008A1AF8D5002804D0002B06D0C460E360C4
:1007600010BDE360054B1C60FAE7C4600023E36042
:10077000F6E7C04688380020EC2F0020F42F002038
:100780007017000070B5724B19688B789B079B0F30
:10079000704A1278934200DCAFE08C686E4B1B68A5
:1007A000E31A6E4C5C43012A2BD0002A0BD0022A9C
:1007B00020D0032A20D07846694B1B68002B1DD01F
:1007C0009847002100E0654920000FF043FB04003A
:1007D0005F4B1B689B789B079B0F022B1DD03AD861
:1007E000012B62D10A210FF049FB00290BD0002315
:1007F00000205CE05B49E7E75B49E5E700DE0021BC
:10080000E2E75A49E0E705F0E3FF584B9C466044B5
:100810000122504B1A70012349E04E4B1D78002DE8
:1008200004D164210FF02AFB00290AD0012D02D047
:10083000002300203BE00A2120000FF01FFB0029CD
:100840004CD105F0C5FF474B9C4660440222414B0A
:100850001A7001232BE03F4B1D78002D04D1444931
:100860000FF00CFB00290DD0012D04D0022D13D068
:10087000002300201BE09621890020000FF0FEFAE3
:100880000029F3D105F0A4FF374B9C4660440322B6
:10089000304B1A7001230AE03C2120000FF0EEFAE1
:1008A0000029EFD00023002001E000230020002BCE
:1008B00044D105F08DFF0400264B1B78012B1AD084
:1008C000002B0ED0022B0FD0032B0FD07846244BD9
:1008D0001B68002B0CD09847002003E00023002069
:1008E000E5E71E48201829E01E48FBE71E48F9E707
:1008F00000DE0020F6E71D48F4E705F069FF04007C
:10090000134B1B689B789B079B0F012B1ED0002B62
:100910000BD0022B13D0032B13D07846104B1B683F
:10092000002B10D09847002000E00C482018084BFE
:100930001B689B789B079B0F064A137070BD094884
:10094000F4E70948F2E700DE0020EFE70748EDE7AB
:10095000F42F0020F12F0020EC2F0020A0860100B2
:1009600088380020809698000046C32340420F003C
:100970007017000010B52C4B1B78002B0ED12B4BA1
:100980001B68002B48D0FFF7FDFE0100264B1B78AB
:10099000002B39D0264806F031FA10BD244B5C6894
:1009A00005F016FF241A234B1B78012B22D0002BB5
:1009B0000BD0022B17D0032B17D078461E4B1B6889
:1009C000002B14D09847002000E01C48001B194B56
:1009D0001B78002B10D11A4B98420DD9194A136875
:1009E00001331360CBE71848F0E71848EEE700DE64
:1009F0000020EBE71648E9E710490FF02BFA114BFE
:100A00001A6880181860BAE70122074B1A70084864
:100A1000416006F071F9C0E7034B1B78002BBCD096
:100A2000034806F0B3F9B8E7F02F0020F42F0020B8
:100A3000D42F0020F12F002088380020A08601004C
:100A400050C30000EC2F0020809698000046C3237E
:100A500040420F0010B50400FFF742FE034B1B6835
:100A60009C4200D010BDFFF785FFFBE7F42F00206C
:100A7000F8B504000F001500002805D001F038FC7F
:100A80001B4B1B6800220AE078461A4B1B68002BA0
:100A900001D09847F2E700DEF0E71A00DB68002B90
:100AA00001D0A342F9D103200740A1780326B14326
:100AB000AE00394308403043A070002B03D0002A19
:100AC0000AD0D968D160002D0AD1002B01D0002AAC
